{"abi":[{"type":"function","name":"balanceOf","inputs":[{"name":"","type":"address","internalType":"address"}],"outputs":[{"name":"","type":"uint256","internalType":"uint256"}],"stateMutability":"view"},{"type":"function","name":"burnFrom","inputs":[{"name":"from","type":"address","internalType":"address"},{"name":"amount","type":"uint256","internalType":"uint256"}],"outputs":[],"stateMutability":"nonpayable"},{"type":"function","name":"mint","inputs":[{"name":"to","type":"address","internalType":"address"},{"name":"amount","type":"uint256","internalType":"uint256"}],"outputs":[],"stateMutability":"nonpayable"}],"bytecode":{"object":"0x608060405234601c57600e6020565b6103fb61002b82396103fb90f35b6026565b60405190565b5f80fdfe60806040526004361015610013575b610261565b61001d5f3561004c565b806340c10f191461004757806370a0823114610042576379cc67900361000e5761022d565b6101f8565b6100f2565b60e01c90565b60405190565b5f80fd5b5f80fd5b60018060a01b031690565b61007490610060565b90565b6100808161006b565b0361008757565b5f80fd5b9050359061009882610077565b565b90565b6100a68161009a565b036100ad57565b5f80fd5b905035906100be8261009d565b565b91906040838203126100e857806100dc6100e5925f860161008b565b936020016100b1565b90565b61005c565b5f0190565b346101215761010b6101053660046100c0565b9061031e565b610113610052565b8061011d816100ed565b0390f35b610058565b9060208282031261013f5761013c915f0161008b565b90565b61005c565b90565b61015b61015661016092610060565b610144565b610060565b90565b61016c90610147565b90565b61017890610163565b90565b906101859061016f565b5f5260205260405f2090565b1c90565b90565b6101a89060086101ad9302610191565b610195565b90565b906101bb9154610198565b90565b6101d3906101ce5f915f9261017b565b6101b0565b90565b6101df9061009a565b9052565b91906101f6905f602085019401906101d6565b565b346102285761022461021361020e366004610126565b6101be565b61021b610052565b918291826101e3565b0390f35b610058565b3461025c576102466102403660046100c0565b906103c0565b61024e610052565b80610258816100ed565b0390f35b610058565b5f80fd5b5f1c90565b61027661027b91610265565b610195565b90565b610288905461026a565b90565b634e487b7160e01b5f52601160045260245ffd5b6102ae6102b49193929361009a565b9261009a565b82018092116102bf57565b61028b565b5f1b90565b906102d55f19916102c4565b9181191691161790565b6102f36102ee6102f89261009a565b610144565b61009a565b90565b90565b9061031361030e61031a926102df565b6102fb565b82546102c9565b9055565b61033e61032f61034493925f61017b565b916103398361027e565b61029f565b906102fe565b565b90565b61035d61035861036292610346565b610144565b61009a565b90565b634e487b7160e01b5f52601260045260245ffd5b61038561038b9161009a565b9161009a565b908115610396570490565b610365565b6103aa6103b09193929361009a565b9261009a565b82039182116103bb57565b61028b565b6103f36103e46103dd6103f9946103d76002610349565b90610379565b925f61017b565b916103ee8361027e565b61039b565b906102fe565b56","linkReferences":{}},"methodIdentifiers":{"balanceOf(address)":"70a08231","burnFrom(address,uint256)":"79cc6790","mint(address,uint256)":"40c10f19"},"id":99}