{"abi":[{"type":"function","name":"balanceOf","inputs":[{"name":"","type":"address","internalType":"address"}],"outputs":[{"name":"","type":"uint256","internalType":"uint256"}],"stateMutability":"view"},{"type":"function","name":"mint","inputs":[{"name":"to","type":"address","internalType":"address"},{"name":"amount","type":"uint256","internalType":"uint256"}],"outputs":[],"stateMutability":"nonpayable"}],"bytecode":{"object":"0x608060405234601c57600e6020565b61036a61002b823961036a90f35b6026565b60405190565b5f80fdfe60806040526004361015610013575b61021d565b61001d5f3561003c565b806340c10f1914610037576370a082310361000e576101e8565b6100e2565b60e01c90565b60405190565b5f80fd5b5f80fd5b60018060a01b031690565b61006490610050565b90565b6100708161005b565b0361007757565b5f80fd5b9050359061008882610067565b565b90565b6100968161008a565b0361009d57565b5f80fd5b905035906100ae8261008d565b565b91906040838203126100d857806100cc6100d5925f860161007b565b936020016100a1565b90565b61004c565b5f0190565b34610111576100fb6100f53660046100b0565b9061032f565b610103610042565b8061010d816100dd565b0390f35b610048565b9060208282031261012f5761012c915f0161007b565b90565b61004c565b90565b61014b61014661015092610050565b610134565b610050565b90565b61015c90610137565b90565b61016890610153565b90565b906101759061015f565b5f5260205260405f2090565b1c90565b90565b61019890600861019d9302610181565b610185565b90565b906101ab9154610188565b90565b6101c3906101be5f915f9261016b565b6101a0565b90565b6101cf9061008a565b9052565b91906101e6905f602085019401906101c6565b565b34610218576102146102036101fe366004610116565b6101ae565b61020b610042565b918291826101d3565b0390f35b610048565b5f80fd5b90565b61023861023361023d92610221565b610134565b61008a565b90565b634e487b7160e01b5f52601260045260245ffd5b634e487b7160e01b5f52601160045260245ffd5b61027461027a9161008a565b9161008a565b908115610285570490565b610240565b5f1c90565b61029b6102a09161028a565b610185565b90565b6102ad905461028f565b90565b6102bf6102c59193929361008a565b9261008a565b82018092116102d057565b610254565b5f1b90565b906102e65f19916102d5565b9181191691161790565b6103046102ff6103099261008a565b610134565b61008a565b90565b90565b9061032461031f61032b926102f0565b61030c565b82546102da565b9055565b61036261035361034c610368946103466002610224565b90610268565b925f61016b565b9161035d836102a3565b6102b0565b9061030f565b56","linkReferences":{}},"methodIdentifiers":{"balanceOf(address)":"70a08231","mint(address,uint256)":"40c10f19"},"id":100}