{"abi":[{"type":"constructor","inputs":[{"name":"_initialAuthority","type":"address","internalType":"address"}],"stateMutability":"nonpayable"},{"type":"function","name":"WINDOW_SECONDS","inputs":[],"outputs":[{"name":"","type":"uint256","internalType":"uint256"}],"stateMutability":"view"},{"type":"function","name":"authority","inputs":[],"outputs":[{"name":"","type":"address","internalType":"address"}],"stateMutability":"view"},{"type":"function","name":"checkAccount","inputs":[{"name":"","type":"address","internalType":"address"}],"outputs":[],"stateMutability":"pure"},{"type":"function","name":"checkDeposit","inputs":[{"name":"token","type":"address","internalType":"address"},{"name":"amount","type":"uint256","internalType":"uint256"},{"name":"","type":"address","internalType":"address"}],"outputs":[],"stateMutability":"nonpayable"},{"type":"function","name":"checkWithdraw","inputs":[{"name":"token","type":"address","internalType":"address"},{"name":"amount","type":"uint256","internalType":"uint256"},{"name":"","type":"address","internalType":"address"}],"outputs":[],"stateMutability":"nonpayable"},{"type":"function","name":"depositLimitPerToken","inputs":[{"name":"token","type":"address","internalType":"address"}],"outputs":[{"name":"limit","type":"uint256","internalType":"uint256"}],"stateMutability":"view"},{"type":"function","name":"depositWindowPerToken","inputs":[{"name":"token","type":"address","internalType":"address"}],"outputs":[{"name":"windowStart","type":"uint256","internalType":"uint256"},{"name":"used","type":"uint256","internalType":"uint256"}],"stateMutability":"view"},{"type":"function","name":"getCurrentDepositUsed","inputs":[{"name":"token","type":"address","internalType":"address"}],"outputs":[{"name":"","type":"uint256","internalType":"uint256"}],"stateMutability":"view"},{"type":"function","name":"getCurrentWithdrawUsed","inputs":[{"name":"token","type":"address","internalType":"address"}],"outputs":[{"name":"","type":"uint256","internalType":"uint256"}],"stateMutability":"view"},{"type":"function","name":"isConsumingScheduledOp","inputs":[],"outputs":[{"name":"","type":"bytes4","internalType":"bytes4"}],"stateMutability":"view"},{"type":"function","name":"setAuthority","inputs":[{"name":"newAuthority","type":"address","internalType":"address"}],"outputs":[],"stateMutability":"nonpayable"},{"type":"function","name":"setDepositLimit","inputs":[{"name":"token","type":"address","internalType":"address"},{"name":"limit","type":"uint256","internalType":"uint256"}],"outputs":[],"stateMutability":"nonpayable"},{"type":"function","name":"setLimitsBatch","inputs":[{"name":"tokens","type":"address[]","internalType":"address[]"},{"name":"depositLimits","type":"uint256[]","internalType":"uint256[]"},{"name":"withdrawLimits","type":"uint256[]","internalType":"uint256[]"}],"outputs":[],"stateMutability":"nonpayable"},{"type":"function","name":"setWithdrawLimit","inputs":[{"name":"token","type":"address","internalType":"address"},{"name":"limit","type":"uint256","internalType":"uint256"}],"outputs":[],"stateMutability":"nonpayable"},{"type":"function","name":"withdrawLimitPerToken","inputs":[{"name":"token","type":"address","internalType":"address"}],"outputs":[{"name":"limit","type":"uint256","internalType":"uint256"}],"stateMutability":"view"},{"type":"function","name":"withdrawWindowPerToken","inputs":[{"name":"token","type":"address","internalType":"address"}],"outputs":[{"name":"windowStart","type":"uint256","internalType":"uint256"},{"name":"used","type":"uint256","internalType":"uint256"}],"stateMutability":"view"},{"type":"event","name":"AuthorityUpdated","inputs":[{"name":"authority","type":"address","indexed":false,"internalType":"address"}],"anonymous":false},{"type":"event","name":"DepositLimitSet","inputs":[{"name":"token","type":"address","indexed":true,"internalType":"address"},{"name":"limit","type":"uint256","indexed":false,"internalType":"uint256"}],"anonymous":false},{"type":"event","name":"WithdrawLimitSet","inputs":[{"name":"token","type":"address","indexed":true,"internalType":"address"},{"name":"limit","type":"uint256","indexed":false,"internalType":"uint256"}],"anonymous":false},{"type":"error","name":"AccessManagedInvalidAuthority","inputs":[{"name":"authority","type":"address","internalType":"address"}]},{"type":"error","name":"AccessManagedRequiredDelay","inputs":[{"name":"caller","type":"address","internalType":"address"},{"name":"delay","type":"uint32","internalType":"uint32"}]},{"type":"error","name":"AccessManagedUnauthorized","inputs":[{"name":"caller","type":"address","internalType":"address"}]},{"type":"error","name":"DepositRateLimitExceeded","inputs":[{"name":"token","type":"address","internalType":"address"},{"name":"attempted","type":"uint256","internalType":"uint256"},{"name":"used","type":"uint256","internalType":"uint256"},{"name":"limit","type":"uint256","internalType":"uint256"}]},{"type":"error","name":"WithdrawRateLimitExceeded","inputs":[{"name":"token","type":"address","internalType":"address"},{"name":"attempted","type":"uint256","internalType":"uint256"},{"name":"used","type":"uint256","internalType":"uint256"},{"name":"limit","type":"uint256","internalType":"uint256"}]}],"bytecode":{"object":"0x60806040523461002f576100196100146100f4565b610115565b610021610034565b61171061020d823961171090f35b61003a565b60405190565b5f80fd5b601f801991011690565b634e487b7160e01b5f52604160045260245ffd5b906100669061003e565b810190811060018060401b0382111761007e57604052565b610048565b9061009661008f610034565b928361005c565b565b5f80fd5b60018060a01b031690565b6100b09061009c565b90565b6100bc816100a7565b036100c357565b5f80fd5b905051906100d4826100b3565b565b906020828203126100ef576100ec915f016100c7565b90565b610098565b61011261191d8038038061010781610083565b9283398101906100d6565b90565b61011e90610120565b565b610129906101c7565b565b5f1b90565b9061014160018060a01b039161012b565b9181191691161790565b90565b61016261015d6101679261009c565b61014b565b61009c565b90565b6101739061014e565b90565b61017f9061016a565b90565b90565b9061019a6101956101a192610176565b610182565b8254610130565b9055565b6101ae906100a7565b9052565b91906101c5905f602085019401906101a5565b565b6101d1815f610185565b6102077f2f658b440c35314f52658ea8a740e05b284cdc84dc9ae01e891f21b8933e7cad916101fe610034565b918291826101b2565b0390a156fe60806040526004361015610013575b610887565b61001d5f3561011c565b80631d5bbb0a14610117578063272d177d146101125780634646947d1461010d5780635fb035111461010857806369921c26146101035780637a9e5e4b146100fe5780638c7fa74c146100f95780638fb36037146100f457806397557547146100ef578063a44eda3c146100ea578063b53da186146100e5578063bf7e214f146100e0578063c2ccaa14146100db578063d5b4c456146100d6578063ea488edb146100d15763ee5b97db0361000e57610852565b61081d565b6107ca565b610685565b6105f7565b6105a1565b61056d565b610537565b6104dc565b610478565b610389565b61035d565b610329565b6102ba565b61023b565b6101b1565b60e01c90565b60405190565b5f80fd5b5f80fd5b5f80fd5b60018060a01b031690565b61014890610134565b90565b6101548161013f565b0361015b57565b5f80fd5b9050359061016c8261014b565b565b9060208282031261018757610184915f0161015f565b90565b61012c565b90565b6101989061018c565b9052565b91906101af905f6020850194019061018f565b565b346101e1576101dd6101cc6101c736600461016e565b610977565b6101d4610122565b9182918261019c565b0390f35b610128565b6101ef8161018c565b036101f657565b5f80fd5b90503590610207826101e6565b565b9190604083820312610231578061022561022e925f860161015f565b936020016101fa565b90565b61012c565b5f0190565b3461026a5761025461024e366004610209565b90610a94565b61025c610122565b8061026681610236565b0390f35b610128565b5f91031261027957565b61012c565b90565b90565b61029861029361029d9261027e565b610281565b61018c565b90565b6102ac62015180610284565b90565b6102b76102a0565b90565b346102ea576102ca36600461026f565b6102e66102d56102af565b6102dd610122565b9182918261019c565b0390f35b610128565b90916060828403126103245761032161030a845f850161015f565b9361031881602086016101fa565b9360400161015f565b90565b61012c565b346103585761034261033c3660046102ef565b91610b1a565b61034a610122565b8061035481610236565b0390f35b610128565b346103845761036d36600461016e565b50610376610122565b8061038081610236565b0390f35b610128565b346103b7576103a161039c36600461016e565b610be6565b6103a9610122565b806103b381610236565b0390f35b610128565b6103d06103cb6103d592610134565b610281565b610134565b90565b6103e1906103bc565b90565b6103ed906103d8565b90565b906103fa906103e4565b5f5260205260405f2090565b5f1c90565b90565b61041a61041f91610406565b61040b565b90565b61042c905461040e565b90565b61043a9060036103f0565b90610452600161044b5f8501610422565b9301610422565b90565b91602061047692949361046f60408201965f83019061018f565b019061018f565b565b346104a95761049061048b36600461016e565b61042f565b906104a561049c610122565b92839283610455565b0390f35b610128565b63ffffffff60e01b1690565b6104c3906104ae565b9052565b91906104da905f602085019401906104ba565b565b3461050c576104ec36600461026f565b6105086104f7610cf3565b6104ff610122565b918291826104c7565b0390f35b610128565b61051c9060046103f0565b90610534600161052d5f8501610422565b9301610422565b90565b346105685761054f61054a36600461016e565b610511565b9061056461055b610122565b92839283610455565b0390f35b610128565b3461059c576105866105803660046102ef565b91610d2a565b61058e610122565b8061059881610236565b0390f35b610128565b346105d0576105ba6105b4366004610209565b90610e74565b6105c2610122565b806105cc81610236565b0390f35b610128565b6105de9061013f565b9052565b91906105f5905f602085019401906105d5565b565b346106275761060736600461026f565b610623610612610eb0565b61061a610122565b918291826105e2565b0390f35b610128565b90610636906103e4565b5f5260205260405f2090565b1c90565b61065690600861065b9302610642565b61040b565b90565b906106699154610646565b90565b6106829061067d6001915f9261062c565b61065e565b90565b346106b5576106b16106a061069b36600461016e565b61066c565b6106a8610122565b9182918261019c565b0390f35b610128565b5f80fd5b5f80fd5b5f80fd5b909182601f830112156107005781359167ffffffffffffffff83116106fb5760200192602083028401116106f657565b6106c2565b6106be565b6106ba565b909182601f8301121561073f5781359167ffffffffffffffff831161073a57602001926020830284011161073557565b6106c2565b6106be565b6106ba565b906060828203126107c5575f82013567ffffffffffffffff81116107c0578161076e9184016106c6565b929093602082013567ffffffffffffffff81116107bb5783610791918401610705565b929093604082013567ffffffffffffffff81116107b6576107b29201610705565b9091565b610130565b610130565b610130565b61012c565b346107ff576107e96107dd366004610744565b949390939291926111ac565b6107f1610122565b806107fb81610236565b0390f35b610128565b61081a906108156002915f9261062c565b61065e565b90565b3461084d5761084961083861083336600461016e565b610804565b610840610122565b9182918261019c565b0390f35b610128565b346108825761087e61086d61086836600461016e565b6111bc565b610875610122565b9182918261019c565b0390f35b610128565b5f80fd5b5f90565b906108999061018c565b9052565b601f801991011690565b634e487b7160e01b5f52604160045260245ffd5b906108c59061089d565b810190811067ffffffffffffffff8211176108df57604052565b6108a7565b906108f76108f0610122565b92836108bb565b565b61090360406108e4565b90565b9061093d61093460016109176108f9565b9461092e6109265f8301610422565b5f880161088f565b01610422565b6020840161088f565b565b61094890610906565b90565b90565b61096261095d6109679261094b565b610281565b61018c565b90565b610974905161018c565b90565b61098e6109939161098661088b565b5060036103f0565b61093f565b61099c81611205565b6109af5760206109ac910161096a565b90565b506109b95f61094e565b90565b906109df916109da6109cc611241565b6109d4611254565b91611410565b610a3b565b565b5f1b90565b906109f25f19916109e1565b9181191691161790565b610a10610a0b610a159261018c565b610281565b61018c565b90565b90565b90610a30610a2b610a37926109fc565b610a18565b82546109e6565b9055565b610a5082610a4b6001849061062c565b610a1b565b610a8f610a7d7fb5d5d4292fe8559d190a7787f1cad866d9c72449e7acfcf016622126dbad0287926103e4565b92610a86610122565b9182918261019c565b0390a2565b90610a9e916109bc565b565b90565b634e487b7160e01b5f52601160045260245ffd5b610ac6610acc9193929361018c565b9261018c565b8201809211610ad757565b610aa3565b610b11610b1894610b07606094989795610afd608086019a5f8701906105d5565b602085019061018f565b604083019061018f565b019061018f565b565b929150610b31610b2c6001859061062c565b610422565b80610b44610b3e5f61094e565b9161018c565b14610be057610b5d610b58600386906103f0565b610aa0565b91610b6783611565565b610b7d610b7660018501610422565b8290610ab7565b9182610b91610b8b8361018c565b9161018c565b11610baa575050610ba89293506001909101610a1b565b565b610bdc919250610bbe600187949501610422565b610bc6610122565b948594632433c2dd60e11b865260048601610adc565b0390fd5b50509050565b610bee611241565b80610c08610c02610bfd610eb0565b61013f565b9161013f565b03610c515750803b610c22610c1c5f61094e565b9161018c565b14610c3257610c3090611615565b565b610c4d905f9182916361798f2f60e11b8352600483016105e2565b0390fd5b610c6b905f91829162d1953b60e31b8352600483016105e2565b0390fd5b5f90565b60a01c90565b60ff1690565b610c8b610c9091610c73565b610c79565b90565b610c9d9054610c7f565b90565b60e01b90565b610cba610cb5610cbf9261094b565b610ca0565b6104ae565b90565b610ccb906103d8565b90565b63ffffffff1690565b610ceb610ce6610cf092610cce565b610ca0565b6104ae565b90565b610cfb610c6f565b50610d055f610c93565b5f14610d1c57610d18638fb36037610cd7565b5b90565b610d255f610ca6565b610d19565b929150610d41610d3c6002859061062c565b610422565b80610d54610d4e5f61094e565b9161018c565b14610df057610d6d610d68600486906103f0565b610aa0565b91610d7783611565565b610d8d610d8660018501610422565b8290610ab7565b9182610da1610d9b8361018c565b9161018c565b11610dba575050610db89293506001909101610a1b565b565b610dec919250610dce600187949501610422565b610dd6610122565b948594634d260e7560e11b865260048601610adc565b0390fd5b50509050565b90610e1991610e14610e06611241565b610e0e611254565b91611410565b610e1b565b565b610e3082610e2b6002849061062c565b610a1b565b610e6f610e5d7f44ea9e0438fbaaab4aa7ea06bf2dfcd0c92ee818892b3f37ef42a7d37918fddf926103e4565b92610e66610122565b9182918261019c565b0390a2565b90610e7e91610df6565b565b5f90565b60018060a01b031690565b610e9b610ea091610406565b610e84565b90565b610ead9054610e8f565b90565b610eb8610e80565b50610ec25f610ea3565b90565b90610eec9594939291610ee7610ed9611241565b610ee1611254565b91611410565b610fe8565b565b5090565b5090565b60209181520190565b5f7f4c656e677468206d69736d617463680000000000000000000000000000000000910152565b610f33600f602092610ef6565b610f3c81610eff565b0190565b610f559060208101905f818303910152610f26565b90565b15610f5f57565b610f67610122565b62461bcd60e51b815280610f7d60048201610f40565b0390fd5b6001610f8d910161018c565b90565b634e487b7160e01b5f52603260045260245ffd5b9190811015610fb4576020020190565b610f90565b35610fc38161014b565b90565b9190811015610fd6576020020190565b610f90565b35610fe5816101e6565b90565b959495610ff6818390610eee565b61101261100c611007868890610ef2565b61018c565b9161018c565b1480611179575b61102290610f58565b61102a61088b565b5b8061104861104261103d858790610eee565b61018c565b9161018c565b101561116f5761116a9061106661106184868491610fa4565b610fb9565b61108e61107d611078888a8691610fc6565b610fdb565b6110896001849061062c565b610a1b565b6110b66110a56110a08a8d8691610fc6565b610fdb565b6110b16002849061062c565b610a1b565b806110cb6110c6888a8691610fc6565b610fdb565b9061110b6110f97fb5d5d4292fe8559d190a7787f1cad866d9c72449e7acfcf016622126dbad0287926103e4565b92611102610122565b9182918261019c565b0390a261112261111d898c8591610fc6565b610fdb565b906111626111507f44ea9e0438fbaaab4aa7ea06bf2dfcd0c92ee818892b3f37ef42a7d37918fddf926103e4565b92611159610122565b9182918261019c565b0390a2610f81565b61102b565b5050505050509050565b50611022611188828490610eee565b6111a461119e611199898c90610ef2565b61018c565b9161018c565b149050611019565b906111ba9594939291610ec5565b565b6111d36111d8916111cb61088b565b5060046103f0565b61093f565b6111e181611205565b6111f45760206111f1910161096a565b90565b506111fe5f61094e565b90565b5f90565b61121c5f61122a92611215611201565b500161096a565b6112246102a0565b90610ab7565b61123c6112364261018c565b9161018c565b111590565b611249610e80565b503390565b36905f90565b61125c61124e565b9050505f903690565b90565b61127c61127761128192611265565b610281565b61018c565b90565b5f80fd5b5f80fd5b909392938483116112ac5784116112a7576001820201920390565b611288565b611284565b5090565b1b90565b906112c76112ce91836112b1565b91356104ae565b90600481106112dc575b5090565b6112f49063ffffffff60e01b906004036008026112b5565b165f6112d8565b151590565b61131461130f6113199261094b565b610281565b610cce565b90565b60a01b90565b9061133160ff60a01b9161131c565b9181191691161790565b611344906112fb565b90565b90565b9061135f61135a6113669261133b565b611347565b8254611322565b9055565b611373906103bc565b90565b61137f9061136a565b90565b61138b906103d8565b90565b5f80fd5b5f91031261139c57565b61012c565b60209181520190565b90825f939282370152565b91906113cf816113c8816113d4956113a1565b80956113aa565b61089d565b0190565b916113fd9391926113f060408201945f8301906105d5565b60208185039101526113b5565b90565b611408610122565b3d5f823e3d90fd5b9061146261145a61141f610eb0565b8461142930610cc2565b9061145461144e878a5f9061144861144260049361094e565b92611268565b9261128c565b906112b9565b92611690565b9190156112fb565b61146d575b50505050565b61147f6114795f611300565b91610cce565b115f1461153b5761149160015f61134a565b6114a96114a461149f610eb0565b611376565b611382565b6394c7d7ee92919392813b15611536575f6114d7916114e282966114cb610122565b98899788968795610ca0565b8552600485016113d8565b03925af1801561153157611505575b506114fc5f5f61134a565b5f808080611467565b611524905f3d811161152a575b61151c81836108bb565b810190611392565b5f6114f1565b503d611512565b611400565b61138e565b611555825f91829162d1953b60e31b8352600483016105e2565b0390fd5b61156290610906565b90565b6115705f8201610422565b61158261157c5f61094e565b9161018c565b146115c85761159861159382611559565b611205565b6115a0575b50565b6115c2906115b0425f8301610a1b565b60016115bb5f61094e565b9101610a1b565b5f61159d565b6115d5905f429101610a1b565b565b906115e860018060a01b03916109e1565b9181191691161790565b90565b9061160a611605611611926103e4565b6115f2565b82546115d7565b9055565b61161f815f6115f5565b6116557f2f658b440c35314f52658ea8a740e05b284cdc84dc9ae01e891f21b8933e7cad9161164c610122565b918291826105e2565b0390a1565b5f90565b60409061168761168e949695939661167d60608401985f8501906105d5565b60208301906105d5565b01906104ba565b565b5f90604092949593956116e36116a4611201565b976116d46116b061165a565b9891936116bb610122565b94859360046020860163b700961360e01b81520161165e565b602082018103825203826108bb565b9082805282602052602082519201905afa6116fb575b565b9150505f51906020518060201c1502906116f956","linkReferences":{}},"methodIdentifiers":{"WINDOW_SECONDS()":"4646947d","authority()":"bf7e214f","checkAccount(address)":"69921c26","checkDeposit(address,uint256,address)":"5fb03511","checkWithdraw(address,uint256,address)":"a44eda3c","depositLimitPerToken(address)":"c2ccaa14","depositWindowPerToken(address)":"8c7fa74c","getCurrentDepositUsed(address)":"1d5bbb0a","getCurrentWithdrawUsed(address)":"ee5b97db","isConsumingScheduledOp()":"8fb36037","setAuthority(address)":"7a9e5e4b","setDepositLimit(address,uint256)":"272d177d","setLimitsBatch(address[],uint256[],uint256[])":"d5b4c456","setWithdrawLimit(address,uint256)":"b53da186","withdrawLimitPerToken(address)":"ea488edb","withdrawWindowPerToken(address)":"97557547"},"id":76}