{"abi":[{"type":"constructor","inputs":[{"name":"_initialAuthority","type":"address","internalType":"address"}],"stateMutability":"nonpayable"},{"type":"function","name":"WINDOW_SECONDS","inputs":[],"outputs":[{"name":"","type":"uint256","internalType":"uint256"}],"stateMutability":"view"},{"type":"function","name":"authority","inputs":[],"outputs":[{"name":"","type":"address","internalType":"address"}],"stateMutability":"view"},{"type":"function","name":"checkAccount","inputs":[{"name":"","type":"address","internalType":"address"}],"outputs":[],"stateMutability":"pure"},{"type":"function","name":"checkDeposit","inputs":[{"name":"token","type":"address","internalType":"address"},{"name":"amount","type":"uint256","internalType":"uint256"},{"name":"","type":"address","internalType":"address"}],"outputs":[],"stateMutability":"nonpayable"},{"type":"function","name":"checkWithdraw","inputs":[{"name":"token","type":"address","internalType":"address"},{"name":"amount","type":"uint256","internalType":"uint256"},{"name":"","type":"address","internalType":"address"}],"outputs":[],"stateMutability":"nonpayable"},{"type":"function","name":"depositLimitPerToken","inputs":[{"name":"token","type":"address","internalType":"address"}],"outputs":[{"name":"limit","type":"uint256","internalType":"uint256"}],"stateMutability":"view"},{"type":"function","name":"depositWindowPerToken","inputs":[{"name":"token","type":"address","internalType":"address"}],"outputs":[{"name":"windowStart","type":"uint256","internalType":"uint256"},{"name":"used","type":"uint256","internalType":"uint256"}],"stateMutability":"view"},{"type":"function","name":"getCurrentDepositUsed","inputs":[{"name":"token","type":"address","internalType":"address"}],"outputs":[{"name":"","type":"uint256","internalType":"uint256"}],"stateMutability":"view"},{"type":"function","name":"getCurrentWithdrawUsed","inputs":[{"name":"token","type":"address","internalType":"address"}],"outputs":[{"name":"","type":"uint256","internalType":"uint256"}],"stateMutability":"view"},{"type":"function","name":"isConsumingScheduledOp","inputs":[],"outputs":[{"name":"","type":"bytes4","internalType":"bytes4"}],"stateMutability":"view"},{"type":"function","name":"setAuthority","inputs":[{"name":"newAuthority","type":"address","internalType":"address"}],"outputs":[],"stateMutability":"nonpayable"},{"type":"function","name":"setDepositLimit","inputs":[{"name":"token","type":"address","internalType":"address"},{"name":"limit","type":"uint256","internalType":"uint256"}],"outputs":[],"stateMutability":"nonpayable"},{"type":"function","name":"setLimitsBatch","inputs":[{"name":"tokens","type":"address[]","internalType":"address[]"},{"name":"depositLimits","type":"uint256[]","internalType":"uint256[]"},{"name":"withdrawLimits","type":"uint256[]","internalType":"uint256[]"}],"outputs":[],"stateMutability":"nonpayable"},{"type":"function","name":"setWithdrawLimit","inputs":[{"name":"token","type":"address","internalType":"address"},{"name":"limit","type":"uint256","internalType":"uint256"}],"outputs":[],"stateMutability":"nonpayable"},{"type":"function","name":"withdrawLimitPerToken","inputs":[{"name":"token","type":"address","internalType":"address"}],"outputs":[{"name":"limit","type":"uint256","internalType":"uint256"}],"stateMutability":"view"},{"type":"function","name":"withdrawWindowPerToken","inputs":[{"name":"token","type":"address","internalType":"address"}],"outputs":[{"name":"windowStart","type":"uint256","internalType":"uint256"},{"name":"used","type":"uint256","internalType":"uint256"}],"stateMutability":"view"},{"type":"event","name":"AuthorityUpdated","inputs":[{"name":"authority","type":"address","indexed":false,"internalType":"address"}],"anonymous":false},{"type":"event","name":"DepositLimitSet","inputs":[{"name":"token","type":"address","indexed":true,"internalType":"address"},{"name":"limit","type":"uint256","indexed":false,"internalType":"uint256"}],"anonymous":false},{"type":"event","name":"WithdrawLimitSet","inputs":[{"name":"token","type":"address","indexed":true,"internalType":"address"},{"name":"limit","type":"uint256","indexed":false,"internalType":"uint256"}],"anonymous":false},{"type":"error","name":"AccessManagedInvalidAuthority","inputs":[{"name":"authority","type":"address","internalType":"address"}]},{"type":"error","name":"AccessManagedRequiredDelay","inputs":[{"name":"caller","type":"address","internalType":"address"},{"name":"delay","type":"uint32","internalType":"uint32"}]},{"type":"error","name":"AccessManagedUnauthorized","inputs":[{"name":"caller","type":"address","internalType":"address"}]},{"type":"error","name":"DepositRateLimitExceeded","inputs":[{"name":"token","type":"address","internalType":"address"},{"name":"attempted","type":"uint256","internalType":"uint256"},{"name":"used","type":"uint256","internalType":"uint256"},{"name":"limit","type":"uint256","internalType":"uint256"}]},{"type":"error","name":"LengthMismatch","inputs":[]},{"type":"error","name":"WithdrawRateLimitExceeded","inputs":[{"name":"token","type":"address","internalType":"address"},{"name":"attempted","type":"uint256","internalType":"uint256"},{"name":"used","type":"uint256","internalType":"uint256"},{"name":"limit","type":"uint256","internalType":"uint256"}]}],"bytecode":{"object":"0x60806040523461002f576100196100146100f4565b610115565b610021610034565b6116c861020d82396116c890f35b61003a565b60405190565b5f80fd5b601f801991011690565b634e487b7160e01b5f52604160045260245ffd5b906100669061003e565b810190811060018060401b0382111761007e57604052565b610048565b9061009661008f610034565b928361005c565b565b5f80fd5b60018060a01b031690565b6100b09061009c565b90565b6100bc816100a7565b036100c357565b5f80fd5b905051906100d4826100b3565b565b906020828203126100ef576100ec915f016100c7565b90565b610098565b6101126118d58038038061010781610083565b9283398101906100d6565b90565b61011e90610120565b565b610129906101c7565b565b5f1b90565b9061014160018060a01b039161012b565b9181191691161790565b90565b61016261015d6101679261009c565b61014b565b61009c565b90565b6101739061014e565b90565b61017f9061016a565b90565b90565b9061019a6101956101a192610176565b610182565b8254610130565b9055565b6101ae906100a7565b9052565b91906101c5905f602085019401906101a5565b565b6101d1815f610185565b6102077f2f658b440c35314f52658ea8a740e05b284cdc84dc9ae01e891f21b8933e7cad916101fe610034565b918291826101b2565b0390a156fe60806040526004361015610013575b610887565b61001d5f3561011c565b80631d5bbb0a14610117578063272d177d146101125780634646947d1461010d5780635fb035111461010857806369921c26146101035780637a9e5e4b146100fe5780638c7fa74c146100f95780638fb36037146100f457806397557547146100ef578063a44eda3c146100ea578063b53da186146100e5578063bf7e214f146100e0578063c2ccaa14146100db578063d5b4c456146100d6578063ea488edb146100d15763ee5b97db0361000e57610852565b61081d565b6107ca565b610685565b6105f7565b6105a1565b61056d565b610537565b6104dc565b610478565b610389565b61035d565b610329565b6102ba565b61023b565b6101b1565b60e01c90565b60405190565b5f80fd5b5f80fd5b5f80fd5b60018060a01b031690565b61014890610134565b90565b6101548161013f565b0361015b57565b5f80fd5b9050359061016c8261014b565b565b9060208282031261018757610184915f0161015f565b90565b61012c565b90565b6101989061018c565b9052565b91906101af905f6020850194019061018f565b565b346101e1576101dd6101cc6101c736600461016e565b610977565b6101d4610122565b9182918261019c565b0390f35b610128565b6101ef8161018c565b036101f657565b5f80fd5b90503590610207826101e6565b565b9190604083820312610231578061022561022e925f860161015f565b936020016101fa565b90565b61012c565b5f0190565b3461026a5761025461024e366004610209565b90610a94565b61025c610122565b8061026681610236565b0390f35b610128565b5f91031261027957565b61012c565b90565b90565b61029861029361029d9261027e565b610281565b61018c565b90565b6102ac62015180610284565b90565b6102b76102a0565b90565b346102ea576102ca36600461026f565b6102e66102d56102af565b6102dd610122565b9182918261019c565b0390f35b610128565b90916060828403126103245761032161030a845f850161015f565b9361031881602086016101fa565b9360400161015f565b90565b61012c565b346103585761034261033c3660046102ef565b91610b52565b61034a610122565b8061035481610236565b0390f35b610128565b346103845761036d36600461016e565b50610376610122565b8061038081610236565b0390f35b610128565b346103b7576103a161039c36600461016e565b610bf6565b6103a9610122565b806103b381610236565b0390f35b610128565b6103d06103cb6103d592610134565b610281565b610134565b90565b6103e1906103bc565b90565b6103ed906103d8565b90565b906103fa906103e4565b5f5260205260405f2090565b5f1c90565b90565b61041a61041f91610406565b61040b565b90565b61042c905461040e565b90565b61043a9060036103f0565b90610452600161044b5f8501610422565b9301610422565b90565b91602061047692949361046f60408201965f83019061018f565b019061018f565b565b346104a95761049061048b36600461016e565b61042f565b906104a561049c610122565b92839283610455565b0390f35b610128565b63ffffffff60e01b1690565b6104c3906104ae565b9052565b91906104da905f602085019401906104ba565b565b3461050c576104ec36600461026f565b6105086104f7610d03565b6104ff610122565b918291826104c7565b0390f35b610128565b61051c9060046103f0565b90610534600161052d5f8501610422565b9301610422565b90565b346105685761054f61054a36600461016e565b610511565b9061056461055b610122565b92839283610455565b0390f35b610128565b3461059c576105866105803660046102ef565b91610d72565b61058e610122565b8061059881610236565b0390f35b610128565b346105d0576105ba6105b4366004610209565b90610e94565b6105c2610122565b806105cc81610236565b0390f35b610128565b6105de9061013f565b9052565b91906105f5905f602085019401906105d5565b565b346106275761060736600461026f565b610623610612610ed0565b61061a610122565b918291826105e2565b0390f35b610128565b90610636906103e4565b5f5260205260405f2090565b1c90565b61065690600861065b9302610642565b61040b565b90565b906106699154610646565b90565b6106829061067d6001915f9261062c565b61065e565b90565b346106b5576106b16106a061069b36600461016e565b61066c565b6106a8610122565b9182918261019c565b0390f35b610128565b5f80fd5b5f80fd5b5f80fd5b909182601f830112156107005781359167ffffffffffffffff83116106fb5760200192602083028401116106f657565b6106c2565b6106be565b6106ba565b909182601f8301121561073f5781359167ffffffffffffffff831161073a57602001926020830284011161073557565b6106c2565b6106be565b6106ba565b906060828203126107c5575f82013567ffffffffffffffff81116107c0578161076e9184016106c6565b929093602082013567ffffffffffffffff81116107bb5783610791918401610705565b929093604082013567ffffffffffffffff81116107b6576107b29201610705565b9091565b610130565b610130565b610130565b61012c565b346107ff576107e96107dd366004610744565b94939093929192611164565b6107f1610122565b806107fb81610236565b0390f35b610128565b61081a906108156002915f9261062c565b61065e565b90565b3461084d5761084961083861083336600461016e565b610804565b610840610122565b9182918261019c565b0390f35b610128565b346108825761087e61086d61086836600461016e565b611174565b610875610122565b9182918261019c565b0390f35b610128565b5f80fd5b5f90565b906108999061018c565b9052565b601f801991011690565b634e487b7160e01b5f52604160045260245ffd5b906108c59061089d565b810190811067ffffffffffffffff8211176108df57604052565b6108a7565b906108f76108f0610122565b92836108bb565b565b61090360406108e4565b90565b9061093d61093460016109176108f9565b9461092e6109265f8301610422565b5f880161088f565b01610422565b6020840161088f565b565b61094890610906565b90565b90565b61096261095d6109679261094b565b610281565b61018c565b90565b610974905161018c565b90565b61098e6109939161098661088b565b5060036103f0565b61093f565b61099c816111bd565b6109af5760206109ac910161096a565b90565b506109b95f61094e565b90565b906109df916109da6109cc6111f9565b6109d461120c565b916113c8565b610a3b565b565b5f1b90565b906109f25f19916109e1565b9181191691161790565b610a10610a0b610a159261018c565b610281565b61018c565b90565b90565b90610a30610a2b610a37926109fc565b610a18565b82546109e6565b9055565b610a5082610a4b6001849061062c565b610a1b565b610a8f610a7d7fb5d5d4292fe8559d190a7787f1cad866d9c72449e7acfcf016622126dbad0287926103e4565b92610a86610122565b9182918261019c565b0390a2565b90610a9e916109bc565b565b90565b634e487b7160e01b5f52601160045260245ffd5b610ac6610acc9193929361018c565b9261018c565b8201809211610ad757565b610aa3565b610b11610b1894610b07606094989795610afd608086019a5f8701906105d5565b602085019061018f565b604083019061018f565b019061018f565b565b93919392909215610b2b5750505050565b90610b4e91610b38610122565b948594632433c2dd60e11b865260048601610adc565b0390fd5b909150610b69610b646001839061062c565b610422565b9081610b7d610b775f61094e565b9161018c565b14610bf157610bef92610be8600192610ba0610b9b600383906103f0565b610aa0565b94610baa8661151d565b610bbf610bb8868801610422565b8590610ab7565b9384610bd3610bcd8461018c565b9161018c565b111592610be1878901610422565b9293610b1a565b9101610a1b565b565b505050565b610bfe6111f9565b80610c18610c12610c0d610ed0565b61013f565b9161013f565b03610c615750803b610c32610c2c5f61094e565b9161018c565b14610c4257610c40906115cd565b565b610c5d905f9182916361798f2f60e11b8352600483016105e2565b0390fd5b610c7b905f91829162d1953b60e31b8352600483016105e2565b0390fd5b5f90565b60a01c90565b60ff1690565b610c9b610ca091610c83565b610c89565b90565b610cad9054610c8f565b90565b60e01b90565b610cca610cc5610ccf9261094b565b610cb0565b6104ae565b90565b610cdb906103d8565b90565b63ffffffff1690565b610cfb610cf6610d0092610cde565b610cb0565b6104ae565b90565b610d0b610c7f565b50610d155f610ca3565b5f14610d2c57610d28638fb36037610ce7565b5b90565b610d355f610cb6565b610d29565b93919392909215610d4b5750505050565b90610d6e91610d58610122565b948594634d260e7560e11b865260048601610adc565b0390fd5b909150610d89610d846002839061062c565b610422565b9081610d9d610d975f61094e565b9161018c565b14610e1157610e0f92610e08600192610dc0610dbb600483906103f0565b610aa0565b94610dca8661151d565b610ddf610dd8868801610422565b8590610ab7565b9384610df3610ded8461018c565b9161018c565b111592610e01878901610422565b9293610d3a565b9101610a1b565b565b505050565b90610e3991610e34610e266111f9565b610e2e61120c565b916113c8565b610e3b565b565b610e5082610e4b6002849061062c565b610a1b565b610e8f610e7d7f44ea9e0438fbaaab4aa7ea06bf2dfcd0c92ee818892b3f37ef42a7d37918fddf926103e4565b92610e86610122565b9182918261019c565b0390a2565b90610e9e91610e16565b565b5f90565b60018060a01b031690565b610ebb610ec091610406565b610ea4565b90565b610ecd9054610eaf565b90565b610ed8610ea0565b50610ee25f610ec3565b90565b90610f0c9594939291610f07610ef96111f9565b610f0161120c565b916113c8565b610fa0565b565b5090565b5090565b15610f1d57565b5f631fec674760e31b815280610f3560048201610236565b0390fd5b6001610f45910161018c565b90565b634e487b7160e01b5f52603260045260245ffd5b9190811015610f6c576020020190565b610f48565b35610f7b8161014b565b90565b9190811015610f8e576020020190565b610f48565b35610f9d816101e6565b90565b959495610fae818390610f0e565b610fca610fc4610fbf868890610f12565b61018c565b9161018c565b1480611131575b610fda90610f16565b610fe261088b565b5b80611000610ffa610ff5858790610f0e565b61018c565b9161018c565b1015611127576111229061101e61101984868491610f5c565b610f71565b611046611035611030888a8691610f7e565b610f93565b6110416001849061062c565b610a1b565b61106e61105d6110588a8d8691610f7e565b610f93565b6110696002849061062c565b610a1b565b8061108361107e888a8691610f7e565b610f93565b906110c36110b17fb5d5d4292fe8559d190a7787f1cad866d9c72449e7acfcf016622126dbad0287926103e4565b926110ba610122565b9182918261019c565b0390a26110da6110d5898c8591610f7e565b610f93565b9061111a6111087f44ea9e0438fbaaab4aa7ea06bf2dfcd0c92ee818892b3f37ef42a7d37918fddf926103e4565b92611111610122565b9182918261019c565b0390a2610f39565b610fe3565b5050505050509050565b50610fda611140828490610f0e565b61115c611156611151898c90610f12565b61018c565b9161018c565b149050610fd1565b906111729594939291610ee5565b565b61118b6111909161118361088b565b5060046103f0565b61093f565b611199816111bd565b6111ac5760206111a9910161096a565b90565b506111b65f61094e565b90565b5f90565b6111d45f6111e2926111cd6111b9565b500161096a565b6111dc6102a0565b90610ab7565b6111f46111ee4261018c565b9161018c565b111590565b611201610ea0565b503390565b36905f90565b611214611206565b9050505f903690565b90565b61123461122f6112399261121d565b610281565b61018c565b90565b5f80fd5b5f80fd5b9093929384831161126457841161125f576001820201920390565b611240565b61123c565b5090565b1b90565b9061127f6112869183611269565b91356104ae565b9060048110611294575b5090565b6112ac9063ffffffff60e01b9060040360080261126d565b165f611290565b151590565b6112cc6112c76112d19261094b565b610281565b610cde565b90565b60a01b90565b906112e960ff60a01b916112d4565b9181191691161790565b6112fc906112b3565b90565b90565b9061131761131261131e926112f3565b6112ff565b82546112da565b9055565b61132b906103bc565b90565b61133790611322565b90565b611343906103d8565b90565b5f80fd5b5f91031261135457565b61012c565b60209181520190565b90825f939282370152565b9190611387816113808161138c95611359565b8095611362565b61089d565b0190565b916113b59391926113a860408201945f8301906105d5565b602081850391015261136d565b90565b6113c0610122565b3d5f823e3d90fd5b9061141a6114126113d7610ed0565b846113e130610cd2565b9061140c611406878a5f906114006113fa60049361094e565b92611220565b92611244565b90611271565b92611648565b9190156112b3565b611425575b50505050565b6114376114315f6112b8565b91610cde565b115f146114f35761144960015f611302565b61146161145c611457610ed0565b61132e565b61133a565b6394c7d7ee92919392813b156114ee575f61148f9161149a8296611483610122565b98899788968795610cb0565b855260048501611390565b03925af180156114e9576114bd575b506114b45f5f611302565b5f80808061141f565b6114dc905f3d81116114e2575b6114d481836108bb565b81019061134a565b5f6114a9565b503d6114ca565b6113b8565b611346565b61150d825f91829162d1953b60e31b8352600483016105e2565b0390fd5b61151a90610906565b90565b6115285f8201610422565b61153a6115345f61094e565b9161018c565b146115805761155061154b82611511565b6111bd565b611558575b50565b61157a90611568425f8301610a1b565b60016115735f61094e565b9101610a1b565b5f611555565b61158d905f429101610a1b565b565b906115a060018060a01b03916109e1565b9181191691161790565b90565b906115c26115bd6115c9926103e4565b6115aa565b825461158f565b9055565b6115d7815f6115ad565b61160d7f2f658b440c35314f52658ea8a740e05b284cdc84dc9ae01e891f21b8933e7cad91611604610122565b918291826105e2565b0390a1565b5f90565b60409061163f611646949695939661163560608401985f8501906105d5565b60208301906105d5565b01906104ba565b565b5f906040929495939561169b61165c6111b9565b9761168c611668611612565b989193611673610122565b94859360046020860163b700961360e01b815201611616565b602082018103825203826108bb565b9082805282602052602082519201905afa6116b3575b565b9150505f51906020518060201c1502906116b156","linkReferences":{}},"methodIdentifiers":{"WINDOW_SECONDS()":"4646947d","authority()":"bf7e214f","checkAccount(address)":"69921c26","checkDeposit(address,uint256,address)":"5fb03511","checkWithdraw(address,uint256,address)":"a44eda3c","depositLimitPerToken(address)":"c2ccaa14","depositWindowPerToken(address)":"8c7fa74c","getCurrentDepositUsed(address)":"1d5bbb0a","getCurrentWithdrawUsed(address)":"ee5b97db","isConsumingScheduledOp()":"8fb36037","setAuthority(address)":"7a9e5e4b","setDepositLimit(address,uint256)":"272d177d","setLimitsBatch(address[],uint256[],uint256[])":"d5b4c456","setWithdrawLimit(address,uint256)":"b53da186","withdrawLimitPerToken(address)":"ea488edb","withdrawWindowPerToken(address)":"97557547"},"id":76}