{"abi":[{"type":"constructor","inputs":[{"name":"initialAuthority","type":"address","internalType":"address"}],"stateMutability":"nonpayable"},{"type":"function","name":"authority","inputs":[],"outputs":[{"name":"","type":"address","internalType":"address"}],"stateMutability":"view"},{"type":"function","name":"burn","inputs":[{"name":"from","type":"address","internalType":"address"},{"name":"token","type":"address","internalType":"address"},{"name":"amount","type":"uint256","internalType":"uint256"}],"outputs":[],"stateMutability":"nonpayable"},{"type":"function","name":"burnCallCount","inputs":[],"outputs":[{"name":"","type":"uint256","internalType":"uint256"}],"stateMutability":"view"},{"type":"function","name":"burnCalls","inputs":[{"name":"","type":"address","internalType":"address"},{"name":"","type":"address","internalType":"address"}],"outputs":[{"name":"","type":"uint256","internalType":"uint256"}],"stateMutability":"view"},{"type":"function","name":"isConsumingScheduledOp","inputs":[],"outputs":[{"name":"","type":"bytes4","internalType":"bytes4"}],"stateMutability":"view"},{"type":"function","name":"mint","inputs":[{"name":"to","type":"address","internalType":"address"},{"name":"token","type":"address","internalType":"address"},{"name":"amount","type":"uint256","internalType":"uint256"}],"outputs":[],"stateMutability":"nonpayable"},{"type":"function","name":"mintCallCount","inputs":[],"outputs":[{"name":"","type":"uint256","internalType":"uint256"}],"stateMutability":"view"},{"type":"function","name":"mintCalls","inputs":[{"name":"","type":"address","internalType":"address"},{"name":"","type":"address","internalType":"address"}],"outputs":[{"name":"","type":"uint256","internalType":"uint256"}],"stateMutability":"view"},{"type":"function","name":"resetCallCounts","inputs":[],"outputs":[],"stateMutability":"nonpayable"},{"type":"function","name":"setAuthority","inputs":[{"name":"newAuthority","type":"address","internalType":"address"}],"outputs":[],"stateMutability":"nonpayable"},{"type":"function","name":"setShouldRevertOnBurn","inputs":[{"name":"shouldRevert","type":"bool","internalType":"bool"}],"outputs":[],"stateMutability":"nonpayable"},{"type":"function","name":"setShouldRevertOnMint","inputs":[{"name":"shouldRevert","type":"bool","internalType":"bool"}],"outputs":[],"stateMutability":"nonpayable"},{"type":"function","name":"shouldRevertOnBurn","inputs":[],"outputs":[{"name":"","type":"bool","internalType":"bool"}],"stateMutability":"view"},{"type":"function","name":"shouldRevertOnMint","inputs":[],"outputs":[{"name":"","type":"bool","internalType":"bool"}],"stateMutability":"view"},{"type":"event","name":"AuthorityUpdated","inputs":[{"name":"authority","type":"address","indexed":false,"internalType":"address"}],"anonymous":false},{"type":"event","name":"BurnCalled","inputs":[{"name":"from","type":"address","indexed":false,"internalType":"address"},{"name":"token","type":"address","indexed":false,"internalType":"address"},{"name":"amount","type":"uint256","indexed":false,"internalType":"uint256"}],"anonymous":false},{"type":"event","name":"MintCalled","inputs":[{"name":"to","type":"address","indexed":false,"internalType":"address"},{"name":"token","type":"address","indexed":false,"internalType":"address"},{"name":"amount","type":"uint256","indexed":false,"internalType":"uint256"}],"anonymous":false},{"type":"error","name":"AccessManagedInvalidAuthority","inputs":[{"name":"authority","type":"address","internalType":"address"}]},{"type":"error","name":"AccessManagedRequiredDelay","inputs":[{"name":"caller","type":"address","internalType":"address"},{"name":"delay","type":"uint32","internalType":"uint32"}]},{"type":"error","name":"AccessManagedUnauthorized","inputs":[{"name":"caller","type":"address","internalType":"address"}]},{"type":"error","name":"ReentrancyGuardReentrantCall","inputs":[]}],"bytecode":{"object":"0x60806040523461002f576100196100146100f4565b6101ff565b610021610034565b6112e46103a082396112e490f35b61003a565b60405190565b5f80fd5b601f801991011690565b634e487b7160e01b5f52604160045260245ffd5b906100669061003e565b810190811060018060401b0382111761007e57604052565b610048565b9061009661008f610034565b928361005c565b565b5f80fd5b60018060a01b031690565b6100b09061009c565b90565b6100bc816100a7565b036100c357565b5f80fd5b905051906100d4826100b3565b565b906020828203126100ef576100ec915f016100c7565b90565b610098565b6101126116848038038061010781610083565b9283398101906100d6565b90565b5f1b90565b9061012660ff91610115565b9181191691161790565b151590565b61013e90610130565b90565b90565b9061015961015461016092610135565b610141565b825461011a565b9055565b60081b90565b9061017761ff0091610164565b9181191691161790565b9061019661019161019d92610135565b610141565b825461016a565b9055565b906101ad5f1991610115565b9181191691161790565b90565b90565b90565b6101d46101cf6101d9926101b7565b6101bd565b6101ba565b90565b90565b906101f46101ef6101fb926101c0565b6101dc565b82546101a1565b9055565b6102089061029e565b6102135f6004610144565b61021e5f6004610181565b6102295f60056101df565b6102345f60066101df565b565b90565b61024d61024861025292610236565b6101bd565b6101ba565b90565b61025f6001610239565b90565b61027661027161027b926101ba565b6101bd565b6101ba565b90565b9061029361028e61029a92610262565b6101dc565b82546101a1565b9055565b6102a7906102bb565b6102b96102b2610255565b600161027e565b565b6102c49061035a565b565b906102d760018060a01b0391610115565b9181191691161790565b6102f56102f06102fa9261009c565b6101bd565b61009c565b90565b610306906102e1565b90565b610312906102fd565b90565b90565b9061032d61032861033492610309565b610315565b82546102c6565b9055565b610341906100a7565b9052565b9190610358905f60208501940190610338565b565b610364815f610318565b61039a7f2f658b440c35314f52658ea8a740e05b284cdc84dc9ae01e891f21b8933e7cad91610391610034565b91829182610345565b0390a156fe60806040526004361015610013575b6106fc565b61001d5f356100fc565b806301c7ba3d146100f7578063041ba86a146100f257806305af10ff146100ed5780630e144639146100e85780631a9f6568146100e35780632433256a146100de5780633f2a5477146100d95780634d319518146100d45780637a9e5e4b146100cf5780638fb36037146100ca578063bf7e214f146100c5578063c6c3bbe6146100c0578063cdd97cab146100bb5763f6b911bc0361000e576106c8565b610693565b61064f565b6105bd565b610566565b610505565b6104b2565b610470565b61043d565b610408565b610376565b610322565b6102ce565b61024d565b60e01c90565b60405190565b5f80fd5b5f80fd5b60018060a01b031690565b61012490610110565b90565b6101308161011b565b0361013757565b5f80fd5b9050359061014882610127565b565b9190604083820312610172578061016661016f925f860161013b565b9360200161013b565b90565b61010c565b90565b61018e61018961019392610110565b610177565b610110565b90565b61019f9061017a565b90565b6101ab90610196565b90565b906101b8906101a2565b5f5260205260405f2090565b906101ce906101a2565b5f5260205260405f2090565b1c90565b90565b6101f19060086101f693026101da565b6101de565b90565b9061020491546101e1565b90565b6102206102259261021b6003935f946101ae565b6101c4565b6101f9565b90565b90565b61023490610228565b9052565b919061024b905f6020850194019061022b565b565b3461027e5761027a61026961026336600461014a565b90610207565b610271610102565b91829182610238565b0390f35b610108565b151590565b61029181610283565b0361029857565b5f80fd5b905035906102a982610288565b565b906020828203126102c4576102c1915f0161029c565b90565b61010c565b5f0190565b346102fc576102e66102e13660046102ab565b61074c565b6102ee610102565b806102f8816102c9565b0390f35b610108565b61031a61031f926103156002935f946101ae565b6101c4565b6101f9565b90565b346103535761034f61033e61033836600461014a565b90610301565b610346610102565b91829182610238565b0390f35b610108565b5f91031261036257565b61010c565b61037360055f906101f9565b90565b346103a657610386366004610358565b6103a2610391610367565b610399610102565b91829182610238565b0390f35b610108565b60ff1690565b6103c19060086103c693026101da565b6103ab565b90565b906103d491546103b1565b90565b6103e360045f906103c9565b90565b6103ef90610283565b9052565b9190610406905f602085019401906103e6565b565b3461043857610418366004610358565b6104346104236103d7565b61042b610102565b918291826103f3565b0390f35b610108565b3461046b5761044d366004610358565b6104556107d2565b61045d610102565b80610467816102c9565b0390f35b610108565b3461049e576104886104833660046102ab565b610830565b610490610102565b8061049a816102c9565b0390f35b610108565b6104af60065f906101f9565b90565b346104e2576104c2366004610358565b6104de6104cd6104a3565b6104d5610102565b91829182610238565b0390f35b610108565b90602082820312610500576104fd915f0161013b565b90565b61010c565b346105335761051d6105183660046104e7565b61083d565b610525610102565b8061052f816102c9565b0390f35b610108565b63ffffffff60e01b1690565b61054d90610538565b9052565b9190610564905f60208501940190610544565b565b3461059657610576366004610358565b610592610581610944565b610589610102565b91829182610551565b0390f35b610108565b6105a49061011b565b9052565b91906105bb905f6020850194019061059b565b565b346105ed576105cd366004610358565b6105e96105d86109b0565b6105e0610102565b918291826105a8565b0390f35b610108565b6105fb81610228565b0361060257565b5f80fd5b90503590610613826105f2565b565b909160608284031261064a57610647610630845f850161013b565b9361063e816020860161013b565b93604001610606565b90565b61010c565b3461067e57610668610662366004610615565b91610bf2565b610670610102565b8061067a816102c9565b0390f35b610108565b61069060046001906103c9565b90565b346106c3576106a3366004610358565b6106bf6106ae610683565b6106b6610102565b918291826103f3565b0390f35b610108565b346106f7576106e16106db366004610615565b91610d81565b6106e9610102565b806106f3816102c9565b0390f35b610108565b5f80fd5b60081b90565b9061071361ff0091610700565b9181191691161790565b61072690610283565b90565b90565b9061074161073c6107489261071d565b610729565b8254610706565b9055565b61075790600461072c565b565b90565b61077061076b61077592610759565b610177565b610228565b90565b5f1b90565b906107895f1991610778565b9181191691161790565b6107a76107a26107ac92610228565b610177565b610228565b90565b90565b906107c76107c26107ce92610793565b6107af565b825461077d565b9055565b6107e56107de5f61075c565b60056107b2565b6107f86107f15f61075c565b60066107b2565b565b9061080660ff91610778565b9181191691161790565b9061082561082061082c9261071d565b610729565b82546107fa565b9055565b61083b906004610810565b565b610845610d8e565b8061085f6108596108546109b0565b61011b565b9161011b565b036108a85750803b6108796108735f61075c565b91610228565b146108895761088790610dd9565b565b6108a4905f9182916361798f2f60e11b8352600483016105a8565b0390fd5b6108c2905f91829162d1953b60e31b8352600483016105a8565b0390fd5b5f90565b60a01c90565b6108dc6108e1916108ca565b6103ab565b90565b6108ee90546108d0565b90565b60e01b90565b61090b61090661091092610759565b6108f1565b610538565b90565b61091c90610196565b90565b63ffffffff1690565b61093c6109376109419261091f565b6108f1565b610538565b90565b61094c6108c6565b506109565f6108e4565b5f1461096d57610969638fb36037610928565b5b90565b6109765f6108f7565b61096a565b5f90565b5f1c90565b60018060a01b031690565b61099b6109a09161097f565b610984565b90565b6109ad905461098f565b90565b6109b861097b565b506109c25f6109a3565b90565b906109e992916109e46109d6610d8e565b6109de610e24565b91611013565b6109eb565b565b906109fe92916109f9611188565b610b33565b610a066111d0565b565b610a14610a199161097f565b6103ab565b90565b610a269054610a08565b90565b60209181520190565b5f7f4d6f636b206d696e74206661696c656400000000000000000000000000000000910152565b610a666010602092610a29565b610a6f81610a32565b0190565b610a889060208101905f818303910152610a59565b90565b610a97610a9c9161097f565b6101de565b90565b610aa99054610a8b565b90565b634e487b7160e01b5f52601160045260245ffd5b610acf610ad591939293610228565b92610228565b8201809211610ae057565b610aac565b610aee90610228565b5f198114610afc5760010190565b610aac565b604090610b2a610b319496959396610b2060608401985f85019061059b565b602083019061059b565b019061022b565b565b919091610b406004610a1c565b610bd057610b7682610b70610b61610b5a600286906101ae565b87906101c4565b91610b6b83610a9f565b610ac0565b906107b2565b610b92610b8b610b866005610a9f565b610ae5565b60056107b2565b919091610bcb7fc3e28d6c1095be5b2c596d142e7d5eef45fe776a675733fd50400c71fee19fad93610bc2610102565b93849384610b01565b0390a1565b610bd8610102565b62461bcd60e51b815280610bee60048201610a73565b0390fd5b90610bfd92916109c5565b565b90610c239291610c1e610c10610d8e565b610c18610e24565b91611013565b610c25565b565b90610c389291610c33611188565b610cc2565b610c406111d0565b565b60081c90565b610c54610c5991610c42565b6103ab565b90565b610c669054610c48565b90565b5f7f4d6f636b206275726e206661696c656400000000000000000000000000000000910152565b610c9d6010602092610a29565b610ca681610c69565b0190565b610cbf9060208101905f818303910152610c90565b90565b919091610ccf6004610c5c565b610d5f57610d0582610cff610cf0610ce9600386906101ae565b87906101c4565b91610cfa83610a9f565b610ac0565b906107b2565b610d21610d1a610d156006610a9f565b610ae5565b60066107b2565b919091610d5a7f7300ece39a7745fd0489b5cc28b99b4378de122fab1d1a6194ca1711523106fd93610d51610102565b93849384610b01565b0390a1565b610d67610102565b62461bcd60e51b815280610d7d60048201610caa565b0390fd5b90610d8c9291610bff565b565b610d9661097b565b503390565b90610dac60018060a01b0391610778565b9181191691161790565b90565b90610dce610dc9610dd5926101a2565b610db6565b8254610d9b565b9055565b610de3815f610db9565b610e197f2f658b440c35314f52658ea8a740e05b284cdc84dc9ae01e891f21b8933e7cad91610e10610102565b918291826105a8565b0390a1565b36905f90565b610e2c610e1e565b9050505f903690565b90565b610e4c610e47610e5192610e35565b610177565b610228565b90565b5f80fd5b5f80fd5b90939293848311610e7c578411610e77576001820201920390565b610e58565b610e54565b5090565b1b90565b90610e97610e9e9183610e81565b9135610538565b9060048110610eac575b5090565b610ec49063ffffffff60e01b90600403600802610e85565b165f610ea8565b610edf610eda610ee492610759565b610177565b61091f565b90565b60a01b90565b90610efc60ff60a01b91610ee7565b9181191691161790565b90610f1b610f16610f229261071d565b610729565b8254610eed565b9055565b610f2f9061017a565b90565b610f3b90610f26565b90565b610f4790610196565b90565b5f80fd5b601f801991011690565b634e487b7160e01b5f52604160045260245ffd5b90610f7690610f4e565b810190811067ffffffffffffffff821117610f9057604052565b610f58565b5f910312610f9f57565b61010c565b60209181520190565b90825f939282370152565b9190610fd281610fcb81610fd795610fa4565b8095610fad565b610f4e565b0190565b91611000939192610ff360408201945f83019061059b565b6020818503910152610fb8565b90565b61100b610102565b3d5f823e3d90fd5b9061106561105d6110226109b0565b8461102c30610913565b90611057611051878a5f9061104b61104560049361075c565b92610e38565b92610e5c565b90610e89565b9261121e565b919015610283565b611070575b50505050565b61108261107c5f610ecb565b9161091f565b115f1461113e5761109460015f610f06565b6110ac6110a76110a26109b0565b610f32565b610f3e565b6394c7d7ee92919392813b15611139575f6110da916110e582966110ce610102565b988997889687956108f1565b855260048501610fdb565b03925af1801561113457611108575b506110ff5f5f610f06565b5f80808061106a565b611127905f3d811161112d575b61111f8183610f6c565b810190610f95565b5f6110f4565b503d611115565b611003565b610f4a565b611158825f91829162d1953b60e31b8352600483016105a8565b0390fd5b90565b61117361116e6111789261115c565b610177565b610228565b90565b611185600261115f565b90565b61119061129e565b6111a261119b61117b565b60016107b2565b565b90565b6111bb6111b66111c0926111a4565b610177565b610228565b90565b6111cd60016111a7565b90565b6111e26111db6111c3565b60016107b2565b565b5f90565b5f90565b60409061121561121c949695939661120b60608401985f85019061059b565b602083019061059b565b0190610544565b565b5f90604092949593956112716112326111e4565b9761126261123e6111e8565b989193611249610102565b94859360046020860163b700961360e01b8152016111ec565b60208201810382520382610f6c565b9082805282602052602082519201905afa611289575b565b9150505f51906020518060201c150290611287565b6112a86001610a9f565b6112c16112bb6112b661117b565b610228565b91610228565b146112c857565b5f633ee5aeb560e01b8152806112e0600482016102c9565b0390fd","linkReferences":{}},"methodIdentifiers":{"authority()":"bf7e214f","burn(address,address,uint256)":"f6b911bc","burnCallCount()":"4d319518","burnCalls(address,address)":"01c7ba3d","isConsumingScheduledOp()":"8fb36037","mint(address,address,uint256)":"c6c3bbe6","mintCallCount()":"0e144639","mintCalls(address,address)":"05af10ff","resetCallCounts()":"2433256a","setAuthority(address)":"7a9e5e4b","setShouldRevertOnBurn(bool)":"041ba86a","setShouldRevertOnMint(bool)":"3f2a5477","shouldRevertOnBurn()":"cdd97cab","shouldRevertOnMint()":"1a9f6568"},"id":104}