{"abi":[{"type":"constructor","inputs":[{"name":"initialAuthority","type":"address","internalType":"address"},{"name":"_chainRegistry","type":"address","internalType":"contract ChainRegistry"}],"stateMutability":"nonpayable"},{"type":"function","name":"addToken","inputs":[{"name":"token","type":"address","internalType":"address"},{"name":"bridgeTypeLocal","type":"uint8","internalType":"enum TokenRegistry.BridgeTypeLocal"}],"outputs":[],"stateMutability":"nonpayable"},{"type":"function","name":"addTokenDestChainKey","inputs":[{"name":"token","type":"address","internalType":"address"},{"name":"destChainKey","type":"bytes32","internalType":"bytes32"},{"name":"destChainTokenAddress","type":"bytes32","internalType":"bytes32"},{"name":"destChainTokenDecimals","type":"uint256","internalType":"uint256"}],"outputs":[],"stateMutability":"nonpayable"},{"type":"function","name":"authority","inputs":[],"outputs":[{"name":"","type":"address","internalType":"address"}],"stateMutability":"view"},{"type":"function","name":"chainRegistry","inputs":[],"outputs":[{"name":"","type":"address","internalType":"contract ChainRegistry"}],"stateMutability":"view"},{"type":"function","name":"getAllTokens","inputs":[],"outputs":[{"name":"","type":"address[]","internalType":"address[]"}],"stateMutability":"view"},{"type":"function","name":"getTokenAt","inputs":[{"name":"index","type":"uint256","internalType":"uint256"}],"outputs":[{"name":"","type":"address","internalType":"address"}],"stateMutability":"view"},{"type":"function","name":"getTokenBridgeType","inputs":[{"name":"token","type":"address","internalType":"address"}],"outputs":[{"name":"","type":"uint8","internalType":"enum TokenRegistry.BridgeTypeLocal"}],"stateMutability":"view"},{"type":"function","name":"getTokenCount","inputs":[],"outputs":[{"name":"","type":"uint256","internalType":"uint256"}],"stateMutability":"view"},{"type":"function","name":"getTokenDestChainKeyAt","inputs":[{"name":"token","type":"address","internalType":"address"},{"name":"index","type":"uint256","internalType":"uint256"}],"outputs":[{"name":"item","type":"bytes32","internalType":"bytes32"}],"stateMutability":"view"},{"type":"function","name":"getTokenDestChainKeyCount","inputs":[{"name":"token","type":"address","internalType":"address"}],"outputs":[{"name":"count","type":"uint256","internalType":"uint256"}],"stateMutability":"view"},{"type":"function","name":"getTokenDestChainKeys","inputs":[{"name":"token","type":"address","internalType":"address"}],"outputs":[{"name":"items","type":"bytes32[]","internalType":"bytes32[]"}],"stateMutability":"view"},{"type":"function","name":"getTokenDestChainKeysAndTokenAddresses","inputs":[{"name":"token","type":"address","internalType":"address"}],"outputs":[{"name":"chainKeys","type":"bytes32[]","internalType":"bytes32[]"},{"name":"tokenAddresses","type":"bytes32[]","internalType":"bytes32[]"}],"stateMutability":"view"},{"type":"function","name":"getTokenDestChainKeysFrom","inputs":[{"name":"token","type":"address","internalType":"address"},{"name":"index","type":"uint256","internalType":"uint256"},{"name":"count","type":"uint256","internalType":"uint256"}],"outputs":[{"name":"items","type":"bytes32[]","internalType":"bytes32[]"}],"stateMutability":"view"},{"type":"function","name":"getTokenDestChainTokenAddress","inputs":[{"name":"token","type":"address","internalType":"address"},{"name":"destChainKey","type":"bytes32","internalType":"bytes32"}],"outputs":[{"name":"destChainTokenAddress","type":"bytes32","internalType":"bytes32"}],"stateMutability":"view"},{"type":"function","name":"getTokenDestChainTokenDecimals","inputs":[{"name":"token","type":"address","internalType":"address"},{"name":"destChainKey","type":"bytes32","internalType":"bytes32"}],"outputs":[{"name":"decimals","type":"uint256","internalType":"uint256"}],"stateMutability":"view"},{"type":"function","name":"getTokensFrom","inputs":[{"name":"index","type":"uint256","internalType":"uint256"},{"name":"count","type":"uint256","internalType":"uint256"}],"outputs":[{"name":"items","type":"address[]","internalType":"address[]"}],"stateMutability":"view"},{"type":"function","name":"isConsumingScheduledOp","inputs":[],"outputs":[{"name":"","type":"bytes4","internalType":"bytes4"}],"stateMutability":"view"},{"type":"function","name":"isTokenDestChainKeyRegistered","inputs":[{"name":"token","type":"address","internalType":"address"},{"name":"destChainKey","type":"bytes32","internalType":"bytes32"}],"outputs":[{"name":"","type":"bool","internalType":"bool"}],"stateMutability":"view"},{"type":"function","name":"isTokenRegistered","inputs":[{"name":"token","type":"address","internalType":"address"}],"outputs":[{"name":"","type":"bool","internalType":"bool"}],"stateMutability":"view"},{"type":"function","name":"removeTokenDestChainKey","inputs":[{"name":"token","type":"address","internalType":"address"},{"name":"destChainKey","type":"bytes32","internalType":"bytes32"}],"outputs":[],"stateMutability":"nonpayable"},{"type":"function","name":"revertIfTokenDestChainKeyNotRegistered","inputs":[{"name":"token","type":"address","internalType":"address"},{"name":"destChainKey","type":"bytes32","internalType":"bytes32"}],"outputs":[],"stateMutability":"view"},{"type":"function","name":"revertIfTokenNotRegistered","inputs":[{"name":"token","type":"address","internalType":"address"}],"outputs":[],"stateMutability":"view"},{"type":"function","name":"setAuthority","inputs":[{"name":"newAuthority","type":"address","internalType":"address"}],"outputs":[],"stateMutability":"nonpayable"},{"type":"function","name":"setTokenBridgeType","inputs":[{"name":"token","type":"address","internalType":"address"},{"name":"bridgeTypeLocal","type":"uint8","internalType":"enum TokenRegistry.BridgeTypeLocal"}],"outputs":[],"stateMutability":"nonpayable"},{"type":"function","name":"setTokenDestChainTokenAddress","inputs":[{"name":"token","type":"address","internalType":"address"},{"name":"destChainKey","type":"bytes32","internalType":"bytes32"},{"name":"destChainTokenAddress","type":"bytes32","internalType":"bytes32"}],"outputs":[],"stateMutability":"nonpayable"},{"type":"event","name":"AuthorityUpdated","inputs":[{"name":"authority","type":"address","indexed":false,"internalType":"address"}],"anonymous":false},{"type":"error","name":"AccessManagedInvalidAuthority","inputs":[{"name":"authority","type":"address","internalType":"address"}]},{"type":"error","name":"AccessManagedRequiredDelay","inputs":[{"name":"caller","type":"address","internalType":"address"},{"name":"delay","type":"uint32","internalType":"uint32"}]},{"type":"error","name":"AccessManagedUnauthorized","inputs":[{"name":"caller","type":"address","internalType":"address"}]},{"type":"error","name":"TokenDestChainKeyNotRegistered","inputs":[{"name":"token","type":"address","internalType":"address"},{"name":"destChainKey","type":"bytes32","internalType":"bytes32"}]},{"type":"error","name":"TokenNotRegistered","inputs":[{"name":"token","type":"address","internalType":"address"}]}],"bytecode":{"object":"0x60a0604052346100475761001a61001461014a565b9061016c565b61002261004c565b6125406102678239608051818181610b9c01528181610e020152611a5e015261254090f35b610052565b60405190565b5f80fd5b601f801991011690565b634e487b7160e01b5f52604160045260245ffd5b9061007e90610056565b810190811060018060401b0382111761009657604052565b610060565b906100ae6100a761004c565b9283610074565b565b5f80fd5b60018060a01b031690565b6100c8906100b4565b90565b6100d4816100bf565b036100db57565b5f80fd5b905051906100ec826100cb565b565b6100f7906100bf565b90565b610103816100ee565b0361010a57565b5f80fd5b9050519061011b826100fa565b565b91906040838203126101455780610139610142925f86016100df565b9360200161010e565b90565b6100b0565b6101686127a78038038061015d8161009b565b92833981019061011d565b9091565b6101759061017a565b608052565b61018390610221565b565b5f1b90565b9061019b60018060a01b0391610185565b9181191691161790565b90565b6101bc6101b76101c1926100b4565b6101a5565b6100b4565b90565b6101cd906101a8565b90565b6101d9906101c4565b90565b90565b906101f46101ef6101fb926101d0565b6101dc565b825461018a565b9055565b610208906100bf565b9052565b919061021f905f602085019401906101ff565b565b61022b815f6101df565b6102617f2f658b440c35314f52658ea8a740e05b284cdc84dc9ae01e891f21b8933e7cad9161025861004c565b9182918261020c565b0390a156fe60806040526004361015610013575b610c4c565b61001d5f356101ac565b80630e220c0e146101a75780631131c8c8146101a257806326aa101f1461019d5780632a5c792a14610198578063330ab345146101935780633f0bbc4c1461018e5780634c5e771314610189578063543b3af714610184578063785e070b1461017f578063787058f81461017a57806378a89567146101755780637a9e5e4b1461017057806389f735201461016b5780638fb360371461016657806390aa79b3146101615780639f7c6df21461015c578063a46f74b814610157578063a74ea63f14610152578063aa2fc98d1461014d578063af9a5e1614610148578063b2072f3014610143578063baee05cc1461013e578063bf7e214f14610139578063db1303ea146101345763fd5e394a0361000e57610c17565b610b66565b610b31565b610afb565b610ac5565b610a91565b610a21565b6109ed565b6109b7565b610956565b6108f6565b6108c1565b61085e565b6107eb565b6107b6565b610780565b610711565b6106ba565b610629565b6105c8565b610549565b610475565b610392565b610317565b610291565b60e01c90565b60405190565b5f80fd5b5f80fd5b60018060a01b031690565b6101d4906101c0565b90565b6101e0816101cb565b036101e757565b5f80fd5b905035906101f8826101d7565b565b90565b610206816101fa565b0361020d57565b5f80fd5b9050359061021e826101fd565b565b90565b61022c81610220565b0361023357565b5f80fd5b9050359061024482610223565b565b6080818303126102875761025c825f83016101eb565b9261028461026d8460208501610211565b9361027b8160408601610211565b93606001610237565b90565b6101bc565b5f0190565b346102c3576102ad6102a4366004610246565b92919091610eff565b6102b56101b2565b806102bf8161028c565b0390f35b6101b8565b91906040838203126102f057806102e46102ed925f86016101eb565b93602001610237565b90565b6101bc565b6102fe906101fa565b9052565b9190610315905f602085019401906102f5565b565b346103485761034461033361032d3660046102c8565b90610f11565b61033b6101b2565b91829182610302565b0390f35b6101b8565b9060208282031261036657610363915f016101eb565b90565b6101bc565b151590565b6103799061036b565b9052565b9190610390905f60208501940190610370565b565b346103c2576103be6103ad6103a836600461034d565b610f40565b6103b56101b2565b9182918261037d565b0390f35b6101b8565b5f9103126103d157565b6101bc565b5190565b60209181520190565b60200190565b6103f2906101cb565b9052565b90610403816020936103e9565b0190565b60200190565b9061042a61042461041d846103d6565b80936103da565b926103e3565b905f5b81811061043a5750505090565b90919261045361044d60019286516103f6565b94610407565b910191909161042d565b6104729160208201915f81840391015261040d565b90565b346104a5576104853660046103c7565b6104a1610490610f64565b6104986101b2565b9182918261045d565b0390f35b6101b8565b5190565b60209181520190565b60200190565b6104c6906101fa565b9052565b906104d7816020936104bd565b0190565b60200190565b906104fe6104f86104f1846104aa565b80936104ae565b926104b7565b905f5b81811061050e5750505090565b90919261052761052160019286516104ca565b946104db565b9101919091610501565b6105469160208201915f8184039101526104e1565b90565b346105795761057561056461055f36600461034d565b610f87565b61056c6101b2565b91829182610531565b0390f35b6101b8565b6002111561058857565b5f80fd5b905035906105998261057e565b565b91906040838203126105c357806105b76105c0925f86016101eb565b9360200161058c565b90565b6101bc565b346105f7576105e16105db36600461059b565b90611044565b6105e96101b2565b806105f38161028c565b0390f35b6101b8565b91906040838203126106245780610618610621925f86016101eb565b93602001610211565b90565b6101bc565b346106585761064261063c3660046105fc565b9061116b565b61064a6101b2565b806106548161028c565b0390f35b6101b8565b634e487b7160e01b5f52602160045260245ffd5b6002111561067b57565b61065d565b9061068a82610671565b565b61069590610680565b90565b6106a19061068c565b9052565b91906106b8905f60208501940190610698565b565b346106ea576106e66106d56106d036600461034d565b6111a2565b6106dd6101b2565b918291826106a5565b0390f35b6101b8565b6106f890610220565b9052565b919061070f905f602085019401906106ef565b565b346107415761073d61072c61072736600461034d565b6111c1565b6107346101b2565b918291826106fc565b0390f35b6101b8565b909160608284031261077b57610778610761845f85016101eb565b9361076f8160208601610237565b93604001610237565b90565b6101bc565b346107b1576107ad61079c610796366004610746565b9161132b565b6107a46101b2565b91829182610531565b0390f35b6101b8565b346107e6576107c63660046103c7565b6107e26107d1611438565b6107d96101b2565b918291826106fc565b0390f35b6101b8565b34610819576108036107fe36600461034d565b611456565b61080b6101b2565b806108158161028c565b0390f35b6101b8565b9060208282031261083757610834915f01610237565b90565b6101bc565b610845906101cb565b9052565b919061085c905f6020850194019061083c565b565b3461088e5761088a61087961087436600461081e565b6114e3565b6108816101b2565b91829182610849565b0390f35b6101b8565b63ffffffff60e01b1690565b6108a890610893565b9052565b91906108bf905f6020850194019061089f565b565b346108f1576108d13660046103c7565b6108ed6108dc611580565b6108e46101b2565b918291826108ac565b0390f35b6101b8565b346109245761090e61090936600461034d565b6115de565b6109166101b2565b806109208161028c565b0390f35b6101b8565b9190604083820312610951578061094561094e925f8601610237565b93602001610237565b90565b6101bc565b346109875761098361097261096c366004610929565b90611680565b61097a6101b2565b9182918261045d565b0390f35b6101b8565b90916109a66109b49360408401908482035f8601526104e1565b9160208184039101526104e1565b90565b346109e8576109cf6109ca36600461034d565b6117a8565b906109e46109db6101b2565b9283928361098c565b0390f35b6101b8565b34610a1c57610a06610a0036600461059b565b906118bd565b610a0e6101b2565b80610a188161028c565b0390f35b6101b8565b34610a5257610a4e610a3d610a373660046105fc565b906118c9565b610a456101b2565b91829182610302565b0390f35b6101b8565b9091606082840312610a8c57610a89610a72845f85016101eb565b93610a808160208601610211565b93604001610211565b90565b6101bc565b34610ac057610aaa610aa4366004610a57565b91611997565b610ab26101b2565b80610abc8161028c565b0390f35b6101b8565b34610af657610af2610ae1610adb3660046105fc565b906119a4565b610ae96101b2565b9182918261037d565b0390f35b6101b8565b34610b2c57610b28610b17610b113660046105fc565b906119f0565b610b1f6101b2565b918291826106fc565b0390f35b6101b8565b34610b6157610b413660046103c7565b610b5d610b4c611a44565b610b546101b2565b91829182610849565b0390f35b6101b8565b34610b9557610b7f610b793660046105fc565b90611a59565b610b876101b2565b80610b918161028c565b0390f35b6101b8565b7f000000000000000000000000000000000000000000000000000000000000000090565b90565b610bd5610bd0610bda926101c0565b610bbe565b6101c0565b90565b610be690610bc1565b90565b610bf290610bdd565b90565b610bfe90610be9565b9052565b9190610c15905f60208501940190610bf5565b565b34610c4757610c273660046103c7565b610c43610c32610b9a565b610c3a6101b2565b91829182610c02565b0390f35b6101b8565b5f80fd5b90610c75939291610c70610c62611b21565b610c6a611b34565b91611cc4565b610dfb565b565b5f80fd5b601f801991011690565b634e487b7160e01b5f52604160045260245ffd5b90610ca390610c7b565b810190811067ffffffffffffffff821117610cbd57604052565b610c85565b60e01b90565b5f910312610cd257565b6101bc565b610cdf6101b2565b3d5f823e3d90fd5b610cf090610bdd565b90565b90610cfd90610ce7565b5f5260205260405f2090565b90565b90610d1690610ce7565b5f5260205260405f2090565b610d2b906101fa565b90565b90610d3890610d22565b5f5260205260405f2090565b5f1b90565b90610d555f1991610d44565b9181191691161790565b5f1c90565b610d6d90610d5f565b90565b90610d85610d80610d8c92610d22565b610d64565b8254610d49565b9055565b90610d9a90610ce7565b5f5260205260405f2090565b90610db090610d22565b5f5260205260405f2090565b610dd0610dcb610dd592610220565b610bbe565b610220565b90565b90565b90610df0610deb610df792610dbc565b610dd8565b8254610d49565b9055565b9190610e267f0000000000000000000000000000000000000000000000000000000000000000610be9565b63631c15ba82823b15610efa57610e5b92610e505f93610e446101b2565b95869485938493610cc2565b835260048301610302565b03915afa948515610ef557610eb5610ec294610ebd93610ec798610ec9575b50610e99610e92610e8d60038a90610cf3565b610d09565b8690611e10565b50610eb0610ea960048990610d0c565b8690610d2e565b610d70565b936005610d90565b610da6565b610ddb565b565b610ee8905f3d8111610eee575b610ee08183610c99565b810190610cc8565b5f610e7a565b503d610ed6565b610cd7565b610c77565b90610f0b939291610c50565b565b5f90565b90610f31610f2c610f3693610f24610f0d565b506003610cf3565b610d09565b611e30565b90565b5f90565b90565b610f5c90610f4c610f39565b50610f576001610f3d565b611e94565b90565b606090565b610f6c610f5f565b50610f7f610f7a6001610f3d565b611ece565b90565b606090565b610fa6610fa1610fab92610f99610f82565b506003610cf3565b610d09565b611ef6565b90565b90610fd191610fcc610fbe611b21565b610fc6611b34565b91611cc4565b61102e565b565b90610fdd90610ce7565b5f5260205260405f2090565b90610ff560ff91610d44565b9181191691161790565b61100890610680565b90565b90565b9061102361101e61102a92610fff565b61100b565b8254610fe9565b9055565b61103d61104292916006610fd3565b61100e565b565b9061104e91610fae565b565b906110739161106e611060611b21565b611068611b34565b91611cc4565b61110e565b565b1b90565b9190600861109491029161108e5f1984611075565b92611075565b9181191691161790565b91906110b46110af6110bc93610d22565b610d64565b908354611079565b9055565b6110d2916110cc610f0d565b9161109e565b565b91906110ea6110e56110f293610dbc565b610dd8565b908354611079565b9055565b5f90565b61110c916111066110f6565b916110d4565b565b6111646111699261115f5f9361113861113161112c60038490610cf3565b610d09565b8490611f1e565b506111588561115361114c60048590610d0c565b8690610d2e565b6110c0565b6005610d90565b610da6565b6110fa565b565b9061117591611050565b565b5f90565b60ff1690565b61118d61119291610d5f565b61117b565b90565b61119f9054611181565b90565b6111b96111be916111b1611177565b506006610fd3565b611195565b90565b6111e06111db6111e5926111d36110f6565b506003610cf3565b610d09565b611f3e565b90565b90565b6111ff6111fa611204926111e8565b610bbe565b610220565b90565b9061121a6112136101b2565b9283610c99565b565b67ffffffffffffffff81116112345760208091020190565b610c85565b9061124b6112468361121c565b611207565b918252565b369037565b9061127a61126283611239565b92602080611270869361121c565b9201910390611250565b565b634e487b7160e01b5f52601160045260245ffd5b61129f6112a591939293610220565b92610220565b82018092116112b057565b61127c565b6112c46112ca91939293610220565b92610220565b82039182116112d557565b61127c565b60016112e69101610220565b90565b634e487b7160e01b5f52603260045260245ffd5b90611307826104aa565b811015611318576020809102010190565b6112e9565b90611327906101fa565b9052565b611333610f82565b5061135061134b61134660038490610cf3565b610d09565b611f3e565b8261136361135d83610220565b91610220565b101561142057611374838590611290565b61138661138083610220565b91610220565b1161140c575b5061139683611255565b936113a05f6111eb565b5b806113b46113ae87610220565b91610220565b101561140557611400906113fb6113e96113d86113d360038890610cf3565b610d09565b6113e3888590611290565b90611e30565b6113f689918490926112fd565b61131d565b6112da565b6113a1565b5092505050565b61141991935082906112b5565b915f61138c565b505050506114356114305f6111eb565b611255565b90565b6114406110f6565b5061145361144e6001610f3d565b611f5d565b90565b61145e611b21565b8061147861147261146d611a44565b6101cb565b916101cb565b036114c15750803b61149261148c5f6111eb565b91610220565b146114a2576114a090611fba565b565b6114bd905f9182916361798f2f60e11b835260048301610849565b0390fd5b6114db905f91829162d1953b60e31b835260048301610849565b0390fd5b5f90565b6114ff906114ef6114df565b506114fa6001610f3d565b61202f565b90565b5f90565b60a01c90565b60ff1690565b61151e61152391611506565b61150c565b90565b6115309054611512565b90565b61154761154261154c926111e8565b610cc2565b610893565b90565b61155890610bdd565b90565b63ffffffff1690565b61157861157361157d9261155b565b610cc2565b610893565b90565b611588611502565b506115925f611526565b5f146115a9576115a5638fb36037611564565b5b90565b6115b25f611533565b6115a6565b156115bf5750565b6115da905f91829163ddef98d760e01b835260048301610849565b0390fd5b6115f0906115eb81610f40565b6115b7565b565b67ffffffffffffffff811161160a5760208091020190565b610c85565b9061162161161c836115f2565b611207565b918252565b369037565b906116506116388361160f565b9260208061164686936115f2565b9201910390611626565b565b9061165c826103d6565b81101561166d576020809102010190565b6112e9565b9061167c906101cb565b9052565b611688610f5f565b5061169b6116966001610f3d565b611f5d565b816116ae6116a883610220565b91610220565b1015611760576116bf828490611290565b6116d16116cb83610220565b91610220565b1161174c575b506116e18261162b565b926116eb5f6111eb565b5b806116ff6116f986610220565b91610220565b1015611746576117419061173c61172a6117196001610f3d565b611724878590611290565b9061202f565b6117378891849092611652565b611672565b6112da565b6116ec565b50915050565b61175991925082906112b5565b905f6116d7565b50505061177461176f5f6111eb565b61162b565b90565b61178190516101fa565b90565b90565b61179361179891610d5f565b611784565b90565b6117a59054611787565b90565b906117b1610f82565b506117ba610f82565b506117d76117d26117cd60038590610cf3565b610d09565b611ef6565b916117e96117e4846104aa565b611255565b906117f35f6111eb565b5b8061180f611809611804886104aa565b610220565b91610220565b1015611868576118639061185e61184c61184761182e60048790610d0c565b61184161183c8b87906112fd565b611777565b90610d2e565b61179b565b61185986918490926112fd565b61131d565b6112da565b6117f4565b505090565b906118909161188b61187d611b21565b611885611b34565b91611cc4565b611892565b565b6118b66118bb926118ad6118a66001610f3d565b8490612067565b50916006610fd3565b61100e565b565b906118c79161186d565b565b6118ee916118e46118e9926118dc610f0d565b506004610d0c565b610d2e565b61179b565b90565b906119159291611910611902611b21565b61190a611b34565b91611cc4565b611961565b565b91602061193892949361193160408201965f83019061083c565b01906102f5565b565b15611943575050565b61195d5f928392635d46bacf60e01b845260048401611917565b0390fd5b906119909061198b6119959461198361197b8685906119a4565b86859161193a565b936004610d0c565b610d2e565b610d70565b565b906119a292916118f1565b565b906119c46119bf6119c9936119b7610f39565b506003610cf3565b610d09565b6120a1565b90565b90565b6119db6119e091610d5f565b6119cc565b90565b6119ed90546119cf565b90565b611a1591611a0b611a1092611a036110f6565b506005610d90565b610da6565b6119e3565b90565b60018060a01b031690565b611a2f611a3491610d5f565b611a18565b90565b611a419054611a23565b90565b611a4c6114df565b50611a565f611a37565b90565b611a827f0000000000000000000000000000000000000000000000000000000000000000610be9565b9163631c15ba81843b15611b1c57611ab894611aad5f93611aa16101b2565b97889485938493610cc2565b835260048301610302565b03915afa928315611b1757611ae993611aeb575b50611ad6826115de565b611ae18282906119a4565b91909161193a565b565b611b0a905f3d8111611b10575b611b028183610c99565b810190610cc8565b5f611acc565b503d611af8565b610cd7565b610c77565b611b296114df565b503390565b36905f90565b611b3c611b2e565b9050505f903690565b90565b611b5c611b57611b6192611b45565b610bbe565b610220565b90565b5f80fd5b5f80fd5b90939293848311611b8c578411611b87576001820201920390565b611b68565b611b64565b5090565b90611ba3611baa9183611b91565b9135610893565b9060048110611bb8575b5090565b611bd09063ffffffff60e01b90600403600802611075565b165f611bb4565b611beb611be6611bf0926111e8565b610bbe565b61155b565b90565b60a01b90565b90611c0860ff60a01b91611bf3565b9181191691161790565b611c1b9061036b565b90565b90565b90611c36611c31611c3d92611c12565b611c1e565b8254611bf9565b9055565b611c4a90610bc1565b90565b611c5690611c41565b90565b611c6290610bdd565b90565b60209181520190565b90825f939282370152565b9190611c9381611c8c81611c9895611c65565b8095611c6e565b610c7b565b0190565b91611cc1939192611cb460408201945f83019061083c565b6020818503910152611c79565b90565b90611d16611d0e611cd3611a44565b84611cdd3061154f565b90611d08611d02878a5f90611cfc611cf66004936111eb565b92611b48565b92611b6c565b90611b95565b926120f7565b91901561036b565b611d21575b50505050565b611d33611d2d5f611bd7565b9161155b565b115f14611def57611d4560015f611c21565b611d5d611d58611d53611a44565b611c4d565b611c59565b6394c7d7ee92919392813b15611dea575f611d8b91611d968296611d7f6101b2565b98899788968795610cc2565b855260048501611c9c565b03925af18015611de557611db9575b50611db05f5f611c21565b5f808080611d1b565b611dd8905f3d8111611dde575b611dd08183610c99565b810190610cc8565b5f611da5565b503d611dc6565b610cd7565b610c77565b611e09825f91829162d1953b60e31b835260048301610849565b0390fd5b90565b90611e285f611e2d93611e21610f39565b5001611e0d565b6121e8565b90565b90611e485f611e4d93611e41610f0d565b5001611e0d565b6122a6565b90565b611e5990610bc1565b90565b611e70611e6b611e75926101c0565b610bbe565b610220565b90565b611e8c611e87611e9192610220565b610d44565b6101fa565b90565b90611ec6611ec0611ebb611eb65f611ecb96611eae610f39565b500194611e50565b611e5c565b611e78565b91611e0d565b6122c7565b90565b611ee55f611eea92611ede610f5f565b5001611e0d565b6123aa565b611ef2610f5f565b5090565b611f0d5f611f1292611f06610f82565b5001611e0d565b6123aa565b611f1a610f82565b5090565b90611f365f611f3b93611f2f610f39565b5001611e0d565b612423565b90565b611f555f611f5a92611f4e6110f6565b5001611e0d565b612529565b90565b611f745f611f7992611f6d6110f6565b5001611e0d565b612529565b90565b90611f8d60018060a01b0391610d44565b9181191691161790565b90565b90611faf611faa611fb692610ce7565b611f97565b8254611f7c565b9055565b611fc4815f611f9a565b611ffa7f2f658b440c35314f52658ea8a740e05b284cdc84dc9ae01e891f21b8933e7cad91611ff16101b2565b91829182610849565b0390a1565b61200b61201091610d5f565b610dbc565b90565b61202761202261202c92610220565b610bbe565b6101c0565b90565b61205a612055612064936120505f61205f956120496114df565b5001611e0d565b6122a6565b611fff565b612013565b610bdd565b90565b9061209961209361208e6120895f61209e96612081610f39565b500194611e50565b611e5c565b611e78565b91611e0d565b6121e8565b90565b906120b95f6120be936120b2610f39565b5001611e0d565b6122c7565b90565b5f90565b6040906120ee6120f594969593966120e460608401985f85019061083c565b602083019061083c565b019061089f565b565b5f906040929495939561214a61210b610f39565b9761213b6121176120c1565b9891936121226101b2565b94859360046020860163b700961360e01b8152016120c5565b60208201810382520382610c99565b9082805282602052602082519201905afa612162575b565b9150505f51906020518060201c150290612160565b90565b5f5260205f2090565b5490565b61219081612183565b8210156121aa576121a260019161217a565b910201905f90565b6112e9565b90815491680100000000000000008310156121df57826121d79160016121dd95018155612187565b9061109e565b565b610c85565b5490565b6121f0610f39565b506122056121ff8284906122c7565b1561036b565b5f146122455761223b612240926122276122205f8501612177565b82906121af565b60016122345f85016121e4565b9301610da6565b610ddb565b600190565b50505f90565b5f5260205f2090565b61225d816121e4565b8210156122775761226f60019161224b565b910201905f90565b6112e9565b1c90565b612290906008612295930261227c565b611784565b90565b906122a39154612280565b90565b6122c4915f6122be926122b7610f0d565b5001612254565b90612298565b90565b6122e59160016122e0926122d9610f39565b5001610da6565b6119e3565b6122f76122f15f6111eb565b91610220565b141590565b60209181520190565b61230f9054611787565b90565b60010190565b9061233561232f612328846121e4565b80936122fc565b9261224b565b905f5b8181106123455750505090565b90919261236561235f60019261235a87612305565b6104ca565b94612312565b9101919091612338565b9061237991612318565b90565b9061239c6123959261238c6101b2565b9384809261236f565b0383610c99565b565b6123a79061237c565b90565b5f6123be916123b7610f82565b500161239e565b90565b90565b6123d86123d36123dd926123c1565b610bbe565b610220565b90565b634e487b7160e01b5f52603160045260245ffd5b6123fd81612183565b801561241e57600190039061241b6124158383612187565b906110c0565b55565b6123e0565b61242b610f39565b5061244261243d600183018490610da6565b6119e3565b90816124566124505f6111eb565b91610220565b14155f14612522576124d49260016124cf928461247d5f96612477856123c4565b906112b5565b61249a61248b8885016121e4565b612494866123c4565b906112b5565b816124ad6124a783610220565b91610220565b036124d9575b5050506124c96124c4868301612177565b6123f4565b01610da6565b6110fa565b600190565b61251a9261250c6124f86124f2612515948c8901612254565b90612298565b9361250685918c8901612254565b9061109e565b91858501610da6565b610ddb565b5f80806124b3565b5050505f90565b5f61253d916125366110f6565b50016121e4565b9056","linkReferences":{}},"methodIdentifiers":{"addToken(address,uint8)":"a74ea63f","addTokenDestChainKey(address,bytes32,bytes32,uint256)":"0e220c0e","authority()":"bf7e214f","chainRegistry()":"fd5e394a","getAllTokens()":"2a5c792a","getTokenAt(uint256)":"89f73520","getTokenBridgeType(address)":"543b3af7","getTokenCount()":"78a89567","getTokenDestChainKeyAt(address,uint256)":"1131c8c8","getTokenDestChainKeyCount(address)":"785e070b","getTokenDestChainKeys(address)":"330ab345","getTokenDestChainKeysAndTokenAddresses(address)":"a46f74b8","getTokenDestChainKeysFrom(address,uint256,uint256)":"787058f8","getTokenDestChainTokenAddress(address,bytes32)":"aa2fc98d","getTokenDestChainTokenDecimals(address,bytes32)":"baee05cc","getTokensFrom(uint256,uint256)":"9f7c6df2","isConsumingScheduledOp()":"8fb36037","isTokenDestChainKeyRegistered(address,bytes32)":"b2072f30","isTokenRegistered(address)":"26aa101f","removeTokenDestChainKey(address,bytes32)":"4c5e7713","revertIfTokenDestChainKeyNotRegistered(address,bytes32)":"db1303ea","revertIfTokenNotRegistered(address)":"90aa79b3","setAuthority(address)":"7a9e5e4b","setTokenBridgeType(address,uint8)":"3f0bbc4c","setTokenDestChainTokenAddress(address,bytes32,bytes32)":"af9a5e16"},"id":77}