{"abi":[{"type":"constructor","inputs":[{"name":"_lockUnlock","type":"address","internalType":"address"}],"stateMutability":"nonpayable"},{"type":"function","name":"allowance","inputs":[{"name":"owner","type":"address","internalType":"address"},{"name":"spender","type":"address","internalType":"address"}],"outputs":[{"name":"","type":"uint256","internalType":"uint256"}],"stateMutability":"view"},{"type":"function","name":"approve","inputs":[{"name":"spender","type":"address","internalType":"address"},{"name":"value","type":"uint256","internalType":"uint256"}],"outputs":[{"name":"","type":"bool","internalType":"bool"}],"stateMutability":"nonpayable"},{"type":"function","name":"balanceOf","inputs":[{"name":"account","type":"address","internalType":"address"}],"outputs":[{"name":"","type":"uint256","internalType":"uint256"}],"stateMutability":"view"},{"type":"function","name":"decimals","inputs":[],"outputs":[{"name":"","type":"uint8","internalType":"uint8"}],"stateMutability":"view"},{"type":"function","name":"disableReentrancy","inputs":[],"outputs":[],"stateMutability":"nonpayable"},{"type":"function","name":"enableReentrancy","inputs":[],"outputs":[],"stateMutability":"nonpayable"},{"type":"function","name":"lockUnlock","inputs":[],"outputs":[{"name":"","type":"address","internalType":"contract LockUnlock"}],"stateMutability":"view"},{"type":"function","name":"mint","inputs":[{"name":"to","type":"address","internalType":"address"},{"name":"amount","type":"uint256","internalType":"uint256"}],"outputs":[],"stateMutability":"nonpayable"},{"type":"function","name":"name","inputs":[],"outputs":[{"name":"","type":"string","internalType":"string"}],"stateMutability":"view"},{"type":"function","name":"reentrancyAttempts","inputs":[],"outputs":[{"name":"","type":"uint256","internalType":"uint256"}],"stateMutability":"view"},{"type":"function","name":"reentrancyEnabled","inputs":[],"outputs":[{"name":"","type":"bool","internalType":"bool"}],"stateMutability":"view"},{"type":"function","name":"resetReentrancyAttempts","inputs":[],"outputs":[],"stateMutability":"nonpayable"},{"type":"function","name":"symbol","inputs":[],"outputs":[{"name":"","type":"string","internalType":"string"}],"stateMutability":"view"},{"type":"function","name":"totalSupply","inputs":[],"outputs":[{"name":"","type":"uint256","internalType":"uint256"}],"stateMutability":"view"},{"type":"function","name":"transfer","inputs":[{"name":"to","type":"address","internalType":"address"},{"name":"amount","type":"uint256","internalType":"uint256"}],"outputs":[{"name":"","type":"bool","internalType":"bool"}],"stateMutability":"nonpayable"},{"type":"function","name":"transferFrom","inputs":[{"name":"from","type":"address","internalType":"address"},{"name":"to","type":"address","internalType":"address"},{"name":"amount","type":"uint256","internalType":"uint256"}],"outputs":[{"name":"","type":"bool","internalType":"bool"}],"stateMutability":"nonpayable"},{"type":"event","name":"Approval","inputs":[{"name":"owner","type":"address","indexed":true,"internalType":"address"},{"name":"spender","type":"address","indexed":true,"internalType":"address"},{"name":"value","type":"uint256","indexed":false,"internalType":"uint256"}],"anonymous":false},{"type":"event","name":"Transfer","inputs":[{"name":"from","type":"address","indexed":true,"internalType":"address"},{"name":"to","type":"address","indexed":true,"internalType":"address"},{"name":"value","type":"uint256","indexed":false,"internalType":"uint256"}],"anonymous":false},{"type":"error","name":"ERC20InsufficientAllowance","inputs":[{"name":"spender","type":"address","internalType":"address"},{"name":"allowance","type":"uint256","internalType":"uint256"},{"name":"needed","type":"uint256","internalType":"uint256"}]},{"type":"error","name":"ERC20InsufficientBalance","inputs":[{"name":"sender","type":"address","internalType":"address"},{"name":"balance","type":"uint256","internalType":"uint256"},{"name":"needed","type":"uint256","internalType":"uint256"}]},{"type":"error","name":"ERC20InvalidApprover","inputs":[{"name":"approver","type":"address","internalType":"address"}]},{"type":"error","name":"ERC20InvalidReceiver","inputs":[{"name":"receiver","type":"address","internalType":"address"}]},{"type":"error","name":"ERC20InvalidSender","inputs":[{"name":"sender","type":"address","internalType":"address"}]},{"type":"error","name":"ERC20InvalidSpender","inputs":[{"name":"spender","type":"address","internalType":"address"}]}],"bytecode":{"object":"0x60806040523461002f576100196100146100f4565b610317565b610021610034565b61143c6105c2823961143c90f35b61003a565b60405190565b5f80fd5b601f801991011690565b634e487b7160e01b5f52604160045260245ffd5b906100669061003e565b810190811060018060401b0382111761007e57604052565b610048565b9061009661008f610034565b928361005c565b565b5f80fd5b60018060a01b031690565b6100b09061009c565b90565b6100bc816100a7565b036100c357565b5f80fd5b905051906100d4826100b3565b565b906020828203126100ef576100ec915f016100c7565b90565b610098565b6101126119fe8038038061010781610083565b9283398101906100d6565b90565b60018060401b0381116101315761012d60209161003e565b0190565b610048565b9061014861014383610115565b610083565b918252565b5f7f5265656e7472616e74546f6b656e000000000000000000000000000000000000910152565b61017e600e610136565b9061018b6020830161014d565b565b610195610174565b90565b5f7f52454e5400000000000000000000000000000000000000000000000000000000910152565b6101c96004610136565b906101d660208301610198565b565b6101e06101bf565b90565b60a01b90565b906101f860ff60a01b916101e3565b9181191691161790565b151590565b61021090610202565b90565b90565b9061022b61022661023292610207565b610213565b82546101e9565b9055565b5f1b90565b906102475f1991610236565b9181191691161790565b90565b90565b90565b61026e61026961027392610251565b610257565b610254565b90565b90565b9061028e6102896102959261025a565b610276565b825461023b565b9055565b6102ad6102a86102b29261009c565b610257565b61009c565b90565b6102be90610299565b90565b6102ca906102b5565b90565b906102de60018060a01b0391610236565b9181191691161790565b6102f1906102b5565b90565b90565b9061030c610307610313926102e8565b6102f4565b82546102cd565b9055565b6103526103599161033761032961018d565b6103316101d8565b906105a9565b6103425f6005610216565b61034d5f6006610279565b6102c1565b60056102f7565b565b5190565b634e487b7160e01b5f52602260045260245ffd5b9060016002830492168015610393575b602083101461038e57565b61035f565b91607f1691610383565b5f5260205f2090565b601f602091010490565b1b90565b919060086103cf9102916103c95f19846103b0565b926103b0565b9181191691161790565b6103ed6103e86103f292610254565b610257565b610254565b90565b919061040b610406610413936103d9565b610276565b9083546103b4565b9055565b5f90565b61042d91610427610417565b916103f5565b565b5b81811061043b575050565b806104485f60019361041b565b01610430565b9190601f811161045e575b505050565b61046a61048f9361039d565b906020610476846103a6565b83019310610497575b610488906103a6565b019061042f565b5f8080610459565b91506104888192905061047f565b1c90565b906104b9905f19906008026104a5565b191690565b816104c8916104a9565b906002021790565b906104da8161035b565b9060018060401b038211610598576104fc826104f68554610373565b8561044e565b602090601f83116001146105305791809161051f935f92610524575b50506104be565b90555b565b90915001515f80610518565b601f1983169161053f8561039d565b925f5b81811061058057509160029391856001969410610566575b50505002019055610522565b610576910151601f8416906104a9565b90555f808061055a565b91936020600181928787015181550195019201610542565b610048565b906105a7916104d0565b565b906105b86105bf92600361059d565b600461059d565b56fe60806040526004361015610013575b610790565b61001d5f3561011c565b806306fdde0314610117578063095ea7b3146101125780630d38ffb81461010d5780630f3fe22f1461010857806318160ddd1461010357806323b872dd146100fe578063313ce567146100f957806340c10f19146100f457806370a08231146100ef57806377561a1b146100ea57806395d89b41146100e5578063a9059cbb146100e0578063cc23fb1c146100db578063cd34087c146100d6578063cf22dff7146100d15763dd62ed3e0361000e5761075a565b6106f8565b610689565b610656565b610620565b6105eb565b6105b8565b610583565b610531565b6104f7565b610499565b61042a565b6103f5565b610327565b610293565b6101aa565b60e01c90565b60405190565b5f80fd5b5f80fd5b5f91031261013a57565b61012c565b5190565b60209181520190565b90825f9392825e0152565b601f801991011690565b61018061018960209361018e936101778161013f565b93848093610143565b9586910161014c565b610157565b0190565b6101a79160208201915f818403910152610161565b90565b346101da576101ba366004610130565b6101d66101c56108ed565b6101cd610122565b91829182610192565b0390f35b610128565b60018060a01b031690565b6101f3906101df565b90565b6101ff816101ea565b0361020657565b5f80fd5b90503590610217826101f6565b565b90565b61022581610219565b0361022c57565b5f80fd5b9050359061023d8261021c565b565b9190604083820312610267578061025b610264925f860161020a565b93602001610230565b90565b61012c565b151590565b61027a9061026c565b9052565b9190610291905f60208501940190610271565b565b346102c4576102c06102af6102a936600461023f565b90610907565b6102b7610122565b9182918261027e565b0390f35b610128565b1c90565b90565b6102e09060086102e593026102c9565b6102cd565b90565b906102f391546102d0565b90565b61030260065f906102e8565b90565b61030e90610219565b9052565b9190610325905f60208501940190610305565b565b3461035757610337366004610130565b6103536103426102f6565b61034a610122565b91829182610312565b0390f35b610128565b60018060a01b031690565b61037790600861037c93026102c9565b61035c565b90565b9061038a9154610367565b90565b61039960055f9061037f565b90565b90565b6103b36103ae6103b8926101df565b61039c565b6101df565b90565b6103c49061039f565b90565b6103d0906103bb565b90565b6103dc906103c7565b9052565b91906103f3905f602085019401906103d3565b565b3461042557610405366004610130565b61042161041061038d565b610418610122565b918291826103e0565b0390f35b610128565b3461045a5761043a366004610130565b610456610445610953565b61044d610122565b91829182610312565b0390f35b610128565b90916060828403126104945761049161047a845f850161020a565b93610488816020860161020a565b93604001610230565b90565b61012c565b346104ca576104c66104b56104af36600461045f565b91610b02565b6104bd610122565b9182918261027e565b0390f35b610128565b60ff1690565b6104de906104cf565b9052565b91906104f5905f602085019401906104d5565b565b3461052757610507366004610130565b610523610512610c71565b61051a610122565b918291826104e2565b0390f35b610128565b5f0190565b346105605761054a61054436600461023f565b90610c87565b610552610122565b8061055c8161052c565b0390f35b610128565b9060208282031261057e5761057b915f0161020a565b90565b61012c565b346105b3576105af61059e610599366004610565565b610cb5565b6105a6610122565b91829182610312565b0390f35b610128565b346105e6576105c8366004610130565b6105d0610d21565b6105d8610122565b806105e28161052c565b0390f35b610128565b3461061b576105fb366004610130565b610617610606610d42565b61060e610122565b91829182610192565b0390f35b610128565b346106515761064d61063c61063636600461023f565b90610d58565b610644610122565b9182918261027e565b0390f35b610128565b3461068457610666366004610130565b61066e610ea2565b610676610122565b806106808161052c565b0390f35b610128565b346106b757610699366004610130565b6106a1610ec2565b6106a9610122565b806106b38161052c565b0390f35b610128565b60ff1690565b6106d29060086106d793026102c9565b6106bc565b90565b906106e591546106c2565b90565b6106f560056014906106da565b90565b3461072857610708366004610130565b6107246107136106e8565b61071b610122565b9182918261027e565b0390f35b610128565b91906040838203126107555780610749610752925f860161020a565b9360200161020a565b90565b61012c565b3461078b5761078761077661077036600461072d565b90610eed565b61077e610122565b91829182610312565b0390f35b610128565b5f80fd5b606090565b634e487b7160e01b5f52602260045260245ffd5b90600160028304921680156107cd575b60208310146107c857565b610799565b91607f16916107bd565b60209181520190565b5f5260205f2090565b905f92918054906108036107fc836107ad565b80946107d7565b916001811690815f1461085a575060011461081e575b505050565b61082b91929394506107e0565b915f925b81841061084257505001905f8080610819565b6001816020929593955484860152019101929061082f565b92949550505060ff19168252151560200201905f8080610819565b9061087f916107e9565b90565b634e487b7160e01b5f52604160045260245ffd5b906108a090610157565b810190811067ffffffffffffffff8211176108ba57604052565b610882565b906108df6108d8926108cf610122565b93848092610875565b0383610896565b565b6108ea906108bf565b90565b6108f5610794565b5061090060036108e1565b90565b5f90565b61092491610913610903565b5061091c610f19565b919091610f26565b600190565b5f90565b5f1c90565b61093e6109439161092d565b6102cd565b90565b6109509054610932565b90565b61095b610929565b506109666002610946565b90565b60a01c90565b61097b61098091610969565b6106bc565b90565b61098d905461096f565b90565b90565b6109a76109a26109ac92610990565b61039c565b610219565b90565b6109bb6109c09161092d565b61035c565b90565b6109cd90546109af565b90565b634e487b7160e01b5f52601160045260245ffd5b6109ed90610219565b5f1981146109fb5760010190565b6109d0565b5f1b90565b90610a115f1991610a00565b9181191691161790565b610a2f610a2a610a3492610219565b61039c565b610219565b90565b90565b90610a4f610a4a610a5692610a1b565b610a37565b8254610a05565b9055565b610a63906103bb565b90565b90565b610a7d610a78610a8292610a66565b61039c565b610219565b90565b610a9768056bc75e2d63100000610a69565b90565b5f80fd5b60e01b90565b5f910312610aae57565b61012c565b610abc906101ea565b9052565b604090610ae9610af09496959396610adf60608401985f850190610ab3565b6020830190610ab3565b0190610305565b565b610afa610122565b3d5f823e3d90fd5b91610b0b610903565b50610b166005610983565b80610c2b575b80610c00575b610b36575b610b3392919091610f36565b90565b610b52610b4b610b466006610946565b6109e4565b6006610a3a565b610b64610b5f60056109c3565b6103c7565b92637750c9f081610b7430610a5a565b95610b7d610a85565b92813b15610bfb575f610ba391610bae8296610b97610122565b9b8c9788968795610a9e565b855260048501610ac0565b03925af1938415610bf657610b3394610bca575b509250610b27565b610be9905f3d8111610bef575b610be18183610896565b810190610aa4565b5f610bc2565b503d610bd7565b610af2565b610a9a565b5081610c25610c1f610c1a610c1560056109c3565b6103c7565b6101ea565b916101ea565b14610b22565b50610c366006610946565b610c48610c425f610993565b91610219565b14610b1c565b5f90565b90565b610c69610c64610c6e92610c52565b61039c565b6104cf565b90565b610c79610c4e565b50610c846012610c55565b90565b90610c9191610fa2565b565b610c9c906103bb565b90565b90610ca990610c93565b5f5260205260405f2090565b610ccb610cd091610cc4610929565b505f610c9f565b610946565b90565b60a01b90565b90610ce860ff60a01b91610cd3565b9181191691161790565b610cfb9061026c565b90565b90565b90610d16610d11610d1d92610cf2565b610cfe565b8254610cd9565b9055565b610d2d60016005610d01565b610d40610d395f610993565b6006610a3a565b565b610d4a610794565b50610d5560046108e1565b90565b90610d61610903565b50610d6c6005610983565b80610e7f575b80610e53575b610d89575b610d8691611000565b90565b610da5610d9e610d996006610946565b6109e4565b6006610a3a565b610db7610db260056109c3565b6103c7565b916359508f8f33610dc730610a5a565b94610dd0610a85565b92813b15610e4e575f610df691610e018296610dea610122565b9a8b9788968795610a9e565b855260048501610ac0565b03925af1928315610e4957610d8693610e1d575b509150610d7d565b610e3c905f3d8111610e42575b610e348183610896565b810190610aa4565b5f610e15565b503d610e2a565b610af2565b610a9a565b5081610e78610e72610e6d610e6860056109c3565b6103c7565b6101ea565b916101ea565b1415610d78565b50610e8a6006610946565b610e9c610e965f610993565b91610219565b14610d72565b610ead5f6005610d01565b610ec0610eb95f610993565b6006610a3a565b565b610ed5610ece5f610993565b6006610a3a565b565b90610ee190610c93565b5f5260205260405f2090565b610f1291610f08610f0d92610f00610929565b506001610ed7565b610c9f565b610946565b90565b5f90565b610f21610f15565b503390565b91610f349291600192611022565b565b91610f6092610f43610903565b50610f58610f4f610f19565b82908491611171565b9190916111fd565b600190565b610f79610f74610f7e92610990565b61039c565b6101df565b90565b610f8a90610f65565b90565b9190610fa0905f60208501940190610ab3565b565b80610fbd610fb7610fb25f610f81565b6101ea565b916101ea565b14610fd957610fd791610fcf5f610f81565b9190916112cd565b565b610ffc610fe55f610f81565b5f91829163ec442f0560e01b835260048301610f8d565b0390fd5b61101d9161100c610903565b50611015610f19565b9190916111fd565b600190565b90928161103f6110396110345f610f81565b6101ea565b916101ea565b1461110a578361105f6110596110545f610f81565b6101ea565b916101ea565b146110e3576110838361107e61107760018690610ed7565b8790610c9f565b610a3a565b61108d575b505050565b9190916110d86110c66110c07f8c5be1e5ebec7d5bd14f71427d1e84f3dd0314c0f7b2291e5b200ac8c7c3b92593610c93565b93610c93565b936110cf610122565b91829182610312565b0390a35f8080611088565b6111066110ef5f610f81565b5f918291634a1406b160e11b835260048301610f8d565b0390fd5b61112d6111165f610f81565b5f91829163e602df0560e01b835260048301610f8d565b0390fd5b60409061115a611161949695939661115060608401985f850190610ab3565b6020830190610305565b0190610305565b565b9061116e9103610219565b90565b92919261117f818390610eed565b908161119461118e5f19610219565b91610219565b106111a1575b5050509050565b816111b46111ae87610219565b91610219565b106111da576111d193946111c9919392611163565b905f92611022565b805f808061119a565b506111f9849291925f938493637dc7a0d960e11b855260048501611131565b0390fd5b918261121961121361120e5f610f81565b6101ea565b916101ea565b14611273578161123961123361122e5f610f81565b6101ea565b916101ea565b1461124c5761124a929190916112cd565b565b61126f6112585f610f81565b5f91829163ec442f0560e01b835260048301610f8d565b0390fd5b61129661127f5f610f81565b5f918291634b637e8f60e11b835260048301610f8d565b0390fd5b6112a96112af91939293610219565b92610219565b82018092116112ba57565b6109d0565b906112ca9101610219565b90565b919091806112eb6112e56112e05f610f81565b6101ea565b916101ea565b145f146113cc5761130f611308836113036002610946565b61129a565b6002610a3a565b5b8261132b6113256113205f610f81565b6101ea565b916101ea565b145f146113a05761134f611348836113436002610946565b611163565b6002610a3a565b5b91909161139b6113896113837fddf252ad1be2c89b69c2b068fc378daa952ba7f163c4a11628f55a4df523b3ef93610c93565b93610c93565b93611392610122565b91829182610312565b0390a3565b6113c7826113c16113b25f8790610c9f565b916113bc83610946565b6112bf565b90610a3a565b611350565b6113df6113da5f8390610c9f565b610946565b806113f26113ec85610219565b91610219565b1061141a57611405611415918490611163565b6114105f8490610c9f565b610a3a565b611310565b906114389091925f93849363391434e360e21b855260048501611131565b0390fd","linkReferences":{}},"methodIdentifiers":{"allowance(address,address)":"dd62ed3e","approve(address,uint256)":"095ea7b3","balanceOf(address)":"70a08231","decimals()":"313ce567","disableReentrancy()":"cc23fb1c","enableReentrancy()":"77561a1b","lockUnlock()":"0f3fe22f","mint(address,uint256)":"40c10f19","name()":"06fdde03","reentrancyAttempts()":"0d38ffb8","reentrancyEnabled()":"cf22dff7","resetReentrancyAttempts()":"cd34087c","symbol()":"95d89b41","totalSupply()":"18160ddd","transfer(address,uint256)":"a9059cbb","transferFrom(address,address,uint256)":"23b872dd"},"id":105}