{"abi":[{"type":"constructor","inputs":[{"name":"_initialAuthority","type":"address","internalType":"address"},{"name":"_datastoreAddress","type":"address","internalType":"contract DatastoreSetAddress"}],"stateMutability":"nonpayable"},{"type":"function","name":"GUARD_MODULES_ACCOUNT","inputs":[],"outputs":[{"name":"","type":"bytes32","internalType":"DatastoreSetIdAddress"}],"stateMutability":"view"},{"type":"function","name":"GUARD_MODULES_DEPOSIT","inputs":[],"outputs":[{"name":"","type":"bytes32","internalType":"DatastoreSetIdAddress"}],"stateMutability":"view"},{"type":"function","name":"GUARD_MODULES_WITHDRAW","inputs":[],"outputs":[{"name":"","type":"bytes32","internalType":"DatastoreSetIdAddress"}],"stateMutability":"view"},{"type":"function","name":"addGuardModuleAccount","inputs":[{"name":"guardModule","type":"address","internalType":"address"}],"outputs":[],"stateMutability":"nonpayable"},{"type":"function","name":"addGuardModuleDeposit","inputs":[{"name":"guardModule","type":"address","internalType":"address"}],"outputs":[],"stateMutability":"nonpayable"},{"type":"function","name":"addGuardModuleWithdraw","inputs":[{"name":"guardModule","type":"address","internalType":"address"}],"outputs":[],"stateMutability":"nonpayable"},{"type":"function","name":"authority","inputs":[],"outputs":[{"name":"","type":"address","internalType":"address"}],"stateMutability":"view"},{"type":"function","name":"checkAccount","inputs":[{"name":"account","type":"address","internalType":"address"}],"outputs":[],"stateMutability":"nonpayable"},{"type":"function","name":"checkDeposit","inputs":[{"name":"token","type":"address","internalType":"address"},{"name":"amount","type":"uint256","internalType":"uint256"},{"name":"sender","type":"address","internalType":"address"}],"outputs":[],"stateMutability":"nonpayable"},{"type":"function","name":"checkWithdraw","inputs":[{"name":"token","type":"address","internalType":"address"},{"name":"amount","type":"uint256","internalType":"uint256"},{"name":"sender","type":"address","internalType":"address"}],"outputs":[],"stateMutability":"nonpayable"},{"type":"function","name":"datastoreAddress","inputs":[],"outputs":[{"name":"","type":"address","internalType":"contract DatastoreSetAddress"}],"stateMutability":"view"},{"type":"function","name":"execute","inputs":[{"name":"target","type":"address","internalType":"address"},{"name":"data","type":"bytes","internalType":"bytes"}],"outputs":[{"name":"","type":"bytes","internalType":"bytes"}],"stateMutability":"payable"},{"type":"function","name":"isConsumingScheduledOp","inputs":[],"outputs":[{"name":"","type":"bytes4","internalType":"bytes4"}],"stateMutability":"view"},{"type":"function","name":"removeGuardModuleAccount","inputs":[{"name":"guardModule","type":"address","internalType":"address"}],"outputs":[],"stateMutability":"nonpayable"},{"type":"function","name":"removeGuardModuleDeposit","inputs":[{"name":"guardModule","type":"address","internalType":"address"}],"outputs":[],"stateMutability":"nonpayable"},{"type":"function","name":"removeGuardModuleWithdraw","inputs":[{"name":"guardModule","type":"address","internalType":"address"}],"outputs":[],"stateMutability":"nonpayable"},{"type":"function","name":"setAuthority","inputs":[{"name":"newAuthority","type":"address","internalType":"address"}],"outputs":[],"stateMutability":"nonpayable"},{"type":"event","name":"AuthorityUpdated","inputs":[{"name":"authority","type":"address","indexed":false,"internalType":"address"}],"anonymous":false},{"type":"error","name":"AccessManagedInvalidAuthority","inputs":[{"name":"authority","type":"address","internalType":"address"}]},{"type":"error","name":"AccessManagedRequiredDelay","inputs":[{"name":"caller","type":"address","internalType":"address"},{"name":"delay","type":"uint32","internalType":"uint32"}]},{"type":"error","name":"AccessManagedUnauthorized","inputs":[{"name":"caller","type":"address","internalType":"address"}]},{"type":"error","name":"CallFailed","inputs":[]}],"bytecode":{"object":"0x60a06040523461008d5761001a610014610190565b906101b2565b610022610092565b611cc26102ad823960805181818161051001528181610a1d01528181610c0e01528181610cad01528181610e3b01528181610eda0152818161112d015281816112a201528181611341015281816114f20152818161161c015281816116fc01526117dc0152611cc290f35b610098565b60405190565b5f80fd5b601f801991011690565b634e487b7160e01b5f52604160045260245ffd5b906100c49061009c565b810190811060018060401b038211176100dc57604052565b6100a6565b906100f46100ed610092565b92836100ba565b565b5f80fd5b60018060a01b031690565b61010e906100fa565b90565b61011a81610105565b0361012157565b5f80fd5b9050519061013282610111565b565b61013d90610105565b90565b61014981610134565b0361015057565b5f80fd5b9050519061016182610140565b565b919060408382031261018b578061017f610188925f8601610125565b93602001610154565b90565b6100f6565b6101ae611f6f803803806101a3816100e1565b928339810190610163565b9091565b6101bb906101c0565b608052565b6101c990610267565b565b5f1b90565b906101e160018060a01b03916101cb565b9181191691161790565b90565b6102026101fd610207926100fa565b6101eb565b6100fa565b90565b610213906101ee565b90565b61021f9061020a565b90565b90565b9061023a61023561024192610216565b610222565b82546101d0565b9055565b61024e90610105565b9052565b9190610265905f60208501940190610245565b565b610271815f610225565b6102a77f2f658b440c35314f52658ea8a740e05b284cdc84dc9ae01e891f21b8933e7cad9161029e610092565b91829182610252565b0390a156fe60806040526004361015610013575b610819565b61001d5f3561012c565b80631cff79cd14610127578063272527e41461012257806351bacc801461011d5780635fb035111461011857806369921c26146101135780636b0b66991461010e5780637a9e5e4b14610109578063814ebc4914610104578063823eae5d146100ff5780638fb36037146100fa578063a44eda3c146100f5578063aee9777b146100f0578063b0db329b146100eb578063bf7e214f146100e6578063d02a94b4146100e1578063e358b6f2146100dc5763f54365aa0361000e576107e6565b6107b3565b610780565b61074b565b6106f6565b6106c1565b610656565b610621565b6105c0565b61058b565b6104db565b6104a6565b61043c565b610408565b610375565b61031d565b610276565b60e01c90565b60405190565b5f80fd5b5f80fd5b60018060a01b031690565b61015490610140565b90565b6101608161014b565b0361016757565b5f80fd5b9050359061017882610157565b565b5f80fd5b5f80fd5b5f80fd5b909182601f830112156101c05781359167ffffffffffffffff83116101bb5760200192600183028401116101b657565b610182565b61017e565b61017a565b919091604081840312610206576101de835f830161016b565b92602082013567ffffffffffffffff8111610201576101fd9201610186565b9091565b61013c565b610138565b5190565b60209181520190565b90825f9392825e0152565b601f801991011690565b61024c61025560209361025a936102438161020b565b9384809361020f565b95869101610218565b610223565b0190565b6102739160208201915f81840391015261022d565b90565b61029e61028d6102873660046101c5565b91610992565b610295610132565b9182918261025e565b0390f35b5f80fd5b5f9103126102b057565b610138565b90565b6102c1906102b5565b90565b6102ed7f2322684e2a3c11c8766dd0c2f6b594be79b0eefa0c270e03f61c70861f06cf5a6102b8565b90565b6102f86102c4565b90565b610304906102b8565b9052565b919061031b905f602085019401906102fb565b565b3461034d5761032d3660046102a6565b6103496103386102f0565b610340610132565b91829182610308565b0390f35b6102a2565b9060208282031261036b57610368915f0161016b565b90565b610138565b5f0190565b346103a35761038d610388366004610352565b610ac9565b610395610132565b8061039f81610370565b0390f35b6102a2565b90565b6103b4816103a8565b036103bb57565b5f80fd5b905035906103cc826103ab565b565b9091606082840312610403576104006103e9845f850161016b565b936103f781602086016103bf565b9360400161016b565b90565b610138565b346104375761042161041b3660046103ce565b91610c05565b610429610132565b8061043381610370565b0390f35b6102a2565b3461046a5761045461044f366004610352565b610e35565b61045c610132565b8061046681610370565b0390f35b6102a2565b6104987f596e12711089a1b5f565d3d6cbe73f8c15e1713705f33576eb9ba15bbbcd33ea6102b8565b90565b6104a361046f565b90565b346104d6576104b63660046102a6565b6104d26104c161049b565b6104c9610132565b91829182610308565b0390f35b6102a2565b34610509576104f36104ee366004610352565b61107b565b6104fb610132565b8061050581610370565b0390f35b6102a2565b7f000000000000000000000000000000000000000000000000000000000000000090565b90565b61054961054461054e92610140565b610532565b610140565b90565b61055a90610535565b90565b61056690610551565b90565b6105729061055d565b9052565b9190610589905f60208501940190610569565b565b346105bb5761059b3660046102a6565b6105b76105a661050e565b6105ae610132565b91829182610576565b0390f35b6102a2565b346105ee576105d86105d3366004610352565b6111d9565b6105e0610132565b806105ea81610370565b0390f35b6102a2565b63ffffffff60e01b1690565b610608906105f3565b9052565b919061061f905f602085019401906105ff565b565b34610651576106313660046102a6565b61064d61063c611262565b610644610132565b9182918261060c565b0390f35b6102a2565b346106855761066f6106693660046103ce565b91611299565b610677610132565b8061068181610370565b0390f35b6102a2565b6106b37f7ef3773626cbad5e157d0bc91bf684184f2d4b5d8ca4fa45e384c5b26e53fd336102b8565b90565b6106be61068a565b90565b346106f1576106d13660046102a6565b6106ed6106dc6106b6565b6106e4610132565b91829182610308565b0390f35b6102a2565b346107245761070e610709366004610352565b61159e565b610716610132565b8061072081610370565b0390f35b6102a2565b6107329061014b565b9052565b9190610749905f60208501940190610729565b565b3461077b5761075b3660046102a6565b6107776107666115de565b61076e610132565b91829182610736565b0390f35b6102a2565b346107ae57610798610793366004610352565b6116c8565b6107a0610132565b806107aa81610370565b0390f35b6102a2565b346107e1576107cb6107c6366004610352565b6117a8565b6107d3610132565b806107dd81610370565b0390f35b6102a2565b34610814576107fe6107f9366004610352565b611888565b610806610132565b8061081081610370565b0390f35b6102a2565b5f80fd5b606090565b90610847939291610842610834611893565b61083c6118a6565b91611a2b565b61095b565b90565b905090565b90825f939282370152565b90918261086a816108719361084a565b809361084f565b0190565b90916108809261085a565b90565b634e487b7160e01b5f52604160045260245ffd5b906108a190610223565b810190811067ffffffffffffffff8211176108bb57604052565b610883565b906108d36108cc610132565b9283610897565b565b67ffffffffffffffff81116108f3576108ef602091610223565b0190565b610883565b9061090a610905836108d5565b6108c0565b918252565b3d5f1461092a5761091f3d6108f8565b903d5f602084013e5b565b61093261081d565b90610928565b1561093f57565b5f633204506f60e01b81528061095760048201610370565b0390fd5b925f93918493925091349061097a610971610132565b93849283610875565b03925af161098f61098961090f565b91610938565b90565b906109a592916109a061081d565b610822565b90565b6109ca906109c56109b7611893565b6109bf6118a6565b91611a2b565b610a18565b565b5f80fd5b60e01b90565b5f9103126109e057565b610138565b916020610a069294936109ff60408201965f8301906102fb565b0190610729565b565b610a10610132565b3d5f823e3d90fd5b610a417f000000000000000000000000000000000000000000000000000000000000000061055d565b906361641bdc90610a5061068a565b9092803b15610ac457610a765f8094610a81610a6a610132565b978896879586946109d0565b8452600484016109e5565b03925af18015610abf57610a93575b50565b610ab2905f3d8111610ab8575b610aaa8183610897565b8101906109d6565b5f610a90565b503d610aa0565b610a08565b6109cc565b610ad2906109a8565b565b610add90610551565b90565b90505190610aed826103ab565b565b90602082820312610b0857610b05915f01610ae0565b90565b610138565b916020610b2e929493610b2760408201965f830190610729565b01906102fb565b565b5f90565b6001610b4091016103a8565b90565b90505190610b5082610157565b565b90602082820312610b6b57610b68915f01610b43565b90565b610138565b610b79906103a8565b9052565b604090610ba6610bad9496959396610b9c60608401985f850190610729565b60208301906102fb565b0190610b70565b565b610bb890610535565b90565b610bc490610baf565b90565b610bd090610551565b90565b604090610bfc610c039496959396610bf260608401985f850190610729565b6020830190610b70565b0190610729565b565b90929192610c327f000000000000000000000000000000000000000000000000000000000000000061055d565b602063ef91cf0e91610c4330610ad4565b90610c67610c4f61046f565b94610c72610c5b610132565b968795869485946109d0565b845260048401610b0d565b03915afa908115610e30575f91610e02575b5092610c8e610b30565b5b80610ca2610c9c876103a8565b916103a8565b1015610dfa57610cd17f000000000000000000000000000000000000000000000000000000000000000061055d565b60206368e2845b91610ce230610ad4565b90610d07610cee61046f565b94610d1287610cfb610132565b978896879586956109d0565b855260048501610b7d565b03915afa908115610df557610d3791610d32915f91610dc7575b50610bbb565b610bc7565b90635fb035118585938992813b15610dc2575f610d6791610d728296610d5b610132565b998a97889687956109d0565b855260048501610bd3565b03925af1918215610dbd57610d8c92610d91575b50610b34565b610c8f565b610db0905f3d8111610db6575b610da88183610897565b8101906109d6565b5f610d86565b503d610d9e565b610a08565b6109cc565b610de8915060203d8111610dee575b610de08183610897565b810190610b52565b5f610d2c565b503d610dd6565b610a08565b509350505050565b610e23915060203d8111610e29575b610e1b8183610897565b810190610aef565b5f610c84565b503d610e11565b610a08565b90610e5f7f000000000000000000000000000000000000000000000000000000000000000061055d565b602063ef91cf0e91610e7030610ad4565b90610e94610e7c6102c4565b94610e9f610e88610132565b968795869485946109d0565b845260048401610b0d565b03915afa908115611057575f91611029575b5090610ebb610b30565b5b80610ecf610ec9856103a8565b916103a8565b101561102357610efe7f000000000000000000000000000000000000000000000000000000000000000061055d565b60206368e2845b91610f0f30610ad4565b90610f34610f1b6102c4565b94610f3f87610f28610132565b978896879586956109d0565b855260048501610b7d565b03915afa90811561101e57610f6491610f5f915f91610ff0575b50610bbb565b610bc7565b906369921c2685833b15610feb57610f9b93610f905f8094610f84610132565b978895869485936109d0565b835260048301610736565b03925af1918215610fe657610fb592610fba575b50610b34565b610ebc565b610fd9905f3d8111610fdf575b610fd18183610897565b8101906109d6565b5f610faf565b503d610fc7565b610a08565b6109cc565b611011915060203d8111611017575b6110098183610897565b810190610b52565b5f610f59565b503d610fff565b610a08565b50915050565b61104a915060203d8111611050575b6110428183610897565b810190610aef565b5f610eb1565b503d611038565b610a08565b90565b61107361106e6110789261105c565b610532565b6103a8565b90565b611083611893565b8061109d6110976110926115de565b61014b565b9161014b565b036110e65750803b6110b76110b15f61105f565b916103a8565b146110c7576110c590611bc3565b565b6110e2905f9182916361798f2f60e11b835260048301610736565b0390fd5b611100905f91829162d1953b60e31b835260048301610736565b0390fd5b61112690611121611113611893565b61111b6118a6565b91611a2b565b611128565b565b6111517f000000000000000000000000000000000000000000000000000000000000000061055d565b90632874528e906111606102c4565b9092803b156111d4576111865f809461119161117a610132565b978896879586946109d0565b8452600484016109e5565b03925af180156111cf576111a3575b50565b6111c2905f3d81116111c8575b6111ba8183610897565b8101906109d6565b5f6111a0565b503d6111b0565b610a08565b6109cc565b6111e290611104565b565b5f90565b60a01c90565b60ff1690565b611200611205916111e8565b6111ee565b90565b61121290546111f4565b90565b61122961122461122e9261105c565b6109d0565b6105f3565b90565b61123a90610551565b90565b63ffffffff1690565b61125a61125561125f9261123d565b6109d0565b6105f3565b90565b61126a6111e4565b506112745f611208565b5f1461128b57611287638fb36037611246565b5b90565b6112945f611215565b611288565b909291926112c67f000000000000000000000000000000000000000000000000000000000000000061055d565b602063ef91cf0e916112d730610ad4565b906112fb6112e361068a565b946113066112ef610132565b968795869485946109d0565b845260048401610b0d565b03915afa9081156114c4575f91611496575b5092611322610b30565b5b80611336611330876103a8565b916103a8565b101561148e576113657f000000000000000000000000000000000000000000000000000000000000000061055d565b60206368e2845b9161137630610ad4565b9061139b61138261068a565b946113a68761138f610132565b978896879586956109d0565b855260048501610b7d565b03915afa908115611489576113cb916113c6915f9161145b575b50610bbb565b610bc7565b9063a44eda3c8585938992813b15611456575f6113fb9161140682966113ef610132565b998a97889687956109d0565b855260048501610bd3565b03925af19182156114515761142092611425575b50610b34565b611323565b611444905f3d811161144a575b61143c8183610897565b8101906109d6565b5f61141a565b503d611432565b610a08565b6109cc565b61147c915060203d8111611482575b6114748183610897565b810190610b52565b5f6113c0565b503d61146a565b610a08565b509350505050565b6114b7915060203d81116114bd575b6114af8183610897565b810190610aef565b5f611318565b503d6114a5565b610a08565b6114eb906114e66114d8611893565b6114e06118a6565b91611a2b565b6114ed565b565b6115167f000000000000000000000000000000000000000000000000000000000000000061055d565b90632874528e9061152561046f565b9092803b156115995761154b5f809461155661153f610132565b978896879586946109d0565b8452600484016109e5565b03925af1801561159457611568575b50565b611587905f3d811161158d575b61157f8183610897565b8101906109d6565b5f611565565b503d611575565b610a08565b6109cc565b6115a7906114c9565b565b5f90565b5f1c90565b60018060a01b031690565b6115c96115ce916115ad565b6115b2565b90565b6115db90546115bd565b90565b6115e66115a9565b506115f05f6115d1565b90565b61161590611610611602611893565b61160a6118a6565b91611a2b565b611617565b565b6116407f000000000000000000000000000000000000000000000000000000000000000061055d565b90632874528e9061164f61068a565b9092803b156116c3576116755f8094611680611669610132565b978896879586946109d0565b8452600484016109e5565b03925af180156116be57611692575b50565b6116b1905f3d81116116b7575b6116a98183610897565b8101906109d6565b5f61168f565b503d61169f565b610a08565b6109cc565b6116d1906115f3565b565b6116f5906116f06116e2611893565b6116ea6118a6565b91611a2b565b6116f7565b565b6117207f000000000000000000000000000000000000000000000000000000000000000061055d565b906361641bdc9061172f6102c4565b9092803b156117a3576117555f8094611760611749610132565b978896879586946109d0565b8452600484016109e5565b03925af1801561179e57611772575b50565b611791905f3d8111611797575b6117898183610897565b8101906109d6565b5f61176f565b503d61177f565b610a08565b6109cc565b6117b1906116d3565b565b6117d5906117d06117c2611893565b6117ca6118a6565b91611a2b565b6117d7565b565b6118007f000000000000000000000000000000000000000000000000000000000000000061055d565b906361641bdc9061180f61046f565b9092803b15611883576118355f8094611840611829610132565b978896879586946109d0565b8452600484016109e5565b03925af1801561187e57611852575b50565b611871905f3d8111611877575b6118698183610897565b8101906109d6565b5f61184f565b503d61185f565b610a08565b6109cc565b611891906117b3565b565b61189b6115a9565b503390565b36905f90565b6118ae6118a0565b9050505f903690565b90565b6118ce6118c96118d3926118b7565b610532565b6103a8565b90565b5f80fd5b5f80fd5b909392938483116118fe5784116118f9576001820201920390565b6118da565b6118d6565b5090565b1b90565b906119196119209183611903565b91356105f3565b906004811061192e575b5090565b6119469063ffffffff60e01b90600403600802611907565b165f61192a565b151590565b61196661196161196b9261105c565b610532565b61123d565b90565b60a01b90565b9061198360ff60a01b9161196e565b9181191691161790565b6119969061194d565b90565b90565b906119b16119ac6119b89261198d565b611999565b8254611974565b9055565b6119c590610535565b90565b6119d1906119bc565b90565b6119dd90610551565b90565b91906119fa816119f3816119ff9561020f565b809561084f565b610223565b0190565b91611a28939192611a1b60408201945f830190610729565b60208185039101526119e0565b90565b90611a7d611a75611a3a6115de565b84611a4430611231565b90611a6f611a69878a5f90611a63611a5d60049361105f565b926118ba565b926118de565b9061190b565b92611c42565b91901561194d565b611a88575b50505050565b611a9a611a945f611952565b9161123d565b115f14611b5657611aac60015f61199c565b611ac4611abf611aba6115de565b6119c8565b6119d4565b6394c7d7ee92919392813b15611b51575f611af291611afd8296611ae6610132565b988997889687956109d0565b855260048501611a03565b03925af18015611b4c57611b20575b50611b175f5f61199c565b5f808080611a82565b611b3f905f3d8111611b45575b611b378183610897565b8101906109d6565b5f611b0c565b503d611b2d565b610a08565b6109cc565b611b70825f91829162d1953b60e31b835260048301610736565b0390fd5b5f1b90565b90611b8a60018060a01b0391611b74565b9181191691161790565b611b9d90610551565b90565b90565b90611bb8611bb3611bbf92611b94565b611ba0565b8254611b79565b9055565b611bcd815f611ba3565b611c037f2f658b440c35314f52658ea8a740e05b284cdc84dc9ae01e891f21b8933e7cad91611bfa610132565b91829182610736565b0390a1565b5f90565b5f90565b604090611c39611c409496959396611c2f60608401985f850190610729565b6020830190610729565b01906105ff565b565b5f9060409294959395611c95611c56611c08565b97611c86611c62611c0c565b989193611c6d610132565b94859360046020860163b700961360e01b815201611c10565b60208201810382520382610897565b9082805282602052602082519201905afa611cad575b565b9150505f51906020518060201c150290611cab56","linkReferences":{}},"methodIdentifiers":{"GUARD_MODULES_ACCOUNT()":"272527e4","GUARD_MODULES_DEPOSIT()":"6b0b6699","GUARD_MODULES_WITHDRAW()":"aee9777b","addGuardModuleAccount(address)":"e358b6f2","addGuardModuleDeposit(address)":"f54365aa","addGuardModuleWithdraw(address)":"51bacc80","authority()":"bf7e214f","checkAccount(address)":"69921c26","checkDeposit(address,uint256,address)":"5fb03511","checkWithdraw(address,uint256,address)":"a44eda3c","datastoreAddress()":"814ebc49","execute(address,bytes)":"1cff79cd","isConsumingScheduledOp()":"8fb36037","removeGuardModuleAccount(address)":"823eae5d","removeGuardModuleDeposit(address)":"b0db329b","removeGuardModuleWithdraw(address)":"d02a94b4","setAuthority(address)":"7a9e5e4b"},"id":72}