{"abi":[{"type":"constructor","inputs":[{"name":"_initialAuthority","type":"address","internalType":"address"},{"name":"_datastoreAddress","type":"address","internalType":"contract DatastoreSetAddress"}],"stateMutability":"nonpayable"},{"type":"function","name":"GUARD_MODULES_ACCOUNT","inputs":[],"outputs":[{"name":"","type":"bytes32","internalType":"DatastoreSetIdAddress"}],"stateMutability":"view"},{"type":"function","name":"GUARD_MODULES_DEPOSIT","inputs":[],"outputs":[{"name":"","type":"bytes32","internalType":"DatastoreSetIdAddress"}],"stateMutability":"view"},{"type":"function","name":"GUARD_MODULES_WITHDRAW","inputs":[],"outputs":[{"name":"","type":"bytes32","internalType":"DatastoreSetIdAddress"}],"stateMutability":"view"},{"type":"function","name":"add","inputs":[{"name":"setId","type":"bytes32","internalType":"DatastoreSetIdAddress"},{"name":"account","type":"address","internalType":"address"}],"outputs":[],"stateMutability":"nonpayable"},{"type":"function","name":"addBatch","inputs":[{"name":"setId","type":"bytes32","internalType":"DatastoreSetIdAddress"},{"name":"accounts","type":"address[]","internalType":"address[]"}],"outputs":[],"stateMutability":"nonpayable"},{"type":"function","name":"addGuardModuleAccount","inputs":[{"name":"guardModule","type":"address","internalType":"address"}],"outputs":[],"stateMutability":"nonpayable"},{"type":"function","name":"addGuardModuleDeposit","inputs":[{"name":"guardModule","type":"address","internalType":"address"}],"outputs":[],"stateMutability":"nonpayable"},{"type":"function","name":"addGuardModuleWithdraw","inputs":[{"name":"guardModule","type":"address","internalType":"address"}],"outputs":[],"stateMutability":"nonpayable"},{"type":"function","name":"at","inputs":[{"name":"datastoreSetOwner","type":"address","internalType":"address"},{"name":"setId","type":"bytes32","internalType":"DatastoreSetIdAddress"},{"name":"index","type":"uint256","internalType":"uint256"}],"outputs":[{"name":"account","type":"address","internalType":"address"}],"stateMutability":"view"},{"type":"function","name":"authority","inputs":[],"outputs":[{"name":"","type":"address","internalType":"address"}],"stateMutability":"view"},{"type":"function","name":"checkAccount","inputs":[{"name":"account","type":"address","internalType":"address"}],"outputs":[],"stateMutability":"nonpayable"},{"type":"function","name":"checkDeposit","inputs":[{"name":"token","type":"address","internalType":"address"},{"name":"amount","type":"uint256","internalType":"uint256"},{"name":"sender","type":"address","internalType":"address"}],"outputs":[],"stateMutability":"nonpayable"},{"type":"function","name":"checkWithdraw","inputs":[{"name":"token","type":"address","internalType":"address"},{"name":"amount","type":"uint256","internalType":"uint256"},{"name":"sender","type":"address","internalType":"address"}],"outputs":[],"stateMutability":"nonpayable"},{"type":"function","name":"contains","inputs":[{"name":"datastoreSetOwner","type":"address","internalType":"address"},{"name":"setId","type":"bytes32","internalType":"DatastoreSetIdAddress"},{"name":"account","type":"address","internalType":"address"}],"outputs":[{"name":"","type":"bool","internalType":"bool"}],"stateMutability":"view"},{"type":"function","name":"datastoreAddress","inputs":[],"outputs":[{"name":"","type":"address","internalType":"contract DatastoreSetAddress"}],"stateMutability":"view"},{"type":"function","name":"execute","inputs":[{"name":"target","type":"address","internalType":"address"},{"name":"data","type":"bytes","internalType":"bytes"}],"outputs":[{"name":"","type":"bytes","internalType":"bytes"}],"stateMutability":"payable"},{"type":"function","name":"getAll","inputs":[{"name":"datastoreSetOwner","type":"address","internalType":"address"},{"name":"setId","type":"bytes32","internalType":"DatastoreSetIdAddress"}],"outputs":[{"name":"accounts","type":"address[]","internalType":"address[]"}],"stateMutability":"view"},{"type":"function","name":"getFrom","inputs":[{"name":"datastoreSetOwner","type":"address","internalType":"address"},{"name":"setId","type":"bytes32","internalType":"DatastoreSetIdAddress"},{"name":"index","type":"uint256","internalType":"uint256"},{"name":"count","type":"uint256","internalType":"uint256"}],"outputs":[{"name":"items","type":"address[]","internalType":"address[]"}],"stateMutability":"view"},{"type":"function","name":"getLast","inputs":[{"name":"datastoreSetOwner","type":"address","internalType":"address"},{"name":"setId","type":"bytes32","internalType":"DatastoreSetIdAddress"},{"name":"count","type":"uint256","internalType":"uint256"}],"outputs":[{"name":"items","type":"address[]","internalType":"address[]"}],"stateMutability":"view"},{"type":"function","name":"isConsumingScheduledOp","inputs":[],"outputs":[{"name":"","type":"bytes4","internalType":"bytes4"}],"stateMutability":"view"},{"type":"function","name":"length","inputs":[{"name":"datastoreSetOwner","type":"address","internalType":"address"},{"name":"setId","type":"bytes32","internalType":"DatastoreSetIdAddress"}],"outputs":[{"name":"","type":"uint256","internalType":"uint256"}],"stateMutability":"view"},{"type":"function","name":"remove","inputs":[{"name":"setId","type":"bytes32","internalType":"DatastoreSetIdAddress"},{"name":"account","type":"address","internalType":"address"}],"outputs":[],"stateMutability":"nonpayable"},{"type":"function","name":"removeBatch","inputs":[{"name":"setId","type":"bytes32","internalType":"DatastoreSetIdAddress"},{"name":"accounts","type":"address[]","internalType":"address[]"}],"outputs":[],"stateMutability":"nonpayable"},{"type":"function","name":"removeGuardModuleAccount","inputs":[{"name":"guardModule","type":"address","internalType":"address"}],"outputs":[],"stateMutability":"nonpayable"},{"type":"function","name":"removeGuardModuleDeposit","inputs":[{"name":"guardModule","type":"address","internalType":"address"}],"outputs":[],"stateMutability":"nonpayable"},{"type":"function","name":"removeGuardModuleWithdraw","inputs":[{"name":"guardModule","type":"address","internalType":"address"}],"outputs":[],"stateMutability":"nonpayable"},{"type":"function","name":"setAuthority","inputs":[{"name":"newAuthority","type":"address","internalType":"address"}],"outputs":[],"stateMutability":"nonpayable"},{"type":"event","name":"AddAddress","inputs":[{"name":"setId","type":"bytes32","indexed":false,"internalType":"DatastoreSetIdAddress"},{"name":"account","type":"address","indexed":false,"internalType":"address"}],"anonymous":false},{"type":"event","name":"AuthorityUpdated","inputs":[{"name":"authority","type":"address","indexed":false,"internalType":"address"}],"anonymous":false},{"type":"event","name":"RemoveAddress","inputs":[{"name":"setId","type":"bytes32","indexed":false,"internalType":"DatastoreSetIdAddress"},{"name":"account","type":"address","indexed":false,"internalType":"address"}],"anonymous":false},{"type":"error","name":"AccessManagedInvalidAuthority","inputs":[{"name":"authority","type":"address","internalType":"address"}]},{"type":"error","name":"AccessManagedRequiredDelay","inputs":[{"name":"caller","type":"address","internalType":"address"},{"name":"delay","type":"uint32","internalType":"uint32"}]},{"type":"error","name":"AccessManagedUnauthorized","inputs":[{"name":"caller","type":"address","internalType":"address"}]}],"bytecode":{"object":"0x60a06040523461008d5761001a610014610190565b906101b2565b610022610092565b61301d6102ae82396080518181816108c90152818161116201528181611346015281816113e501528181611649015281816116e80152818161199e01528181611e1e01528181611ebd0152818161206e01528181612284015281816123640152612473015261301d90f35b610098565b60405190565b5f80fd5b601f801991011690565b634e487b7160e01b5f52604160045260245ffd5b906100c49061009c565b810190811060018060401b038211176100dc57604052565b6100a6565b906100f46100ed610092565b92836100ba565b565b5f80fd5b60018060a01b031690565b61010e906100fa565b90565b61011a81610105565b0361012157565b5f80fd5b9050519061013282610111565b565b61013d90610105565b90565b61014981610134565b0361015057565b5f80fd5b9050519061016182610140565b565b919060408382031261018b578061017f610188925f8601610125565b93602001610154565b90565b6100f6565b6101ae6132cb803803806101a3816100e1565b928339810190610163565b9091565b6101bb906101c0565b608052565b6101c990610267565b565b5f1b90565b906101e160018060a01b03916101cb565b9181191691161790565b90565b6102026101fd610207926100fa565b6101eb565b6100fa565b90565b610213906101ee565b90565b61021f9061020a565b90565b90565b9061023a61023561024192610216565b610222565b82546101d0565b9055565b61024e90610105565b9052565b9190610265905f60208501940190610245565b565b610272816001610225565b6102a87f2f658b440c35314f52658ea8a740e05b284cdc84dc9ae01e891f21b8933e7cad9161029f610092565b91829182610252565b0390a156fe60806040526004361015610013575b610d74565b61001d5f356101cc565b80630b26e28a146101c75780631cff79cd146101c2578063272527e4146101bd5780632874528e146101b857806351bacc80146101b35780635fb03511146101ae57806361641bdc146101a957806368e2845b146101a457806369921c261461019f5780636b0b66991461019a5780636e920d9214610195578063793d8c96146101905780637a9e5e4b1461018b578063814ebc4914610186578063823eae5d146101815780638fb360371461017c578063951ba07914610177578063990c143f14610172578063a44eda3c1461016d578063aee9777b14610168578063b0db329b14610163578063b19e88461461015e578063bf7e214f14610159578063d02a94b414610154578063e358b6f21461014f578063ef91cf0e1461014a5763f54365aa0361000e57610d41565b610d0b565b610cb6565b610c83565b610c4e565b610c1a565b610be7565b610bb2565b610b47565b610b0e565b610a94565b6109da565b610979565b610944565b610894565b61085e565b6107c7565b610765565b6106fb565b6106c5565b61066f565b61063b565b6105ce565b61057c565b610515565b610475565b610343565b60e01c90565b60405190565b5f80fd5b5f80fd5b5f80fd5b60018060a01b031690565b6101f8906101e4565b90565b610204816101ef565b0361020b57565b5f80fd5b9050359061021c826101fb565b565b90565b61022a8161021e565b0361023157565b5f80fd5b9050359061024282610221565b565b90565b61025081610244565b0361025757565b5f80fd5b9050359061026882610247565b565b909160608284031261029f5761029c610285845f850161020f565b936102938160208601610235565b9360400161025b565b90565b6101dc565b5190565b60209181520190565b60200190565b6102c0906101ef565b9052565b906102d1816020936102b7565b0190565b60200190565b906102f86102f26102eb846102a4565b80936102a8565b926102b1565b905f5b8181106103085750505090565b90919261032161031b60019286516102c4565b946102d5565b91019190916102fb565b6103409160208201915f8184039101526102db565b90565b346103745761037061035f61035936600461026a565b91610df1565b6103676101d2565b9182918261032b565b0390f35b6101d8565b5f80fd5b5f80fd5b5f80fd5b909182601f830112156103bf5781359167ffffffffffffffff83116103ba5760200192600183028401116103b557565b610381565b61037d565b610379565b919091604081840312610405576103dd835f830161020f565b92602082013567ffffffffffffffff8111610400576103fc9201610385565b9091565b6101e0565b6101dc565b5190565b60209181520190565b90825f9392825e0152565b601f801991011690565b61044b610454602093610459936104428161040a565b9384809361040e565b95869101610417565b610422565b0190565b6104729160208201915f81840391015261042c565b90565b61049d61048c6104863660046103c4565b9161103e565b6104946101d2565b9182918261045d565b0390f35b5f9103126104ab57565b6101dc565b6104b99061021e565b90565b6104e57f2322684e2a3c11c8766dd0c2f6b594be79b0eefa0c270e03f61c70861f06cf5a6104b0565b90565b6104f06104bc565b90565b6104fc906104b0565b9052565b9190610513905f602085019401906104f3565b565b34610545576105253660046104a1565b6105416105306104e8565b6105386101d2565b91829182610500565b0390f35b6101d8565b9190604083820312610572578061056661056f925f8601610235565b9360200161020f565b90565b6101dc565b5f0190565b346105ab5761059561058f36600461054a565b90611077565b61059d6101d2565b806105a781610577565b0390f35b6101d8565b906020828203126105c9576105c6915f0161020f565b90565b6101dc565b346105fc576105e66105e13660046105b0565b61120e565b6105ee6101d2565b806105f881610577565b0390f35b6101d8565b90916060828403126106365761063361061c845f850161020f565b9361062a816020860161025b565b9360400161020f565b90565b6101dc565b3461066a5761065461064e366004610601565b9161133d565b61065c6101d2565b8061066681610577565b0390f35b6101d8565b3461069e5761068861068236600461054a565b9061156d565b6106906101d2565b8061069a81610577565b0390f35b6101d8565b6106ac906101ef565b9052565b91906106c3905f602085019401906106a3565b565b346106f6576106f26106e16106db36600461026a565b91611613565b6106e96101d2565b918291826106b0565b0390f35b6101d8565b346107295761071361070e3660046105b0565b611643565b61071b6101d2565b8061072581610577565b0390f35b6101d8565b6107577f596e12711089a1b5f565d3d6cbe73f8c15e1713705f33576eb9ba15bbbcd33ea6104b0565b90565b61076261072e565b90565b34610795576107753660046104a1565b61079161078061075a565b6107886101d2565b91829182610500565b0390f35b6101d8565b91906040838203126107c257806107b66107bf925f860161020f565b93602001610235565b90565b6101dc565b346107f8576107f46107e36107dd36600461079a565b9061186a565b6107eb6101d2565b9182918261032b565b0390f35b6101d8565b90916060828403126108325761082f610818845f850161020f565b936108268160208601610235565b9360400161020f565b90565b6101dc565b151590565b61084590610837565b9052565b919061085c905f6020850194019061083c565b565b3461088f5761088b61087a6108743660046107fd565b9161189d565b6108826101d2565b91829182610849565b0390f35b6101d8565b346108c2576108ac6108a73660046105b0565b6118ec565b6108b46101d2565b806108be81610577565b0390f35b6101d8565b7f000000000000000000000000000000000000000000000000000000000000000090565b90565b6109026108fd610907926101e4565b6108eb565b6101e4565b90565b610913906108ee565b90565b61091f9061090a565b90565b61092b90610916565b9052565b9190610942905f60208501940190610922565b565b34610974576109543660046104a1565b61097061095f6108c7565b6109676101d2565b9182918261092f565b0390f35b6101d8565b346109a75761099161098c3660046105b0565b611a4a565b6109996101d2565b806109a381610577565b0390f35b6101d8565b63ffffffff60e01b1690565b6109c1906109ac565b9052565b91906109d8905f602085019401906109b8565b565b34610a0a576109ea3660046104a1565b610a066109f5611ad3565b6109fd6101d2565b918291826109c5565b0390f35b6101d8565b909182601f83011215610a495781359167ffffffffffffffff8311610a44576020019260208302840111610a3f57565b610381565b61037d565b610379565b919091604081840312610a8f57610a67835f8301610235565b92602082013567ffffffffffffffff8111610a8a57610a869201610a0f565b9091565b6101e0565b6101dc565b34610ac357610aad610aa7366004610a4e565b91611b45565b610ab56101d2565b80610abf81610577565b0390f35b6101d8565b608081830312610b0957610ade825f830161020f565b92610b06610aef8460208501610235565b93610afd816040860161025b565b9360600161025b565b90565b6101dc565b34610b4257610b3e610b2d610b24366004610ac8565b92919091611cf0565b610b356101d2565b9182918261032b565b0390f35b6101d8565b34610b7657610b60610b5a366004610601565b91611e15565b610b686101d2565b80610b7281610577565b0390f35b6101d8565b610ba47f7ef3773626cbad5e157d0bc91bf684184f2d4b5d8ca4fa45e384c5b26e53fd336104b0565b90565b610baf610b7b565b90565b34610be257610bc23660046104a1565b610bde610bcd610ba7565b610bd56101d2565b91829182610500565b0390f35b6101d8565b34610c1557610bff610bfa3660046105b0565b61211a565b610c076101d2565b80610c1181610577565b0390f35b6101d8565b34610c4957610c33610c2d366004610a4e565b91612125565b610c3b6101d2565b80610c4581610577565b0390f35b6101d8565b34610c7e57610c5e3660046104a1565b610c7a610c69612245565b610c716101d2565b918291826106b0565b0390f35b6101d8565b34610cb157610c9b610c963660046105b0565b612330565b610ca36101d2565b80610cad81610577565b0390f35b6101d8565b34610ce457610cce610cc93660046105b0565b612410565b610cd66101d2565b80610ce081610577565b0390f35b6101d8565b610cf290610244565b9052565b9190610d09905f60208501940190610ce9565b565b34610d3c57610d38610d27610d2136600461079a565b9061241b565b610d2f6101d2565b91829182610cf6565b0390f35b6101d8565b34610d6f57610d59610d543660046105b0565b61251f565b610d616101d2565b80610d6b81610577565b0390f35b6101d8565b5f80fd5b606090565b610d869061090a565b90565b90610d9390610d7d565b5f5260205260405f2090565b90610da9906104b0565b5f5260205260405f2090565b90565b634e487b7160e01b5f52601160045260245ffd5b610ddb610de191939293610244565b92610244565b8203918211610dec57565b610db8565b91610e5292610dfe610d78565b50610e24610e1f610e1a610e135f8590610d89565b8690610d9f565b610db5565b61252d565b9081610e38610e3285610244565b91610244565b10610e55575b610e4b9093918390610dcc565b9192611cf0565b90565b9150610e4b81929050610e3e565b606090565b90610e8d939291610e88610e7a61254c565b610e8261255f565b916126df565b610fe0565b90565b905090565b90825f939282370152565b909182610eb081610eb793610e90565b8093610e95565b0190565b9091610ec692610ea0565b90565b634e487b7160e01b5f52604160045260245ffd5b90610ee790610422565b810190811067ffffffffffffffff821117610f0157604052565b610ec9565b90610f19610f126101d2565b9283610edd565b565b67ffffffffffffffff8111610f3957610f35602091610422565b0190565b610ec9565b90610f50610f4b83610f1b565b610f06565b918252565b3d5f14610f7057610f653d610f3e565b903d5f602084013e5b565b610f78610e63565b90610f6e565b60209181520190565b5f7f47756172644272696467653a2063616c6c206661696c65640000000000000000910152565b610fbb6018602092610f7e565b610fc481610f87565b0190565b610fdd9060208101905f818303910152610fae565b90565b925f939184939250913490610fff610ff66101d2565b93849283610ebb565b03925af161101561100e610f55565b9115610837565b61101c5790565b6110246101d2565b62461bcd60e51b81528061103a60048201610fc8565b0390fd5b90611051929161104c610e63565b610e68565b90565b91602061107592949361106e60408201965f8301906104f3565b01906106a3565b565b61109e61109761109261108b5f3390610d89565b8490610d9f565b610db5565b8390612872565b6110a7575b5050565b6110ce6110c76110c26110bb5f3390610d89565b8490610d9f565b610db5565b83906128ac565b50907ff5e4303253eeb171e82c29899b478619012188fb35603062a896a44f03b30751916111066110fd6101d2565b92839283611054565b0390a15f806110a3565b6111329061112d61111f61254c565b61112761255f565b916126df565b61115d565b565b5f80fd5b60e01b90565b5f91031261114857565b6101dc565b6111556101d2565b3d5f823e3d90fd5b6111867f0000000000000000000000000000000000000000000000000000000000000000610916565b906361641bdc90611195610b7b565b9092803b15611209576111bb5f80946111c66111af6101d2565b97889687958694611138565b845260048401611054565b03925af18015611204576111d8575b50565b6111f7905f3d81116111fd575b6111ef8183610edd565b81019061113e565b5f6111d5565b503d6111e5565b61114d565b611134565b61121790611110565b565b6112229061090a565b90565b9050519061123282610247565b565b9060208282031261124d5761124a915f01611225565b90565b6101dc565b91602061127392949361126c60408201965f8301906106a3565b01906104f3565b565b5f90565b60016112859101610244565b90565b90505190611295826101fb565b565b906020828203126112b0576112ad915f01611288565b90565b6101dc565b6040906112de6112e594969593966112d460608401985f8501906106a3565b60208301906104f3565b0190610ce9565b565b6112f0906108ee565b90565b6112fc906112e7565b90565b6113089061090a565b90565b60409061133461133b949695939661132a60608401985f8501906106a3565b6020830190610ce9565b01906106a3565b565b9092919261136a7f0000000000000000000000000000000000000000000000000000000000000000610916565b602063ef91cf0e9161137b30611219565b9061139f61138761072e565b946113aa6113936101d2565b96879586948594611138565b845260048401611252565b03915afa908115611568575f9161153a575b50926113c6611275565b5b806113da6113d487610244565b91610244565b1015611532576114097f0000000000000000000000000000000000000000000000000000000000000000610916565b60206368e2845b9161141a30611219565b9061143f61142661072e565b9461144a876114336101d2565b97889687958695611138565b8552600485016112b5565b03915afa90811561152d5761146f9161146a915f916114ff575b506112f3565b6112ff565b90635fb035118585938992813b156114fa575f61149f916114aa82966114936101d2565b998a9788968795611138565b85526004850161130b565b03925af19182156114f5576114c4926114c9575b50611279565b6113c7565b6114e8905f3d81116114ee575b6114e08183610edd565b81019061113e565b5f6114be565b503d6114d6565b61114d565b611134565b611520915060203d8111611526575b6115188183610edd565b810190611297565b5f611464565b503d61150e565b61114d565b509350505050565b61155b915060203d8111611561575b6115538183610edd565b810190611234565b5f6113bc565b503d611549565b61114d565b61159d61159761159061158b6115845f3390610d89565b8590610d9f565b610db5565b8490612872565b15610837565b6115a6575b5050565b6115cd6115c66115c16115ba5f3390610d89565b8490610d9f565b610db5565b83906128e6565b50907feee414c6e3f7e93a25467a4b182d4d25fc0cc83f33c7270173590db573995a1a916116056115fc6101d2565b92839283611054565b0390a15f806115a2565b5f90565b611636611640939261163161163b9361162a61160f565b505f610d89565b610d9f565b610db5565b61296c565b90565b9061166d7f0000000000000000000000000000000000000000000000000000000000000000610916565b602063ef91cf0e9161167e30611219565b906116a261168a6104bc565b946116ad6116966101d2565b96879586948594611138565b845260048401611252565b03915afa908115611865575f91611837575b50906116c9611275565b5b806116dd6116d785610244565b91610244565b10156118315761170c7f0000000000000000000000000000000000000000000000000000000000000000610916565b60206368e2845b9161171d30611219565b906117426117296104bc565b9461174d876117366101d2565b97889687958695611138565b8552600485016112b5565b03915afa90811561182c576117729161176d915f916117fe575b506112f3565b6112ff565b906369921c2685833b156117f9576117a99361179e5f80946117926101d2565b97889586948593611138565b8352600483016106b0565b03925af19182156117f4576117c3926117c8575b50611279565b6116ca565b6117e7905f3d81116117ed575b6117df8183610edd565b81019061113e565b5f6117bd565b503d6117d5565b61114d565b611134565b61181f915060203d8111611825575b6118178183610edd565b810190611297565b5f611767565b503d61180d565b61114d565b50915050565b611858915060203d811161185e575b6118508183610edd565b810190611234565b5f6116bf565b503d611846565b61114d565b61188c6118969261188761189193611880610d78565b505f610d89565b610d9f565b610db5565b6129a4565b90565b5f90565b6118c06118ca93926118bb6118c5936118b4611899565b505f610d89565b610d9f565b610db5565b612872565b90565b90565b6118e46118df6118e9926118cd565b6108eb565b610244565b90565b6118f461254c565b8061190e611908611903612245565b6101ef565b916101ef565b036119575750803b6119286119225f6118d0565b91610244565b146119385761193690612a0a565b565b611953905f9182916361798f2f60e11b8352600483016106b0565b0390fd5b611971905f91829162d1953b60e31b8352600483016106b0565b0390fd5b6119979061199261198461254c565b61198c61255f565b916126df565b611999565b565b6119c27f0000000000000000000000000000000000000000000000000000000000000000610916565b90632874528e906119d16104bc565b9092803b15611a45576119f75f8094611a026119eb6101d2565b97889687958694611138565b845260048401611054565b03925af18015611a4057611a14575b50565b611a33905f3d8111611a39575b611a2b8183610edd565b81019061113e565b5f611a11565b503d611a21565b61114d565b611134565b611a5390611975565b565b5f90565b60a01c90565b60ff1690565b611a71611a7691611a59565b611a5f565b90565b611a839054611a65565b90565b611a9a611a95611a9f926118cd565b611138565b6109ac565b90565b611aab9061090a565b90565b63ffffffff1690565b611acb611ac6611ad092611aae565b611138565b6109ac565b90565b611adb611a55565b50611ae66001611a79565b5f14611afd57611af9638fb36037611ab7565b5b90565b611b065f611a86565b611afa565b5090565b634e487b7160e01b5f52603260045260245ffd5b9190811015611b33576020020190565b611b0f565b35611b42816101fb565b90565b90929192611b51611275565b5b80611b6f611b69611b64858990611b0b565b610244565b91610244565b1015611c3657611bc890611b8d611b8884888491611b23565b611b38565b611bbd611bb7611bb0611bab611ba45f3390610d89565b8990610d9f565b610db5565b8390612872565b15610837565b611bcd575b50611279565b611b52565b611bf4611bed611be8611be15f3390610d89565b8890610d9f565b610db5565b82906128e6565b5084907feee414c6e3f7e93a25467a4b182d4d25fc0cc83f33c7270173590db573995a1a91611c2d611c246101d2565b92839283611054565b0390a15f611bc2565b5050509050565b67ffffffffffffffff8111611c555760208091020190565b610ec9565b90611c6c611c6783611c3d565b610f06565b918252565b369037565b90611c9b611c8383611c5a565b92602080611c918693611c3d565b9201910390611c71565b565b611cac611cb291939293610244565b92610244565b8201809211611cbd57565b610db8565b90611ccc826102a4565b811015611cdd576020809102010190565b611b0f565b90611cec906101ef565b9052565b939293611cfb610d78565b50611d21611d1c611d17611d105f8590610d89565b8590610d9f565b610db5565b61252d565b83611d34611d2e83610244565b91610244565b1015611dfb57611d45848790611c9d565b611d57611d5183610244565b91610244565b11611de7575b50611d6785611c76565b93611d70611275565b5b80611d84611d7e89610244565b91610244565b1015611dde57611dd990611dd4611dc2611db1611dac611da55f8990610d89565b8990610d9f565b610db5565b611dbc898590611c9d565b9061296c565b611dcf8991849092611cc2565b611ce2565b611279565b611d71565b50945050505090565b611df49195508390610dcc565b935f611d5d565b505050509050611e12611e0d5f6118d0565b611c76565b90565b90929192611e427f0000000000000000000000000000000000000000000000000000000000000000610916565b602063ef91cf0e91611e5330611219565b90611e77611e5f610b7b565b94611e82611e6b6101d2565b96879586948594611138565b845260048401611252565b03915afa908115612040575f91612012575b5092611e9e611275565b5b80611eb2611eac87610244565b91610244565b101561200a57611ee17f0000000000000000000000000000000000000000000000000000000000000000610916565b60206368e2845b91611ef230611219565b90611f17611efe610b7b565b94611f2287611f0b6101d2565b97889687958695611138565b8552600485016112b5565b03915afa90811561200557611f4791611f42915f91611fd7575b506112f3565b6112ff565b9063a44eda3c8585938992813b15611fd2575f611f7791611f828296611f6b6101d2565b998a9788968795611138565b85526004850161130b565b03925af1918215611fcd57611f9c92611fa1575b50611279565b611e9f565b611fc0905f3d8111611fc6575b611fb88183610edd565b81019061113e565b5f611f96565b503d611fae565b61114d565b611134565b611ff8915060203d8111611ffe575b611ff08183610edd565b810190611297565b5f611f3c565b503d611fe6565b61114d565b509350505050565b612033915060203d8111612039575b61202b8183610edd565b810190611234565b5f611e94565b503d612021565b61114d565b6120679061206261205461254c565b61205c61255f565b916126df565b612069565b565b6120927f0000000000000000000000000000000000000000000000000000000000000000610916565b90632874528e906120a161072e565b9092803b15612115576120c75f80946120d26120bb6101d2565b97889687958694611138565b845260048401611054565b03925af18015612110576120e4575b50565b612103905f3d8111612109575b6120fb8183610edd565b81019061113e565b5f6120e1565b503d6120f1565b61114d565b611134565b61212390612045565b565b90929192612131611275565b5b8061214f612149612144858990611b0b565b610244565b91610244565b101561220d5761219f9061216d61216884888491611b23565b611b38565b61219461218d6121886121815f3390610d89565b8890610d9f565b610db5565b8290612872565b6121a4575b50611279565b612132565b6121cb6121c46121bf6121b85f3390610d89565b8890610d9f565b610db5565b82906128ac565b5084907ff5e4303253eeb171e82c29899b478619012188fb35603062a896a44f03b30751916122046121fb6101d2565b92839283611054565b0390a15f612199565b5050509050565b5f1c90565b60018060a01b031690565b61223061223591612214565b612219565b90565b6122429054612224565b90565b61224d61160f565b506122586001612238565b90565b61227d9061227861226a61254c565b61227261255f565b916126df565b61227f565b565b6122a87f0000000000000000000000000000000000000000000000000000000000000000610916565b90632874528e906122b7610b7b565b9092803b1561232b576122dd5f80946122e86122d16101d2565b97889687958694611138565b845260048401611054565b03925af18015612326576122fa575b50565b612319905f3d811161231f575b6123118183610edd565b81019061113e565b5f6122f7565b503d612307565b61114d565b611134565b6123399061225b565b565b61235d9061235861234a61254c565b61235261255f565b916126df565b61235f565b565b6123887f0000000000000000000000000000000000000000000000000000000000000000610916565b906361641bdc906123976104bc565b9092803b1561240b576123bd5f80946123c86123b16101d2565b97889687958694611138565b845260048401611054565b03925af18015612406576123da575b50565b6123f9905f3d81116123ff575b6123f18183610edd565b81019061113e565b5f6123d7565b503d6123e7565b61114d565b611134565b6124199061233b565b565b61243d6124479261243861244293612431611275565b505f610d89565b610d9f565b610db5565b61252d565b90565b61246c9061246761245961254c565b61246161255f565b916126df565b61246e565b565b6124977f0000000000000000000000000000000000000000000000000000000000000000610916565b906361641bdc906124a661072e565b9092803b1561251a576124cc5f80946124d76124c06101d2565b97889687958694611138565b845260048401611054565b03925af18015612515576124e9575b50565b612508905f3d811161250e575b6125008183610edd565b81019061113e565b5f6124e6565b503d6124f6565b61114d565b611134565b6125289061244a565b565b90565b6125445f6125499261253d611275565b500161252a565b612a54565b90565b61255461160f565b503390565b36905f90565b612567612559565b9050505f903690565b90565b61258761258261258c92612570565b6108eb565b610244565b90565b5f80fd5b5f80fd5b909392938483116125b75784116125b2576001820201920390565b612593565b61258f565b5090565b1b90565b906125d26125d991836125bc565b91356109ac565b90600481106125e7575b5090565b6125ff9063ffffffff60e01b906004036008026125c0565b165f6125e3565b61261a61261561261f926118cd565b6108eb565b611aae565b90565b60a01b90565b9061263760ff60a01b91612622565b9181191691161790565b61264a90610837565b90565b90565b9061266561266061266c92612641565b61264d565b8254612628565b9055565b612679906108ee565b90565b61268590612670565b90565b6126919061090a565b90565b91906126ae816126a7816126b39561040e565b8095610e95565b610422565b0190565b916126dc9391926126cf60408201945f8301906106a3565b6020818503910152612694565b90565b906127316127296126ee612245565b846126f830611aa2565b9061272361271d878a5f906127176127116004936118d0565b92612573565b92612597565b906125c4565b92612aa1565b919015610837565b61273c575b50505050565b61274e6127485f612606565b91611aae565b115f1461280b57612760600180612650565b61277861277361276e612245565b61267c565b612688565b6394c7d7ee92919392813b15612806575f6127a6916127b1829661279a6101d2565b98899788968795611138565b8552600485016126b7565b03925af18015612801576127d5575b506127cc5f6001612650565b5f808080612736565b6127f4905f3d81116127fa575b6127ec8183610edd565b81019061113e565b5f6127c0565b503d6127e2565b61114d565b611134565b612825825f91829162d1953b60e31b8352600483016106b0565b0390fd5b612832906108ee565b90565b61284961284461284e926101e4565b6108eb565b610244565b90565b5f1b90565b61286a61286561286f92610244565b612851565b61021e565b90565b906128a461289e6128996128945f6128a99661288c611899565b500194612829565b612835565b612856565b9161252a565b612b5b565b90565b906128de6128d86128d36128ce5f6128e3966128c6611899565b500194612829565b612835565b612856565b9161252a565b612d62565b90565b9061291861291261290d6129085f61291d96612900611899565b500194612829565b612835565b612856565b9161252a565b612e9d565b90565b61293461292f61293992610244565b6108eb565b610244565b90565b61294861294d91612214565b612920565b90565b61296461295f61296992610244565b6108eb565b6101e4565b90565b6129976129926129a19361298d5f61299c9561298661160f565b500161252a565b612f00565b61293c565b612950565b61090a565b90565b6129bb5f6129c0926129b4610d78565b500161252a565b613006565b6129c8610d78565b5090565b906129dd60018060a01b0391612851565b9181191691161790565b90565b906129ff6129fa612a0692610d7d565b6129e7565b82546129cc565b9055565b612a158160016129ea565b612a4b7f2f658b440c35314f52658ea8a740e05b284cdc84dc9ae01e891f21b8933e7cad91612a426101d2565b918291826106b0565b0390a1565b5490565b5f612a6891612a61611275565b5001612a50565b90565b5f90565b604090612a98612a9f9496959396612a8e60608401985f8501906106a3565b60208301906106a3565b01906109b8565b565b5f9060409294959395612af4612ab5611899565b97612ae5612ac1612a6b565b989193612acc6101d2565b94859360046020860163b700961360e01b815201612a6f565b60208201810382520382610edd565b9082805282602052602082519201905afa612b0c575b565b9150505f51906020518060201c150290612b0a565b90612b2b906104b0565b5f5260205260405f2090565b90565b612b46612b4b91612214565b612b37565b90565b612b589054612b3a565b90565b612b79916001612b7492612b6d611899565b5001612b21565b612b4e565b612b8b612b855f6118d0565b91610244565b141590565b90565b612ba7612ba2612bac92612b90565b6108eb565b610244565b90565b5f5260205f2090565b612bc181612a50565b821015612bdb57612bd3600191612baf565b910201905f90565b611b0f565b1c90565b90565b612bf7906008612bfc9302612be0565b612be4565b90565b90612c0a9154612be7565b90565b91906008612c28910291612c225f19846125c0565b926125c0565b9181191691161790565b612c3b90612214565b90565b9190612c54612c4f612c5c936104b0565b612c32565b908354612c0d565b9055565b90612c6c5f1991612851565b9181191691161790565b90565b90612c8e612c89612c9592612920565b612c76565b8254612c60565b9055565b90565b634e487b7160e01b5f52603160045260245ffd5b5490565b5f5260205f2090565b612cc681612cb0565b821015612ce057612cd8600191612cb4565b910201905f90565b611b0f565b5f90565b612cfb91612cf5612ce5565b91612c3e565b565b612d0681612cb0565b8015612d27576001900390612d24612d1e8383612cbd565b90612ce9565b55565b612c9c565b9190612d42612d3d612d4a93612920565b612c76565b908354612c0d565b9055565b612d6091612d5a611275565b91612d2c565b565b612d6a611899565b50612d81612d7c600183018490612b21565b612b4e565b9081612d95612d8f5f6118d0565b91610244565b14155f14612e6157612e13926001612e0e9284612dbc5f96612db685612b93565b90610dcc565b612dd9612dca888501612a50565b612dd386612b93565b90610dcc565b81612dec612de683610244565b91610244565b03612e18575b505050612e08612e03868301612c99565b612cfd565b01612b21565b612d4e565b600190565b612e5992612e4b612e37612e31612e54948c8901612bb8565b90612bff565b93612e4585918c8901612bb8565b90612c3e565b91858501612b21565b612c79565b5f8080612df2565b5050505f90565b9081549168010000000000000000831015612e985782612e90916001612e9695018155612cbd565b90612c3e565b565b610ec9565b612ea5611899565b50612eba612eb4828490612b5b565b15610837565b5f14612efa57612ef0612ef592612edc612ed55f8501612c99565b8290612e68565b6001612ee95f8501612a50565b9301612b21565b612c79565b600190565b50505f90565b612f1e915f612f1892612f11612ce5565b5001612bb8565b90612bff565b90565b606090565b60209181520190565b612f389061021e565b9052565b90612f4981602093612f2f565b0190565b612f59612f5e91612214565b612be4565b90565b612f6b9054612f4d565b90565b60010190565b90612f91612f8b612f8484612a50565b8093612f26565b92612baf565b905f5b818110612fa15750505090565b909192612fc1612fbb600192612fb687612f61565b612f3c565b94612f6e565b9101919091612f94565b90612fd591612f74565b90565b90612ff8612ff192612fe86101d2565b93848092612fcb565b0383610edd565b565b61300390612fd8565b90565b5f61301a91613013612f21565b5001612ffa565b9056","linkReferences":{}},"methodIdentifiers":{"GUARD_MODULES_ACCOUNT()":"272527e4","GUARD_MODULES_DEPOSIT()":"6b0b6699","GUARD_MODULES_WITHDRAW()":"aee9777b","add(bytes32,address)":"61641bdc","addBatch(bytes32,address[])":"951ba079","addGuardModuleAccount(address)":"e358b6f2","addGuardModuleDeposit(address)":"f54365aa","addGuardModuleWithdraw(address)":"51bacc80","at(address,bytes32,uint256)":"68e2845b","authority()":"bf7e214f","checkAccount(address)":"69921c26","checkDeposit(address,uint256,address)":"5fb03511","checkWithdraw(address,uint256,address)":"a44eda3c","contains(address,bytes32,address)":"793d8c96","datastoreAddress()":"814ebc49","execute(address,bytes)":"1cff79cd","getAll(address,bytes32)":"6e920d92","getFrom(address,bytes32,uint256,uint256)":"990c143f","getLast(address,bytes32,uint256)":"0b26e28a","isConsumingScheduledOp()":"8fb36037","length(address,bytes32)":"ef91cf0e","remove(bytes32,address)":"2874528e","removeBatch(bytes32,address[])":"b19e8846","removeGuardModuleAccount(address)":"823eae5d","removeGuardModuleDeposit(address)":"b0db329b","removeGuardModuleWithdraw(address)":"d02a94b4","setAuthority(address)":"7a9e5e4b"},"id":72}