{"abi":[{"type":"constructor","inputs":[{"name":"initialAuthority","type":"address","internalType":"address"}],"stateMutability":"nonpayable"},{"type":"function","name":"authority","inputs":[],"outputs":[{"name":"","type":"address","internalType":"address"}],"stateMutability":"view"},{"type":"function","name":"isConsumingScheduledOp","inputs":[],"outputs":[{"name":"","type":"bytes4","internalType":"bytes4"}],"stateMutability":"view"},{"type":"function","name":"lock","inputs":[{"name":"from","type":"address","internalType":"address"},{"name":"token","type":"address","internalType":"address"},{"name":"amount","type":"uint256","internalType":"uint256"}],"outputs":[],"stateMutability":"nonpayable"},{"type":"function","name":"setAuthority","inputs":[{"name":"newAuthority","type":"address","internalType":"address"}],"outputs":[],"stateMutability":"nonpayable"},{"type":"function","name":"unlock","inputs":[{"name":"to","type":"address","internalType":"address"},{"name":"token","type":"address","internalType":"address"},{"name":"amount","type":"uint256","internalType":"uint256"}],"outputs":[],"stateMutability":"nonpayable"},{"type":"event","name":"AuthorityUpdated","inputs":[{"name":"authority","type":"address","indexed":false,"internalType":"address"}],"anonymous":false},{"type":"error","name":"AccessManagedInvalidAuthority","inputs":[{"name":"authority","type":"address","internalType":"address"}]},{"type":"error","name":"AccessManagedRequiredDelay","inputs":[{"name":"caller","type":"address","internalType":"address"},{"name":"delay","type":"uint32","internalType":"uint32"}]},{"type":"error","name":"AccessManagedUnauthorized","inputs":[{"name":"caller","type":"address","internalType":"address"}]},{"type":"error","name":"InvalidLockFrom","inputs":[]},{"type":"error","name":"InvalidLockThis","inputs":[]},{"type":"error","name":"InvalidUnlockThis","inputs":[]},{"type":"error","name":"InvalidUnlockTo","inputs":[]},{"type":"error","name":"ReentrancyGuardReentrantCall","inputs":[]}],"bytecode":{"object":"0x60806040523461002f576100196100146100f4565b610115565b610021610034565b6112fb6102ae82396112fb90f35b61003a565b60405190565b5f80fd5b601f801991011690565b634e487b7160e01b5f52604160045260245ffd5b906100669061003e565b810190811060018060401b0382111761007e57604052565b610048565b9061009661008f610034565b928361005c565b565b5f80fd5b60018060a01b031690565b6100b09061009c565b90565b6100bc816100a7565b036100c357565b5f80fd5b905051906100d4826100b3565b565b906020828203126100ef576100ec915f016100c7565b90565b610098565b6101126115a98038038061010781610083565b9283398101906100d6565b90565b61011e906101ac565b565b90565b90565b90565b61013d61013861014292610120565b610126565b610123565b90565b61014f6001610129565b90565b5f1b90565b906101635f1991610152565b9181191691161790565b61018161017c61018692610123565b610126565b610123565b90565b90565b906101a161019c6101a89261016d565b610189565b8254610157565b9055565b6101b5906101c9565b6101c76101c0610145565b600161018c565b565b6101d290610268565b565b906101e560018060a01b0391610152565b9181191691161790565b6102036101fe6102089261009c565b610126565b61009c565b90565b610214906101ef565b90565b6102209061020b565b90565b90565b9061023b61023661024292610217565b610223565b82546101d4565b9055565b61024f906100a7565b9052565b9190610266905f60208501940190610246565b565b610272815f610226565b6102a87f2f658b440c35314f52658ea8a740e05b284cdc84dc9ae01e891f21b8933e7cad9161029f610034565b91829182610253565b0390a156fe60806040526004361015610013575b6102a1565b61001d5f3561006c565b806359508f8f146100675780637750c9f0146100625780637a9e5e4b1461005d5780638fb36037146100585763bf7e214f0361000e5761026c565b610215565b6101a5565b610153565b61011f565b60e01c90565b60405190565b5f80fd5b5f80fd5b60018060a01b031690565b61009490610080565b90565b6100a08161008b565b036100a757565b5f80fd5b905035906100b882610097565b565b90565b6100c6816100ba565b036100cd57565b5f80fd5b905035906100de826100bd565b565b9091606082840312610115576101126100fb845f85016100ab565b9361010981602086016100ab565b936040016100d1565b90565b61007c565b5f0190565b3461014e576101386101323660046100e0565b916107e7565b610140610072565b8061014a8161011a565b0390f35b610078565b346101825761016c6101663660046100e0565b91610bb3565b610174610072565b8061017e8161011a565b0390f35b610078565b906020828203126101a05761019d915f016100ab565b90565b61007c565b346101d3576101bd6101b8366004610187565b610bdf565b6101c5610072565b806101cf8161011a565b0390f35b610078565b5f9103126101e257565b61007c565b63ffffffff60e01b1690565b6101fc906101e7565b9052565b9190610213905f602085019401906101f3565b565b34610245576102253660046101d8565b610241610230610ce6565b610238610072565b91829182610200565b0390f35b610078565b6102539061008b565b9052565b919061026a905f6020850194019061024a565b565b3461029c5761027c3660046101d8565b610298610287610d52565b61028f610072565b91829182610257565b0390f35b610078565b5f80fd5b906102c992916102c46102b6610d67565b6102be610d7a565b91610f1d565b6102cb565b565b906102de92916102d96110ec565b6104eb565b6102e6611134565b565b90565b6102ff6102fa61030492610080565b6102e8565b610080565b90565b610310906102eb565b90565b61031c90610307565b90565b610328906102eb565b90565b6103349061031f565b90565b6103409061031f565b90565b5f80fd5b601f801991011690565b634e487b7160e01b5f52604160045260245ffd5b9061036f90610347565b810190811067ffffffffffffffff82111761038957604052565b610351565b60e01b90565b905051906103a1826100bd565b565b906020828203126103bc576103b9915f01610394565b90565b61007c565b6103c9610072565b3d5f823e3d90fd5b151590565b6103df816103d1565b036103e657565b5f80fd5b905051906103f7826103d6565b565b906020828203126104125761040f915f016103ea565b90565b61007c565b610420906100ba565b9052565b91602061044592949361043e60408201965f83019061024a565b0190610417565b565b634e487b7160e01b5f52601160045260245ffd5b61046a610470919392936100ba565b926100ba565b820391821161047b57565b610447565b1561048757565b5f63ac47bae160e01b81528061049f6004820161011a565b0390fd5b6104b26104b8919392936100ba565b926100ba565b82018092116104c357565b610447565b156104cf57565b5f63150432e760e01b8152806104e76004820161011a565b0390fd5b909161053560206105036104fe86610313565b61032b565b6370a082319061052a61051530610337565b9261051e610072565b9586948593849361038e565b835260048301610257565b03915afa9081156107e2575f916107b4575b50610588602061055e61055987610313565b61032b565b6370a082319061057d8792610571610072565b9586948593849361038e565b835260048301610257565b03915afa9081156107af575f91610781575b50926105ad6105a886610313565b61032b565b602063a9059cbb9183906105d45f88956105df6105c8610072565b9788968795869461038e565b845260048401610424565b03925af1801561077c57610750575b50610637602061060561060088610313565b61032b565b6370a082319061062c61061730610337565b92610620610072565b9586948593849361038e565b835260048301610257565b03915afa91821561074b5761066261065d610689946020945f9161071e575b5098610313565b61032b565b61067e6370a08231610672610072565b9586948593849361038e565b835260048301610257565b03915afa928315610719576106e9956106d26106dd946106cc6106c66106c16106e3996106d8985f916106eb575b509593879061045b565b6100ba565b916100ba565b14610480565b946104a3565b6100ba565b916100ba565b146104c8565b565b61070c915060203d8111610712575b6107048183610365565b8101906103a3565b5f6106b7565b503d6106fa565b6103c1565b61073e9150853d8111610744575b6107368183610365565b8101906103a3565b5f610656565b503d61072c565b6103c1565b6107709060203d8111610775575b6107688183610365565b8101906103f9565b6105ee565b503d61075e565b6103c1565b6107a2915060203d81116107a8575b61079a8183610365565b8101906103a3565b5f61059a565b503d610790565b6103c1565b6107d5915060203d81116107db575b6107cd8183610365565b8101906103a3565b5f610547565b503d6107c3565b6103c1565b906107f292916102a5565b565b906108189291610813610805610d67565b61080d610d7a565b91610f1d565b61081a565b565b9061082d92916108286110ec565b6108ae565b610835611134565b565b604090610860610867949695939661085660608401985f85019061024a565b602083019061024a565b0190610417565b565b1561087057565b5f62a6dde360e21b8152806108876004820161011a565b0390fd5b1561089257565b5f631e6e6c3960e21b8152806108aa6004820161011a565b0390fd5b90916108f860206108c66108c186610313565b61032b565b6370a08231906108ed6108d830610337565b926108e1610072565b9586948593849361038e565b835260048301610257565b03915afa908115610bae575f91610b80575b5061094b602061092161091c87610313565b61032b565b6370a08231906109408792610934610072565b9586948593849361038e565b835260048301610257565b03915afa908115610b7b575f91610b4d575b509261097061096b86610313565b61032b565b60206323b872dd9183906109a05f61098730610337565b956109ab8a610994610072565b9889978896879561038e565b855260048501610837565b03925af18015610b4857610b1c575b50610a0360206109d16109cc88610313565b61032b565b6370a08231906109f86109e330610337565b926109ec610072565b9586948593849361038e565b835260048301610257565b03915afa918215610b1757610a2e610a29610a55946020945f91610aea575b5098610313565b61032b565b610a4a6370a08231610a3e610072565b9586948593849361038e565b835260048301610257565b03915afa928315610ae557610ab595610a9e610aa994610a98610a92610a8d610aaf99610aa4985f91610ab7575b50959387906104a3565b6100ba565b916100ba565b14610869565b9461045b565b6100ba565b916100ba565b1461088b565b565b610ad8915060203d8111610ade575b610ad08183610365565b8101906103a3565b5f610a83565b503d610ac6565b6103c1565b610b0a9150853d8111610b10575b610b028183610365565b8101906103a3565b5f610a22565b503d610af8565b6103c1565b610b3c9060203d8111610b41575b610b348183610365565b8101906103f9565b6109ba565b503d610b2a565b6103c1565b610b6e915060203d8111610b74575b610b668183610365565b8101906103a3565b5f61095d565b503d610b5c565b6103c1565b610ba1915060203d8111610ba7575b610b998183610365565b8101906103a3565b5f61090a565b503d610b8f565b6103c1565b90610bbe92916107f4565b565b90565b610bd7610bd2610bdc92610bc0565b6102e8565b6100ba565b90565b610be7610d67565b80610c01610bfb610bf6610d52565b61008b565b9161008b565b03610c4a5750803b610c1b610c155f610bc3565b916100ba565b14610c2b57610c2990611192565b565b610c46905f9182916361798f2f60e11b835260048301610257565b0390fd5b610c64905f91829162d1953b60e31b835260048301610257565b0390fd5b5f90565b60a01c90565b60ff1690565b610c84610c8991610c6c565b610c72565b90565b610c969054610c78565b90565b610cad610ca8610cb292610bc0565b61038e565b6101e7565b90565b610cbe9061031f565b90565b63ffffffff1690565b610cde610cd9610ce392610cc1565b61038e565b6101e7565b90565b610cee610c68565b50610cf85f610c8c565b5f14610d0f57610d0b638fb36037610cca565b5b90565b610d185f610c99565b610d0c565b5f90565b5f1c90565b60018060a01b031690565b610d3d610d4291610d21565b610d26565b90565b610d4f9054610d31565b90565b610d5a610d1d565b50610d645f610d45565b90565b610d6f610d1d565b503390565b36905f90565b610d82610d74565b9050505f903690565b90565b610da2610d9d610da792610d8b565b6102e8565b6100ba565b90565b5f80fd5b5f80fd5b90939293848311610dd2578411610dcd576001820201920390565b610dae565b610daa565b5090565b1b90565b90610ded610df49183610dd7565b91356101e7565b9060048110610e02575b5090565b610e1a9063ffffffff60e01b90600403600802610ddb565b165f610dfe565b610e35610e30610e3a92610bc0565b6102e8565b610cc1565b90565b60a01b90565b90610e5260ff60a01b91610e3d565b9181191691161790565b610e65906103d1565b90565b90565b90610e80610e7b610e8792610e5c565b610e68565b8254610e43565b9055565b610e94906102eb565b90565b610ea090610e8b565b90565b610eac9061031f565b90565b5f910312610eb957565b61007c565b60209181520190565b90825f939282370152565b9190610eec81610ee581610ef195610ebe565b8095610ec7565b610347565b0190565b91610f1a939192610f0d60408201945f83019061024a565b6020818503910152610ed2565b90565b90610f6f610f67610f2c610d52565b84610f3630610cb5565b90610f61610f5b878a5f90610f55610f4f600493610bc3565b92610d8e565b92610db2565b90610ddf565b92611211565b9190156103d1565b610f7a575b50505050565b610f8c610f865f610e21565b91610cc1565b115f1461104857610f9e60015f610e6b565b610fb6610fb1610fac610d52565b610e97565b610ea3565b6394c7d7ee92919392813b15611043575f610fe491610fef8296610fd8610072565b9889978896879561038e565b855260048501610ef5565b03925af1801561103e57611012575b506110095f5f610e6b565b5f808080610f74565b611031905f3d8111611037575b6110298183610365565b810190610eaf565b5f610ffe565b503d61101f565b6103c1565b610343565b611062825f91829162d1953b60e31b835260048301610257565b0390fd5b90565b61107d61107861108292611066565b6102e8565b6100ba565b90565b61108f6002611069565b90565b5f1b90565b906110a35f1991611092565b9181191691161790565b6110c16110bc6110c6926100ba565b6102e8565b6100ba565b90565b90565b906110e16110dc6110e8926110ad565b6110c9565b8254611097565b9055565b6110f46112b5565b6111066110ff611085565b60016110cc565b565b90565b61111f61111a61112492611108565b6102e8565b6100ba565b90565b611131600161110b565b90565b61114661113f611127565b60016110cc565b565b9061115960018060a01b0391611092565b9181191691161790565b61116c9061031f565b90565b90565b9061118761118261118e92611163565b61116f565b8254611148565b9055565b61119c815f611172565b6111d27f2f658b440c35314f52658ea8a740e05b284cdc84dc9ae01e891f21b8933e7cad916111c9610072565b91829182610257565b0390a1565b5f90565b5f90565b60409061120861120f94969593966111fe60608401985f85019061024a565b602083019061024a565b01906101f3565b565b5f90604092949593956112646112256111d7565b976112556112316111db565b98919361123c610072565b94859360046020860163b700961360e01b8152016111df565b60208201810382520382610365565b9082805282602052602082519201905afa61127c575b565b9150505f51906020518060201c15029061127a565b90565b6112a06112a591610d21565b611291565b90565b6112b29054611294565b90565b6112bf60016112a8565b6112d86112d26112cd611085565b6100ba565b916100ba565b146112df57565b5f633ee5aeb560e01b8152806112f76004820161011a565b0390fd","linkReferences":{}},"methodIdentifiers":{"authority()":"bf7e214f","isConsumingScheduledOp()":"8fb36037","lock(address,address,uint256)":"7750c9f0","setAuthority(address)":"7a9e5e4b","unlock(address,address,uint256)":"59508f8f"},"id":73}