{"abi":[{"type":"constructor","inputs":[{"name":"name","type":"string","internalType":"string"},{"name":"symbol","type":"string","internalType":"string"},{"name":"initialAuthority","type":"address","internalType":"address"},{"name":"_logoLink","type":"string","internalType":"string"}],"stateMutability":"nonpayable"},{"type":"function","name":"DOMAIN_SEPARATOR","inputs":[],"outputs":[{"name":"","type":"bytes32","internalType":"bytes32"}],"stateMutability":"view"},{"type":"function","name":"ORIGIN_CHAIN_ID","inputs":[],"outputs":[{"name":"","type":"uint256","internalType":"uint256"}],"stateMutability":"view"},{"type":"function","name":"allowance","inputs":[{"name":"owner","type":"address","internalType":"address"},{"name":"spender","type":"address","internalType":"address"}],"outputs":[{"name":"","type":"uint256","internalType":"uint256"}],"stateMutability":"view"},{"type":"function","name":"approve","inputs":[{"name":"spender","type":"address","internalType":"address"},{"name":"value","type":"uint256","internalType":"uint256"}],"outputs":[{"name":"","type":"bool","internalType":"bool"}],"stateMutability":"nonpayable"},{"type":"function","name":"authority","inputs":[],"outputs":[{"name":"","type":"address","internalType":"address"}],"stateMutability":"view"},{"type":"function","name":"balanceOf","inputs":[{"name":"account","type":"address","internalType":"address"}],"outputs":[{"name":"","type":"uint256","internalType":"uint256"}],"stateMutability":"view"},{"type":"function","name":"burn","inputs":[{"name":"value","type":"uint256","internalType":"uint256"}],"outputs":[],"stateMutability":"nonpayable"},{"type":"function","name":"burnFrom","inputs":[{"name":"account","type":"address","internalType":"address"},{"name":"value","type":"uint256","internalType":"uint256"}],"outputs":[],"stateMutability":"nonpayable"},{"type":"function","name":"decimals","inputs":[],"outputs":[{"name":"","type":"uint8","internalType":"uint8"}],"stateMutability":"view"},{"type":"function","name":"eip712Domain","inputs":[],"outputs":[{"name":"fields","type":"bytes1","internalType":"bytes1"},{"name":"name","type":"string","internalType":"string"},{"name":"version","type":"string","internalType":"string"},{"name":"chainId","type":"uint256","internalType":"uint256"},{"name":"verifyingContract","type":"address","internalType":"address"},{"name":"salt","type":"bytes32","internalType":"bytes32"},{"name":"extensions","type":"uint256[]","internalType":"uint256[]"}],"stateMutability":"view"},{"type":"function","name":"isConsumingScheduledOp","inputs":[],"outputs":[{"name":"","type":"bytes4","internalType":"bytes4"}],"stateMutability":"view"},{"type":"function","name":"logoLink","inputs":[],"outputs":[{"name":"","type":"string","internalType":"string"}],"stateMutability":"view"},{"type":"function","name":"mint","inputs":[{"name":"to","type":"address","internalType":"address"},{"name":"amount","type":"uint256","internalType":"uint256"}],"outputs":[],"stateMutability":"nonpayable"},{"type":"function","name":"name","inputs":[],"outputs":[{"name":"","type":"string","internalType":"string"}],"stateMutability":"view"},{"type":"function","name":"nonces","inputs":[{"name":"owner","type":"address","internalType":"address"}],"outputs":[{"name":"","type":"uint256","internalType":"uint256"}],"stateMutability":"view"},{"type":"function","name":"permit","inputs":[{"name":"owner","type":"address","internalType":"address"},{"name":"spender","type":"address","internalType":"address"},{"name":"value","type":"uint256","internalType":"uint256"},{"name":"deadline","type":"uint256","internalType":"uint256"},{"name":"v","type":"uint8","internalType":"uint8"},{"name":"r","type":"bytes32","internalType":"bytes32"},{"name":"s","type":"bytes32","internalType":"bytes32"}],"outputs":[],"stateMutability":"nonpayable"},{"type":"function","name":"setAuthority","inputs":[{"name":"newAuthority","type":"address","internalType":"address"}],"outputs":[],"stateMutability":"nonpayable"},{"type":"function","name":"setLogoLink","inputs":[{"name":"_logoLink","type":"string","internalType":"string"}],"outputs":[],"stateMutability":"nonpayable"},{"type":"function","name":"symbol","inputs":[],"outputs":[{"name":"","type":"string","internalType":"string"}],"stateMutability":"view"},{"type":"function","name":"totalSupply","inputs":[],"outputs":[{"name":"","type":"uint256","internalType":"uint256"}],"stateMutability":"view"},{"type":"function","name":"transfer","inputs":[{"name":"to","type":"address","internalType":"address"},{"name":"value","type":"uint256","internalType":"uint256"}],"outputs":[{"name":"","type":"bool","internalType":"bool"}],"stateMutability":"nonpayable"},{"type":"function","name":"transferFrom","inputs":[{"name":"from","type":"address","internalType":"address"},{"name":"to","type":"address","internalType":"address"},{"name":"value","type":"uint256","internalType":"uint256"}],"outputs":[{"name":"","type":"bool","internalType":"bool"}],"stateMutability":"nonpayable"},{"type":"event","name":"Approval","inputs":[{"name":"owner","type":"address","indexed":true,"internalType":"address"},{"name":"spender","type":"address","indexed":true,"internalType":"address"},{"name":"value","type":"uint256","indexed":false,"internalType":"uint256"}],"anonymous":false},{"type":"event","name":"AuthorityUpdated","inputs":[{"name":"authority","type":"address","indexed":false,"internalType":"address"}],"anonymous":false},{"type":"event","name":"EIP712DomainChanged","inputs":[],"anonymous":false},{"type":"event","name":"Transfer","inputs":[{"name":"from","type":"address","indexed":true,"internalType":"address"},{"name":"to","type":"address","indexed":true,"internalType":"address"},{"name":"value","type":"uint256","indexed":false,"internalType":"uint256"}],"anonymous":false},{"type":"error","name":"AccessManagedInvalidAuthority","inputs":[{"name":"authority","type":"address","internalType":"address"}]},{"type":"error","name":"AccessManagedRequiredDelay","inputs":[{"name":"caller","type":"address","internalType":"address"},{"name":"delay","type":"uint32","internalType":"uint32"}]},{"type":"error","name":"AccessManagedUnauthorized","inputs":[{"name":"caller","type":"address","internalType":"address"}]},{"type":"error","name":"ECDSAInvalidSignature","inputs":[]},{"type":"error","name":"ECDSAInvalidSignatureLength","inputs":[{"name":"length","type":"uint256","internalType":"uint256"}]},{"type":"error","name":"ECDSAInvalidSignatureS","inputs":[{"name":"s","type":"bytes32","internalType":"bytes32"}]},{"type":"error","name":"ERC20InsufficientAllowance","inputs":[{"name":"spender","type":"address","internalType":"address"},{"name":"allowance","type":"uint256","internalType":"uint256"},{"name":"needed","type":"uint256","internalType":"uint256"}]},{"type":"error","name":"ERC20InsufficientBalance","inputs":[{"name":"sender","type":"address","internalType":"address"},{"name":"balance","type":"uint256","internalType":"uint256"},{"name":"needed","type":"uint256","internalType":"uint256"}]},{"type":"error","name":"ERC20InvalidApprover","inputs":[{"name":"approver","type":"address","internalType":"address"}]},{"type":"error","name":"ERC20InvalidReceiver","inputs":[{"name":"receiver","type":"address","internalType":"address"}]},{"type":"error","name":"ERC20InvalidSender","inputs":[{"name":"sender","type":"address","internalType":"address"}]},{"type":"error","name":"ERC20InvalidSpender","inputs":[{"name":"spender","type":"address","internalType":"address"}]},{"type":"error","name":"ERC2612ExpiredSignature","inputs":[{"name":"deadline","type":"uint256","internalType":"uint256"}]},{"type":"error","name":"ERC2612InvalidSigner","inputs":[{"name":"signer","type":"address","internalType":"address"},{"name":"owner","type":"address","internalType":"address"}]},{"type":"error","name":"InvalidAccountNonce","inputs":[{"name":"account","type":"address","internalType":"address"},{"name":"currentNonce","type":"uint256","internalType":"uint256"}]},{"type":"error","name":"InvalidShortString","inputs":[]},{"type":"error","name":"StringTooLong","inputs":[{"name":"str","type":"string","internalType":"string"}]}],"bytecode":{"object":"0x610180604052346100805761001e610015610241565b929190916104bc565b610026610085565b6127ed610aa0823960805181611832015260a05181611869015260c051816117f9015260e0518161217d015261010051816121a201526101205181611d0301526101405181611d430152610160518161032f01526127ed90f35b61008b565b60405190565b5f80fd5b601f801991011690565b634e487b7160e01b5f52604160045260245ffd5b906100b79061008f565b810190811060018060401b038211176100cf57604052565b610099565b906100e76100e0610085565b92836100ad565b565b5f80fd5b5f80fd5b5f80fd5b5f80fd5b60018060401b0381116101155761011160209161008f565b0190565b610099565b90825f9392825e0152565b9092919261013a610135826100f9565b6100d4565b93818552602085019082840111610156576101549261011a565b565b6100f5565b9080601f830112156101795781602061017693519101610125565b90565b6100f1565b60018060a01b031690565b6101929061017e565b90565b61019e81610189565b036101a557565b5f80fd5b905051906101b682610195565b565b9060808282031261023c575f82015160018060401b03811161023757816101e091840161015b565b92602083015160018060401b03811161023257826101ff91850161015b565b9261020d83604083016101a9565b92606082015160018060401b03811161022d5761022a920161015b565b90565b6100ed565b6100ed565b6100ed565b6100e9565b61025f61328d80380380610254816100d4565b9283398101906101b8565b90919293565b5190565b634e487b7160e01b5f52602260045260245ffd5b906001600283049216801561029d575b602083101461029857565b610269565b91607f169161028d565b5f5260205f2090565b601f602091010490565b1b90565b919060086102d99102916102d35f19846102ba565b926102ba565b9181191691161790565b90565b90565b6102fd6102f8610302926102e3565b6102e6565b6102e3565b90565b90565b919061031e610319610326936102e9565b610305565b9083546102be565b9055565b5f90565b6103409161033a61032a565b91610308565b565b5b81811061034e575050565b8061035b5f60019361032e565b01610343565b9190601f8111610371575b505050565b61037d6103a2936102a7565b906020610389846102b0565b830193106103aa575b61039b906102b0565b0190610342565b5f808061036c565b915061039b81929050610392565b1c90565b906103cc905f19906008026103b8565b191690565b816103db916103bc565b906002021790565b906103ed81610265565b9060018060401b0382116104ab5761040f82610409855461027d565b85610361565b602090601f831160011461044357918091610432935f92610437575b50506103d1565b90555b565b90915001515f8061042b565b601f19831691610452856102a7565b925f5b81811061049357509160029391856001969410610479575b50505002019055610435565b610489910151601f8416906103bc565b90555f808061046d565b91936020600181928787015181550195019201610455565b610099565b906104ba916103e3565b565b916104d0916104dc94938092909192610540565b466101605260096104b0565b565b906104f06104eb836100f9565b6100d4565b918252565b5f7f3100000000000000000000000000000000000000000000000000000000000000910152565b61052660016104de565b90610533602083016104f5565b565b61053d61051c565b90565b9061055593929161054f610535565b90610557565b565b90610564949392916105aa565b565b90565b90565b60200190565b5190565b61058a61058561058f9261017e565b6102e6565b61017e565b90565b61059b90610576565b90565b6105a790610592565b90565b909261060d946105bd916105f294610641565b6105d1816105cb6006610566565b90610703565b610120526105e9836105e36007610566565b90610703565b61014052610569565b6106046105fe82610572565b9161056c565b2060e052610569565b61061f61061982610572565b9161056c565b20610100524660a052610630610815565b60805261063c3061059e565b60c052565b9061064c929161064e565b565b90610659929161065b565b565b9061066e9261066991610670565b6108e5565b565b9061067a9161067c565b565b9061068691610688565b565b9061069761069e9260036104b0565b60046104b0565b565b5f90565b90565b6106bb6106b66106c0926106a4565b6102e6565b6102e3565b90565b90565b90565b5f1b90565b6106e26106dd6106e7926106c3565b6106c9565b6106c6565b90565b6106f460ff6106ce565b90565b610700906106c6565b90565b9061070c6106a0565b5061071e61071983610569565b610572565b61073161072b60206106a7565b916102e3565b105f14610745575061074290610a15565b90565b5f610753610759939261092b565b016104b0565b6107696107646106ea565b6106f7565b90565b5f90565b7f8b73c3c69bb8fe3d512ecc4cf759cc79239f7b179b0ffacaa9a75d522b39400f90565b61079e90516106c6565b90565b6107aa906106c6565b9052565b6107b7906102e3565b9052565b6107c490610189565b9052565b909594926108139461080261080c926107f86080966107ee60a088019c5f8901906107a1565b60208701906107a1565b60408501906107a1565b60608301906107ae565b01906107bb565b565b61081d61076c565b50610826610770565b61087061083360e0610794565b91610861610842610100610794565b4661084c3061059e565b91610855610085565b968795602087016107c8565b602082018103825203826100ad565b61088261087c82610572565b9161056c565b2090565b9061089760018060a01b03916106c9565b9181191691161790565b6108aa90610592565b90565b90565b906108c56108c06108cc926108a1565b6108ad565b8254610886565b9055565b91906108e3905f602085019401906107bb565b565b6108f08160056108b0565b6109267f2f658b440c35314f52658ea8a740e05b284cdc84dc9ae01e891f21b8933e7cad9161091d610085565b918291826108d0565b0390a1565b90565b90565b61094561094061094a9261092e565b6102e6565b6102e3565b90565b60209181520190565b61097561097e6020936109839361096c81610265565b9384809361094d565b9586910161011a565b61008f565b0190565b61099c9160208201915f818403910152610956565b90565b6109b96109b46109ae83610572565b9261056c565b610794565b90602081106109c7575b5090565b6109d9905f19906020036008026102ba565b165f6109c3565b5f1c90565b6109f16109f6916109e0565b6102e9565b90565b610a0d610a08610a12926102e3565b6106c9565b6106c6565b90565b610a1d6106a0565b50610a2781610569565b90610a3182610572565b610a44610a3e601f610931565b916102e3565b11610a795750610a7181610a6b610a65610a60610a769561099f565b6109e5565b91610572565b176109f9565b6106f7565b90565b610a9b90610a85610085565b91829163305a27a960e01b835260048301610987565b0390fdfe60806040526004361015610013575b610d06565b61001d5f3561017c565b806306fdde0314610177578063095ea7b3146101725780630dd85b001461016d57806318160ddd1461016857806323b872dd14610163578063313ce5671461015e5780633644e5151461015957806340c10f191461015457806342966c681461014f57806343202c8b1461014a57806370a082311461014557806379cc6790146101405780637a9e5e4b1461013b5780637ecebe0014610136578063816e81791461013157806384b0196e1461012c5780638fb360371461012757806395d89b4114610122578063a9059cbb1461011d578063bf7e214f14610118578063d505accf146101135763dd62ed3e0361000e57610cd0565b610c69565b610b7e565b610b33565b610afe565b610ac9565b610a5f565b61090b565b610791565b61075e565b61072a565b6106f5565b6106a4565b61055b565b610509565b6104cf565b610475565b610417565b6103a8565b610373565b6102f7565b61020a565b60e01c90565b60405190565b5f80fd5b5f80fd5b5f91031261019a57565b61018c565b5190565b60209181520190565b90825f9392825e0152565b601f801991011690565b6101e06101e96020936101ee936101d78161019f565b938480936101a3565b958691016101ac565b6101b7565b0190565b6102079160208201915f8184039101526101c1565b90565b3461023a5761021a366004610190565b610236610225610d1b565b61022d610182565b918291826101f2565b0390f35b610188565b5f80fd5b60018060a01b031690565b61025790610243565b90565b6102638161024e565b0361026a57565b5f80fd5b9050359061027b8261025a565b565b90565b6102898161027d565b0361029057565b5f80fd5b905035906102a182610280565b565b91906040838203126102cb57806102bf6102c8925f860161026e565b93602001610294565b90565b61018c565b151590565b6102de906102d0565b9052565b91906102f5905f602085019401906102d5565b565b346103285761032461031361030d3660046102a3565b90610d35565b61031b610182565b918291826102e2565b0390f35b610188565b7f000000000000000000000000000000000000000000000000000000000000000090565b61035a9061027d565b9052565b9190610371905f60208501940190610351565b565b346103a357610383366004610190565b61039f61038e61032d565b610396610182565b9182918261035e565b0390f35b610188565b346103d8576103b8366004610190565b6103d46103c3610d84565b6103cb610182565b9182918261035e565b0390f35b610188565b90916060828403126104125761040f6103f8845f850161026e565b93610406816020860161026e565b93604001610294565b90565b61018c565b346104485761044461043361042d3660046103dd565b91610d9a565b61043b610182565b918291826102e2565b0390f35b610188565b60ff1690565b61045c9061044d565b9052565b9190610473905f60208501940190610453565b565b346104a557610485366004610190565b6104a1610490610def565b610498610182565b91829182610460565b0390f35b610188565b90565b6104b6906104aa565b9052565b91906104cd905f602085019401906104ad565b565b346104ff576104df366004610190565b6104fb6104ea610e09565b6104f2610182565b918291826104ba565b0390f35b610188565b5f0190565b346105385761052261051c3660046102a3565b90610e4e565b61052a610182565b8061053481610504565b0390f35b610188565b9060208282031261055657610553915f01610294565b90565b61018c565b346105895761057361056e36600461053d565b610e5a565b61057b610182565b8061058581610504565b0390f35b610188565b5f80fd5b5f80fd5b634e487b7160e01b5f52604160045260245ffd5b906105b4906101b7565b810190811067ffffffffffffffff8211176105ce57604052565b610596565b906105e66105df610182565b92836105aa565b565b67ffffffffffffffff8111610606576106026020916101b7565b0190565b610596565b90825f939282370152565b9092919261062b610626826105e8565b6105d3565b93818552602085019082840111610647576106459261060b565b565b610592565b9080601f8301121561066a5781602061066793359101610616565b90565b61058e565b9060208282031261069f575f82013567ffffffffffffffff811161069a57610697920161064c565b90565b61023f565b61018c565b346106d2576106bc6106b736600461066f565b6110a2565b6106c4610182565b806106ce81610504565b0390f35b610188565b906020828203126106f0576106ed915f0161026e565b90565b61018c565b346107255761072161071061070b3660046106d7565b6110f7565b610718610182565b9182918261035e565b0390f35b610188565b346107595761074361073d3660046102a3565b90611115565b61074b610182565b8061075581610504565b0390f35b610188565b3461078c576107766107713660046106d7565b611153565b61077e610182565b8061078881610504565b0390f35b610188565b346107c1576107bd6107ac6107a73660046106d7565b6111dc565b6107b4610182565b9182918261035e565b0390f35b610188565b634e487b7160e01b5f525f60045260245ffd5b634e487b7160e01b5f52602260045260245ffd5b906001600283049216801561080d575b602083101461080857565b6107d9565b91607f16916107fd565b60209181520190565b5f5260205f2090565b905f929180549061084361083c836107ed565b8094610817565b916001811690815f1461089a575060011461085e575b505050565b61086b9192939450610820565b915f925b81841061088257505001905f8080610859565b6001816020929593955484860152019101929061086f565b92949550505060ff19168252151560200201905f8080610859565b906108bf91610829565b90565b906108e26108db926108d2610182565b938480926108b5565b03836105aa565b565b905f106108f7576108f4906108c2565b90565b6107c6565b61090860095f906108e4565b90565b3461093b5761091b366004610190565b6109376109266108fc565b61092e610182565b918291826101f2565b0390f35b610188565b60ff60f81b1690565b61095290610940565b9052565b61095f9061024e565b9052565b5190565b60209181520190565b60200190565b61097f9061027d565b9052565b9061099081602093610976565b0190565b60200190565b906109b76109b16109aa84610963565b8093610967565b92610970565b905f5b8181106109c75750505090565b9091926109e06109da6001928651610983565b94610994565b91019190916109ba565b93959194610a3b610a30610a4f95610a22610a4595610a5c9c9a610a1560e08c01925f8d0190610949565b8a820360208c01526101c1565b9088820360408a01526101c1565b976060870190610351565b6080850190610956565b60a08301906104ad565b60c081840391015261099a565b90565b34610a9657610a6f366004610190565b610a92610a7a611293565b93610a89979597939193610182565b978897886109ea565b0390f35b610188565b63ffffffff60e01b1690565b610ab090610a9b565b9052565b9190610ac7905f60208501940190610aa7565b565b34610af957610ad9366004610190565b610af5610ae46113a1565b610aec610182565b91829182610ab4565b0390f35b610188565b34610b2e57610b0e366004610190565b610b2a610b196113d9565b610b21610182565b918291826101f2565b0390f35b610188565b34610b6457610b60610b4f610b493660046102a3565b906113ef565b610b57610182565b918291826102e2565b0390f35b610188565b9190610b7c905f60208501940190610956565b565b34610bae57610b8e366004610190565b610baa610b9961143d565b610ba1610182565b91829182610b69565b0390f35b610188565b610bbc8161044d565b03610bc357565b5f80fd5b90503590610bd482610bb3565b565b610bdf816104aa565b03610be657565b5f80fd5b90503590610bf782610bd6565b565b60e081830312610c6457610c0f825f830161026e565b92610c1d836020840161026e565b92610c2b8160408501610294565b92610c398260608301610294565b92610c61610c4a8460808501610bc7565b93610c588160a08601610bea565b9360c001610bea565b90565b61018c565b34610c9e57610c88610c7c366004610bf9565b959490949391936114ff565b610c90610182565b80610c9a81610504565b0390f35b610188565b9190604083820312610ccb5780610cbf610cc8925f860161026e565b9360200161026e565b90565b61018c565b34610d0157610cfd610cec610ce6366004610ca3565b90611609565b610cf4610182565b9182918261035e565b0390f35b610188565b5f80fd5b606090565b610d18906108c2565b90565b610d23610d0a565b50610d2e6003610d0f565b90565b5f90565b610d5291610d41610d31565b50610d4a611631565b91909161163e565b600190565b5f90565b5f1c90565b90565b610d6f610d7491610d5b565b610d60565b90565b610d819054610d63565b90565b610d8c610d57565b50610d976002610d77565b90565b91610dc492610da7610d31565b50610dbc610db3611631565b8290849161168e565b919091611742565b600190565b5f90565b90565b90565b610de7610de2610dec92610dcd565b610dd0565b61044d565b90565b610df7610dc9565b50610e026012610dd3565b90565b5f90565b610e11610e05565b50610e1a6117df565b90565b90610e4091610e3b610e2d611631565b610e3561189f565b91611a47565b610e42565b565b90610e4c91611b92565b565b90610e5891610e1d565b565b610e6b90610e66611631565b611bf0565b565b610e8f90610e8a610e7c611631565b610e8461189f565b91611a47565b611095565b565b601f602091010490565b1b90565b91906008610eba910291610eb45f1984610e9b565b92610e9b565b9181191691161790565b610ed8610ed3610edd9261027d565b610dd0565b61027d565b90565b90565b9190610ef9610ef4610f0193610ec4565b610ee0565b908354610e9f565b9055565b610f1791610f11610d57565b91610ee3565b565b5b818110610f25575050565b80610f325f600193610f05565b01610f1a565b9190601f8111610f48575b505050565b610f54610f7993610820565b906020610f6084610e91565b83019310610f81575b610f7290610e91565b0190610f19565b5f8080610f43565b9150610f7281929050610f69565b1c90565b90610fa3905f1990600802610f8f565b191690565b81610fb291610f93565b906002021790565b90610fc48161019f565b9067ffffffffffffffff821161108457610fe882610fe285546107ed565b85610f38565b602090601f831160011461101c5791809161100b935f92611010575b5050610fa8565b90555b565b90915001515f80611004565b601f1983169161102b85610820565b925f5b81811061106c57509160029391856001969410611052575b5050500201905561100e565b611062910151601f841690610f93565b90555f8080611046565b9193602060018192878701518155019501920161102e565b610596565b9061109391610fba565b565b6110a0906009611089565b565b6110ab90610e6d565b565b6110c16110bc6110c692610243565b610dd0565b610243565b90565b6110d2906110ad565b90565b6110de906110c9565b90565b906110eb906110d5565b5f5260205260405f2090565b61110d61111291611106610d57565b505f6110e1565b610d77565b90565b906111329161112d81611126611631565b849161168e565b611bf0565b565b90565b61114b61114661115092611134565b610dd0565b61027d565b90565b61115b611631565b8061117561116f61116a61143d565b61024e565b9161024e565b036111be5750803b61118f6111895f611137565b9161027d565b1461119f5761119d90611c8d565b565b6111ba905f9182916361798f2f60e11b835260048301610b69565b0390fd5b6111d8905f91829162d1953b60e31b835260048301610b69565b0390fd5b6111ee906111e8610d57565b50611cd3565b90565b5f90565b5f90565b606090565b611207906110c9565b90565b5f1b90565b61122361121e61122892611134565b61120a565b6104aa565b90565b67ffffffffffffffff81116112435760208091020190565b610596565b9061125a6112558361122b565b6105d3565b918252565b369037565b9061128961127183611248565b9260208061127f869361122b565b920191039061125f565b565b600f60f81b90565b61129b6111f1565b506112a4610d0a565b506112ad610d0a565b506112b6610d57565b506112bf6111f5565b506112c8610e05565b506112d16111f9565b506112da611cf5565b906112e3611d35565b9046906112ef306111fe565b906112f95f61120f565b9061130b6113065f611137565b611264565b9061131461128b565b96959493929190565b5f90565b60a01c90565b60ff1690565b61133961133e91611321565b611327565b90565b61134b905461132d565b90565b60e01b90565b61136861136361136d92611134565b61134e565b610a9b565b90565b611379906110c9565b90565b63ffffffff1690565b61139961139461139e9261137c565b61134e565b610a9b565b90565b6113a961131d565b506113b46005611341565b5f146113cb576113c7638fb36037611385565b5b90565b6113d45f611354565b6113c8565b6113e1610d0a565b506113ec6004610d0f565b90565b61140c916113fb610d31565b50611404611631565b919091611742565b600190565b60018060a01b031690565b61142861142d91610d5b565b611411565b90565b61143a905461141c565b90565b6114456111f5565b506114506005611430565b90565b7f6e71edae12b1b97f4d1f60370fef10105fa2faae0126114a169c64845d6126c990565b91946114bf6114c9929897956114b560a0966114ab6114d09a6114a160c08a019e5f8b01906104ad565b6020890190610956565b6040870190610956565b6060850190610351565b6080830190610351565b0190610351565b565b60200190565b5190565b9160206114fd9294936114f660408201965f830190610956565b0190610956565b565b96959193929490944261151a6115148361027d565b9161027d565b116115d4579061158361158c94939261156b611534611453565b61155c8c80948c916115468d91611dba565b9192611550610182565b97889660208801611477565b602082018103825203826105aa565b61157d611577826114d8565b916114d2565b20611ded565b92909192611e0a565b8061159f6115998761024e565b9161024e565b036115b457506115b2929391909161163e565b565b84906115d05f9283926325c0072360e11b8452600484016114dc565b0390fd5b6115ef905f91829163313c898160e11b83526004830161035e565b0390fd5b906115fd906110d5565b5f5260205260405f2090565b61162e916116246116299261161c610d57565b5060016115f3565b6110e1565b610d77565b90565b6116396111f5565b503390565b9161164c9291600192611e31565b565b60409061167761167e949695939661166d60608401985f850190610956565b6020830190610351565b0190610351565b565b9061168b910361027d565b90565b92919261169c818390611609565b90816116b16116ab5f1961027d565b9161027d565b106116be575b5050509050565b816116d16116cb8761027d565b9161027d565b106116f7576116ee93946116e6919392611680565b905f92611e31565b805f80806116b7565b50611716849291925f938493637dc7a0d960e11b85526004850161164e565b0390fd5b61172e61172961173392611134565b610dd0565b610243565b90565b61173f9061171a565b90565b918261175e6117586117535f611736565b61024e565b9161024e565b146117b8578161177e6117786117735f611736565b61024e565b9161024e565b146117915761178f92919091611f87565b565b6117b461179d5f611736565b5f91829163ec442f0560e01b835260048301610b69565b0390fd5b6117db6117c45f611736565b5f918291634b637e8f60e11b835260048301610b69565b0390fd5b6117e7610e05565b506117f1306111fe565b61182361181d7f000000000000000000000000000000000000000000000000000000000000000061024e565b9161024e565b148061185f575b5f14611854577f000000000000000000000000000000000000000000000000000000000000000090565b61185c612167565b90565b504661189361188d7f000000000000000000000000000000000000000000000000000000000000000061027d565b9161027d565b1461182a565b36905f90565b6118a7611899565b9050505f903690565b90565b6118c76118c26118cc926118b0565b610dd0565b61027d565b90565b5f80fd5b5f80fd5b909392938483116118f75784116118f2576001820201920390565b6118d3565b6118cf565b5090565b9061190e61191591836118fc565b9135610a9b565b9060048110611923575b5090565b61193b9063ffffffff60e01b90600403600802610e9b565b165f61191f565b61195661195161195b92611134565b610dd0565b61137c565b90565b60a01b90565b9061197360ff60a01b9161195e565b9181191691161790565b611986906102d0565b90565b90565b906119a161199c6119a89261197d565b611989565b8254611964565b9055565b6119b5906110ad565b90565b6119c1906119ac565b90565b6119cd906110c9565b90565b5f80fd5b5f9103126119de57565b61018c565b60209181520190565b9190611a06816119ff81611a0b956119e3565b809561060b565b6101b7565b0190565b91611a34939192611a2760408201945f830190610956565b60208185039101526119ec565b90565b611a3f610182565b3d5f823e3d90fd5b90611a99611a91611a5661143d565b84611a6030611370565b90611a8b611a85878a5f90611a7f611a79600493611137565b926118b3565b926118d7565b90611900565b9261223b565b9190156102d0565b611aa4575b50505050565b611ab6611ab05f611942565b9161137c565b115f14611b7457611ac96001600561198c565b611ae1611adc611ad761143d565b6119b8565b6119c4565b6394c7d7ee92919392813b15611b6f575f611b0f91611b1a8296611b03610182565b9889978896879561134e565b855260048501611a0f565b03925af18015611b6a57611b3e575b50611b355f600561198c565b5f808080611a9e565b611b5d905f3d8111611b63575b611b5581836105aa565b8101906119d4565b5f611b29565b503d611b4b565b611a37565b6119d0565b611b8e825f91829162d1953b60e31b835260048301610b69565b0390fd5b80611bad611ba7611ba25f611736565b61024e565b9161024e565b14611bc957611bc791611bbf5f611736565b919091611f87565b565b611bec611bd55f611736565b5f91829163ec442f0560e01b835260048301610b69565b0390fd5b9081611c0c611c06611c015f611736565b61024e565b9161024e565b14611c2857611c269190611c1f5f611736565b9091611f87565b565b611c4b611c345f611736565b5f918291634b637e8f60e11b835260048301610b69565b0390fd5b90611c6060018060a01b039161120a565b9181191691161790565b90565b90611c82611c7d611c89926110d5565b611c6a565b8254611c4f565b9055565b611c98816005611c6d565b611cce7f2f658b440c35314f52658ea8a740e05b284cdc84dc9ae01e891f21b8933e7cad91611cc5610182565b91829182610b69565b0390a1565b611cea611cef91611ce2610d57565b5060086110e1565b610d77565b90565b90565b611cfd610d0a565b50611d327f0000000000000000000000000000000000000000000000000000000000000000611d2c6006611cf2565b906123c3565b90565b611d3d610d0a565b50611d727f0000000000000000000000000000000000000000000000000000000000000000611d6c6007611cf2565b906123c3565b90565b6001611d81910161027d565b90565b90611d905f199161120a565b9181191691161790565b90611daf611daa611db692610ec4565b610ee0565b8254611d84565b9055565b611dce90611dc6610d57565b5060086110e1565b611dea611dda82610d77565b91611de483611d75565b90611d9a565b90565b611e0790611df9610e05565b50611e026117df565b612411565b90565b92611e2592611e2e94611e1b6111f5565b50929091926124c7565b909291926125f2565b90565b909281611e4e611e48611e435f611736565b61024e565b9161024e565b14611f195783611e6e611e68611e635f611736565b61024e565b9161024e565b14611ef257611e9283611e8d611e86600186906115f3565b87906110e1565b611d9a565b611e9c575b505050565b919091611ee7611ed5611ecf7f8c5be1e5ebec7d5bd14f71427d1e84f3dd0314c0f7b2291e5b200ac8c7c3b925936110d5565b936110d5565b93611ede610182565b9182918261035e565b0390a35f8080611e97565b611f15611efe5f611736565b5f918291634a1406b160e11b835260048301610b69565b0390fd5b611f3c611f255f611736565b5f91829163e602df0560e01b835260048301610b69565b0390fd5b634e487b7160e01b5f52601160045260245ffd5b611f63611f699193929361027d565b9261027d565b8201809211611f7457565b611f40565b90611f84910161027d565b90565b91909180611fa5611f9f611f9a5f611736565b61024e565b9161024e565b145f1461208657611fc9611fc283611fbd6002610d77565b611f54565b6002611d9a565b5b82611fe5611fdf611fda5f611736565b61024e565b9161024e565b145f1461205a5761200961200283611ffd6002610d77565b611680565b6002611d9a565b5b91909161205561204361203d7fddf252ad1be2c89b69c2b068fc378daa952ba7f163c4a11628f55a4df523b3ef936110d5565b936110d5565b9361204c610182565b9182918261035e565b0390a3565b6120818261207b61206c5f87906110e1565b9161207683610d77565b611f79565b90611d9a565b61200a565b6120996120945f83906110e1565b610d77565b806120ac6120a68561027d565b9161027d565b106120d4576120bf6120cf918490611680565b6120ca5f84906110e1565b611d9a565b611fca565b906120f29091925f93849363391434e360e21b85526004850161164e565b0390fd5b7f8b73c3c69bb8fe3d512ecc4cf759cc79239f7b179b0ffacaa9a75d522b39400f90565b909594926121659461215461215e9261214a60809661214060a088019c5f8901906104ad565b60208701906104ad565b60408501906104ad565b6060830190610351565b0190610956565b565b61216f610e05565b506121786120f6565b6121ef7f0000000000000000000000000000000000000000000000000000000000000000916121e07f0000000000000000000000000000000000000000000000000000000000000000466121cb306111fe565b916121d4610182565b9687956020870161211a565b602082018103825203826105aa565b6122016121fb826114d8565b916114d2565b2090565b5f90565b604090612232612239949695939661222860608401985f850190610956565b6020830190610956565b0190610aa7565b565b5f906040929495939561228e61224f610d31565b9761227f61225b612205565b989193612266610182565b94859360046020860163b700961360e01b815201612209565b602082018103825203826105aa565b9082805282602052602082519201905afa6122a6575b565b9150505f51906020518060201c1502906122a4565b6122c4906104aa565b90565b90565b6122de6122d96122e3926122c7565b61120a565b6104aa565b90565b6122f060ff6122ca565b90565b5f5260205f2090565b905f929180549061231661230f836107ed565b8094610817565b916001811690815f1461236d5750600114612331575b505050565b61233e91929394506122f3565b915f925b81841061235557505001905f808061232c565b60018160209295939554848601520191019290612342565b92949550505060ff19168252151560200201905f808061232c565b90612392916122fc565b90565b906123b56123ae926123a5610182565b93848092612388565b03836105aa565b565b6123c090612395565b90565b906123cc610d0a565b506123d6826122bb565b6123ef6123e96123e46122e6565b6104aa565b916104aa565b14155f14612404575061240190612725565b90565b61240e91506123b7565b90565b60429161241c610e05565b50604051917f19010000000000000000000000000000000000000000000000000000000000008352600283015260228201522090565b5f90565b61246261246791610d5b565b610ec4565b90565b90565b61248161247c6124869261246a565b610dd0565b61027d565b90565b6124be6124c5946124b46060949897956124aa608086019a5f8701906104ad565b6020850190610453565b60408301906104ad565b01906104ad565b565b9392936124d26111f5565b506124db612452565b506124e4610e05565b506124ee85612456565b61252061251a7f7fffffffffffffffffffffffffffffff5d576e7357a4501ddfe92f46681b20a061246d565b9161027d565b116125ad5790612543602094955f9493929361253a610182565b94859485612489565b838052039060015afa156125a85761255b5f5161120a565b8061257661257061256b5f611736565b61024e565b9161024e565b1461258c575f916125865f61120f565b91929190565b506125965f611736565b6001916125a25f61120f565b91929190565b611a37565b5050506125b95f611736565b9060039291929190565b634e487b7160e01b5f52602160045260245ffd5b600411156125e157565b6125c3565b906125f0826125d7565b565b806126056125ff5f6125e6565b916125e6565b145f14612610575050565b8061262461261e60016125e6565b916125e6565b145f14612647575f63f645eedf60e01b81528061264360048201610504565b0390fd5b8061265b61265560026125e6565b916125e6565b145f146126895761268561266e83612456565b5f91829163fce698f760e01b83526004830161035e565b0390fd5b61269c61269660036125e6565b916125e6565b146126a45750565b6126bf905f9182916335e2f38360e21b8352600483016104ba565b0390fd5b90565b6126da6126d56126df926126c3565b610dd0565b61027d565b90565b906126f46126ef836105e8565b6105d3565b918252565b369037565b9061272361270b836126e2565b9260208061271986936105e8565b92019103906126f9565b565b61272d610d0a565b5061273781612790565b9061274a61274560206126c6565b6126fe565b918252602082015290565b61276961276461276e926122c7565b610dd0565b61027d565b90565b90565b61278861278361278d92612771565b610dd0565b61027d565b90565b6127a56127aa9161279f610d57565b506122bb565b612456565b6127b460ff612755565b16806127c96127c3601f612774565b9161027d565b116127d15790565b5f632cd44ac360e21b8152806127e960048201610504565b0390fd","linkReferences":{}},"methodIdentifiers":{"DOMAIN_SEPARATOR()":"3644e515","ORIGIN_CHAIN_ID()":"0dd85b00","allowance(address,address)":"dd62ed3e","approve(address,uint256)":"095ea7b3","authority()":"bf7e214f","balanceOf(address)":"70a08231","burn(uint256)":"42966c68","burnFrom(address,uint256)":"79cc6790","decimals()":"313ce567","eip712Domain()":"84b0196e","isConsumingScheduledOp()":"8fb36037","logoLink()":"816e8179","mint(address,uint256)":"40c10f19","name()":"06fdde03","nonces(address)":"7ecebe00","permit(address,address,uint256,uint256,uint8,bytes32,bytes32)":"d505accf","setAuthority(address)":"7a9e5e4b","setLogoLink(string)":"43202c8b","symbol()":"95d89b41","totalSupply()":"18160ddd","transfer(address,uint256)":"a9059cbb","transferFrom(address,address,uint256)":"23b872dd"},"id":75}