{"abi":[{"type":"constructor","inputs":[{"name":"initialAdmin","type":"address","internalType":"address"}],"stateMutability":"nonpayable"},{"type":"function","name":"ADMIN_ROLE","inputs":[],"outputs":[{"name":"","type":"uint64","internalType":"uint64"}],"stateMutability":"view"},{"type":"function","name":"PUBLIC_ROLE","inputs":[],"outputs":[{"name":"","type":"uint64","internalType":"uint64"}],"stateMutability":"view"},{"type":"function","name":"canCall","inputs":[{"name":"caller","type":"address","internalType":"address"},{"name":"target","type":"address","internalType":"address"},{"name":"selector","type":"bytes4","internalType":"bytes4"}],"outputs":[{"name":"immediate","type":"bool","internalType":"bool"},{"name":"delay","type":"uint32","internalType":"uint32"}],"stateMutability":"view"},{"type":"function","name":"cancel","inputs":[{"name":"caller","type":"address","internalType":"address"},{"name":"target","type":"address","internalType":"address"},{"name":"data","type":"bytes","internalType":"bytes"}],"outputs":[{"name":"","type":"uint32","internalType":"uint32"}],"stateMutability":"nonpayable"},{"type":"function","name":"consumeScheduledOp","inputs":[{"name":"caller","type":"address","internalType":"address"},{"name":"data","type":"bytes","internalType":"bytes"}],"outputs":[],"stateMutability":"nonpayable"},{"type":"function","name":"execute","inputs":[{"name":"target","type":"address","internalType":"address"},{"name":"data","type":"bytes","internalType":"bytes"}],"outputs":[{"name":"","type":"uint32","internalType":"uint32"}],"stateMutability":"payable"},{"type":"function","name":"expiration","inputs":[],"outputs":[{"name":"","type":"uint32","internalType":"uint32"}],"stateMutability":"view"},{"type":"function","name":"getAccess","inputs":[{"name":"roleId","type":"uint64","internalType":"uint64"},{"name":"account","type":"address","internalType":"address"}],"outputs":[{"name":"since","type":"uint48","internalType":"uint48"},{"name":"currentDelay","type":"uint32","internalType":"uint32"},{"name":"pendingDelay","type":"uint32","internalType":"uint32"},{"name":"effect","type":"uint48","internalType":"uint48"}],"stateMutability":"view"},{"type":"function","name":"getNonce","inputs":[{"name":"id","type":"bytes32","internalType":"bytes32"}],"outputs":[{"name":"","type":"uint32","internalType":"uint32"}],"stateMutability":"view"},{"type":"function","name":"getRoleAdmin","inputs":[{"name":"roleId","type":"uint64","internalType":"uint64"}],"outputs":[{"name":"","type":"uint64","internalType":"uint64"}],"stateMutability":"view"},{"type":"function","name":"getRoleGrantDelay","inputs":[{"name":"roleId","type":"uint64","internalType":"uint64"}],"outputs":[{"name":"","type":"uint32","internalType":"uint32"}],"stateMutability":"view"},{"type":"function","name":"getRoleGuardian","inputs":[{"name":"roleId","type":"uint64","internalType":"uint64"}],"outputs":[{"name":"","type":"uint64","internalType":"uint64"}],"stateMutability":"view"},{"type":"function","name":"getSchedule","inputs":[{"name":"id","type":"bytes32","internalType":"bytes32"}],"outputs":[{"name":"","type":"uint48","internalType":"uint48"}],"stateMutability":"view"},{"type":"function","name":"getTargetAdminDelay","inputs":[{"name":"target","type":"address","internalType":"address"}],"outputs":[{"name":"","type":"uint32","internalType":"uint32"}],"stateMutability":"view"},{"type":"function","name":"getTargetFunctionRole","inputs":[{"name":"target","type":"address","internalType":"address"},{"name":"selector","type":"bytes4","internalType":"bytes4"}],"outputs":[{"name":"","type":"uint64","internalType":"uint64"}],"stateMutability":"view"},{"type":"function","name":"grantRole","inputs":[{"name":"roleId","type":"uint64","internalType":"uint64"},{"name":"account","type":"address","internalType":"address"},{"name":"executionDelay","type":"uint32","internalType":"uint32"}],"outputs":[],"stateMutability":"nonpayable"},{"type":"function","name":"hasRole","inputs":[{"name":"roleId","type":"uint64","internalType":"uint64"},{"name":"account","type":"address","internalType":"address"}],"outputs":[{"name":"isMember","type":"bool","internalType":"bool"},{"name":"executionDelay","type":"uint32","internalType":"uint32"}],"stateMutability":"view"},{"type":"function","name":"hashOperation","inputs":[{"name":"caller","type":"address","internalType":"address"},{"name":"target","type":"address","internalType":"address"},{"name":"data","type":"bytes","internalType":"bytes"}],"outputs":[{"name":"","type":"bytes32","internalType":"bytes32"}],"stateMutability":"view"},{"type":"function","name":"isTargetClosed","inputs":[{"name":"target","type":"address","internalType":"address"}],"outputs":[{"name":"","type":"bool","internalType":"bool"}],"stateMutability":"view"},{"type":"function","name":"labelRole","inputs":[{"name":"roleId","type":"uint64","internalType":"uint64"},{"name":"label","type":"string","internalType":"string"}],"outputs":[],"stateMutability":"nonpayable"},{"type":"function","name":"minSetback","inputs":[],"outputs":[{"name":"","type":"uint32","internalType":"uint32"}],"stateMutability":"view"},{"type":"function","name":"multicall","inputs":[{"name":"data","type":"bytes[]","internalType":"bytes[]"}],"outputs":[{"name":"results","type":"bytes[]","internalType":"bytes[]"}],"stateMutability":"nonpayable"},{"type":"function","name":"renounceRole","inputs":[{"name":"roleId","type":"uint64","internalType":"uint64"},{"name":"callerConfirmation","type":"address","internalType":"address"}],"outputs":[],"stateMutability":"nonpayable"},{"type":"function","name":"revokeRole","inputs":[{"name":"roleId","type":"uint64","internalType":"uint64"},{"name":"account","type":"address","internalType":"address"}],"outputs":[],"stateMutability":"nonpayable"},{"type":"function","name":"schedule","inputs":[{"name":"target","type":"address","internalType":"address"},{"name":"data","type":"bytes","internalType":"bytes"},{"name":"when","type":"uint48","internalType":"uint48"}],"outputs":[{"name":"operationId","type":"bytes32","internalType":"bytes32"},{"name":"nonce","type":"uint32","internalType":"uint32"}],"stateMutability":"nonpayable"},{"type":"function","name":"setGrantDelay","inputs":[{"name":"roleId","type":"uint64","internalType":"uint64"},{"name":"newDelay","type":"uint32","internalType":"uint32"}],"outputs":[],"stateMutability":"nonpayable"},{"type":"function","name":"setRoleAdmin","inputs":[{"name":"roleId","type":"uint64","internalType":"uint64"},{"name":"admin","type":"uint64","internalType":"uint64"}],"outputs":[],"stateMutability":"nonpayable"},{"type":"function","name":"setRoleGuardian","inputs":[{"name":"roleId","type":"uint64","internalType":"uint64"},{"name":"guardian","type":"uint64","internalType":"uint64"}],"outputs":[],"stateMutability":"nonpayable"},{"type":"function","name":"setTargetAdminDelay","inputs":[{"name":"target","type":"address","internalType":"address"},{"name":"newDelay","type":"uint32","internalType":"uint32"}],"outputs":[],"stateMutability":"nonpayable"},{"type":"function","name":"setTargetClosed","inputs":[{"name":"target","type":"address","internalType":"address"},{"name":"closed","type":"bool","internalType":"bool"}],"outputs":[],"stateMutability":"nonpayable"},{"type":"function","name":"setTargetFunctionRole","inputs":[{"name":"target","type":"address","internalType":"address"},{"name":"selectors","type":"bytes4[]","internalType":"bytes4[]"},{"name":"roleId","type":"uint64","internalType":"uint64"}],"outputs":[],"stateMutability":"nonpayable"},{"type":"function","name":"updateAuthority","inputs":[{"name":"target","type":"address","internalType":"address"},{"name":"newAuthority","type":"address","internalType":"address"}],"outputs":[],"stateMutability":"nonpayable"},{"type":"event","name":"OperationCanceled","inputs":[{"name":"operationId","type":"bytes32","indexed":true,"internalType":"bytes32"},{"name":"nonce","type":"uint32","indexed":true,"internalType":"uint32"}],"anonymous":false},{"type":"event","name":"OperationExecuted","inputs":[{"name":"operationId","type":"bytes32","indexed":true,"internalType":"bytes32"},{"name":"nonce","type":"uint32","indexed":true,"internalType":"uint32"}],"anonymous":false},{"type":"event","name":"OperationScheduled","inputs":[{"name":"operationId","type":"bytes32","indexed":true,"internalType":"bytes32"},{"name":"nonce","type":"uint32","indexed":true,"internalType":"uint32"},{"name":"schedule","type":"uint48","indexed":false,"internalType":"uint48"},{"name":"caller","type":"address","indexed":false,"internalType":"address"},{"name":"target","type":"address","indexed":false,"internalType":"address"},{"name":"data","type":"bytes","indexed":false,"internalType":"bytes"}],"anonymous":false},{"type":"event","name":"RoleAdminChanged","inputs":[{"name":"roleId","type":"uint64","indexed":true,"internalType":"uint64"},{"name":"admin","type":"uint64","indexed":true,"internalType":"uint64"}],"anonymous":false},{"type":"event","name":"RoleGrantDelayChanged","inputs":[{"name":"roleId","type":"uint64","indexed":true,"internalType":"uint64"},{"name":"delay","type":"uint32","indexed":false,"internalType":"uint32"},{"name":"since","type":"uint48","indexed":false,"internalType":"uint48"}],"anonymous":false},{"type":"event","name":"RoleGranted","inputs":[{"name":"roleId","type":"uint64","indexed":true,"internalType":"uint64"},{"name":"account","type":"address","indexed":true,"internalType":"address"},{"name":"delay","type":"uint32","indexed":false,"internalType":"uint32"},{"name":"since","type":"uint48","indexed":false,"internalType":"uint48"},{"name":"newMember","type":"bool","indexed":false,"internalType":"bool"}],"anonymous":false},{"type":"event","name":"RoleGuardianChanged","inputs":[{"name":"roleId","type":"uint64","indexed":true,"internalType":"uint64"},{"name":"guardian","type":"uint64","indexed":true,"internalType":"uint64"}],"anonymous":false},{"type":"event","name":"RoleLabel","inputs":[{"name":"roleId","type":"uint64","indexed":true,"internalType":"uint64"},{"name":"label","type":"string","indexed":false,"internalType":"string"}],"anonymous":false},{"type":"event","name":"RoleRevoked","inputs":[{"name":"roleId","type":"uint64","indexed":true,"internalType":"uint64"},{"name":"account","type":"address","indexed":true,"internalType":"address"}],"anonymous":false},{"type":"event","name":"TargetAdminDelayUpdated","inputs":[{"name":"target","type":"address","indexed":true,"internalType":"address"},{"name":"delay","type":"uint32","indexed":false,"internalType":"uint32"},{"name":"since","type":"uint48","indexed":false,"internalType":"uint48"}],"anonymous":false},{"type":"event","name":"TargetClosed","inputs":[{"name":"target","type":"address","indexed":true,"internalType":"address"},{"name":"closed","type":"bool","indexed":false,"internalType":"bool"}],"anonymous":false},{"type":"event","name":"TargetFunctionRoleUpdated","inputs":[{"name":"target","type":"address","indexed":true,"internalType":"address"},{"name":"selector","type":"bytes4","indexed":false,"internalType":"bytes4"},{"name":"roleId","type":"uint64","indexed":true,"internalType":"uint64"}],"anonymous":false},{"type":"error","name":"AccessManagerAlreadyScheduled","inputs":[{"name":"operationId","type":"bytes32","internalType":"bytes32"}]},{"type":"error","name":"AccessManagerBadConfirmation","inputs":[]},{"type":"error","name":"AccessManagerExpired","inputs":[{"name":"operationId","type":"bytes32","internalType":"bytes32"}]},{"type":"error","name":"AccessManagerInvalidInitialAdmin","inputs":[{"name":"initialAdmin","type":"address","internalType":"address"}]},{"type":"error","name":"AccessManagerLockedRole","inputs":[{"name":"roleId","type":"uint64","internalType":"uint64"}]},{"type":"error","name":"AccessManagerNotReady","inputs":[{"name":"operationId","type":"bytes32","internalType":"bytes32"}]},{"type":"error","name":"AccessManagerNotScheduled","inputs":[{"name":"operationId","type":"bytes32","internalType":"bytes32"}]},{"type":"error","name":"AccessManagerUnauthorizedAccount","inputs":[{"name":"msgsender","type":"address","internalType":"address"},{"name":"roleId","type":"uint64","internalType":"uint64"}]},{"type":"error","name":"AccessManagerUnauthorizedCall","inputs":[{"name":"caller","type":"address","internalType":"address"},{"name":"target","type":"address","internalType":"address"},{"name":"selector","type":"bytes4","internalType":"bytes4"}]},{"type":"error","name":"AccessManagerUnauthorizedCancel","inputs":[{"name":"msgsender","type":"address","internalType":"address"},{"name":"caller","type":"address","internalType":"address"},{"name":"target","type":"address","internalType":"address"},{"name":"selector","type":"bytes4","internalType":"bytes4"}]},{"type":"error","name":"AccessManagerUnauthorizedConsume","inputs":[{"name":"target","type":"address","internalType":"address"}]},{"type":"error","name":"AddressEmptyCode","inputs":[{"name":"target","type":"address","internalType":"address"}]},{"type":"error","name":"FailedCall","inputs":[]},{"type":"error","name":"InsufficientBalance","inputs":[{"name":"balance","type":"uint256","internalType":"uint256"},{"name":"needed","type":"uint256","internalType":"uint256"}]},{"type":"error","name":"SafeCastOverflowedUintDowncast","inputs":[{"name":"bits","type":"uint8","internalType":"uint8"},{"name":"value","type":"uint256","internalType":"uint256"}]}],"bytecode":{"object":"0x60806040523461002f576100196100146100f4565b61018e565b610021610034565b6143c8610c4e82396143c890f35b61003a565b60405190565b5f80fd5b601f801991011690565b634e487b7160e01b5f52604160045260245ffd5b906100669061003e565b810190811060018060401b0382111761007e57604052565b610048565b9061009661008f610034565b928361005c565b565b5f80fd5b60018060a01b031690565b6100b09061009c565b90565b6100bc816100a7565b036100c357565b5f80fd5b905051906100d4826100b3565b565b906020828203126100ef576100ec915f016100c7565b90565b610098565b6101126150168038038061010781610083565b9283398101906100d6565b90565b90565b90565b61012f61012a61013492610115565b610118565b61009c565b90565b6101409061011b565b90565b61014c906100a7565b9052565b9190610163905f60208501940190610143565b565b5f90565b63ffffffff1690565b61018661018161018b92610115565b610118565b610169565b90565b806101a96101a361019e5f610137565b6100a7565b916100a7565b146101d9576101d6906101ba610165565b905f906101d06101ca5f93610172565b92610172565b9261054d565b50565b6101fc6101e55f610137565b5f918291630409d6d160e11b835260048301610150565b0390fd5b5f90565b60018060401b0390565b60018060401b031690565b6102229061020e565b9052565b9190610239905f60208501940190610219565b565b61024f61024a6102549261020e565b610118565b61020e565b90565b906102619061023b565b5f5260205260405f2090565b61028161027c6102869261009c565b610118565b61009c565b90565b6102929061026d565b90565b61029e90610289565b90565b906102ab90610295565b5f5260205260405f2090565b5f1c90565b65ffffffffffff1690565b6102d36102d8916102b7565b6102bc565b90565b6102e590546102c7565b90565b65ffffffffffff1690565b61030761030261030c92610115565b610118565b6102e8565b90565b5f90565b60301c90565b60018060701b031690565b61033061033591610313565b610319565b90565b6103429054610324565b90565b60301b90565b906103636601000000000000600160a01b0391610345565b9181191691161790565b60018060701b031690565b61038c6103876103919261036d565b610118565b61036d565b90565b90565b906103ac6103a76103b392610378565b610394565b825461034b565b9055565b6103cb6103c66103d092610169565b610118565b6102e8565b90565b634e487b7160e01b5f52601160045260245ffd5b6103f36103f9916102e8565b916102e8565b019065ffffffffffff821161040a57565b6103d3565b6104196040610083565b90565b90610426906102e8565b9052565b906104349061036d565b9052565b61044290516102e8565b90565b5f1b90565b9061045b65ffffffffffff91610445565b9181191691161790565b61047961047461047e926102e8565b610118565b6102e8565b90565b90565b906104996104946104a092610465565b610481565b825461044a565b9055565b6104ae905161036d565b90565b906104db60205f6104e1946104d38282016104cd848801610438565b90610484565b0192016104a4565b90610397565b565b906104ed916104b1565b565b6104f890610169565b9052565b610505906102e8565b9052565b151590565b61051790610509565b9052565b60409061054461054b949695939661053a60608401985f8501906104ef565b60208301906104fc565b019061050e565b565b919290610558610200565b508261057361056d610568610204565b61020e565b9161020e565b146106d85761059a5f6105948161058c60018890610257565b0184906102a1565b016102db565b6105ac6105a65f6102f3565b916102e8565b14936105b661030f565b50845f14610678576105d9906105d36105cd610805565b916103b7565b906103e7565b92610624846106076105ea86610836565b6105fe6105f561040f565b935f850161041c565b6020830161042a565b61061f5f61061760018690610257565b0185906102a1565b6104e3565b5b909192849361067261066061065a7ff98448b987f1428e0e230e1f3c6e2ce15b5693eaf31827fbd0b1ec4b424ae7cf9561023b565b95610295565b95610669610034565b9384938461051b565b0390a390565b506106d3926106b26106a25f61069c8161069460018790610257565b0186906102a1565b01610338565b846106ac5f610172565b9161075d565b94905f6106cd816106c560018790610257565b0186906102a1565b01610397565b610625565b6106f3835f91829163061c6a4360e21b835260048301610226565b0390fd5b5f90565b61070761070d91610169565b91610169565b90039063ffffffff821161071d57565b6103d3565b90565b61073961073461073e92610169565b610118565b610722565b90565b61075561075061075a92610722565b610118565b610169565b90565b906107e36107cc6107c76107886107ec959796976107796106f7565b5061078261030f565b5061084f565b968761079c61079687610169565b91610169565b115f146107f0576107c16107bb6107b48a88906106fb565b925b610725565b91610725565b9061086a565b610741565b6107dd6107d7610805565b916103b7565b906103e7565b93908491610921565b9190565b6107c16107bb6107ff5f610172565b926107b6565b61080d61030f565b5061081742610a0d565b90565b61082e61082961083392610169565b610118565b61036d565b90565b610848906108426106f7565b5061081a565b90565b5f90565b6108619061085b61084b565b50610a60565b505090565b5f90565b61089391610876610866565b508161088a61088483610722565b91610722565b11919091610aa2565b90565b6108aa6108a56108af926102e8565b610118565b61036d565b90565b90565b60ff1690565b6108cf6108ca6108d4926108b2565b610118565b6108b5565b90565b1b90565b6108fa906108f46108ee6108ff946108b5565b9161036d565b906108d7565b61036d565b90565b90565b61091961091461091e92610902565b610118565b6108b5565b90565b610970906109696109596109536109436109769761093d6106f7565b50610896565b61094d60406108bb565b906108db565b9261081a565b6109636020610905565b906108db565b179161081a565b17610378565b90565b61098d610988610992926102e8565b610118565b610722565b90565b90565b6109ac6109a76109b192610995565b610118565b6108b5565b90565b6109bd90610998565b9052565b6109ca90610722565b9052565b9160206109ef9294936109e860408201965f8301906109b4565b01906109c1565b565b610a05610a00610a0a92610722565b610118565b6102e8565b90565b610a1561030f565b5080610a2f610a2965ffffffffffff610979565b91610722565b11610a4057610a3d906109f1565b90565b6030610a5c5f9283926306dfcc6560e41b8452600484016109ce565b0390fd5b610a8d90610a6c61084b565b50610a7561084b565b50610a7e61030f565b50610a87610805565b90610b03565b9192909190565b90610a9f9102610722565b90565b610abc610ac29293610ab2610866565b5080941891610b6c565b90610a94565b1890565b610ada610ad5610adf92610169565b610118565b610169565b90565b610afa610af4610b0092959395610ac6565b94610172565b926102f3565b90565b610b2790610b0f61084b565b50610b1861084b565b50610b2161030f565b50610bdd565b92909192919290610b41610b3b84926102e8565b916102e8565b11155f14610b61575050610b57905f5f91610ae2565b919290925b929190565b929092919291610b5c565b610b74610866565b50151590565b610b8e610b89610b939261036d565b610118565b610169565b90565b1c90565b610bb990610bb3610bad610bbe946108b5565b9161036d565b90610b96565b61036d565b90565b610bd5610bd0610bda9261036d565b610118565b6102e8565b90565b610c0190610be961084b565b50610bf261084b565b50610bfb61030f565b50610378565b90610c0b82610b7a565b90610c44610c3f610c2e610c2986610c236020610905565b90610b9a565b610b7a565b94610c3960406108bb565b90610b9a565b610bc1565b9291929192919056fe60806040526004361015610013575b611146565b61001d5f3561021c565b806308d6122d146102175780630b0a93ba1461021257806312be87271461020d578063167bd3951461020857806318ff183c146102035780631cff79cd146101fe57806325c471a0146101f95780633078f114146101f457806330cae187146101ef5780633adc277a146101ea5780633ca7c02a146101e55780634136a33c146101e05780634665096d146101db5780634c1da1e2146101d657806352962952146101d1578063530dd456146101cc5780636d5115bd146101c757806375b238fc146101c2578063853551b8146101bd57806394c7d7ee146101b8578063a166aa89146101b3578063a64d95ce146101ae578063abd9bd2a146101a9578063ac9650d8146101a4578063b70096131461019f578063b7d2b1621461019a578063cc1b6c8114610195578063d1f856ee14610190578063d22b59891461018b578063d6bb62c614610186578063f801a698146101815763fe0776f50361000e57611112565b6110d8565b611006565b610fd2565b610f6e565b610f39565b610f05565b610ece565b610e3b565b610c95565b610bed565b610b8b565b610b35565b610b01565b610a47565b610a02565b610971565b61093d565b610908565b6108b5565b610880565b61084b565b6107f0565b610763565b6106fc565b610645565b6105bc565b610503565b6104a2565b610418565b6103b8565b610341565b60e01c90565b60405190565b5f80fd5b5f80fd5b5f80fd5b60018060a01b031690565b61024890610234565b90565b6102548161023f565b0361025b57565b5f80fd5b9050359061026c8261024b565b565b5f80fd5b5f80fd5b5f80fd5b909182601f830112156102b45781359167ffffffffffffffff83116102af5760200192602083028401116102aa57565b610276565b610272565b61026e565b67ffffffffffffffff1690565b6102cf816102b9565b036102d657565b5f80fd5b905035906102e7826102c6565b565b9060608282031261033757610300815f840161025f565b92602083013567ffffffffffffffff8111610332576103248361032f92860161027a565b9390946040016102da565b90565b610230565b61022c565b5f0190565b346103735761035d6103543660046102e9565b92919091611235565b610365610222565b8061036f8161033c565b0390f35b610228565b906020828203126103915761038e915f016102da565b90565b61022c565b61039f906102b9565b9052565b91906103b6905f60208501940190610396565b565b346103e8576103e46103d36103ce366004610378565b6112ad565b6103db610222565b918291826103a3565b0390f35b610228565b63ffffffff1690565b6103ff906103ed565b9052565b9190610416905f602085019401906103f6565b565b346104485761044461043361042e366004610378565b61130c565b61043b610222565b91829182610403565b0390f35b610228565b151590565b61045b8161044d565b0361046257565b5f80fd5b9050359061047382610452565b565b919060408382031261049d578061049161049a925f860161025f565b93602001610466565b90565b61022c565b346104d1576104bb6104b5366004610475565b90611355565b6104c3610222565b806104cd8161033c565b0390f35b610228565b91906040838203126104fe57806104f26104fb925f860161025f565b9360200161025f565b90565b61022c565b346105325761051c6105163660046104d6565b906114d9565b610524610222565b8061052e8161033c565b0390f35b610228565b909182601f830112156105715781359167ffffffffffffffff831161056c57602001926001830284011161056757565b610276565b610272565b61026e565b9190916040818403126105b75761058f835f830161025f565b92602082013567ffffffffffffffff81116105b2576105ae9201610537565b9091565b610230565b61022c565b6105e46105d36105cd366004610576565b91611663565b6105db610222565b91829182610403565b0390f35b6105f1816103ed565b036105f857565b5f80fd5b90503590610609826105e8565b565b90916060828403126106405761063d610626845f85016102da565b93610634816020860161025f565b936040016105fc565b90565b61022c565b346106745761065e61065836600461060b565b916117d3565b610666610222565b806106708161033c565b0390f35b610228565b91906040838203126106a1578061069561069e925f86016102da565b9360200161025f565b90565b61022c565b65ffffffffffff1690565b6106ba906106a6565b9052565b6106f36106fa946106e96060949897956106df608086019a5f8701906106b1565b60208501906103f6565b60408301906103f6565b01906106b1565b565b346107315761072d610718610712366004610679565b9061185c565b90610724949294610222565b948594856106be565b0390f35b610228565b919060408382031261075e578061075261075b925f86016102da565b936020016102da565b90565b61022c565b346107925761077c610776366004610736565b906118ea565b610784610222565b8061078e8161033c565b0390f35b610228565b90565b6107a381610797565b036107aa57565b5f80fd5b905035906107bb8261079a565b565b906020828203126107d6576107d3915f016107ae565b90565b61022c565b91906107ee905f602085019401906106b1565b565b346108205761081c61080b6108063660046107bd565b61190c565b610813610222565b918291826107db565b0390f35b610228565b5f91031261082f57565b61022c565b67ffffffffffffffff90565b610848610834565b90565b3461087b5761085b366004610825565b610877610866610840565b61086e610222565b918291826103a3565b0390f35b610228565b346108b0576108ac61089b6108963660046107bd565b611976565b6108a3610222565b91829182610403565b0390f35b610228565b346108e5576108c5366004610825565b6108e16108d06119b6565b6108d8610222565b91829182610403565b0390f35b610228565b9060208282031261090357610900915f0161025f565b90565b61022c565b346109385761093461092361091e3660046108ea565b611a05565b61092b610222565b91829182610403565b0390f35b610228565b3461096c57610956610950366004610736565b90611a4e565b61095e610222565b806109688161033c565b0390f35b610228565b346109a15761099d61098c610987366004610378565b611a7b565b610994610222565b918291826103a3565b0390f35b610228565b63ffffffff60e01b1690565b6109bb816109a6565b036109c257565b5f80fd5b905035906109d3826109b2565b565b91906040838203126109fd57806109f16109fa925f860161025f565b936020016109c6565b90565b61022c565b34610a3357610a2f610a1e610a183660046109d5565b90611abe565b610a26610222565b918291826103a3565b0390f35b610228565b5f90565b610a44610a38565b90565b34610a7757610a57366004610825565b610a73610a62610a3c565b610a6a610222565b918291826103a3565b0390f35b610228565b909182601f83011215610ab65781359167ffffffffffffffff8311610ab1576020019260018302840111610aac57565b610276565b610272565b61026e565b919091604081840312610afc57610ad4835f83016102da565b92602082013567ffffffffffffffff8111610af757610af39201610a7c565b9091565b610230565b61022c565b34610b3057610b1a610b14366004610abb565b91611bee565b610b22610222565b80610b2c8161033c565b0390f35b610228565b34610b6457610b4e610b48366004610576565b91611c28565b610b56610222565b80610b608161033c565b0390f35b610228565b610b729061044d565b9052565b9190610b89905f60208501940190610b69565b565b34610bbb57610bb7610ba6610ba13660046108ea565b611d3e565b610bae610222565b91829182610b76565b0390f35b610228565b9190604083820312610be85780610bdc610be5925f86016102da565b936020016105fc565b90565b61022c565b34610c1c57610c06610c00366004610bc0565b90611d7f565b610c0e610222565b80610c188161033c565b0390f35b610228565b91606083830312610c6e57610c38825f850161025f565b92610c46836020830161025f565b92604082013567ffffffffffffffff8111610c6957610c659201610537565b9091565b610230565b61022c565b610c7c90610797565b9052565b9190610c93905f60208501940190610c73565b565b34610cc957610cc5610cb4610cab366004610c21565b92919091611df7565b610cbc610222565b91829182610c80565b0390f35b610228565b909182601f83011215610d085781359167ffffffffffffffff8311610d03576020019260208302840111610cfe57565b610276565b610272565b61026e565b90602082820312610d3e575f82013567ffffffffffffffff8111610d3957610d359201610cce565b9091565b610230565b61022c565b5190565b60209181520190565b60200190565b5190565b60209181520190565b90825f9392825e0152565b601f801991011690565b610d97610da0602093610da593610d8e81610d56565b93848093610d5a565b95869101610d63565b610d6e565b0190565b90610db391610d78565b90565b60200190565b90610dd0610dc983610d43565b8092610d47565b9081610de160208302840194610d50565b925f915b838310610df457505050505090565b90919293946020610e16610e1083856001950387528951610da9565b97610db6565b9301930191939290610de5565b610e389160208201915f818403910152610dbc565b90565b34610e6c57610e68610e57610e51366004610d0d565b906120ab565b610e5f610222565b91829182610e23565b0390f35b610228565b9091606082840312610ea657610ea3610e8c845f850161025f565b93610e9a816020860161025f565b936040016109c6565b90565b61022c565b916020610ecc929493610ec560408201965f830190610b69565b01906103f6565b565b34610f0057610ee7610ee1366004610e71565b916121e4565b90610efc610ef3610222565b92839283610eab565b0390f35b610228565b34610f3457610f1e610f18366004610679565b906122bb565b610f26610222565b80610f308161033c565b0390f35b610228565b34610f6957610f49366004610825565b610f65610f546122e6565b610f5c610222565b91829182610403565b0390f35b610228565b34610fa057610f87610f81366004610679565b906122fe565b90610f9c610f93610222565b92839283610eab565b0390f35b610228565b9190604083820312610fcd5780610fc1610fca925f860161025f565b936020016105fc565b90565b61022c565b3461100157610feb610fe5366004610fa5565b906123b4565b610ff3610222565b80610ffd8161033c565b0390f35b610228565b3461103a5761103661102561101c366004610c21565b9291909161249d565b61102d610222565b91829182610403565b0390f35b610228565b611048816106a6565b0361104f57565b5f80fd5b905035906110608261103f565b565b906060828203126110b057611079815f840161025f565b92602083013567ffffffffffffffff81116110ab5761109d836110a8928601610537565b939094604001611053565b90565b610230565b61022c565b9160206110d69294936110cf60408201965f830190610c73565b01906103f6565b565b3461110d576110f46110eb366004611062565b929190916127a5565b90611109611100610222565b928392836110b5565b0390f35b610228565b346111415761112b611125366004610679565b9061295b565b611133610222565b8061113d8161033c565b0390f35b610228565b5f80fd5b9061115e9392916111596129c6565b6111ce565b565b90565b90565b90565b61117d61117861118292611160565b611166565b611163565b90565b60016111919101611163565b90565b5090565b634e487b7160e01b5f52603260045260245ffd5b91908110156111bc576020020190565b611198565b356111cb816109b2565b90565b93929190936111dc5f611169565b5b806111fa6111f46111ef898790611194565b611163565b91611163565b101561122d57611228906112238361121c6112178a8886916111ac565b6111c1565b8791612ac7565b611185565b6111dd565b505050509050565b9061124193929161114a565b565b5f90565b61125b611256611260926102b9565b611166565b6102b9565b90565b9061126d90611247565b5f5260205260405f2090565b60401c90565b67ffffffffffffffff1690565b61129861129d91611279565b61127f565b90565b6112aa905461128c565b90565b60016112c56112cb926112be611243565b5082611263565b016112a0565b90565b5f90565b60801c90565b6dffffffffffffffffffffffffffff1690565b6112f76112fc916112d2565b6112d8565b90565b61130990546112eb565b90565b61132d6001611327611332936113206112ce565b5082611263565b016112ff565b612b37565b90565b90611347916113426129c6565b611349565b565b9061135391612b90565b565b9061135f91611335565b565b906113739161136e6129c6565b611449565b565b61138961138461138e92610234565b611166565b610234565b90565b61139a90611375565b90565b6113a690611391565b90565b6113b290611375565b90565b6113be906113a9565b90565b5f80fd5b634e487b7160e01b5f52604160045260245ffd5b906113e390610d6e565b810190811067ffffffffffffffff8211176113fd57604052565b6113c5565b60e01b90565b5f91031261141257565b61022c565b6114209061023f565b9052565b9190611437905f60208501940190611417565b565b611441610222565b3d5f823e3d90fd5b61145561145a9161139d565b6113b5565b90637a9e5e4b90823b156114d457611491926114865f809461147a610222565b96879586948593611402565b835260048301611424565b03925af180156114cf576114a3575b50565b6114c2905f3d81116114c8575b6114ba81836113d9565b810190611408565b5f6114a0565b503d6114b0565b611439565b6113c1565b906114e391611361565b565b6114f96114f46114fe92611160565b611166565b6103ed565b90565b61150a906109a6565b9052565b60409061153761153e949695939661152d60608401985f850190611417565b6020830190611417565b0190611501565b565b61155461154f61155992611160565b611166565b6106a6565b90565b5f1c90565b90565b6115706115759161155c565b611561565b90565b6115829054611564565b90565b5f1b90565b906115965f1991611585565b9181191691161790565b6115a990610797565b90565b6115b59061155c565b90565b906115cd6115c86115d4926115a0565b6115ac565b825461158a565b9055565b5f80fd5b906115ef6115e8610222565b92836113d9565b565b67ffffffffffffffff811161160f5761160b602091610d6e565b0190565b6113c5565b90825f939282370152565b9092919261163461162f826115f1565b6115dc565b938185526020850190828401116116505761164e92611614565b565b6115d8565b61166091369161161f565b90565b61168f91926116706112ce565b50611679612bef565b611687818487908592612c1b565b94901561044d565b8061178a575b61175e576116a7908386908492611df7565b6116af6112ce565b936116c26116bc5f6114e5565b916103ed565b1415801561173b575b611721575b506117169061171e93946117106116e76003611578565b94611707611700826116fa868890612d03565b90612ecc565b60036115b8565b91923493611655565b90612f6e565b5060036115b8565b90565b61171e93509061173361171692612d3a565b9350906116d0565b506117458161190c565b6117576117515f611540565b916106a6565b14156116cb565b61176f859392611786929394612d03565b5f9384936381c6f24b60e01b85526004850161150e565b0390fd5b508361179e6117985f6114e5565b916103ed565b14611695565b906117b792916117b26129c6565b6117b9565b565b916117d0926117c981939161130c565b919261312e565b50565b906117de92916117a4565b565b5f90565b6117ed906113a9565b90565b906117fa906117e4565b5f5260205260405f2090565b90565b65ffffffffffff1690565b6118206118259161155c565b611809565b90565b6118329054611814565b90565b60301c90565b61184761184c91611835565b6112d8565b90565b611859905461183b565b90565b61189e915f611893611899936118706117e0565b506118796112ce565b506118826112ce565b5061188b6117e0565b506001611263565b016117f0565b611806565b906118bd6118b85f6118b1818601611828565b940161184f565b6132d8565b9391939290929193929190565b906118dc916118d76129c6565b6118de565b565b906118e89161330c565b565b906118f4916118ca565b565b90611900906115a0565b5f5260205260405f2090565b5f61192461192a9261191c6117e0565b5060026118f6565b01611828565b611933816133d5565b5f1461194757506119435f611540565b5b90565b611944565b63ffffffff1690565b61196161196691611835565b61194c565b90565b6119739054611955565b90565b5f61198e611994926119866112ce565b5060026118f6565b01611969565b90565b90565b6119ae6119a96119b392611997565b611166565b6103ed565b90565b6119be6112ce565b506119cb62093a8061199a565b90565b906119d8906117e4565b5f5260205260405f2090565b6119f06119f59161155c565b6112d8565b90565b611a0290546119e4565b90565b611a266001611a20611a2b93611a196112ce565b505f6119ce565b016119f8565b612b37565b90565b90611a4091611a3b6129c6565b611a42565b565b90611a4c91613461565b565b90611a5891611a2e565b565b611a66611a6b9161155c565b61127f565b90565b611a789054611a5a565b90565b6001611a93611a9992611a8c611243565b5082611263565b01611a6e565b90565b611aa5906109a6565b90565b90611ab290611a9c565b5f5260205260405f2090565b611ae4915f611ad9611adf93611ad2611243565b50826119ce565b01611aa8565b611a6e565b90565b90611afa9291611af56129c6565b611b42565b565b60209181520190565b9190611b1f81611b1881611b2495611afc565b8095611614565b610d6e565b0190565b9091611b3f9260208301925f818503910152611b05565b90565b80611b5c611b56611b51610a38565b6102b9565b916102b9565b148015611bcd575b611bae579091611b947f1256f5b5ecb89caec12db449738f2fbcd1ba5806cf38f35413f4e5c15bf6a45092611247565b92611ba9611ba0610222565b92839283611b28565b0390a2565b611bc9905f91829163061c6a4360e21b8352600483016103a3565b0390fd5b5080611be8611be2611bdd610834565b6102b9565b916102b9565b14611b64565b90611bf99291611ae7565b565b90505190611c08826109b2565b565b90602082820312611c2357611c20915f01611bfb565b90565b61022c565b9190611c32612bef565b92611c5f6020611c49611c448761139d565b6113b5565b638fb3603790611c57610222565b938492611402565b82528180611c6f6004820161033c565b03915afa908115611d08575f91611cda575b50611c9b611c95638fb3603760e01b6109a6565b916109a6565b03611cbb5791611cb89391611cb39392909192611df7565b612d3a565b50565b611cd6845f918291630641fee960e31b835260048301611424565b0390fd5b611cfb915060203d8111611d01575b611cf381836113d9565b810190611c0a565b5f611c81565b503d611ce9565b611439565b5f90565b60701c90565b60ff1690565b611d29611d2e91611d11565b611d17565b90565b611d3b9054611d1d565b90565b6001611d56611d5c92611d4f611d0d565b505f6119ce565b01611d31565b90565b90611d7191611d6c6129c6565b611d73565b565b90611d7d91613599565b565b90611d8991611d5f565b565b5f90565b60209181520190565b9190611db281611dab81611db795611d8f565b8095611614565b610d6e565b0190565b611de1611dee9593949294611dd760608401965f850190611417565b6020830190611417565b6040818503910152611d98565b90565b60200190565b611e2e9293611e1f91611e08611d8b565b509294611e13610222565b95869460208601611dbb565b602082018103825203826113d9565b611e40611e3a82610d56565b91611df1565b2090565b606090565b5090565b634e487b7160e01b5f52601160045260245ffd5b611e70611e7691939293611163565b92611163565b8203918211611e8157565b611e4d565b5f80fd5b5f80fd5b90939293848311611eae578411611ea9576001820201920390565b611e8a565b611e86565b90611ec5611ec0836115f1565b6115dc565b918252565b369037565b90611ef4611edc83611eb3565b92602080611eea86936115f1565b9201910390611eca565b565b5090565b67ffffffffffffffff8111611f125760208091020190565b6113c5565b90611f29611f2483611efa565b6115dc565b918252565b606090565b5f5b828110611f4157505050565b602090611f4c611f2e565b8184015201611f35565b90611f7b611f6383611f17565b92602080611f718693611efa565b9201910390611f33565b565b611f86906113a9565b90565b5f80fd5b5f80fd5b5f80fd5b903590600160200381360303821215611fd7570180359067ffffffffffffffff8211611fd257602001916001820236038313611fcd57565b611f91565b611f8d565b611f89565b90821015611ff7576020611ff39202810190611f95565b9091565b611198565b905090565b9091826120118161201893611ffc565b8093611614565b0190565b6120416120389260209261202f81610d56565b94858093611ffc565b93849101610d63565b0190565b612059939261205392612001565b9061201c565b90565b906120899193929361207d61206f610222565b958693602085019384612045565b908103825203836113d9565b565b9061209582610d43565b8110156120a6576020809102010190565b611198565b6120b3611e44565b50336120ce6120c86120c3612bef565b61023f565b9161023f565b145f1461217d576120e66120e15f611169565b611ecf565b5b6120fa6120f5838590611ef6565b611f56565b926121045f611169565b5b8061212261211c612117878690611ef6565b611163565b91611163565b1015612176576121719061216a61215761213b30611f7d565b61215161214a89888791611fdc565b899161205c565b90613683565b878391612164838361208b565b5261208b565b5150611185565b612105565b5050505090565b6121af6121a95f366121a16121935f3690611e49565b61219b61366e565b90611e61565b908092611e8e565b90611655565b6120e7565b6121bd906113a9565b90565b6121c99061044d565b90565b6121db6121e1919392936121c0565b926114e5565b90565b9190916121ef611d0d565b506121f86112ce565b5061220283611d3e565b5f14612219575050505f906122165f6114e5565b90565b8061223461222e612229306121b4565b61023f565b9161023f565b145f146122525750612245916136b2565b9061224f5f6114e5565b90565b906122609061226593611abe565b6122fe565b91905f14612286578161228061227a5f6114e5565b916103ed565b145b9190565b90506122935f5f906121cc565b9190612282565b906122ac916122a76129c6565b6122ae565b565b906122b891613703565b50565b906122c59161229a565b565b90565b6122de6122d96122e3926122c7565b611166565b6103ed565b90565b6122ee6112ce565b506122fb620697806122ca565b90565b90612307611d0d565b506123106112ce565b508161232b612325612320610834565b6102b9565b916102b9565b145f146123435750506001906123405f6114e5565b90565b61234c9161185c565b505091908061236361235d5f611540565b916106a6565b14159081612371575b509190565b905061238c6123866123816137f9565b6106a6565b916106a6565b11155f61236c565b906123a6916123a16129c6565b6123a8565b565b906123b291613851565b565b906123be91612394565b565b6123f56123fc946123eb6060949897956123e1608086019a5f870190611417565b6020850190611417565b6040830190611417565b0190611501565b565b1b90565b9190600861242291029161241c65ffffffffffff846123fe565b926123fe565b9181191691161790565b61244061243b612445926106a6565b611166565b6106a6565b90565b90565b919061246161245c6124699361242c565b612448565b908354612402565b9055565b61247f916124796117e0565b9161244b565b565b61249561249061249a926103ed565b611166565b6103ed565b90565b9091926124a86112ce565b506124cc6124b4612bef565b946124c0818490612d03565b92849186909192611df7565b936124e35f6124dd600288906118f6565b01611828565b6124f56124ef5f611540565b916106a6565b145f1461251b57612517855f91829163060a299b60e41b835260048301610c80565b0390fd5b8261252e6125288361023f565b9161023f565b036125b3575b5050505061254f5f80612549600285906118f6565b0161246d565b6125655f61255f600284906118f6565b01611969565b908161259a6125947fbd9ac67a6e2f6463b80927326310338bcbb4bdb7936ce1365ea3e01067e7b9f7936115a0565b91612481565b916125a3610222565b806125ad8161033c565b0390a390565b6125c56125be610a38565b82906122fe565b506125ee6125e66125df6125da888790611abe565b6112ad565b84906122fe565b50911561044d565b9081612624575b5015612534579061262091929361260a610222565b948594630ff89d4760e21b8652600486016123c0565b0390fd5b61262f91501561044d565b5f6125f5565b61264961264461264e926103ed565b611166565b6106a6565b90565b61265d612663916106a6565b916106a6565b019065ffffffffffff821161267457565b611e4d565b61268d612688612692926106a6565b611166565b611163565b90565b6126a96126a46126ae92611163565b611166565b6106a6565b90565b90565b6126c86126c36126cd926126b1565b611166565b6103ed565b90565b906126db91016103ed565b90565b906126ef65ffffffffffff91611585565b9181191691161790565b9061270e6127096127159261242c565b612448565b82546126de565b9055565b60301b90565b9061273469ffffffff00000000000091612719565b9181191691161790565b90565b9061275661275161275d92612481565b61273e565b825461271f565b9055565b9093916127a2959361278b6127959261278160808601985f8701906106b1565b6020850190611417565b6040830190611417565b6060818503910152611d98565b90565b93916127af611d8b565b506127b86112ce565b506127c1612bef565b936127d0858785908592612c1b565b9050906127ed6127de6137f9565b6127e784612635565b90612651565b916128006127fa5f6114e5565b916103ed565b148015612921575b6128f5576128309161282561281f61282b93612679565b91612679565b906138e2565b612695565b9061283f858785908492611df7565b956128498761390e565b6128726128625f61285c60028b906118f6565b01611969565b61286c60016126b4565b906126d0565b9561288a845f61288460028c906118f6565b016126f9565b6128a1875f61289b60028c906118f6565b01612741565b6128f0889388959293966128de6128d87f82a2da5dee54ea8021c6545b4444620291e07ee83be6dd57edb175062715f3b4976115a0565b97612481565b976128e7610222565b95869586612761565b0390a3565b838761291d612906868a9394612d03565b5f9384936381c6f24b60e01b85526004850161150e565b0390fd5b508061293561292f5f611540565b916106a6565b1180612941575b612808565b508061295561294f846106a6565b916106a6565b1061293c565b908061297661297061296b612bef565b61023f565b9161023f565b036129875761298491613703565b50565b5f635f159e6360e01b81528061299f6004820161033c565b0390fd5b9160206129c49294936129bd60408201965f830190611417565b0190610396565b565b6129ce612bef565b906129ec6129e4836129de613987565b916139d0565b91901561044d565b6129f6575b509050565b612a08612a025f6114e5565b916103ed565b145f14612a435750612a21612a1b613987565b90613bc7565b50905090612a3f5f92839263f07e038f60e01b8452600484016129a3565b0390fd5b90612a65612a6a91612a54306121b4565b90612a5d613987565b929091611df7565b612d3a565b50805f6129f1565b90612a8567ffffffffffffffff91611585565b9181191691161790565b90565b90612aa7612aa2612aae92611247565b612a8f565b8254612a72565b9055565b9190612ac5905f60208501940190611501565b565b612ae783612ae25f612ada8186906119ce565b018590611aa8565b612a92565b909190612b32612b20612b1a7f9ea6790c7dadfd01c9f8b9762b3682607af2c7e79e05a9f9fdf5580dde949151936117e4565b93611247565b93612b29610222565b91829182612ab2565b0390a3565b612b4990612b436112ce565b506132d8565b505090565b60701b90565b90612b6360ff60701b91612b4e565b9181191691161790565b90565b90612b85612b80612b8c926121c0565b612b6d565b8254612b54565b9055565b612ba7826001612ba15f85906119ce565b01612b70565b612be6612bd47f90d4e7bb7e5d933792b3562e1741306f8be94837e1348dacef9b6f1df56eb138926117e4565b92612bdd610222565b91829182610b76565b0390a2565b5f90565b612bf7612beb565b503390565b90565b612c13612c0e612c1892612bfc565b611166565b611163565b90565b90612c24611d0d565b50612c2d6112ce565b5080612c49612c43612c3e306121b4565b61023f565b9161023f565b145f14612c64575091612c5e929190916139d0565b91909190565b9190612c71828590611e49565b612c84612c7e6004612bff565b91611163565b105f14612ca15750505050612c9a5f5f906121cc565b91905b9190565b612cb693612cb0919392612d03565b916121e4565b9190612c9d565b5f90565b90612ccf612cd69183611e49565b91356109a6565b9060048110612ce4575b5090565b612cfc9063ffffffff60e01b906004036008026123fe565b165f612ce0565b612d3791612d3191612d13612cbd565b50905f90612d2b612d25600493611169565b92612bff565b92611e8e565b90612cc1565b90565b612d426112ce565b50612d595f612d53600284906118f6565b01611828565b612d6f5f612d69600285906118f6565b01611969565b9080612d83612d7d5f611540565b916106a6565b145f14612da957612da5835f91829163060a299b60e41b835260048301610c80565b0390fd5b80612dc3612dbd612db86137f9565b6106a6565b916106a6565b115f14612de957612de5835f918291630c65b5bd60e11b835260048301610c80565b0390fd5b612df5909291926133d5565b612e5d57612e105f80612e0a600285906118f6565b0161246d565b81612e44612e3e7f76a2a46953689d4861a5d3f6ed883ad7e6af674a21f8e162707159fc9dde614d936115a0565b91612481565b91612e4d610222565b80612e578161033c565b0390a390565b612e78905f918291631e2975b960e21b835260048301610c80565b0390fd5b612e8590611375565b90565b612e9c612e97612ea192610234565b611166565b611163565b90565b612eb8612eb3612ebd92611163565b611585565b610797565b90565b612ec9906109a6565b90565b90612efb612ef5612ef0612eeb612f0195612ee5611d8b565b50612e7c565b612e88565b612ea4565b91612ec0565b90613ec7565b90565b606090565b612f12906113a9565b90565b612f1e90611163565b9052565b916020612f43929493612f3c60408201965f830190612f15565b0190612f15565b565b3d5f14612f6057612f553d611eb3565b903d5f602084013e5b565b612f68612f04565b90612f5e565b90929192612f7a612f04565b50612f8430612f09565b31612f97612f9186611163565b91611163565b10612fc4575f612fc1939481928491602082019151925af190612fb8612f45565b90919091613edc565b90565b83612fce30612f09565b31612fe95f92839263cf47918160e01b845260048401612f22565b0390fd5b9061300c73ffffffffffffffffffffffffffff00000000000091612719565b9181191691161790565b6dffffffffffffffffffffffffffff1690565b61303d61303861304292613016565b611166565b613016565b90565b90565b9061305d61305861306492613029565b613045565b8254612fed565b9055565b61307260406115dc565b90565b9061307f906106a6565b9052565b9061308d90613016565b9052565b634e487b7160e01b5f525f60045260245ffd5b6130ae90516106a6565b90565b6130bb9051613016565b90565b906130e860205f6130ee946130e08282016130da8488016130a4565b906126f9565b0192016130b1565b90613048565b565b906130fa916130be565b565b60409061312561312c949695939661311b60608401985f8501906103f6565b60208301906106b1565b0190610b69565b565b919290613139611d0d565b508261315461314e613149610834565b6102b9565b916102b9565b146132b95761317b5f6131758161316d60018890611263565b0184906117f0565b01611828565b61318d6131875f611540565b916106a6565b14936131976117e0565b50845f14613259576131ba906131b46131ae6137f9565b91612635565b90612651565b92613205846131e86131cb8661404f565b6131df6131d6613068565b935f8501613075565b60208301613083565b6132005f6131f860018690611263565b0185906117f0565b6130f0565b5b909192849361325361324161323b7ff98448b987f1428e0e230e1f3c6e2ce15b5693eaf31827fbd0b1ec4b424ae7cf95611247565b956117e4565b9561324a610222565b938493846130fc565b0390a390565b506132b4926132936132835f61327d8161327560018790611263565b0186906117f0565b0161184f565b8461328d5f6114e5565b91613f8b565b94905f6132ae816132a660018790611263565b0186906117f0565b01613048565b613206565b6132d4835f91829163061c6a4360e21b8352600483016103a3565b0390fd5b613305906132e46112ce565b506132ed6112ce565b506132f66117e0565b506132ff6137f9565b90614085565b9192909190565b8061332661332061331b610a38565b6102b9565b916102b9565b1480156133b4575b61339557613349826001613343818590611263565b01612a92565b9061337d6133777f1fd6dd7631312dfac2205b52913f99de03b4d7e381d5d27d3dbfe0713e6e634093611247565b91611247565b91613386610222565b806133908161033c565b0390a3565b6133b0905f91829163061c6a4360e21b8352600483016103a3565b0390fd5b50806133cf6133c96133c4610834565b6102b9565b916102b9565b1461332e565b6133f8906133e1611d0d565b506133f26133ed6119b6565b612635565b90612651565b61341161340b6134066137f9565b6106a6565b916106a6565b111590565b60401b90565b906134376fffffffffffffffff000000000000000091613416565b9181191691161790565b9061345661345161345d92611247565b612a8f565b825461341c565b9055565b8061347b613475613470610a38565b6102b9565b916102b9565b148015613509575b6134ea5761349e826001613498818590611263565b01613441565b906134d26134cc7f7a8059630b897b5de4c08ade69f8b90c3ead1f8596d62d10b6c4d14a0afb4ae293611247565b91611247565b916134db610222565b806134e58161033c565b0390a3565b613505905f91829163061c6a4360e21b8352600483016103a3565b0390fd5b508061352461351e613519610834565b6102b9565b916102b9565b14613483565b60801b90565b9061354c6dffffffffffffffffffffffffffff60801b9161352a565b9181191691161790565b9061356b61356661357292613029565b613045565b8254613530565b9055565b91602061359792949361359060408201965f8301906103f6565b01906106b1565b565b9190826135b56135af6135aa610834565b6102b9565b916102b9565b1461364b5761360591926135c76117e0565b506135f06135e160016135db818590611263565b016112ff565b836135ea6122e6565b91613f8b565b939060016135ff818590611263565b01613556565b90916136317ffeb69018ee8b8fd50ea86348f1267d07673379f72cffdeccec63853ee8ce8b4892611247565b9261364661363d610222565b92839283613576565b0390a2565b613666835f91829163061c6a4360e21b8352600483016103a3565b0390fd5b5f90565b61367661366a565b506136805f611169565b90565b5f806136af93613691612f04565b508390602081019051915af4906136a6612f45565b90919091613edc565b90565b906136db6136d66136e1926136c5611d0d565b506136d06003611578565b94612ecc565b610797565b91610797565b1490565b5f80910155565b905f036136fe576136fc906136e5565b565b613091565b61370b611d0d565b508061372661372061371b610834565b6102b9565b916102b9565b146137da5761374d5f6137478161373f60018690611263565b0185906117f0565b01611828565b61375f6137595f611540565b916106a6565b146137d4576137855f6137808161377860018690611263565b0185906117f0565b6136ec565b906137b96137b37ff229baa593af28c41b1d16b748cd7688f0c83aaf92d4be41c44005defe84c16693611247565b916117e4565b916137c2610222565b806137cc8161033c565b0390a3600190565b50505f90565b6137f5905f91829163061c6a4360e21b8352600483016103a3565b0390fd5b6138016117e0565b5061380b42614143565b90565b906138276dffffffffffffffffffffffffffff91611585565b9181191691161790565b9061384661384161384d92613029565b613045565b825461380e565b9055565b9061389c9161385e6117e0565b5061388761387860016138725f85906119ce565b016119f8565b836138816122e6565b91613f8b565b939060016138965f85906119ce565b01613831565b90916138c87fa56b76017453f399ec2327ba00375dbfb1fd070ff854341ad6191e6a2e2de19c926117e4565b926138dd6138d4610222565b92839283613576565b0390a2565b61390b916138ee61366a565b50816139026138fc83611163565b91611163565b119190916141a4565b90565b6139245f61391e600284906118f6565b01611828565b806139376139315f611540565b916106a6565b14159081613967575b506139485750565b613963905f91829163813e945960e01b835260048301610c80565b0390fd5b61397b9150613975906133d5565b1561044d565b5f613940565b36905f90565b61398f613981565b9050505f903690565b6139ac6139a76139b1926103ed565b611166565b611163565b90565b6139c86139c36139cd92611163565b611166565b6103ed565b90565b91906139da611d0d565b506139e36112ce565b506139ef818390611e49565b613a026139fc6004612bff565b91611163565b10613b035782613a22613a1c613a17306121b4565b61023f565b9161023f565b14613ad757613a3f91613a3491613bc7565b91929091921561044d565b80613ac0575b613aaf57613a5e92613a56916122fe565b92901561044d565b613a9f57613a8691613a7b613a75613a8193613998565b91613998565b906138e2565b6139b4565b9081613a9a613a945f6114e5565b916103ed565b149190565b50505f90613aac5f6114e5565b90565b5050505f90613abd5f6114e5565b90565b50613ad2613acd306121b4565b611d3e565b613a45565b90613af69250613af090613aea306121b4565b92612d03565b906136b2565b90613b005f6114e5565b90565b5050505f90613b115f6114e5565b90565b613b28613b23613b2d92611160565b611166565b6102b9565b90565b613b44613b3f613b49926103ed565b611402565b6109a6565b90565b90565b613b63613b5e613b6892613b4c565b611166565b611163565b90565b91565b613b7790610234565b90565b613b8381613b6e565b03613b8a57565b5f80fd5b90503590613b9b82613b7a565b565b90602082820312613bb657613bb3915f01613b8e565b90565b61022c565b613bc4906113a9565b90565b90613bd0611d0d565b50613bd9611243565b50613be26112ce565b50613bee828290611e49565b613c01613bfb6004612bff565b91611163565b10613eab57613c11828290612d03565b9182613c31613c2b613c2663853551b8613b30565b6109a6565b916109a6565b148015613e85575b8015613e5f575b8015613e39575b8015613e13575b613df65782613c71613c6b613c666318ff183c613b30565b6109a6565b916109a6565b148015613dd0575b8015613daa575b613d4e5782613ca3613c9d613c986325c471a0613b30565b6109a6565b916109a6565b148015613d28575b613cd4575050613cc45f91613cbf306121b4565b611abe565b91613cd15f9293926114e5565b90565b613d0d9250613d0591613cff9190600490613cf9613cf3602493612bff565b92613b4f565b92611e8e565b90613b6b565b810190610378565b613d18600191611a7b565b91613d255f9293926114e5565b90565b5082613d48613d42613d3d63b7d2b162613b30565b6109a6565b916109a6565b14613cab565b613d979250613d85613d7f613d9293613d8d9390600490613d79613d73602493612bff565b92613b4f565b92611e8e565b90613b6b565b810190613b9d565b613bbb565b611a05565b90600190613da3610a38565b9291929190565b5082613dca613dc4613dbf6308d6122d613b30565b6109a6565b916109a6565b14613c80565b5082613df0613dea613de563167bd395613b30565b6109a6565b916109a6565b14613c79565b5050506001613e03610a38565b91613e105f9293926114e5565b90565b5082613e33613e2d613e2863d22b5989613b30565b6109a6565b916109a6565b14613c4e565b5082613e59613e53613e4e63a64d95ce613b30565b6109a6565b916109a6565b14613c47565b5082613e7f613e79613e746352962952613b30565b6109a6565b916109a6565b14613c40565b5082613ea5613e9f613e9a6330cae187613b30565b6109a6565b916109a6565b14613c39565b50505f5f91613ec4613ebe5f9394613b14565b926114e5565b90565b613ecf611d8b565b505f5260205260405f2090565b90613ef090613ee9612f04565b501561044d565b5f14613efc57506141c8565b613f0582610d56565b613f17613f115f611169565b91611163565b1480613f45575b613f26575090565b613f41905f918291639996b31560e01b835260048301611424565b0390fd5b50803b613f5a613f545f611169565b91611163565b14613f1e565b5f90565b613f70613f76916103ed565b916103ed565b90039063ffffffff8211613f8657565b611e4d565b90614011613ffa613ff5613fb661401a95979697613fa7613f60565b50613fb06117e0565b50612b37565b9687613fca613fc4876103ed565b916103ed565b115f1461401e57613fef613fe9613fe28a8890613f64565b925b613998565b91613998565b906138e2565b6139b4565b61400b6140056137f9565b91612635565b90612651565b9390849161428f565b9190565b613fef613fe961402d5f6114e5565b92613fe4565b61404761404261404c926103ed565b611166565b613016565b90565b6140619061405b613f60565b50614033565b90565b61407c61407661408292959395612481565b946114e5565b92611540565b90565b6140a9906140916112ce565b5061409a6112ce565b506140a36117e0565b5061434a565b929091929192906140c36140bd84926106a6565b916106a6565b11155f146140e35750506140d9905f5f91614064565b919290925b929190565b9290929192916140de565b90565b60ff1690565b61410b614106614110926140ee565b611166565b6140f1565b90565b61411c906140f7565b9052565b91602061414192949361413a60408201965f830190614113565b0190612f15565b565b61414b6117e0565b508061416561415f65ffffffffffff612679565b91611163565b116141765761417390612695565b90565b60306141925f9283926306dfcc6560e41b845260048401614120565b0390fd5b906141a19102611163565b90565b6141be6141c492936141b461366a565b50809418916143ba565b90614196565b1890565b6141d181610d56565b6141e36141dd5f611169565b91611163565b115f146141f257602081519101fd5b5f63d6bda27560e01b81528061420a6004820161033c565b0390fd5b61422261421d614227926106a6565b611166565b613016565b90565b90565b61424161423c6142469261422a565b611166565b6140f1565b90565b6142689061426261425c61426d946140f1565b91613016565b906123fe565b613016565b90565b90565b61428761428261428c92614270565b611166565b6140f1565b90565b6142de906142d76142c76142c16142b16142e4976142ab613f60565b5061420e565b6142bb604061422d565b90614249565b92614033565b6142d16020614273565b90614249565b1791614033565b17613029565b90565b6142fb6142f661430092613016565b611166565b6103ed565b90565b1c90565b6143269061432061431a61432b946140f1565b91613016565b90614303565b613016565b90565b61434261433d61434792613016565b611166565b6106a6565b90565b61436e906143566112ce565b5061435f6112ce565b506143686117e0565b50613029565b90614378826142e7565b906143b16143ac61439b614396866143906020614273565b90614307565b6142e7565b946143a6604061422d565b90614307565b61432e565b92919291929190565b6143c261366a565b5015159056","linkReferences":{}},"methodIdentifiers":{"ADMIN_ROLE()":"75b238fc","PUBLIC_ROLE()":"3ca7c02a","canCall(address,address,bytes4)":"b7009613","cancel(address,address,bytes)":"d6bb62c6","consumeScheduledOp(address,bytes)":"94c7d7ee","execute(address,bytes)":"1cff79cd","expiration()":"4665096d","getAccess(uint64,address)":"3078f114","getNonce(bytes32)":"4136a33c","getRoleAdmin(uint64)":"530dd456","getRoleGrantDelay(uint64)":"12be8727","getRoleGuardian(uint64)":"0b0a93ba","getSchedule(bytes32)":"3adc277a","getTargetAdminDelay(address)":"4c1da1e2","getTargetFunctionRole(address,bytes4)":"6d5115bd","grantRole(uint64,address,uint32)":"25c471a0","hasRole(uint64,address)":"d1f856ee","hashOperation(address,address,bytes)":"abd9bd2a","isTargetClosed(address)":"a166aa89","labelRole(uint64,string)":"853551b8","minSetback()":"cc1b6c81","multicall(bytes[])":"ac9650d8","renounceRole(uint64,address)":"fe0776f5","revokeRole(uint64,address)":"b7d2b162","schedule(address,bytes,uint48)":"f801a698","setGrantDelay(uint64,uint32)":"a64d95ce","setRoleAdmin(uint64,uint64)":"30cae187","setRoleGuardian(uint64,uint64)":"52962952","setTargetAdminDelay(address,uint32)":"d22b5989","setTargetClosed(address,bool)":"167bd395","setTargetFunctionRole(address,bytes4[],uint64)":"08d6122d","updateAuthority(address,address)":"18ff183c"},"id":21}