{"abi":[{"type":"constructor","inputs":[{"name":"_mintBurn","type":"address","internalType":"address"}],"stateMutability":"nonpayable"},{"type":"function","name":"allowance","inputs":[{"name":"owner","type":"address","internalType":"address"},{"name":"spender","type":"address","internalType":"address"}],"outputs":[{"name":"","type":"uint256","internalType":"uint256"}],"stateMutability":"view"},{"type":"function","name":"approve","inputs":[{"name":"spender","type":"address","internalType":"address"},{"name":"amount","type":"uint256","internalType":"uint256"}],"outputs":[{"name":"","type":"bool","internalType":"bool"}],"stateMutability":"nonpayable"},{"type":"function","name":"balanceOf","inputs":[{"name":"account","type":"address","internalType":"address"}],"outputs":[{"name":"","type":"uint256","internalType":"uint256"}],"stateMutability":"view"},{"type":"function","name":"burnFrom","inputs":[{"name":"from","type":"address","internalType":"address"},{"name":"amount","type":"uint256","internalType":"uint256"}],"outputs":[],"stateMutability":"nonpayable"},{"type":"function","name":"decimals","inputs":[],"outputs":[{"name":"","type":"uint8","internalType":"uint8"}],"stateMutability":"view"},{"type":"function","name":"disableReentrancy","inputs":[],"outputs":[],"stateMutability":"nonpayable"},{"type":"function","name":"enableReentrancy","inputs":[],"outputs":[],"stateMutability":"nonpayable"},{"type":"function","name":"mint","inputs":[{"name":"to","type":"address","internalType":"address"},{"name":"amount","type":"uint256","internalType":"uint256"}],"outputs":[],"stateMutability":"nonpayable"},{"type":"function","name":"mintBurn","inputs":[],"outputs":[{"name":"","type":"address","internalType":"contract MintBurn"}],"stateMutability":"view"},{"type":"function","name":"name","inputs":[],"outputs":[{"name":"","type":"string","internalType":"string"}],"stateMutability":"view"},{"type":"function","name":"reentrancyAttempts","inputs":[],"outputs":[{"name":"","type":"uint256","internalType":"uint256"}],"stateMutability":"view"},{"type":"function","name":"reentrancyEnabled","inputs":[],"outputs":[{"name":"","type":"bool","internalType":"bool"}],"stateMutability":"view"},{"type":"function","name":"resetReentrancyAttempts","inputs":[],"outputs":[],"stateMutability":"nonpayable"},{"type":"function","name":"symbol","inputs":[],"outputs":[{"name":"","type":"string","internalType":"string"}],"stateMutability":"view"}],"bytecode":{"object":"0x60806040523461002f576100196100146100f4565b61047d565b610021610034565b610ffb6104ca8239610ffb90f35b61003a565b60405190565b5f80fd5b601f801991011690565b634e487b7160e01b5f52604160045260245ffd5b906100669061003e565b810190811060018060401b0382111761007e57604052565b610048565b9061009661008f610034565b928361005c565b565b5f80fd5b60018060a01b031690565b6100b09061009c565b90565b6100bc816100a7565b036100c357565b5f80fd5b905051906100d4826100b3565b565b906020828203126100ef576100ec915f016100c7565b90565b610098565b6101126114c58038038061010781610083565b9283398101906100d6565b90565b60a01b90565b9061012a60ff60a01b91610115565b9181191691161790565b151590565b61014290610134565b90565b90565b9061015d61015861016492610139565b610145565b825461011b565b9055565b5f1b90565b906101795f1991610168565b9181191691161790565b90565b90565b90565b6101a061019b6101a592610183565b610189565b610186565b90565b90565b906101c06101bb6101c79261018c565b6101a8565b825461016d565b9055565b634e487b7160e01b5f52602260045260245ffd5b90600160028304921680156101ff575b60208310146101fa57565b6101cb565b91607f16916101ef565b5f5260205f2090565b601f602091010490565b1b90565b9190600861023b9102916102355f198461021c565b9261021c565b9181191691161790565b61025961025461025e92610186565b610189565b610186565b90565b919061027761027261027f93610245565b6101a8565b908354610220565b9055565b5f90565b61029991610293610283565b91610261565b565b5b8181106102a7575050565b806102b45f600193610287565b0161029c565b9190601f81116102ca575b505050565b6102d66102fb93610209565b9060206102e284610212565b83019310610303575b6102f490610212565b019061029b565b5f80806102c5565b91506102f4819290506102eb565b610326601961032083546101df565b836102ba565b60327f4d616c6963696f7573205265656e7472616e7420546f6b656e00000000000000019055565b61035790610311565b565b61036e600361036883546101df565b836102ba565b60067f4d52540000000000000000000000000000000000000000000000000000000000019055565b61039f90610359565b565b906103ad60ff91610168565b9181191691161790565b90565b60ff1690565b6103d46103cf6103d9926103b7565b610189565b6103ba565b90565b90565b906103f46103ef6103fb926103c0565b6103dc565b82546103a1565b9055565b61041361040e6104189261009c565b610189565b61009c565b90565b610424906103ff565b90565b6104309061041b565b90565b9061044460018060a01b0391610168565b9181191691161790565b6104579061041b565b90565b90565b9061047261046d6104799261044e565b61045a565b8254610433565b9055565b6104c06104c79161049060016002610148565b61049b5f60036101ab565b6104a5600461034e565b6104af6005610396565b6104bb601260066103df565b610427565b600261045d565b56fe60806040526004361015610013575b610895565b61001d5f356100fc565b806306fdde03146100f7578063095ea7b3146100f25780630d38ffb8146100ed5780631221c038146100e8578063313ce567146100e357806340c10f19146100de57806370a08231146100d957806377561a1b146100d457806379cc6790146100cf57806395d89b41146100ca578063cc23fb1c146100c5578063cd34087c146100c0578063cf22dff7146100bb5763dd62ed3e0361000e5761085f565b6107fd565b61078e565b61075b565b610726565b6106e3565b6106b0565b61067b565b610629565b6105ef565b610557565b610489565b6103f5565b61030c565b60e01c90565b60405190565b5f80fd5b5f80fd5b5f91031261011a57565b61010c565b634e487b7160e01b5f525f60045260245ffd5b634e487b7160e01b5f52602260045260245ffd5b9060016002830492168015610166575b602083101461016157565b610132565b91607f1691610156565b60209181520190565b5f5260205f2090565b905f929180549061019c61019583610146565b8094610170565b916001811690815f146101f357506001146101b7575b505050565b6101c49192939450610179565b915f925b8184106101db57505001905f80806101b2565b600181602092959395548486015201910192906101c8565b92949550505060ff19168252151560200201905f80806101b2565b9061021891610182565b90565b601f801991011690565b634e487b7160e01b5f52604160045260245ffd5b906102439061021b565b810190811067ffffffffffffffff82111761025d57604052565b610225565b9061028261027b92610272610102565b9384809261020e565b0383610239565b565b905f106102975761029490610262565b90565b61011f565b6102a860045f90610284565b90565b5190565b60209181520190565b90825f9392825e0152565b6102e26102eb6020936102f0936102d9816102ab565b938480936102af565b958691016102b8565b61021b565b0190565b6103099160208201915f8184039101526102c3565b90565b3461033c5761031c366004610110565b61033861032761029c565b61032f610102565b918291826102f4565b0390f35b610108565b60018060a01b031690565b61035590610341565b90565b6103618161034c565b0361036857565b5f80fd5b9050359061037982610358565b565b90565b6103878161037b565b0361038e57565b5f80fd5b9050359061039f8261037e565b565b91906040838203126103c957806103bd6103c6925f860161036c565b93602001610392565b90565b61010c565b151590565b6103dc906103ce565b9052565b91906103f3905f602085019401906103d3565b565b346104265761042261041161040b3660046103a1565b9061092f565b610419610102565b918291826103e0565b0390f35b610108565b1c90565b90565b610442906008610447930261042b565b61042f565b90565b906104559154610432565b90565b61046460035f9061044a565b90565b6104709061037b565b9052565b9190610487905f60208501940190610467565b565b346104b957610499366004610110565b6104b56104a4610458565b6104ac610102565b91829182610474565b0390f35b610108565b60018060a01b031690565b6104d99060086104de930261042b565b6104be565b90565b906104ec91546104c9565b90565b6104fb60025f906104e1565b90565b90565b61051561051061051a92610341565b6104fe565b610341565b90565b61052690610501565b90565b6105329061051d565b90565b61053e90610529565b9052565b9190610555905f60208501940190610535565b565b3461058757610567366004610110565b6105836105726104ef565b61057a610102565b91829182610542565b0390f35b610108565b60ff1690565b6105a29060086105a7930261042b565b61058c565b90565b906105b59154610592565b90565b6105c460065f906105aa565b90565b60ff1690565b6105d6906105c7565b9052565b91906105ed905f602085019401906105cd565b565b3461061f576105ff366004610110565b61061b61060a6105b8565b610612610102565b918291826105da565b0390f35b610108565b5f0190565b346106585761064261063c3660046103a1565b90610ae5565b61064a610102565b8061065481610624565b0390f35b610108565b9060208282031261067657610673915f0161036c565b90565b61010c565b346106ab576106a761069661069136600461065d565b610c1b565b61069e610102565b91829182610474565b0390f35b610108565b346106de576106c0366004610110565b6106c8610c87565b6106d0610102565b806106da81610624565b0390f35b610108565b34610712576106fc6106f63660046103a1565b90610dd1565b610704610102565b8061070e81610624565b0390f35b610108565b61072360055f90610284565b90565b3461075657610736366004610110565b610752610741610717565b610749610102565b918291826102f4565b0390f35b610108565b346107895761076b366004610110565b610773610f9e565b61077b610102565b8061078581610624565b0390f35b610108565b346107bc5761079e366004610110565b6107a6610fbe565b6107ae610102565b806107b881610624565b0390f35b610108565b60ff1690565b6107d79060086107dc930261042b565b6107c1565b90565b906107ea91546107c7565b90565b6107fa60026014906107df565b90565b3461082d5761080d366004610110565b6108296108186107ed565b610820610102565b918291826103e0565b0390f35b610108565b919060408382031261085a578061084e610857925f860161036c565b9360200161036c565b90565b61010c565b346108905761088c61087b610875366004610832565b90610fd3565b610883610102565b91829182610474565b0390f35b610108565b5f80fd5b5f90565b6108a69061051d565b90565b906108b39061089d565b5f5260205260405f2090565b906108c99061089d565b5f5260205260405f2090565b5f1b90565b906108e65f19916108d5565b9181191691161790565b6109046108ff6109099261037b565b6104fe565b61037b565b90565b90565b9061092461091f61092b926108f0565b61090c565b82546108da565b9055565b6109516109569261093e610899565b509161094c600133906108a9565b6108bf565b61090f565b600190565b60a01c90565b61096d6109729161095b565b6107c1565b90565b61097f9054610961565b90565b5f1c90565b61099361099891610982565b61042f565b90565b6109a59054610987565b90565b90565b6109bf6109ba6109c4926109a8565b6104fe565b61037b565b90565b634e487b7160e01b5f52601160045260245ffd5b6109e49061037b565b5f1981146109f25760010190565b6109c7565b610a03610a0891610982565b6104be565b90565b610a1590546109f7565b90565b610a219061051d565b90565b90565b610a3b610a36610a4092610a24565b6104fe565b61037b565b90565b610a55683635c9adc5dea00000610a27565b90565b5f80fd5b60e01b90565b5f910312610a6c57565b61010c565b610a7a9061034c565b9052565b604090610aa7610aae9496959396610a9d60608401985f850190610a71565b6020830190610a71565b0190610467565b565b610ab8610102565b3d5f823e3d90fd5b610acf610ad59193929361037b565b9261037b565b8201809211610ae057565b6109c7565b610aef6002610975565b80610bf4575b610b22575b610b1a610b0b610b2093925f6108bf565b91610b158361099b565b610ac0565b9061090f565b565b610b3e610b37610b32600361099b565b6109db565b600361090f565b610b50610b4b6002610a0b565b610529565b63c6c3bbe682610b5f30610a18565b92610b68610a43565b92813b15610bef575f610b8e91610b998296610b82610102565b98899788968795610a5c565b855260048501610a7e565b03925af18015610bea57610b2093610b1a92610b0b92610bbe575b5093505050610afa565b610bdd905f3d8111610be3575b610bd58183610239565b810190610a62565b5f610bb4565b503d610bcb565b610ab0565b610a58565b50610bff600361099b565b610c11610c0b5f6109ab565b9161037b565b14610af5565b5f90565b610c31610c3691610c2a610c17565b505f6108bf565b61099b565b90565b60a01b90565b90610c4e60ff60a01b91610c39565b9181191691161790565b610c61906103ce565b90565b90565b90610c7c610c77610c8392610c58565b610c64565b8254610c3f565b9055565b610c9360016002610c67565b610ca6610c9f5f6109ab565b600361090f565b565b5f7f45524332303a20696e73756666696369656e7420616c6c6f77616e6365000000910152565b610cdc601d6020926102af565b610ce581610ca8565b0190565b610cfe9060208101905f818303910152610ccf565b90565b15610d0857565b610d10610102565b62461bcd60e51b815280610d2660048201610ce9565b0390fd5b5f7f45524332303a20696e73756666696369656e742062616c616e63650000000000910152565b610d5e601b6020926102af565b610d6781610d2a565b0190565b610d809060208101905f818303910152610d51565b90565b15610d8a57565b610d92610102565b62461bcd60e51b815280610da860048201610d6b565b0390fd5b610dbb610dc19193929361037b565b9261037b565b8203918211610dcc57565b6109c7565b610ddb6002610975565b80610f7b575b610ea9575b610ea1610e92610ea793610e2a610e11610e0c610e05600188906108a9565b33906108bf565b61099b565b610e23610e1d8461037b565b9161037b565b1015610d01565b610e59610e40610e3b5f87906108bf565b61099b565b610e52610e4c8461037b565b9161037b565b1015610d83565b610e8b81610e85610e76610e6f600189906108a9565b33906108bf565b91610e808361099b565b610dac565b9061090f565b925f6108bf565b91610e9c8361099b565b610dac565b9061090f565b565b610ec5610ebe610eb9600361099b565b6109db565b600361090f565b610ed7610ed26002610a0b565b610529565b63f6b911bc82610ee630610a18565b92610eef610a43565b92813b15610f76575f610f1591610f208296610f09610102565b98899788968795610a5c565b855260048501610a7e565b03925af18015610f7157610ea793610ea192610e9292610f45575b5093505050610de6565b610f64905f3d8111610f6a575b610f5c8183610239565b810190610a62565b5f610f3b565b503d610f52565b610ab0565b610a58565b50610f86600361099b565b610f98610f925f6109ab565b9161037b565b14610de1565b610fa95f6002610c67565b610fbc610fb55f6109ab565b600361090f565b565b610fd1610fca5f6109ab565b600361090f565b565b610ff891610fee610ff392610fe6610c17565b5060016108a9565b6108bf565b61099b565b9056","linkReferences":{}},"methodIdentifiers":{"allowance(address,address)":"dd62ed3e","approve(address,uint256)":"095ea7b3","balanceOf(address)":"70a08231","burnFrom(address,uint256)":"79cc6790","decimals()":"313ce567","disableReentrancy()":"cc23fb1c","enableReentrancy()":"77561a1b","mint(address,uint256)":"40c10f19","mintBurn()":"1221c038","name()":"06fdde03","reentrancyAttempts()":"0d38ffb8","reentrancyEnabled()":"cf22dff7","resetReentrancyAttempts()":"cd34087c","symbol()":"95d89b41"},"id":97}