{"abi":[{"type":"constructor","inputs":[{"name":"initialAuthority","type":"address","internalType":"address"},{"name":"_tokenRegistry","type":"address","internalType":"contract TokenRegistry"},{"name":"_mintBurn","type":"address","internalType":"contract MintBurn"},{"name":"_lockUnlock","type":"address","internalType":"contract LockUnlock"}],"stateMutability":"nonpayable"},{"type":"function","name":"approveWithdraw","inputs":[{"name":"srcChainKey","type":"bytes32","internalType":"bytes32"},{"name":"token","type":"address","internalType":"address"},{"name":"to","type":"address","internalType":"address"},{"name":"amount","type":"uint256","internalType":"uint256"},{"name":"nonce","type":"uint256","internalType":"uint256"},{"name":"fee","type":"uint256","internalType":"uint256"},{"name":"feeRecipient","type":"address","internalType":"address"},{"name":"deductFromAmount","type":"bool","internalType":"bool"}],"outputs":[],"stateMutability":"nonpayable"},{"type":"function","name":"authority","inputs":[],"outputs":[{"name":"","type":"address","internalType":"address"}],"stateMutability":"view"},{"type":"function","name":"cancelWithdrawApproval","inputs":[{"name":"srcChainKey","type":"bytes32","internalType":"bytes32"},{"name":"token","type":"address","internalType":"address"},{"name":"to","type":"address","internalType":"address"},{"name":"amount","type":"uint256","internalType":"uint256"},{"name":"nonce","type":"uint256","internalType":"uint256"}],"outputs":[],"stateMutability":"nonpayable"},{"type":"function","name":"deposit","inputs":[{"name":"payer","type":"address","internalType":"address"},{"name":"destChainKey","type":"bytes32","internalType":"bytes32"},{"name":"destAccount","type":"bytes32","internalType":"bytes32"},{"name":"token","type":"address","internalType":"address"},{"name":"amount","type":"uint256","internalType":"uint256"}],"outputs":[],"stateMutability":"nonpayable"},{"type":"function","name":"depositNonce","inputs":[],"outputs":[{"name":"","type":"uint256","internalType":"uint256"}],"stateMutability":"view"},{"type":"function","name":"getDepositFromHash","inputs":[{"name":"depositHash","type":"bytes32","internalType":"bytes32"}],"outputs":[{"name":"deposit_","type":"tuple","internalType":"struct Cl8YBridge.Deposit","components":[{"name":"destChainKey","type":"bytes32","internalType":"bytes32"},{"name":"destTokenAddress","type":"bytes32","internalType":"bytes32"},{"name":"destAccount","type":"bytes32","internalType":"bytes32"},{"name":"from","type":"address","internalType":"address"},{"name":"amount","type":"uint256","internalType":"uint256"},{"name":"nonce","type":"uint256","internalType":"uint256"}]}],"stateMutability":"view"},{"type":"function","name":"getDepositHash","inputs":[{"name":"depositRequest","type":"tuple","internalType":"struct Cl8YBridge.Deposit","components":[{"name":"destChainKey","type":"bytes32","internalType":"bytes32"},{"name":"destTokenAddress","type":"bytes32","internalType":"bytes32"},{"name":"destAccount","type":"bytes32","internalType":"bytes32"},{"name":"from","type":"address","internalType":"address"},{"name":"amount","type":"uint256","internalType":"uint256"},{"name":"nonce","type":"uint256","internalType":"uint256"}]}],"outputs":[{"name":"depositHash","type":"bytes32","internalType":"bytes32"}],"stateMutability":"pure"},{"type":"function","name":"getDepositHashes","inputs":[{"name":"index","type":"uint256","internalType":"uint256"},{"name":"count","type":"uint256","internalType":"uint256"}],"outputs":[{"name":"hashes","type":"bytes32[]","internalType":"bytes32[]"}],"stateMutability":"view"},{"type":"function","name":"getWithdrawApproval","inputs":[{"name":"withdrawHash","type":"bytes32","internalType":"bytes32"}],"outputs":[{"name":"approval","type":"tuple","internalType":"struct Cl8YBridge.WithdrawApproval","components":[{"name":"fee","type":"uint256","internalType":"uint256"},{"name":"feeRecipient","type":"address","internalType":"address"},{"name":"approvedAt","type":"uint64","internalType":"uint64"},{"name":"isApproved","type":"bool","internalType":"bool"},{"name":"deductFromAmount","type":"bool","internalType":"bool"},{"name":"cancelled","type":"bool","internalType":"bool"},{"name":"executed","type":"bool","internalType":"bool"}]}],"stateMutability":"view"},{"type":"function","name":"getWithdrawFromHash","inputs":[{"name":"withdrawHash","type":"bytes32","internalType":"bytes32"}],"outputs":[{"name":"withdraw_","type":"tuple","internalType":"struct Cl8YBridge.Withdraw","components":[{"name":"srcChainKey","type":"bytes32","internalType":"bytes32"},{"name":"token","type":"address","internalType":"address"},{"name":"to","type":"address","internalType":"address"},{"name":"amount","type":"uint256","internalType":"uint256"},{"name":"nonce","type":"uint256","internalType":"uint256"}]}],"stateMutability":"view"},{"type":"function","name":"getWithdrawHash","inputs":[{"name":"withdrawRequest","type":"tuple","internalType":"struct Cl8YBridge.Withdraw","components":[{"name":"srcChainKey","type":"bytes32","internalType":"bytes32"},{"name":"token","type":"address","internalType":"address"},{"name":"to","type":"address","internalType":"address"},{"name":"amount","type":"uint256","internalType":"uint256"},{"name":"nonce","type":"uint256","internalType":"uint256"}]}],"outputs":[{"name":"withdrawHash","type":"bytes32","internalType":"bytes32"}],"stateMutability":"pure"},{"type":"function","name":"getWithdrawHashes","inputs":[{"name":"index","type":"uint256","internalType":"uint256"},{"name":"count","type":"uint256","internalType":"uint256"}],"outputs":[{"name":"hashes","type":"bytes32[]","internalType":"bytes32[]"}],"stateMutability":"view"},{"type":"function","name":"isConsumingScheduledOp","inputs":[],"outputs":[{"name":"","type":"bytes4","internalType":"bytes4"}],"stateMutability":"view"},{"type":"function","name":"lockUnlock","inputs":[],"outputs":[{"name":"","type":"address","internalType":"contract LockUnlock"}],"stateMutability":"view"},{"type":"function","name":"mintBurn","inputs":[],"outputs":[{"name":"","type":"address","internalType":"contract MintBurn"}],"stateMutability":"view"},{"type":"function","name":"pause","inputs":[],"outputs":[],"stateMutability":"nonpayable"},{"type":"function","name":"paused","inputs":[],"outputs":[{"name":"","type":"bool","internalType":"bool"}],"stateMutability":"view"},{"type":"function","name":"reenableWithdrawApproval","inputs":[{"name":"srcChainKey","type":"bytes32","internalType":"bytes32"},{"name":"token","type":"address","internalType":"address"},{"name":"to","type":"address","internalType":"address"},{"name":"amount","type":"uint256","internalType":"uint256"},{"name":"nonce","type":"uint256","internalType":"uint256"}],"outputs":[],"stateMutability":"nonpayable"},{"type":"function","name":"setAuthority","inputs":[{"name":"newAuthority","type":"address","internalType":"address"}],"outputs":[],"stateMutability":"nonpayable"},{"type":"function","name":"setWithdrawDelay","inputs":[{"name":"newDelay","type":"uint256","internalType":"uint256"}],"outputs":[],"stateMutability":"nonpayable"},{"type":"function","name":"tokenRegistry","inputs":[],"outputs":[{"name":"","type":"address","internalType":"contract TokenRegistry"}],"stateMutability":"view"},{"type":"function","name":"unpause","inputs":[],"outputs":[],"stateMutability":"nonpayable"},{"type":"function","name":"withdraw","inputs":[{"name":"srcChainKey","type":"bytes32","internalType":"bytes32"},{"name":"token","type":"address","internalType":"address"},{"name":"to","type":"address","internalType":"address"},{"name":"amount","type":"uint256","internalType":"uint256"},{"name":"nonce","type":"uint256","internalType":"uint256"}],"outputs":[],"stateMutability":"payable"},{"type":"function","name":"withdrawDelay","inputs":[],"outputs":[{"name":"","type":"uint256","internalType":"uint256"}],"stateMutability":"view"},{"type":"event","name":"AuthorityUpdated","inputs":[{"name":"authority","type":"address","indexed":false,"internalType":"address"}],"anonymous":false},{"type":"event","name":"DepositRequest","inputs":[{"name":"destChainKey","type":"bytes32","indexed":true,"internalType":"bytes32"},{"name":"destTokenAddress","type":"bytes32","indexed":true,"internalType":"bytes32"},{"name":"destAccount","type":"bytes32","indexed":true,"internalType":"bytes32"},{"name":"token","type":"address","indexed":false,"internalType":"address"},{"name":"amount","type":"uint256","indexed":false,"internalType":"uint256"},{"name":"nonce","type":"uint256","indexed":false,"internalType":"uint256"}],"anonymous":false},{"type":"event","name":"Paused","inputs":[{"name":"account","type":"address","indexed":false,"internalType":"address"}],"anonymous":false},{"type":"event","name":"Unpaused","inputs":[{"name":"account","type":"address","indexed":false,"internalType":"address"}],"anonymous":false},{"type":"event","name":"WithdrawApprovalCancelled","inputs":[{"name":"withdrawHash","type":"bytes32","indexed":true,"internalType":"bytes32"}],"anonymous":false},{"type":"event","name":"WithdrawApprovalReenabled","inputs":[{"name":"withdrawHash","type":"bytes32","indexed":true,"internalType":"bytes32"}],"anonymous":false},{"type":"event","name":"WithdrawApproved","inputs":[{"name":"withdrawHash","type":"bytes32","indexed":true,"internalType":"bytes32"},{"name":"srcChainKey","type":"bytes32","indexed":true,"internalType":"bytes32"},{"name":"token","type":"address","indexed":true,"internalType":"address"},{"name":"to","type":"address","indexed":false,"internalType":"address"},{"name":"amount","type":"uint256","indexed":false,"internalType":"uint256"},{"name":"nonce","type":"uint256","indexed":false,"internalType":"uint256"},{"name":"fee","type":"uint256","indexed":false,"internalType":"uint256"},{"name":"feeRecipient","type":"address","indexed":false,"internalType":"address"},{"name":"deductFromAmount","type":"bool","indexed":false,"internalType":"bool"}],"anonymous":false},{"type":"event","name":"WithdrawDelayUpdated","inputs":[{"name":"oldDelay","type":"uint256","indexed":false,"internalType":"uint256"},{"name":"newDelay","type":"uint256","indexed":false,"internalType":"uint256"}],"anonymous":false},{"type":"event","name":"WithdrawExecutedWithFee","inputs":[{"name":"withdrawHash","type":"bytes32","indexed":true,"internalType":"bytes32"},{"name":"fee","type":"uint256","indexed":false,"internalType":"uint256"},{"name":"feeRecipient","type":"address","indexed":false,"internalType":"address"},{"name":"feeDeductedFromAmount","type":"bool","indexed":false,"internalType":"bool"}],"anonymous":false},{"type":"event","name":"WithdrawRequest","inputs":[{"name":"srcChainKey","type":"bytes32","indexed":true,"internalType":"bytes32"},{"name":"token","type":"address","indexed":true,"internalType":"address"},{"name":"to","type":"address","indexed":true,"internalType":"address"},{"name":"amount","type":"uint256","indexed":false,"internalType":"uint256"},{"name":"nonce","type":"uint256","indexed":false,"internalType":"uint256"}],"anonymous":false},{"type":"error","name":"AccessManagedInvalidAuthority","inputs":[{"name":"authority","type":"address","internalType":"address"}]},{"type":"error","name":"AccessManagedRequiredDelay","inputs":[{"name":"caller","type":"address","internalType":"address"},{"name":"delay","type":"uint32","internalType":"uint32"}]},{"type":"error","name":"AccessManagedUnauthorized","inputs":[{"name":"caller","type":"address","internalType":"address"}]},{"type":"error","name":"ApprovalCancelled","inputs":[]},{"type":"error","name":"ApprovalExecuted","inputs":[]},{"type":"error","name":"EnforcedPause","inputs":[]},{"type":"error","name":"ExpectedPause","inputs":[]},{"type":"error","name":"FeeRecipientZero","inputs":[]},{"type":"error","name":"FeeTransferFailed","inputs":[]},{"type":"error","name":"IncorrectFeeValue","inputs":[]},{"type":"error","name":"NoFeeViaMsgValueWhenDeductFromAmount","inputs":[]},{"type":"error","name":"NonceAlreadyApproved","inputs":[{"name":"srcChainKey","type":"bytes32","internalType":"bytes32"},{"name":"nonce","type":"uint256","internalType":"uint256"}]},{"type":"error","name":"NotCancelled","inputs":[]},{"type":"error","name":"ReentrancyGuardReentrantCall","inputs":[]},{"type":"error","name":"WithdrawDelayNotElapsed","inputs":[]},{"type":"error","name":"WithdrawNotApproved","inputs":[]}],"bytecode":{"object":"0x60e06040523461009b5761001d610014610215565b929190916102db565b6100256100a0565b613ee761047c823960805181818161031401528181611e800152613738015260a05181818161025701528181611fb7015261386f015260c051818181610c600152818161176701528181611c0001528181611c7001528181611e0101528181611f30015281816136b901526137e80152613ee790f35b6100a6565b60405190565b5f80fd5b601f801991011690565b634e487b7160e01b5f52604160045260245ffd5b906100d2906100aa565b810190811060018060401b038211176100ea57604052565b6100b4565b906101026100fb6100a0565b92836100c8565b565b5f80fd5b60018060a01b031690565b61011c90610108565b90565b61012881610113565b0361012f57565b5f80fd5b905051906101408261011f565b565b61014b90610113565b90565b61015781610142565b0361015e57565b5f80fd5b9050519061016f8261014e565b565b61017a90610113565b90565b61018681610171565b0361018d57565b5f80fd5b9050519061019e8261017d565b565b6101a990610113565b90565b6101b5816101a0565b036101bc57565b5f80fd5b905051906101cd826101ac565b565b608081830312610210576101e5825f8301610133565b9261020d6101f68460208501610162565b936102048160408601610191565b936060016101c0565b90565b610104565b61023361436380380380610228816100ef565b9283398101906101cf565b90919293565b5f1b90565b9061024a5f1991610239565b9181191691161790565b90565b90565b90565b61027161026c61027692610254565b61025a565b610257565b90565b90565b9061029161028c6102989261025d565b610279565b825461023e565b9055565b90565b6102b36102ae6102b89261029c565b61025a565b610257565b90565b906102d06102cb6102d79261029f565b610279565b825461023e565b9055565b6102e49061036f565b6102ef5f600661027c565b6102fc61012c600b6102bb565b60c05260805260a052565b90565b61031e61031961032392610307565b61025a565b610257565b90565b610330600161030a565b90565b61034761034261034c92610257565b61025a565b610257565b90565b9061036461035f61036b92610333565b610279565b825461023e565b9055565b6103789061038c565b61038a610383610326565b600161034f565b565b61039590610397565b565b6103a090610436565b565b906103b360018060a01b0391610239565b9181191691161790565b6103d16103cc6103d692610108565b61025a565b610108565b90565b6103e2906103bd565b90565b6103ee906103d9565b90565b90565b90610409610404610410926103e5565b6103f1565b82546103a2565b9055565b61041d90610113565b9052565b9190610434905f60208501940190610414565b565b610440815f6103f4565b6104767f2f658b440c35314f52658ea8a740e05b284cdc84dc9ae01e891f21b8933e7cad9161046d6100a0565b91829182610421565b0390a156fe60806040526004361015610013575b610f3b565b61001d5f3561019c565b80630288a39c146101975780630f3fe22f146101925780631221c0381461018d5780633f4ba83a1461018857806340ca2dab1461018357806350a4b7be1461017e57806356aca36f1461017957806357ece64e14610174578063589eb5c21461016f5780635c975abb1461016a57806365b13e821461016557806372f0cb30146101605780637a9e5e4b1461015b5780638456cb591461015657806387033f27146101515780638fb360371461014c5780639211345c14610147578063930d9075146101425780639d23c4c71461013d578063ac4421cd14610138578063bf7e214f14610133578063c49d6f691461012e578063de35f5cb146101295763f7536e0b0361000e57610efe565b610e25565b610de1565b610d3d565b610ce5565b610cb0565b610c29565b610b73565b610a4c565b6109e9565b610923565b6108f0565b61089f565b61084b565b61074a565b6106ec565b6106b5565b610632565b6105fd565b61049f565b61039e565b610364565b6102dd565b610220565b60e01c90565b60405190565b5f80fd5b5f80fd5b5f9103126101ba57565b6101ac565b1c90565b90565b6101d69060086101db93026101bf565b6101c3565b90565b906101e991546101c6565b90565b6101f8600b5f906101de565b90565b90565b610207906101fb565b9052565b919061021e905f602085019401906101fe565b565b34610250576102303660046101b0565b61024c61023b6101ec565b6102436101a2565b9182918261020b565b0390f35b6101a8565b7f000000000000000000000000000000000000000000000000000000000000000090565b60018060a01b031690565b90565b61029b6102966102a092610279565b610284565b610279565b90565b6102ac90610287565b90565b6102b8906102a3565b90565b6102c4906102af565b9052565b91906102db905f602085019401906102bb565b565b3461030d576102ed3660046101b0565b6103096102f8610255565b6103006101a2565b918291826102c8565b0390f35b6101a8565b7f000000000000000000000000000000000000000000000000000000000000000090565b61033f906102a3565b90565b61034b90610336565b9052565b9190610362905f60208501940190610342565b565b34610394576103743660046101b0565b61039061037f610312565b6103876101a2565b9182918261034f565b0390f35b6101a8565b5f0190565b346103cc576103ae3660046101b0565b6103b6610f6c565b6103be6101a2565b806103c881610399565b0390f35b6101a8565b90565b6103dd816103d1565b036103e457565b5f80fd5b905035906103f5826103d4565b565b61040090610279565b90565b61040c816103f7565b0361041357565b5f80fd5b9050359061042482610403565b565b61042f816101fb565b0361043657565b5f80fd5b9050359061044782610426565b565b919060a08382031261049a57610461815f85016103e8565b9261046f8260208301610417565b926104976104808460408501610417565b9361048e816060860161043a565b9360800161043a565b90565b6101ac565b346104d1576104bb6104b2366004610449565b93929092611264565b6104c36101a2565b806104cd81610399565b0390f35b6101a8565b5f80fd5b601f801991011690565b634e487b7160e01b5f52604160045260245ffd5b90610502906104da565b810190811067ffffffffffffffff82111761051c57604052565b6104e4565b9061053461052d6101a2565b92836104f8565b565b919060c0838203126105b8576105b19061055060c0610521565b9361055d825f83016103e8565b5f86015261056e82602083016103e8565b602086015261058082604083016103e8565b60408601526105928260608301610417565b60608601526105a4826080830161043a565b608086015260a00161043a565b60a0830152565b6104d6565b9060c0828203126105d6576105d3915f01610536565b90565b6101ac565b6105e4906103d1565b9052565b91906105fb905f602085019401906105db565b565b3461062d576106296106186106133660046105bd565b611281565b6106206101a2565b918291826105e8565b0390f35b6101a8565b610649610640366004610449565b9392909261199b565b6106516101a2565b8061065b81610399565b0390f35b919060a0838203126106b057610677815f8501610417565b9261068582602083016103e8565b926106ad61069684604085016103e8565b936106a48160608601610417565b9360800161043a565b90565b6101ac565b346106e7576106d16106c836600461065f565b9392909261212e565b6106d96101a2565b806106e381610399565b0390f35b6101a8565b3461071e576107086106ff366004610449565b9392909261228e565b6107106101a2565b8061071a81610399565b0390f35b6101a8565b151590565b61073190610723565b9052565b9190610748905f60208501940190610728565b565b3461077a5761075a3660046101b0565b6107766107656122c8565b61076d6101a2565b91829182610735565b0390f35b6101a8565b91906040838203126107a7578061079b6107a4925f860161043a565b9360200161043a565b90565b6101ac565b5190565b60209181520190565b60200190565b6107c8906103d1565b9052565b906107d9816020936107bf565b0190565b60200190565b906108006107fa6107f3846107ac565b80936107b0565b926107b9565b905f5b8181106108105750505090565b90919261082961082360019286516107cc565b946107dd565b9101919091610803565b6108489160208201915f8184039101526107e3565b90565b3461087c5761087861086761086136600461077f565b906123f2565b61086f6101a2565b91829182610833565b0390f35b6101a8565b9060208282031261089a57610897915f0161043a565b90565b6101ac565b346108cd576108b76108b2366004610881565b61255d565b6108bf6101a2565b806108c981610399565b0390f35b6101a8565b906020828203126108eb576108e8915f01610417565b90565b6101ac565b3461091e576109086109033660046108d2565b612568565b6109106101a2565b8061091a81610399565b0390f35b6101a8565b34610951576109333660046101b0565b61093b61261e565b6109436101a2565b8061094d81610399565b0390f35b6101a8565b919060a0838203126109c6576109bf9061097060a0610521565b9361097d825f83016103e8565b5f86015261098e8260208301610417565b60208601526109a08260408301610417565b60408601526109b2826060830161043a565b606086015260800161043a565b6080830152565b6104d6565b9060a0828203126109e4576109e1915f01610956565b90565b6101ac565b34610a1957610a15610a046109ff3660046109cb565b612628565b610a0c6101a2565b918291826105e8565b0390f35b6101a8565b63ffffffff60e01b1690565b610a3390610a1e565b9052565b9190610a4a905f60208501940190610a2a565b565b34610a7c57610a5c3660046101b0565b610a78610a676126e3565b610a6f6101a2565b91829182610a37565b0390f35b6101a8565b90602082820312610a9a57610a97915f016103e8565b90565b6101ac565b610aa8906101fb565b9052565b610ab5906103f7565b9052565b67ffffffffffffffff1690565b610acf90610ab9565b9052565b610adc90610723565b9052565b9060c080610b5c93610af85f8201515f860190610a9f565b610b0a60208201516020860190610aac565b610b1c60408201516040860190610ac6565b610b2e60608201516060860190610ad3565b610b4060808201516080860190610ad3565b610b5260a082015160a0860190610ad3565b0151910190610ad3565b565b9190610b71905f60e08501940190610ae0565b565b34610ba357610b9f610b8e610b89366004610a81565b612797565b610b966101a2565b91829182610b5e565b0390f35b6101a8565b9060a080610c1293610bc05f8201515f8601906107bf565b610bd2602082015160208601906107bf565b610be4604082015160408601906107bf565b610bf660608201516060860190610aac565b610c0860808201516080860190610a9f565b0151910190610a9f565b565b9190610c27905f60c08501940190610ba8565b565b34610c5957610c55610c44610c3f366004610a81565b6128f1565b610c4c6101a2565b91829182610c14565b0390f35b6101a8565b7f000000000000000000000000000000000000000000000000000000000000000090565b610c8b906102a3565b90565b610c9790610c82565b9052565b9190610cae905f60208501940190610c8e565b565b34610ce057610cc03660046101b0565b610cdc610ccb610c5e565b610cd36101a2565b91829182610c9b565b0390f35b6101a8565b34610d1657610d12610d01610cfb36600461077f565b90612910565b610d096101a2565b91829182610833565b0390f35b6101a8565b610d24906103f7565b9052565b9190610d3b905f60208501940190610d1b565b565b34610d6d57610d4d3660046101b0565b610d69610d58612a0a565b610d606101a2565b91829182610d28565b0390f35b6101a8565b90608080610dca93610d8a5f8201515f8601906107bf565b610d9c60208201516020860190610aac565b610dae60408201516040860190610aac565b610dc060608201516060860190610a9f565b0151910190610a9f565b565b9190610ddf905f60a08501940190610d72565b565b34610e1157610e0d610dfc610df7366004610a81565b612b0e565b610e046101a2565b91829182610dcc565b0390f35b6101a8565b610e2260065f906101de565b90565b34610e5557610e353660046101b0565b610e51610e40610e16565b610e486101a2565b9182918261020b565b0390f35b6101a8565b610e6381610723565b03610e6a57565b5f80fd5b90503590610e7b82610e5a565b565b919061010083820312610ef957610e96815f85016103e8565b92610ea48260208301610417565b92610eb28360408401610417565b92610ec0816060850161043a565b92610ece826080830161043a565b92610ef6610edf8460a0850161043a565b93610eed8160c08601610417565b9360e001610e6e565b90565b6101ac565b34610f3657610f20610f11366004610e7d565b9695909594919493929361304d565b610f286101a2565b80610f3281610399565b0390f35b6101a8565b5f80fd5b610f58610f4a61305f565b610f52613072565b916131f1565b610f60610f62565b565b610f6a6133d8565b565b610f74610f3f565b565b90610f9c94939291610f97610f8961305f565b610f91613072565b916131f1565b610f9e565b565b90610fb394939291610fae6133e2565b611134565b565b610fbf60a0610521565b90565b90610fcc906103d1565b9052565b90610fda906103f7565b9052565b90610fe8906101fb565b9052565b610ff5906103d1565b90565b9061100290610fec565b5f5260205260405f2090565b90565b60f01c90565b60ff1690565b61102961102e91611011565b611017565b90565b61103b905461101d565b90565b60f81c90565b6110506110559161103e565b611017565b90565b6110629054611044565b90565b60f01b90565b9061107a60ff60f01b91611065565b9181191691161790565b61108d90610723565b90565b90565b906110a86110a36110af92611084565b611090565b825461106b565b9055565b6110c76110c26110cc926101fb565b610284565b610ab9565b90565b60a01b90565b906110eb67ffffffffffffffff60a01b916110cf565b9181191691161790565b61110961110461110e92610ab9565b610284565b610ab9565b90565b90565b90611129611124611130926110f5565b611111565b82546110d5565b9055565b61118a9461117361118594939561116a61117c949795919395611161611158610fb5565b995f8b01610fc2565b60208901610fd0565b60408701610fd0565b60608501610fde565b60808301610fde565b612628565b61119e61119960098390610ff8565b61100e565b6111b36111ad60018301611031565b15610723565b611248576111c360018201611058565b61122c576111ea906111d85f60018301611093565b60016111e3426110b3565b9101611114565b6112147fb0d9959a4c756ad50b484cc23f020a922fa2f442b9132ae31957aef735ec0ac791610fec565b9061121d6101a2565b8061122781610399565b0390a2565b5f630aaf476560e01b81528061124460048201610399565b0390fd5b5f632069e45f60e11b81528061126060048201610399565b0390fd5b9061127194939291610f76565b565b5f90565b60200190565b5190565b6112b46112a591611290611273565b506112996101a2565b92839160208301610c14565b602082018103825203826104f8565b6112c66112c08261127d565b91611277565b2090565b906112f0949392916112eb6112dd61305f565b6112e5613072565b916131f1565b6112f2565b565b90611307949392916113026133e2565b611309565b565b9061131e94939291611319613438565b61175e565b611326613480565b565b5f80fd5b60e01b90565b5f91031261133c57565b6101ac565b91602061136292949361135b60408201965f830190610d1b565b01906105db565b565b61136c6101a2565b3d5f823e3d90fd5b5f1c90565b61138561138a91611374565b6101c3565b90565b6113979054611379565b90565b60018060a01b031690565b6113b16113b691611374565b61139a565b90565b6113c390546113a5565b90565b60a01c90565b67ffffffffffffffff1690565b6113e56113ea916113c6565b6113cc565b90565b6113f790546113d9565b90565b9061140490610ab9565b9052565b6114146114199161019c565b611017565b90565b6114269054611408565b90565b9061143390610723565b9052565b60e81c90565b61144961144e91611437565b611017565b90565b61145b905461143d565b90565b61146860e0610521565b90565b9061151561150c600161147c61145e565b9461149361148b5f830161138d565b5f8801610fde565b6114aa6114a18383016113b9565b60208801610fd0565b6114c16114b88383016113ed565b604088016113fa565b6114d86114cf83830161141c565b60608801611429565b6114ef6114e6838301611451565b60808801611429565b6115066114fd838301611031565b60a08801611429565b01611058565b60c08401611429565b565b6115209061146b565b90565b60f81b90565b9061153860ff60f81b91611523565b9181191691161790565b9061155761155261155e92611084565b611090565b8254611529565b9055565b90565b9061156f90610fec565b5f5260205260405f2090565b61158590516103d1565b90565b5f1b90565b906115995f1991611588565b9181191691161790565b6115ac90611374565b90565b906115c46115bf6115cb92610fec565b6115a3565b825461158d565b9055565b6115d990516103f7565b90565b906115ed60018060a01b0391611588565b9181191691161790565b611600906102a3565b90565b90565b9061161b611616611622926115f7565b611603565b82546115dc565b9055565b61163090516101fb565b90565b61164761164261164c926101fb565b610284565b6101fb565b90565b90565b9061166761166261166e92611633565b61164f565b825461158d565b9055565b906116e8608060046116ee946116955f820161168f5f880161157b565b906115af565b6116ae600182016116a8602088016115cf565b90611606565b6116c7600282016116c1604088016115cf565b90611606565b6116e0600382016116da60608801611626565b90611652565b019201611626565b90611652565b565b906116fa91611672565b565b91602061171d92949361171660408201965f8301906101fe565b01906101fe565b565b6117299051610723565b90565b60409061175561175c949695939661174b60608401985f8501906101fe565b6020830190610d1b565b0190610728565b565b9290939161178b7f0000000000000000000000000000000000000000000000000000000000000000610c82565b63db1303ea868692803b15611996576117b65f936117c16117aa6101a2565b9687958694859461132c565b845260048401611341565b03915afa801561199157611965575b508361181c866118138461180a87916118018a956117f86117ef610fb5565b995f8b01610fc2565b60208901610fd0565b60408701610fd0565b60608501610fde565b60808301610fde565b9461182686612628565b9461188f61183e61183960098990610ff8565b611517565b97611848896134b0565b61185189613599565b61186960018061186360098c90610ff8565b01611542565b61187d6118766002611562565b899061368f565b5061188a60078990611565565b6116f0565b61189b828486916136af565b6118a487613a2a565b909192936118e46118de6118d87f3c4ed62fb7ce991dc39e73806120e885618eb76dd87482feb184ede130d42c3394610fec565b946115f7565b946115f7565b946118f96118f06101a2565b928392836116fc565b0390a46119075f8301611626565b916119206080611919602084016115cf565b920161171f565b9261196061194e7f9091ddfd1914253eabb8ed215e6132a5de188489c3f3ad535d62fa8acf456e5294610fec565b946119576101a2565b9384938461172c565b0390a2565b611984905f3d811161198a575b61197c81836104f8565b810190611332565b5f6117d0565b503d611972565b611364565b611328565b906119a8949392916112ca565b565b906119bf949392916119ba6133e2565b6119c1565b565b906119e7949392916119e26119d461305f565b6119dc613072565b916131f1565b6119e9565b565b906119fe949392916119f9613438565b611bf9565b611a06613480565b565b90505190611a15826103d4565b565b90602082820312611a3057611a2d915f01611a08565b90565b6101ac565b611a3f60c0610521565b90565b90611a4c90610fec565b5f5260205260405f2090565b90611ae760a06005611aed94611a7b5f8201611a755f880161157b565b906115af565b611a9460018201611a8e6020880161157b565b906115af565b611aad60028201611aa76040880161157b565b906115af565b611ac660038201611ac0606088016115cf565b90611606565b611adf60048201611ad960808801611626565b90611652565b019201611626565b90611652565b565b90611af991611a58565b565b604090611b24611b2b9496959396611b1a60608401985f850190610d1b565b60208301906101fe565b01906101fe565b565b634e487b7160e01b5f52601160045260245ffd5b611b4a906101fb565b5f198114611b585760010190565b611b2d565b60021115611b6757565b5f80fd5b90505190611b7882611b5d565b565b90602082820312611b9357611b90915f01611b6b565b90565b6101ac565b634e487b7160e01b5f52602160045260245ffd5b60021115611bb657565b611b98565b90611bc582611bac565b565b604090611bf0611bf79496959396611be660608401985f850190610d1b565b6020830190610d1b565b01906101fe565b565b9291611c247f0000000000000000000000000000000000000000000000000000000000000000610c82565b63db1303ea848492803b1561212957611c4f5f93611c5a611c436101a2565b9687958694859461132c565b845260048401611341565b03915afa8015612124576120f8575b5081611c947f0000000000000000000000000000000000000000000000000000000000000000610c82565b90602063aa2fc98d928690611cbb8795611cc6611caf6101a2565b9788958694859461132c565b845260048401611341565b03915afa9081156120f357611d3f602092611d79945f916120c6575b50611d3686611d2d8c611d248d9193611d1b611cfe600661138d565b97611d13611d0a611a35565b9b5f8d01610fc2565b8b8b01610fc2565b60408901610fc2565b60608701610fd0565b60808501610fde565b60a08301610fde565b93611d72611d4c86611281565b611d60611d596004611562565b829061368f565b50611d6d87916008611a42565b611aef565b930161157b565b839286611d86600661138d565b94611dd8611dc6611dc0611dba7f6960733c1ac63ac84b84fa10df381b35b87dcc712dbd73a3005921960272ad0996610fec565b96610fec565b96610fec565b96611dcf6101a2565b93849384611afb565b0390a4611df7611df0611deb600661138d565b611b41565b6006611652565b611e4f6020611e257f0000000000000000000000000000000000000000000000000000000000000000610c82565b63543b3af790611e448592611e386101a2565b9586948593849361132c565b835260048301610d28565b03915afa9081156120c1575f91612093575b50611e74611e6e5f611bbb565b91611bbb565b145f14611f2657611ea47f0000000000000000000000000000000000000000000000000000000000000000610336565b63f6b911bc92919392813b15611f21575f611ed291611edd8296611ec66101a2565b9889978896879561132c565b855260048501611bc7565b03925af18015611f1c57611ef0575b505b565b611f0f905f3d8111611f15575b611f0781836104f8565b810190611332565b5f611eec565b503d611efd565b611364565b611328565b611f7e6020611f547f0000000000000000000000000000000000000000000000000000000000000000610c82565b63543b3af790611f738592611f676101a2565b9586948593849361132c565b835260048301610d28565b03915afa90811561208e575f91612060575b50611fa4611f9e6001611bbb565b91611bbb565b14611fb2575b505050611eee565b611fdb7f00000000000000000000000000000000000000000000000000000000000000006102af565b637750c9f092919392813b1561205b575f612009916120148296611ffd6101a2565b9889978896879561132c565b855260048501611bc7565b03925af180156120565761202a575b8080611faa565b612049905f3d811161204f575b61204181836104f8565b810190611332565b5f612023565b503d612037565b611364565b611328565b612081915060203d8111612087575b61207981836104f8565b810190611b7a565b5f611f90565b503d61206f565b611364565b6120b4915060203d81116120ba575b6120ac81836104f8565b810190611b7a565b5f611e61565b503d6120a2565b611364565b6120e69150843d81116120ec575b6120de81836104f8565b810190611a17565b5f611ce2565b503d6120d4565b611364565b612117905f3d811161211d575b61210f81836104f8565b810190611332565b5f611c69565b503d612105565b611364565b611328565b9061213b949392916119aa565b565b906121639493929161215e61215061305f565b612158613072565b916131f1565b612165565b565b9061217a949392916121756133e2565b61217c565b565b6121d2946121bb6121cd9493956121b26121c49497959193956121a96121a0610fb5565b995f8b01610fc2565b60208901610fd0565b60408701610fd0565b60608501610fde565b60808301610fde565b612628565b6121e66121e160098390610ff8565b61100e565b6121f260018201611031565b6122725761220260018201611058565b61225657612214906001809101611093565b61223e7f2e274839df955d18079b80e616111416908cb01905936758bf016d0dbd6ca30c91610fec565b906122476101a2565b8061225181610399565b0390a2565b5f630aaf476560e01b81528061226e60048201610399565b0390fd5b5f6353b2f99960e11b81528061228a60048201610399565b0390fd5b9061229b9493929161213d565b565b5f90565b60a81c90565b6122b36122b8916122a1565b611017565b90565b6122c590546122a7565b90565b6122d061229d565b506122da5f6122bb565b90565b606090565b90565b6122f96122f46122fe926122e2565b610284565b6101fb565b90565b67ffffffffffffffff81116123195760208091020190565b6104e4565b9061233061232b83612301565b610521565b918252565b369037565b9061235f6123478361231e565b926020806123558693612301565b9201910390612335565b565b612370612376919392936101fb565b926101fb565b820180921161238157565b611b2d565b61239561239b919392936101fb565b926101fb565b82039182116123a657565b611b2d565b5f90565b60016123bb91016101fb565b90565b634e487b7160e01b5f52603260045260245ffd5b906123dc826107ac565b8110156123ed576020809102010190565b6123be565b6123fa6122dd565b5061240d6124086002611562565b613ad5565b8161242061241a836101fb565b916101fb565b10156124d157612431828490612361565b61244361243d836101fb565b916101fb565b116124bd575b506124538261233a565b9261245c6123ab565b5b8061247061246a866101fb565b916101fb565b10156124b7576124b2906124ad61249b61248a6002611562565b612495878590612361565b90613af4565b6124a888918490926123d2565b610fc2565b6123af565b61245d565b50915050565b6124ca9192508290612386565b905f612449565b5050506124e56124e05f6122e5565b61233a565b90565b61250a906125056124f761305f565b6124ff613072565b916131f1565b61250c565b565b612516600b61138d565b61252182600b611652565b907f608f88597c1be343fb8b88747f4efa4d4f71538b3e3203d084d9e5e6fed29d619161255861254f6101a2565b928392836116fc565b0390a1565b612566906124e8565b565b61257061305f565b8061258a61258461257f612a0a565b6103f7565b916103f7565b036125d35750803b6125a461259e5f6122e5565b916101fb565b146125b4576125b290613b14565b565b6125cf905f9182916361798f2f60e11b835260048301610d28565b0390fd5b6125ed905f91829162d1953b60e31b835260048301610d28565b0390fd5b61260a6125fc61305f565b612604613072565b916131f1565b612612612614565b565b61261c613bb9565b565b6126266125f1565b565b61265b61264c91612637611273565b506126406101a2565b92839160208301610dcc565b602082018103825203826104f8565b61266d6126678261127d565b91611277565b2090565b5f90565b612681612686916113c6565b611017565b90565b6126939054612675565b90565b6126aa6126a56126af926122e2565b61132c565b610a1e565b90565b6126bb906102a3565b90565b63ffffffff1690565b6126db6126d66126e0926126be565b61132c565b610a1e565b90565b6126eb612671565b506126f55f612689565b5f1461270c57612708638fb360376126c7565b5b90565b6127155f612696565b612709565b5f90565b5f90565b5f90565b5f90565b61273261145e565b9060208080808080808861274461271a565b81520161274f61271e565b81520161275a612722565b815201612765612726565b815201612770612726565b81520161277b612726565b815201612786612726565b81525050565b61279461272a565b90565b6127ae6127b3916127a661278c565b506009610ff8565b611517565b90565b6127c060c0610521565b90565b5f90565b6127cf6127b6565b9060208080808080876127e06127c3565b8152016127eb6127c3565b8152016127f66127c3565b81520161280161271e565b81520161280c61271a565b81520161281761271a565b81525050565b6128256127c7565b90565b90565b61283761283c91611374565b612828565b90565b612849905461282b565b90565b906128e36128da600561285d6127b6565b9461287461286c5f830161283f565b5f8801610fc2565b61288c6128836001830161283f565b60208801610fc2565b6128a461289b6002830161283f565b60408801610fc2565b6128bc6128b3600383016113b9565b60608801610fd0565b6128d46128cb6004830161138d565b60808801610fde565b0161138d565b60a08401610fde565b565b6128ee9061284c565b90565b61290861290d9161290061281d565b506008611a42565b6128e5565b90565b6129186122dd565b5061292b6129266004611562565b613ad5565b8161293e612938836101fb565b916101fb565b10156129ef5761294f828490612361565b61296161295b836101fb565b916101fb565b116129db575b506129718261233a565b9261297a6123ab565b5b8061298e612988866101fb565b916101fb565b10156129d5576129d0906129cb6129b96129a86004611562565b6129b3878590612361565b90613af4565b6129c688918490926123d2565b610fc2565b6123af565b61297b565b50915050565b6129e89192508290612386565b905f612967565b505050612a036129fe5f6122e5565b61233a565b90565b5f90565b612a12612a06565b50612a1c5f6113b9565b90565b612a2960a0610521565b90565b612a34612a1f565b9060208080808086612a446127c3565b815201612a4f61271e565b815201612a5a61271e565b815201612a6561271a565b815201612a7061271a565b81525050565b612a7e612a2c565b90565b90612b00612af76004612a92612a1f565b94612aa9612aa15f830161283f565b5f8801610fc2565b612ac1612ab8600183016113b9565b60208801610fd0565b612ad9612ad0600283016113b9565b60408801610fd0565b612af1612ae86003830161138d565b60608801610fde565b0161138d565b60808401610fde565b565b612b0b90612a81565b90565b612b25612b2a91612b1d612a76565b506007611565565b612b02565b90565b90612b5697969594939291612b51612b4361305f565b612b4b613072565b916131f1565b612b58565b565b90612b7097969594939291612b6b6133e2565b612de4565b565b90612b7c90610fec565b5f5260205260405f2090565b90612b9290611633565b5f5260205260405f2090565b612baa612baf91611374565b611017565b90565b612bbc9054612b9e565b90565b916020612be0929493612bd960408201965f8301906105db565b01906101fe565b565b612bf6612bf1612bfb926122e2565b610284565b610279565b90565b612c0790612be2565b90565b612c1460e0610521565b90565b612c219051610ab9565b90565b90612c3360ff60e01b9161132c565b9181191691161790565b90612c52612c4d612c5992611084565b611090565b8254612c24565b9055565b60e81b90565b90612c7260ff60e81b91612c5d565b9181191691161790565b90612c91612c8c612c9892611084565b611090565b8254612c63565b9055565b90612d3f60c06001612d4594612cbf5f8201612cb95f8801611626565b90611652565b612cd7828201612cd1602088016115cf565b90611606565b612cef828201612ce960408801612c17565b90611114565b612d07828201612d016060880161171f565b90612c3d565b612d1f828201612d196080880161171f565b90612c7c565b612d37828201612d3160a0880161171f565b90611093565b01920161171f565b90611542565b565b90612d5191612c9c565b565b90612d5f60ff91611588565b9181191691161790565b90612d7e612d79612d8592611084565b611090565b8254612d53565b9055565b9194612dd1612ddb92989795612dc760a096612dbd612de29a612db360c08a019e5f8b0190610d1b565b60208901906101fe565b60408701906101fe565b60608501906101fe565b6080830190610d1b565b0190610728565b565b9392919596909496612e3f85612e3a88612e318b612e288991612e1f8c95612e16612e0d610fb5565b995f8b01610fc2565b60208901610fd0565b60408701610fd0565b60608501610fde565b60808301610fde565b612628565b91612e5e612e59612e52600a8990612b72565b8790612b88565b612bb2565b61302d57612e76612e7160098590610ff8565b611517565b612e8260c0820161171f565b6130115760a0612e92910161171f565b612ff55788612ea9612ea35f6122e5565b916101fb565b1180612fd3575b612fb757612fb292612f3b5f612f2a8c612f2187612f18612ed0426110b3565b612f0f6001612f068c93612efd8b97612ef48d9b612eec612c0a565b9e8f01610fde565b60208d01610fd0565b60408b016113fa565b60608901611429565b60808701611429565b60a08501611429565b60c08301611429565b612f3660098490610ff8565b612d47565b612f5b6001612f56612f4f600a8b90612b72565b8990612b88565b612d69565b959697939498919091612fa0612f9a612f947fe9c6fcc209e99f20220bb87e197c5584cdd23cee08c7919db0d702ee7dc2c8a299610fec565b99610fec565b996115f7565b99612fa96101a2565b96879687612d89565b0390a4565b5f632509d95760e01b815280612fcf60048201610399565b0390fd5b5081612fef612fe9612fe45f612bfe565b6103f7565b916103f7565b14612eb0565b5f6353b2f99960e11b81528061300d60048201610399565b0390fd5b5f630aaf476560e01b81528061302960048201610399565b0390fd5b84866130495f928392634032ac6d60e11b845260048401612bbf565b0390fd5b9061305d97969594939291612b2d565b565b613067612a06565b503390565b36905f90565b61307a61306c565b9050505f903690565b90565b61309a61309561309f92613083565b610284565b6101fb565b90565b5f80fd5b5f80fd5b909392938483116130ca5784116130c5576001820201920390565b6130a6565b6130a2565b5090565b1b90565b906130e56130ec91836130cf565b9135610a1e565b90600481106130fa575b5090565b6131129063ffffffff60e01b906004036008026130d3565b165f6130f6565b61312d613128613132926122e2565b610284565b6126be565b90565b9061314460ff60a01b916110cf565b9181191691161790565b9061316361315e61316a92611084565b611090565b8254613135565b9055565b61317790610287565b90565b6131839061316e565b90565b61318f906102a3565b90565b60209181520190565b90825f939282370152565b91906131c0816131b9816131c595613192565b809561319b565b6104da565b0190565b916131ee9391926131e160408201945f830190610d1b565b60208185039101526131a6565b90565b9061324361323b613200612a0a565b8461320a306126b2565b9061323561322f878a5f906132296132236004936122e5565b92613086565b926130aa565b906130d7565b92613bf9565b919015610723565b61324e575b50505050565b61326061325a5f613119565b916126be565b115f1461331c5761327260015f61314e565b61328a613285613280612a0a565b61317a565b613186565b6394c7d7ee92919392813b15613317575f6132b8916132c382966132ac6101a2565b9889978896879561132c565b8552600485016131c9565b03925af18015613312576132e6575b506132dd5f5f61314e565b5f808080613248565b613305905f3d811161330b575b6132fd81836104f8565b810190611332565b5f6132d2565b503d6132f3565b611364565b611328565b613336825f91829162d1953b60e31b835260048301610d28565b0390fd5b613342613c79565b61334a61338b565b565b60a81b90565b9061336160ff60a81b9161334c565b9181191691161790565b9061338061337b61338792611084565b611090565b8254613352565b9055565b6133955f5f61336b565b61339d61305f565b6133d37f5db9ee0a495bf2e6ff9c91a7834c1ba4fdd244a5e8aa4e537bd38aeae4b073aa916133ca6101a2565b91829182610d28565b0390a1565b6133e061333a565b565b6133ea6122c8565b6133f057565b5f63d93c066560e01b81528061340860048201610399565b0390fd5b90565b61342361341e6134289261340c565b610284565b6101fb565b90565b613435600261340f565b90565b613440613cac565b61345261344b61342b565b6001611652565b565b90565b61346b61346661347092613454565b610284565b6101fb565b90565b61347d6001613457565b90565b61349261348b613473565b6001611652565b565b6134a86134a36134ad92610ab9565b610284565b6101fb565b90565b6134c56134bf6060830161171f565b15610723565b61357d576134d560a0820161171f565b613561576134e560c0820161171f565b6135455761352261351c6135176135076135026040429601612c17565b613494565b613511600b61138d565b90612361565b6101fb565b916101fb565b1061352957565b5f63f396582760e01b81528061354160048201610399565b0390fd5b5f630aaf476560e01b81528061355d60048201610399565b0390fd5b5f6353b2f99960e11b81528061357960048201610399565b0390fd5b5f6336d2baeb60e21b81528061359560048201610399565b0390fd5b6135a56080820161171f565b5f146135e35750346135bf6135b95f6122e5565b916101fb565b036135c7575b565b5f635c1c168d60e11b8152806135df60048201610399565b0390fd5b346136006135fa6135f55f8501611626565b6101fb565b916101fb565b1061367057346136186136125f6122e5565b916101fb565b119081613642575b50156135c5575f632509d95760e01b81528061363e60048201610399565b0390fd5b61364f91506020016115cf565b61366961366361365e5f612bfe565b6103f7565b916103f7565b145f613620565b5f636f085cbd60e11b81528061368860048201610399565b0390fd5b90565b906136a75f6136ac936136a061229d565b500161368c565b613dc0565b90565b61370760206136dd7f0000000000000000000000000000000000000000000000000000000000000000610c82565b63543b3af7906136fc85926136f06101a2565b9586948593849361132c565b835260048301610d28565b03915afa908115613979575f9161394b575b5061372c6137265f611bbb565b91611bbb565b145f146137de5761375c7f0000000000000000000000000000000000000000000000000000000000000000610336565b63c6c3bbe692919392813b156137d9575f61378a91613795829661377e6101a2565b9889978896879561132c565b855260048501611bc7565b03925af180156137d4576137a8575b505b565b6137c7905f3d81116137cd575b6137bf81836104f8565b810190611332565b5f6137a4565b503d6137b5565b611364565b611328565b613836602061380c7f0000000000000000000000000000000000000000000000000000000000000000610c82565b63543b3af79061382b859261381f6101a2565b9586948593849361132c565b835260048301610d28565b03915afa908115613946575f91613918575b5061385c6138566001611bbb565b91611bbb565b1461386a575b5050506137a6565b6138937f00000000000000000000000000000000000000000000000000000000000000006102af565b6359508f8f92919392813b15613913575f6138c1916138cc82966138b56101a2565b9889978896879561132c565b855260048501611bc7565b03925af1801561390e576138e2575b8080613862565b613901905f3d8111613907575b6138f981836104f8565b810190611332565b5f6138db565b503d6138ef565b611364565b611328565b613939915060203d811161393f575b61393181836104f8565b810190611b7a565b5f613848565b503d613927565b611364565b61396c915060203d8111613972575b61396481836104f8565b810190611b7a565b5f613719565b503d61395a565b611364565b61398790610287565b90565b6139939061397e565b90565b61399f906102a3565b90565b905090565b6139b25f80926139a2565b0190565b6139bf906139a7565b90565b67ffffffffffffffff81116139e0576139dc6020916104da565b0190565b6104e4565b906139f76139f2836139c2565b610521565b918252565b606090565b3d5f14613a1c57613a113d6139e5565b903d5f602084013e5b565b613a246139fc565b90613a1a565b613a3f613a396080830161171f565b15610723565b80613abb575b613a4d575b50565b5f80613a6e613a69613a646020613a9596016115cf565b61398a565b613996565b34613a776101a2565b9081613a82816139b6565b03925af1613a8e613a01565b5015610723565b613a9f575f613a4a565b5f634033e4e360e01b815280613ab760048201610399565b0390fd5b5034613acf613ac95f6122e5565b916101fb565b11613a45565b613aec5f613af192613ae56123ab565b500161368c565b613e23565b90565b90613b0c5f613b1193613b05611273565b500161368c565b613e91565b90565b613b1e815f611606565b613b547f2f658b440c35314f52658ea8a740e05b284cdc84dc9ae01e891f21b8933e7cad91613b4b6101a2565b91829182610d28565b0390a1565b613b616133e2565b613b69613b6b565b565b613b7660015f61336b565b613b7e61305f565b613bb47f62e78cea01bee320cd4e420270b5ea74000d11b0c9f74754ebdbfc544b05a25891613bab6101a2565b91829182610d28565b0390a1565b613bc1613b59565b565b5f90565b604090613bf0613bf79496959396613be660608401985f850190610d1b565b6020830190610d1b565b0190610a2a565b565b5f9060409294959395613c4c613c0d61229d565b97613c3d613c19613bc3565b989193613c246101a2565b94859360046020860163b700961360e01b815201613bc7565b602082018103825203826104f8565b9082805282602052602082519201905afa613c64575b565b9150505f51906020518060201c150290613c62565b613c8a613c846122c8565b15610723565b613c9057565b5f638dfc202b60e01b815280613ca860048201610399565b0390fd5b613cb6600161138d565b613ccf613cc9613cc461342b565b6101fb565b916101fb565b14613cd657565b5f633ee5aeb560e01b815280613cee60048201610399565b0390fd5b90565b5f5260205f2090565b5490565b613d0b81613cfe565b821015613d2557613d1d600191613cf5565b910201905f90565b6123be565b91906008613d45910291613d3f5f19846130d3565b926130d3565b9181191691161790565b9190613d65613d60613d6d93610fec565b6115a3565b908354613d2a565b9055565b9081549168010000000000000000831015613da15782613d99916001613d9f95018155613d02565b90613d4f565b565b6104e4565b5490565b90613db490610fec565b5f5260205260405f2090565b613dc861229d565b50613ddd613dd7828490613eb2565b15610723565b5f14613e1d57613e13613e1892613dff613df85f8501613cf2565b8290613d71565b6001613e0c5f8501613da6565b9301613daa565b611652565b600190565b50505f90565b5f613e3791613e306123ab565b5001613da6565b90565b5f5260205f2090565b613e4c81613da6565b821015613e6657613e5e600191613e3a565b910201905f90565b6123be565b613e7b906008613e8093026101bf565b612828565b90565b90613e8e9154613e6b565b90565b613eaf915f613ea992613ea2611273565b5001613e43565b90613e83565b90565b613ed0916001613ecb92613ec461229d565b5001613daa565b61138d565b613ee2613edc5f6122e5565b916101fb565b14159056","linkReferences":{}},"methodIdentifiers":{"approveWithdraw(bytes32,address,address,uint256,uint256,uint256,address,bool)":"f7536e0b","authority()":"bf7e214f","cancelWithdrawApproval(bytes32,address,address,uint256,uint256)":"589eb5c2","deposit(address,bytes32,bytes32,address,uint256)":"57ece64e","depositNonce()":"de35f5cb","getDepositFromHash(bytes32)":"930d9075","getDepositHash((bytes32,bytes32,bytes32,address,uint256,uint256))":"50a4b7be","getDepositHashes(uint256,uint256)":"ac4421cd","getWithdrawApproval(bytes32)":"9211345c","getWithdrawFromHash(bytes32)":"c49d6f69","getWithdrawHash((bytes32,address,address,uint256,uint256))":"87033f27","getWithdrawHashes(uint256,uint256)":"65b13e82","isConsumingScheduledOp()":"8fb36037","lockUnlock()":"0f3fe22f","mintBurn()":"1221c038","pause()":"8456cb59","paused()":"5c975abb","reenableWithdrawApproval(bytes32,address,address,uint256,uint256)":"40ca2dab","setAuthority(address)":"7a9e5e4b","setWithdrawDelay(uint256)":"72f0cb30","tokenRegistry()":"9d23c4c7","unpause()":"3f4ba83a","withdraw(bytes32,address,address,uint256,uint256)":"56aca36f","withdrawDelay()":"0288a39c"},"id":67}