{"abi":[{"type":"constructor","inputs":[{"name":"initialAuthority","type":"address","internalType":"address"},{"name":"_tokenRegistry","type":"address","internalType":"contract TokenRegistry"},{"name":"_mintBurn","type":"address","internalType":"contract MintBurn"},{"name":"_lockUnlock","type":"address","internalType":"contract LockUnlock"}],"stateMutability":"nonpayable"},{"type":"function","name":"approveWithdraw","inputs":[{"name":"srcChainKey","type":"bytes32","internalType":"bytes32"},{"name":"token","type":"address","internalType":"address"},{"name":"to","type":"address","internalType":"address"},{"name":"destAccount","type":"bytes32","internalType":"bytes32"},{"name":"amount","type":"uint256","internalType":"uint256"},{"name":"nonce","type":"uint256","internalType":"uint256"},{"name":"fee","type":"uint256","internalType":"uint256"},{"name":"feeRecipient","type":"address","internalType":"address"},{"name":"deductFromAmount","type":"bool","internalType":"bool"}],"outputs":[],"stateMutability":"nonpayable"},{"type":"function","name":"authority","inputs":[],"outputs":[{"name":"","type":"address","internalType":"address"}],"stateMutability":"view"},{"type":"function","name":"cancelWithdrawApproval","inputs":[{"name":"withdrawHash","type":"bytes32","internalType":"bytes32"}],"outputs":[],"stateMutability":"nonpayable"},{"type":"function","name":"deposit","inputs":[{"name":"payer","type":"address","internalType":"address"},{"name":"destChainKey","type":"bytes32","internalType":"bytes32"},{"name":"destAccount","type":"bytes32","internalType":"bytes32"},{"name":"token","type":"address","internalType":"address"},{"name":"amount","type":"uint256","internalType":"uint256"}],"outputs":[],"stateMutability":"nonpayable"},{"type":"function","name":"depositNonce","inputs":[],"outputs":[{"name":"","type":"uint256","internalType":"uint256"}],"stateMutability":"view"},{"type":"function","name":"getDepositFromHash","inputs":[{"name":"depositHash","type":"bytes32","internalType":"bytes32"}],"outputs":[{"name":"deposit_","type":"tuple","internalType":"struct Cl8YBridge.Deposit","components":[{"name":"destChainKey","type":"bytes32","internalType":"bytes32"},{"name":"destTokenAddress","type":"bytes32","internalType":"bytes32"},{"name":"destAccount","type":"bytes32","internalType":"bytes32"},{"name":"from","type":"address","internalType":"address"},{"name":"amount","type":"uint256","internalType":"uint256"},{"name":"nonce","type":"uint256","internalType":"uint256"}]}],"stateMutability":"view"},{"type":"function","name":"getDepositHash","inputs":[{"name":"depositRequest","type":"tuple","internalType":"struct Cl8YBridge.Deposit","components":[{"name":"destChainKey","type":"bytes32","internalType":"bytes32"},{"name":"destTokenAddress","type":"bytes32","internalType":"bytes32"},{"name":"destAccount","type":"bytes32","internalType":"bytes32"},{"name":"from","type":"address","internalType":"address"},{"name":"amount","type":"uint256","internalType":"uint256"},{"name":"nonce","type":"uint256","internalType":"uint256"}]}],"outputs":[{"name":"depositHash","type":"bytes32","internalType":"bytes32"}],"stateMutability":"view"},{"type":"function","name":"getDepositHashes","inputs":[{"name":"index","type":"uint256","internalType":"uint256"},{"name":"count","type":"uint256","internalType":"uint256"}],"outputs":[{"name":"hashes","type":"bytes32[]","internalType":"bytes32[]"}],"stateMutability":"view"},{"type":"function","name":"getWithdrawApproval","inputs":[{"name":"withdrawHash","type":"bytes32","internalType":"bytes32"}],"outputs":[{"name":"approval","type":"tuple","internalType":"struct Cl8YBridge.WithdrawApproval","components":[{"name":"fee","type":"uint256","internalType":"uint256"},{"name":"feeRecipient","type":"address","internalType":"address"},{"name":"approvedAt","type":"uint64","internalType":"uint64"},{"name":"isApproved","type":"bool","internalType":"bool"},{"name":"deductFromAmount","type":"bool","internalType":"bool"},{"name":"cancelled","type":"bool","internalType":"bool"},{"name":"executed","type":"bool","internalType":"bool"}]}],"stateMutability":"view"},{"type":"function","name":"getWithdrawFromHash","inputs":[{"name":"withdrawHash","type":"bytes32","internalType":"bytes32"}],"outputs":[{"name":"withdraw_","type":"tuple","internalType":"struct Cl8YBridge.Withdraw","components":[{"name":"srcChainKey","type":"bytes32","internalType":"bytes32"},{"name":"token","type":"address","internalType":"address"},{"name":"destAccount","type":"bytes32","internalType":"bytes32"},{"name":"to","type":"address","internalType":"address"},{"name":"amount","type":"uint256","internalType":"uint256"},{"name":"nonce","type":"uint256","internalType":"uint256"}]}],"stateMutability":"view"},{"type":"function","name":"getWithdrawHash","inputs":[{"name":"withdrawRequest","type":"tuple","internalType":"struct Cl8YBridge.Withdraw","components":[{"name":"srcChainKey","type":"bytes32","internalType":"bytes32"},{"name":"token","type":"address","internalType":"address"},{"name":"destAccount","type":"bytes32","internalType":"bytes32"},{"name":"to","type":"address","internalType":"address"},{"name":"amount","type":"uint256","internalType":"uint256"},{"name":"nonce","type":"uint256","internalType":"uint256"}]}],"outputs":[{"name":"withdrawHash","type":"bytes32","internalType":"bytes32"}],"stateMutability":"view"},{"type":"function","name":"getWithdrawHashes","inputs":[{"name":"index","type":"uint256","internalType":"uint256"},{"name":"count","type":"uint256","internalType":"uint256"}],"outputs":[{"name":"hashes","type":"bytes32[]","internalType":"bytes32[]"}],"stateMutability":"view"},{"type":"function","name":"isConsumingScheduledOp","inputs":[],"outputs":[{"name":"","type":"bytes4","internalType":"bytes4"}],"stateMutability":"view"},{"type":"function","name":"lockUnlock","inputs":[],"outputs":[{"name":"","type":"address","internalType":"contract LockUnlock"}],"stateMutability":"view"},{"type":"function","name":"mintBurn","inputs":[],"outputs":[{"name":"","type":"address","internalType":"contract MintBurn"}],"stateMutability":"view"},{"type":"function","name":"pause","inputs":[],"outputs":[],"stateMutability":"nonpayable"},{"type":"function","name":"paused","inputs":[],"outputs":[{"name":"","type":"bool","internalType":"bool"}],"stateMutability":"view"},{"type":"function","name":"reenableWithdrawApproval","inputs":[{"name":"withdrawHash","type":"bytes32","internalType":"bytes32"}],"outputs":[],"stateMutability":"nonpayable"},{"type":"function","name":"setAuthority","inputs":[{"name":"newAuthority","type":"address","internalType":"address"}],"outputs":[],"stateMutability":"nonpayable"},{"type":"function","name":"setWithdrawDelay","inputs":[{"name":"newDelay","type":"uint256","internalType":"uint256"}],"outputs":[],"stateMutability":"nonpayable"},{"type":"function","name":"tokenRegistry","inputs":[],"outputs":[{"name":"","type":"address","internalType":"contract TokenRegistry"}],"stateMutability":"view"},{"type":"function","name":"unpause","inputs":[],"outputs":[],"stateMutability":"nonpayable"},{"type":"function","name":"withdraw","inputs":[{"name":"withdrawHash","type":"bytes32","internalType":"bytes32"}],"outputs":[],"stateMutability":"payable"},{"type":"function","name":"withdrawDelay","inputs":[],"outputs":[{"name":"","type":"uint256","internalType":"uint256"}],"stateMutability":"view"},{"type":"event","name":"AuthorityUpdated","inputs":[{"name":"authority","type":"address","indexed":false,"internalType":"address"}],"anonymous":false},{"type":"event","name":"DepositRequest","inputs":[{"name":"destChainKey","type":"bytes32","indexed":true,"internalType":"bytes32"},{"name":"destTokenAddress","type":"bytes32","indexed":true,"internalType":"bytes32"},{"name":"destAccount","type":"bytes32","indexed":true,"internalType":"bytes32"},{"name":"token","type":"address","indexed":false,"internalType":"address"},{"name":"amount","type":"uint256","indexed":false,"internalType":"uint256"},{"name":"nonce","type":"uint256","indexed":false,"internalType":"uint256"}],"anonymous":false},{"type":"event","name":"Paused","inputs":[{"name":"account","type":"address","indexed":false,"internalType":"address"}],"anonymous":false},{"type":"event","name":"Unpaused","inputs":[{"name":"account","type":"address","indexed":false,"internalType":"address"}],"anonymous":false},{"type":"event","name":"WithdrawApprovalCancelled","inputs":[{"name":"withdrawHash","type":"bytes32","indexed":true,"internalType":"bytes32"}],"anonymous":false},{"type":"event","name":"WithdrawApprovalReenabled","inputs":[{"name":"withdrawHash","type":"bytes32","indexed":true,"internalType":"bytes32"}],"anonymous":false},{"type":"event","name":"WithdrawApproved","inputs":[{"name":"withdrawHash","type":"bytes32","indexed":true,"internalType":"bytes32"},{"name":"srcChainKey","type":"bytes32","indexed":true,"internalType":"bytes32"},{"name":"token","type":"address","indexed":true,"internalType":"address"},{"name":"to","type":"address","indexed":false,"internalType":"address"},{"name":"amount","type":"uint256","indexed":false,"internalType":"uint256"},{"name":"nonce","type":"uint256","indexed":false,"internalType":"uint256"},{"name":"fee","type":"uint256","indexed":false,"internalType":"uint256"},{"name":"feeRecipient","type":"address","indexed":false,"internalType":"address"},{"name":"deductFromAmount","type":"bool","indexed":false,"internalType":"bool"}],"anonymous":false},{"type":"event","name":"WithdrawDelayUpdated","inputs":[{"name":"oldDelay","type":"uint256","indexed":false,"internalType":"uint256"},{"name":"newDelay","type":"uint256","indexed":false,"internalType":"uint256"}],"anonymous":false},{"type":"event","name":"WithdrawExecutedWithFee","inputs":[{"name":"withdrawHash","type":"bytes32","indexed":true,"internalType":"bytes32"},{"name":"fee","type":"uint256","indexed":false,"internalType":"uint256"},{"name":"feeRecipient","type":"address","indexed":false,"internalType":"address"},{"name":"feeDeductedFromAmount","type":"bool","indexed":false,"internalType":"bool"}],"anonymous":false},{"type":"event","name":"WithdrawRequest","inputs":[{"name":"srcChainKey","type":"bytes32","indexed":true,"internalType":"bytes32"},{"name":"token","type":"address","indexed":true,"internalType":"address"},{"name":"to","type":"address","indexed":true,"internalType":"address"},{"name":"amount","type":"uint256","indexed":false,"internalType":"uint256"},{"name":"nonce","type":"uint256","indexed":false,"internalType":"uint256"}],"anonymous":false},{"type":"error","name":"AccessManagedInvalidAuthority","inputs":[{"name":"authority","type":"address","internalType":"address"}]},{"type":"error","name":"AccessManagedRequiredDelay","inputs":[{"name":"caller","type":"address","internalType":"address"},{"name":"delay","type":"uint32","internalType":"uint32"}]},{"type":"error","name":"AccessManagedUnauthorized","inputs":[{"name":"caller","type":"address","internalType":"address"}]},{"type":"error","name":"ApprovalCancelled","inputs":[]},{"type":"error","name":"ApprovalExecuted","inputs":[]},{"type":"error","name":"EnforcedPause","inputs":[]},{"type":"error","name":"ExpectedPause","inputs":[]},{"type":"error","name":"FeeRecipientZero","inputs":[]},{"type":"error","name":"FeeTransferFailed","inputs":[]},{"type":"error","name":"IncorrectFeeValue","inputs":[]},{"type":"error","name":"NoFeeViaMsgValueWhenDeductFromAmount","inputs":[]},{"type":"error","name":"NonceAlreadyApproved","inputs":[{"name":"srcChainKey","type":"bytes32","internalType":"bytes32"},{"name":"nonce","type":"uint256","internalType":"uint256"}]},{"type":"error","name":"NotCancelled","inputs":[]},{"type":"error","name":"ReentrancyGuardReentrantCall","inputs":[]},{"type":"error","name":"WithdrawDataMissing","inputs":[]},{"type":"error","name":"WithdrawDelayNotElapsed","inputs":[]},{"type":"error","name":"WithdrawNotApproved","inputs":[]}],"bytecode":{"object":"0x60e06040523461009b5761001d610014610215565b929190916102db565b6100256100a0565b6140d161047c82396080518181816103140152818161161e0152613a0e015260a051818181610257015281816117550152613b45015260c051818181610bf30152818161139e0152818161140e0152818161159f015281816116ce015281816127dd0152818161398f0152613abe01526140d190f35b6100a6565b60405190565b5f80fd5b601f801991011690565b634e487b7160e01b5f52604160045260245ffd5b906100d2906100aa565b810190811060018060401b038211176100ea57604052565b6100b4565b906101026100fb6100a0565b92836100c8565b565b5f80fd5b60018060a01b031690565b61011c90610108565b90565b61012881610113565b0361012f57565b5f80fd5b905051906101408261011f565b565b61014b90610113565b90565b61015781610142565b0361015e57565b5f80fd5b9050519061016f8261014e565b565b61017a90610113565b90565b61018681610171565b0361018d57565b5f80fd5b9050519061019e8261017d565b565b6101a990610113565b90565b6101b5816101a0565b036101bc57565b5f80fd5b905051906101cd826101ac565b565b608081830312610210576101e5825f8301610133565b9261020d6101f68460208501610162565b936102048160408601610191565b936060016101c0565b90565b610104565b61023361454d80380380610228816100ef565b9283398101906101cf565b90919293565b5f1b90565b9061024a5f1991610239565b9181191691161790565b90565b90565b90565b61027161026c61027692610254565b61025a565b610257565b90565b90565b9061029161028c6102989261025d565b610279565b825461023e565b9055565b90565b6102b36102ae6102b89261029c565b61025a565b610257565b90565b906102d06102cb6102d79261029f565b610279565b825461023e565b9055565b6102e49061036f565b6102ef5f600661027c565b6102fc61012c600b6102bb565b60c05260805260a052565b90565b61031e61031961032392610307565b61025a565b610257565b90565b610330600161030a565b90565b61034761034261034c92610257565b61025a565b610257565b90565b9061036461035f61036b92610333565b610279565b825461023e565b9055565b6103789061038c565b61038a610383610326565b600161034f565b565b61039590610397565b565b6103a090610436565b565b906103b360018060a01b0391610239565b9181191691161790565b6103d16103cc6103d692610108565b61025a565b610108565b90565b6103e2906103bd565b90565b6103ee906103d9565b90565b90565b90610409610404610410926103e5565b6103f1565b82546103a2565b9055565b61041d90610113565b9052565b9190610434905f60208501940190610414565b565b610440815f6103f4565b6104767f2f658b440c35314f52658ea8a740e05b284cdc84dc9ae01e891f21b8933e7cad9161046d6100a0565b91829182610421565b0390a156fe60806040526004361015610013575b610f0c565b61001d5f3561019c565b80630288a39c146101975780630f3fe22f146101925780631221c0381461018d5780633f4ba83a1461018857806350a4b7be1461018357806357ece64e1461017e5780635c975abb1461017957806365b13e821461017457806372f0cb301461016f5780637a9e5e4b1461016a5780637f86a1a8146101655780638456cb59146101605780638e19899e1461015b5780638fb36037146101565780639211345c14610151578063930d90751461014c5780639cec9904146101475780639d23c4c714610142578063ac23b6671461013d578063ac4421cd14610138578063bf7e214f14610133578063c49d6f691461012e578063de35f5cb146101295763ee600efc0361000e57610ed7565b610dfd565b610db9565b610d03565b610cab565b610c78565b610c43565b610bbe565b610b89565b610ad3565b6109ca565b610973565b610922565b6108e5565b6107ff565b6107ae565b61075a565b610659565b6105fb565b610570565b61039e565b610364565b6102dd565b610220565b60e01c90565b60405190565b5f80fd5b5f80fd5b5f9103126101ba57565b6101ac565b1c90565b90565b6101d69060086101db93026101bf565b6101c3565b90565b906101e991546101c6565b90565b6101f8600b5f906101de565b90565b90565b610207906101fb565b9052565b919061021e905f602085019401906101fe565b565b34610250576102303660046101b0565b61024c61023b6101ec565b6102436101a2565b9182918261020b565b0390f35b6101a8565b7f000000000000000000000000000000000000000000000000000000000000000090565b60018060a01b031690565b90565b61029b6102966102a092610279565b610284565b610279565b90565b6102ac90610287565b90565b6102b8906102a3565b90565b6102c4906102af565b9052565b91906102db905f602085019401906102bb565b565b3461030d576102ed3660046101b0565b6103096102f8610255565b6103006101a2565b918291826102c8565b0390f35b6101a8565b7f000000000000000000000000000000000000000000000000000000000000000090565b61033f906102a3565b90565b61034b90610336565b9052565b9190610362905f60208501940190610342565b565b34610394576103743660046101b0565b61039061037f610312565b6103876101a2565b9182918261034f565b0390f35b6101a8565b5f0190565b346103cc576103ae3660046101b0565b6103b6610f3d565b6103be6101a2565b806103c881610399565b0390f35b6101a8565b5f80fd5b601f801991011690565b634e487b7160e01b5f52604160045260245ffd5b906103fd906103d5565b810190811067ffffffffffffffff82111761041757604052565b6103df565b9061042f6104286101a2565b92836103f3565b565b90565b61043d81610431565b0361044457565b5f80fd5b9050359061045582610434565b565b61046090610279565b90565b61046c81610457565b0361047357565b5f80fd5b9050359061048482610463565b565b61048f816101fb565b0361049657565b5f80fd5b905035906104a782610486565b565b919060c08382031261052b57610524906104c360c061041c565b936104d0825f8301610448565b5f8601526104e18260208301610448565b60208601526104f38260408301610448565b60408601526105058260608301610477565b6060860152610517826080830161049a565b608086015260a00161049a565b60a0830152565b6103d1565b9060c08282031261054957610546915f016104a9565b90565b6101ac565b61055790610431565b9052565b919061056e905f6020850194019061054e565b565b346105a05761059c61058b610586366004610530565b610f65565b6105936101a2565b9182918261055b565b0390f35b6101a8565b919060a0838203126105f6576105bd815f8501610477565b926105cb8260208301610448565b926105f36105dc8460408501610448565b936105ea8160608601610477565b9360800161049a565b90565b6101ac565b3461062d5761061761060e3660046105a5565b939290926118cc565b61061f6101a2565b8061062981610399565b0390f35b6101a8565b151590565b61064090610632565b9052565b9190610657905f60208501940190610637565b565b34610689576106693660046101b0565b61068561067461190c565b61067c6101a2565b91829182610644565b0390f35b6101a8565b91906040838203126106b657806106aa6106b3925f860161049a565b9360200161049a565b90565b6101ac565b5190565b60209181520190565b60200190565b6106d790610431565b9052565b906106e8816020936106ce565b0190565b60200190565b9061070f610709610702846106bb565b80936106bf565b926106c8565b905f5b81811061071f5750505090565b90919261073861073260019286516106db565b946106ec565b9101919091610712565b6107579160208201915f8184039101526106f2565b90565b3461078b5761078761077661077036600461068e565b90611a36565b61077e6101a2565b91829182610742565b0390f35b6101a8565b906020828203126107a9576107a6915f0161049a565b90565b6101ac565b346107dc576107c66107c1366004610790565b611bc4565b6107ce6101a2565b806107d881610399565b0390f35b6101a8565b906020828203126107fa576107f7915f01610477565b90565b6101ac565b3461082d576108176108123660046107e1565b611bcf565b61081f6101a2565b8061082981610399565b0390f35b6101a8565b61083b81610632565b0361084257565b5f80fd5b9050359061085382610832565b565b9091610120828403126108e05761086e835f8401610448565b9261087c8160208501610477565b9261088a8260408301610477565b926108988360608401610448565b926108a6816080850161049a565b926108b48260a0830161049a565b926108dd6108c58460c0850161049a565b936108d38160e08601610477565b9361010001610846565b90565b6101ac565b3461091d576109076108f8366004610855565b979690969591959492946125ce565b61090f6101a2565b8061091981610399565b0390f35b6101a8565b34610950576109323660046101b0565b61093a61260e565b6109426101a2565b8061094c81610399565b0390f35b6101a8565b9060208282031261096e5761096b915f01610448565b90565b6101ac565b610986610981366004610955565b6129f5565b61098e6101a2565b8061099881610399565b0390f35b63ffffffff60e01b1690565b6109b19061099c565b9052565b91906109c8905f602085019401906109a8565b565b346109fa576109da3660046101b0565b6109f66109e5612a72565b6109ed6101a2565b918291826109b5565b0390f35b6101a8565b610a08906101fb565b9052565b610a1590610457565b9052565b67ffffffffffffffff1690565b610a2f90610a19565b9052565b610a3c90610632565b9052565b9060c080610abc93610a585f8201515f8601906109ff565b610a6a60208201516020860190610a0c565b610a7c60408201516040860190610a26565b610a8e60608201516060860190610a33565b610aa060808201516080860190610a33565b610ab260a082015160a0860190610a33565b0151910190610a33565b565b9190610ad1905f60e08501940190610a40565b565b34610b0357610aff610aee610ae9366004610955565b612b26565b610af66101a2565b91829182610abe565b0390f35b6101a8565b9060a080610b7293610b205f8201515f8601906106ce565b610b32602082015160208601906106ce565b610b44604082015160408601906106ce565b610b5660608201516060860190610a0c565b610b68608082015160808601906109ff565b01519101906109ff565b565b9190610b87905f60c08501940190610b08565b565b34610bb957610bb5610ba4610b9f366004610955565b612c5c565b610bac6101a2565b91829182610b74565b0390f35b6101a8565b34610bec57610bd6610bd1366004610955565b612db8565b610bde6101a2565b80610be881610399565b0390f35b6101a8565b7f000000000000000000000000000000000000000000000000000000000000000090565b610c1e906102a3565b90565b610c2a90610c15565b9052565b9190610c41905f60208501940190610c21565b565b34610c7357610c533660046101b0565b610c6f610c5e610bf1565b610c666101a2565b91829182610c2e565b0390f35b6101a8565b34610ca657610c90610c8b366004610955565b612eab565b610c986101a2565b80610ca281610399565b0390f35b6101a8565b34610cdc57610cd8610cc7610cc136600461068e565b90612eb6565b610ccf6101a2565b91829182610742565b0390f35b6101a8565b610cea90610457565b9052565b9190610d01905f60208501940190610ce1565b565b34610d3357610d133660046101b0565b610d2f610d1e612fb0565b610d266101a2565b91829182610cee565b0390f35b6101a8565b9060a080610da293610d505f8201515f8601906106ce565b610d6260208201516020860190610a0c565b610d74604082015160408601906106ce565b610d8660608201516060860190610a0c565b610d98608082015160808601906109ff565b01519101906109ff565b565b9190610db7905f60c08501940190610d38565b565b34610de957610de5610dd4610dcf366004610955565b613026565b610ddc6101a2565b91829182610da4565b0390f35b6101a8565b610dfa60065f906101de565b90565b34610e2d57610e0d3660046101b0565b610e29610e18610dee565b610e206101a2565b9182918261020b565b0390f35b6101a8565b919060c083820312610eb457610ead90610e4c60c061041c565b93610e59825f8301610448565b5f860152610e6a8260208301610477565b6020860152610e7c8260408301610448565b6040860152610e8e8260608301610477565b6060860152610ea0826080830161049a565b608086015260a00161049a565b60a0830152565b6103d1565b9060c082820312610ed257610ecf915f01610e32565b90565b6101ac565b34610f0757610f03610ef2610eed366004610eb9565b613089565b610efa6101a2565b9182918261055b565b0390f35b6101a8565b5f80fd5b610f29610f1b6130fe565b610f23613111565b91613290565b610f31610f33565b565b610f3b613477565b565b610f45610f10565b565b5f90565b610f559051610431565b90565b610f6290516101fb565b90565b610fbd90610f71610f47565b50610f7a6134fa565b90610f865f8201610f4b565b610f9260208301610f4b565b610f9e60408401610f4b565b91610fb760a0610fb060808701610f58565b9501610f58565b946135a6565b90565b90610fd594939291610fd06135fb565b610fd7565b565b90610ffd94939291610ff8610fea6130fe565b610ff2613111565b91613290565b610fff565b565b906110149493929161100f613651565b611397565b61101c613699565b565b5f80fd5b60e01b90565b5f91031261103257565b6101ac565b91602061105892949361105160408201965f830190610ce1565b019061054e565b565b6110626101a2565b3d5f823e3d90fd5b9050519061107782610434565b565b906020828203126110925761108f915f0161106a565b90565b6101ac565b5f1c90565b6110a86110ad91611097565b6101c3565b90565b6110ba905461109c565b90565b6110c760c061041c565b90565b906110d490610431565b9052565b906110e290610457565b9052565b906110f0906101fb565b9052565b90565b61110090610431565b90565b9061110d906110f7565b5f5260205260405f2090565b5f1b90565b9061112a5f1991611119565b9181191691161790565b61113d90611097565b90565b9061115561115061115c926110f7565b611134565b825461111e565b9055565b61116a9051610457565b90565b9061117e60018060a01b0391611119565b9181191691161790565b611191906102a3565b90565b90565b906111ac6111a76111b392611188565b611194565b825461116d565b9055565b6111cb6111c66111d0926101fb565b610284565b6101fb565b90565b90565b906111eb6111e66111f2926111b7565b6111d3565b825461111e565b9055565b9061128560a0600561128b946112195f82016112135f8801610f4b565b90611140565b6112326001820161122c60208801610f4b565b90611140565b61124b6002820161124560408801610f4b565b90611140565b6112646003820161125e60608801611160565b90611197565b61127d6004820161127760808801610f58565b906111d6565b019201610f58565b906111d6565b565b90611297916111f6565b565b6040906112c26112c994969593966112b860608401985f850190610ce1565b60208301906101fe565b01906101fe565b565b634e487b7160e01b5f52601160045260245ffd5b6112e8906101fb565b5f1981146112f65760010190565b6112cb565b6002111561130557565b5f80fd5b90505190611316826112fb565b565b906020828203126113315761132e915f01611309565b90565b6101ac565b634e487b7160e01b5f52602160045260245ffd5b6002111561135457565b611336565b906113638261134a565b565b60409061138e611395949695939661138460608401985f850190610ce1565b6020830190610ce1565b01906101fe565b565b92916113c27f0000000000000000000000000000000000000000000000000000000000000000610c15565b63db1303ea848492803b156118c7576113ed5f936113f86113e16101a2565b96879586948594611022565b845260048401611037565b03915afa80156118c257611896575b50816114327f0000000000000000000000000000000000000000000000000000000000000000610c15565b90602063aa2fc98d928690611459879561146461144d6101a2565b97889586948594611022565b845260048401611037565b03915afa908115611891576114dd602092611517945f91611864575b506114d4866114cb8c6114c28d91936114b961149c60066110b0565b976114b16114a86110bd565b9b5f8d016110ca565b8b8b016110ca565b604089016110ca565b606087016110d8565b608085016110e6565b60a083016110e6565b936115106114ea86610f65565b6114fe6114f760046110f4565b82906136b0565b5061150b87916008611103565b61128d565b9301610f4b565b83928661152460066110b0565b9461157661156461155e6115587f6960733c1ac63ac84b84fa10df381b35b87dcc712dbd73a3005921960272ad09966110f7565b966110f7565b966110f7565b9661156d6101a2565b93849384611299565b0390a461159561158e61158960066110b0565b6112df565b60066111d6565b6115ed60206115c37f0000000000000000000000000000000000000000000000000000000000000000610c15565b63543b3af7906115e285926115d66101a2565b95869485938493611022565b835260048301610cee565b03915afa90811561185f575f91611831575b5061161261160c5f611359565b91611359565b145f146116c4576116427f0000000000000000000000000000000000000000000000000000000000000000610336565b63f6b911bc92919392813b156116bf575f6116709161167b82966116646101a2565b98899788968795611022565b855260048501611365565b03925af180156116ba5761168e575b505b565b6116ad905f3d81116116b3575b6116a581836103f3565b810190611028565b5f61168a565b503d61169b565b61105a565b61101e565b61171c60206116f27f0000000000000000000000000000000000000000000000000000000000000000610c15565b63543b3af79061171185926117056101a2565b95869485938493611022565b835260048301610cee565b03915afa90811561182c575f916117fe575b5061174261173c6001611359565b91611359565b14611750575b50505061168c565b6117797f00000000000000000000000000000000000000000000000000000000000000006102af565b637750c9f092919392813b156117f9575f6117a7916117b2829661179b6101a2565b98899788968795611022565b855260048501611365565b03925af180156117f4576117c8575b8080611748565b6117e7905f3d81116117ed575b6117df81836103f3565b810190611028565b5f6117c1565b503d6117d5565b61105a565b61101e565b61181f915060203d8111611825575b61181781836103f3565b810190611318565b5f61172e565b503d61180d565b61105a565b611852915060203d8111611858575b61184a81836103f3565b810190611318565b5f6115ff565b503d611840565b61105a565b6118849150843d811161188a575b61187c81836103f3565b810190611079565b5f611480565b503d611872565b61105a565b6118b5905f3d81116118bb575b6118ad81836103f3565b810190611028565b5f611407565b503d6118a3565b61105a565b61101e565b906118d994939291610fc0565b565b5f90565b60a81c90565b60ff1690565b6118f76118fc916118df565b6118e5565b90565b61190990546118eb565b90565b6119146118db565b5061191e5f6118ff565b90565b606090565b90565b61193d61193861194292611926565b610284565b6101fb565b90565b67ffffffffffffffff811161195d5760208091020190565b6103df565b9061197461196f83611945565b61041c565b918252565b369037565b906119a361198b83611962565b926020806119998693611945565b9201910390611979565b565b6119b46119ba919392936101fb565b926101fb565b82018092116119c557565b6112cb565b6119d96119df919392936101fb565b926101fb565b82039182116119ea57565b6112cb565b5f90565b60016119ff91016101fb565b90565b634e487b7160e01b5f52603260045260245ffd5b90611a20826106bb565b811015611a31576020809102010190565b611a02565b611a3e611921565b50611a51611a4c60026110f4565b6136d0565b81611a64611a5e836101fb565b916101fb565b1015611b1557611a758284906119a5565b611a87611a81836101fb565b916101fb565b11611b01575b50611a978261197e565b92611aa06119ef565b5b80611ab4611aae866101fb565b916101fb565b1015611afb57611af690611af1611adf611ace60026110f4565b611ad98785906119a5565b906136ef565b611aec8891849092611a16565b6110ca565b6119f3565b611aa1565b50915050565b611b0e91925082906119ca565b905f611a8d565b505050611b29611b245f611929565b61197e565b90565b611b4e90611b49611b3b6130fe565b611b43613111565b91613290565b611b73565b565b916020611b71929493611b6a60408201965f8301906101fe565b01906101fe565b565b611b7d600b6110b0565b611b8882600b6111d6565b907f608f88597c1be343fb8b88747f4efa4d4f71538b3e3203d084d9e5e6fed29d6191611bbf611bb66101a2565b92839283611b50565b0390a1565b611bcd90611b2c565b565b611bd76130fe565b80611bf1611beb611be6612fb0565b610457565b91610457565b03611c3a5750803b611c0b611c055f611929565b916101fb565b14611c1b57611c199061370f565b565b611c36905f9182916361798f2f60e11b835260048301610cee565b0390fd5b611c54905f91829162d1953b60e31b835260048301610cee565b0390fd5b90611c829897969594939291611c7d611c6f6130fe565b611c77613111565b91613290565b611c84565b565b90611c9d9897969594939291611c986135fb565b61236f565b565b611ca960c061041c565b90565b90611cb6906110f7565b5f5260205260405f2090565b90611ccc906111b7565b5f5260205260405f2090565b611ce4611ce991611097565b6118e5565b90565b611cf69054611cd8565b90565b916020611d1a929493611d1360408201965f83019061054e565b01906101fe565b565b15611d25575050565b611d3f5f928392634032ac6d60e11b845260048401611cf9565b0390fd5b90611d4d906110f7565b5f5260205260405f2090565b60018060a01b031690565b611d70611d7591611097565b611d59565b90565b611d829054611d64565b90565b60a01c90565b67ffffffffffffffff1690565b611da4611da991611d85565b611d8b565b90565b611db69054611d98565b90565b90611dc390610a19565b9052565b611dd3611dd89161019c565b6118e5565b90565b611de59054611dc7565b90565b90611df290610632565b9052565b60e81c90565b611e08611e0d91611df6565b6118e5565b90565b611e1a9054611dfc565b90565b60f01c90565b611e2f611e3491611e1d565b6118e5565b90565b611e419054611e23565b90565b60f81c90565b611e56611e5b91611e44565b6118e5565b90565b611e689054611e4a565b90565b611e7560e061041c565b90565b90611f22611f196001611e89611e6b565b94611ea0611e985f83016110b0565b5f88016110e6565b611eb7611eae838301611d78565b602088016110d8565b611ece611ec5838301611dac565b60408801611db9565b611ee5611edc838301611ddb565b60608801611de8565b611efc611ef3838301611e10565b60808801611de8565b611f13611f0a838301611e37565b60a08801611de8565b01611e5e565b60c08401611de8565b565b611f2d90611e78565b90565b611f3a9051610632565b90565b15611f4457565b5f630aaf476560e01b815280611f5c60048201610399565b0390fd5b15611f6757565b5f6353b2f99960e11b815280611f7f60048201610399565b0390fd5b611f97611f92611f9c92611926565b610284565b610279565b90565b611fa890611f83565b90565b15611fb257565b5f632509d95760e01b815280611fca60048201610399565b0390fd5b611fe2611fdd611fe7926101fb565b610284565b610a19565b90565b611ff460e061041c565b90565b6120019051610a19565b90565b60a01b90565b9061202067ffffffffffffffff60a01b91612004565b9181191691161790565b61203e61203961204392610a19565b610284565b610a19565b90565b90565b9061205e6120596120659261202a565b612046565b825461200a565b9055565b9061207860ff60e01b91611022565b9181191691161790565b61208b90610632565b90565b90565b906120a66120a16120ad92612082565b61208e565b8254612069565b9055565b60e81b90565b906120c660ff60e81b916120b1565b9181191691161790565b906120e56120e06120ec92612082565b61208e565b82546120b7565b9055565b60f01b90565b9061210560ff60f01b916120f0565b9181191691161790565b9061212461211f61212b92612082565b61208e565b82546120f6565b9055565b60f81b90565b9061214460ff60f81b9161212f565b9181191691161790565b9061216361215e61216a92612082565b61208e565b8254612135565b9055565b9061221160c06001612217946121915f820161218b5f8801610f58565b906111d6565b6121a98282016121a360208801611160565b90611197565b6121c18282016121bb60408801611ff7565b90612049565b6121d98282016121d360608801611f30565b90612091565b6121f18282016121eb60808801611f30565b906120d0565b61220982820161220360a08801611f30565b9061210f565b019201611f30565b9061214e565b565b906122239161216e565b565b9061222f906110f7565b5f5260205260405f2090565b906122ca60a060056122d09461225e5f82016122585f8801610f4b565b90611140565b6122776001820161227160208801611160565b90611197565b6122906002820161228a60408801610f4b565b90611140565b6122a9600382016122a360608801611160565b90611197565b6122c2600482016122bc60808801610f58565b906111d6565b019201610f58565b906111d6565b565b906122dc9161223b565b565b906122ea60ff91611119565b9181191691161790565b9061230961230461231092612082565b61208e565b82546122de565b9055565b919461235c6123669298979561235260a09661234861236d9a61233e60c08a019e5f8b0190610ce1565b60208901906101fe565b60408701906101fe565b60608501906101fe565b6080830190610ce1565b0190610637565b565b9493929786612513836123db869b959a9c6123d28a6123c98b6123c08f9c6123b761259f9e9997919395976123ae6123a5611c9f565b9b5f8d016110ca565b60208b016110d8565b604089016110ca565b606087016110d8565b608085016110e6565b60a083016110e6565b6125025f6124f16123eb84613089565b956124208d8d61241861241261240d612406600a8690611cac565b8490611cc2565b611cec565b15610632565b919091611d1c565b61246d61246861246260a061243f61243a60098d90611d43565b611f24565b61245c61245761245160c08401611f30565b15610632565b611f3d565b01611f30565b15610632565b611f60565b8061248061247a85611929565b916101fb565b116125a4575b6124e8896124df61249642611fce565b6124d68c6124cd600191936124c48b976124bb8d9b6124b3611fea565b9e8f016110e6565b60208d016110d8565b60408b01611db9565b60608901611de8565b60808701611de8565b60a08501611de8565b60c08301611de8565b6124fd60098690611d43565b612219565b61250e60078490612225565b6122d2565b61252761252060026110f4565b82906136b0565b50612548600161254361253c600a8b90611cac565b8990611cc2565b6122f4565b95969793949891909161258d6125876125817fe9c6fcc209e99f20220bb87e197c5584cdd23cee08c7919db0d702ee7dc2c8a2996110f7565b996110f7565b99611188565b996125966101a2565b96879687612314565b0390a4565b6125c9896125c26125bc6125b787611f9f565b610457565b91610457565b1415611fab565b612486565b906125df9897969594939291611c58565b565b6125fa6125ec6130fe565b6125f4613111565b91613290565b612602612604565b565b61260c6137b4565b565b6126166125e1565b565b61263a906126356126276130fe565b61262f613111565b91613290565b61263c565b565b61264d906126486135fb565b61264f565b565b6126609061265b613651565b612772565b612668613699565b565b90565b61267961267e91611097565b61266a565b90565b61268b905461266d565b90565b61269860c061041c565b90565b9061273261272960056126ac61268e565b946126c36126bb5f8301612681565b5f88016110ca565b6126db6126d260018301611d78565b602088016110d8565b6126f36126ea60028301612681565b604088016110ca565b61270b61270260038301611d78565b606088016110d8565b61272361271a600483016110b0565b608088016110e6565b016110b0565b60a084016110e6565b565b61273d9061269b565b90565b604090612769612770949695939661275f60608401985f8501906101fe565b6020830190610ce1565b0190610637565b565b61278661278160098390611d43565b611f24565b90612790826137fd565b612799826138d7565b6127ad6127a860078390612225565b612734565b6127b960208201611160565b6127d36127cd6127c85f611f9f565b610457565b91610457565b146129d9576128017f0000000000000000000000000000000000000000000000000000000000000000610c15565b63db1303ea61281260208401611160565b61281d5f8501610f4b565b92803b156129d4576128415f9361284c6128356101a2565b96879586948594611022565b845260048401611037565b03915afa80156129cf576129a3575b5061287460018061286e60098690611d43565b0161214e565b6128a161288360208301611160565b61288f60608401611160565b61289b60808501610f58565b91613985565b6128aa83613d23565b6128b55f8201610f4b565b6128c160208301611160565b6128cd60608401611160565b916128e660a06128df60808701610f58565b9501610f58565b61292261291c6129167f3c4ed62fb7ce991dc39e73806120e885618eb76dd87482feb184ede130d42c33946110f7565b94611188565b94611188565b9461293761292e6101a2565b92839283611b50565b0390a46129455f8301610f58565b9161295e608061295760208401611160565b9201611f30565b9261299e61298c7f9091ddfd1914253eabb8ed215e6132a5de188489c3f3ad535d62fa8acf456e52946110f7565b946129956101a2565b93849384612740565b0390a2565b6129c2905f3d81116129c8575b6129ba81836103f3565b810190611028565b5f61285b565b503d6129b0565b61105a565b61101e565b5f638038bbf760e01b8152806129f160048201610399565b0390fd5b6129fe90612618565b565b5f90565b612a10612a1591611d85565b6118e5565b90565b612a229054612a04565b90565b612a39612a34612a3e92611926565b611022565b61099c565b90565b612a4a906102a3565b90565b63ffffffff1690565b612a6a612a65612a6f92612a4d565b611022565b61099c565b90565b612a7a612a00565b50612a845f612a18565b5f14612a9b57612a97638fb36037612a56565b5b90565b612aa45f612a25565b612a98565b5f90565b5f90565b5f90565b5f90565b612ac1611e6b565b90602080808080808088612ad3612aa9565b815201612ade612aad565b815201612ae9612ab1565b815201612af4612ab5565b815201612aff612ab5565b815201612b0a612ab5565b815201612b15612ab5565b81525050565b612b23612ab9565b90565b612b3d612b4291612b35612b1b565b506009611d43565b611f24565b90565b612b4f60c061041c565b90565b5f90565b612b5e612b45565b906020808080808087612b6f612b52565b815201612b7a612b52565b815201612b85612b52565b815201612b90612aad565b815201612b9b612aa9565b815201612ba6612aa9565b81525050565b612bb4612b56565b90565b90612c4e612c456005612bc8612b45565b94612bdf612bd75f8301612681565b5f88016110ca565b612bf7612bee60018301612681565b602088016110ca565b612c0f612c0660028301612681565b604088016110ca565b612c27612c1e60038301611d78565b606088016110d8565b612c3f612c36600483016110b0565b608088016110e6565b016110b0565b60a084016110e6565b565b612c5990612bb7565b90565b612c73612c7891612c6b612bac565b506008611103565b612c50565b90565b612c9d90612c98612c8a6130fe565b612c92613111565b91613290565b612c9f565b565b612cb090612cab6135fb565b612cfb565b565b90565b15612cbc57565b5f6336d2baeb60e21b815280612cd460048201610399565b0390fd5b15612cdf57565b5f632069e45f60e11b815280612cf760048201610399565b0390fd5b612d76612d12612d0d60098490611d43565b612cb2565b612d26612d2160018301611ddb565b612cb5565b612d3a612d3560018301611e37565b612cd8565b612d57612d52612d4c60018401611e5e565b15610632565b611f3d565b612d645f6001830161210f565b6001612d6f42611fce565b9101612049565b612da07fb0d9959a4c756ad50b484cc23f020a922fa2f442b9132ae31957aef735ec0ac7916110f7565b90612da96101a2565b80612db381610399565b0390a2565b612dc190612c7b565b565b612de590612de0612dd26130fe565b612dda613111565b91613290565b612de7565b565b612df890612df36135fb565b612dfa565b565b612e69612e11612e0c60098490611d43565b612cb2565b612e25612e2060018301611ddb565b612cb5565b612e42612e3d612e3760018401611e37565b15610632565b611f60565b612e5f612e5a612e5460018401611e5e565b15610632565b611f3d565b600180910161210f565b612e937f2e274839df955d18079b80e616111416908cb01905936758bf016d0dbd6ca30c916110f7565b90612e9c6101a2565b80612ea681610399565b0390a2565b612eb490612dc3565b565b612ebe611921565b50612ed1612ecc60046110f4565b6136d0565b81612ee4612ede836101fb565b916101fb565b1015612f9557612ef58284906119a5565b612f07612f01836101fb565b916101fb565b11612f81575b50612f178261197e565b92612f206119ef565b5b80612f34612f2e866101fb565b916101fb565b1015612f7b57612f7690612f71612f5f612f4e60046110f4565b612f598785906119a5565b906136ef565b612f6c8891849092611a16565b6110ca565b6119f3565b612f21565b50915050565b612f8e91925082906119ca565b905f612f0d565b505050612fa9612fa45f611929565b61197e565b90565b5f90565b612fb8612fac565b50612fc25f611d78565b90565b612fcd61268e565b906020808080808087612fde612b52565b815201612fe9612aad565b815201612ff4612b52565b815201612fff612aad565b81520161300a612aa9565b815201613015612aa9565b81525050565b613023612fc5565b90565b61303d6130429161303561301b565b506007612225565b612734565b90565b61304e90610287565b90565b61306561306061306a92610279565b610284565b6101fb565b90565b61308161307c613086926101fb565b611119565b610431565b90565b6130fb90613095610f47565b5061309e6134fa565b906130c36130be6130b96130b460208501611160565b613045565b613051565b61306d565b6130ce5f8301610f4b565b92906130dc60408401610f4b565b916130f560a06130ee60808701610f58565b9501610f58565b946135a6565b90565b613106612fac565b503390565b36905f90565b61311961310b565b9050505f903690565b90565b61313961313461313e92613122565b610284565b6101fb565b90565b5f80fd5b5f80fd5b90939293848311613169578411613164576001820201920390565b613145565b613141565b5090565b1b90565b9061318461318b918361316e565b913561099c565b9060048110613199575b5090565b6131b19063ffffffff60e01b90600403600802613172565b165f613195565b6131cc6131c76131d192611926565b610284565b612a4d565b90565b906131e360ff60a01b91612004565b9181191691161790565b906132026131fd61320992612082565b61208e565b82546131d4565b9055565b61321690610287565b90565b6132229061320d565b90565b61322e906102a3565b90565b60209181520190565b90825f939282370152565b919061325f816132588161326495613231565b809561323a565b6103d5565b0190565b9161328d93919261328060408201945f830190610ce1565b6020818503910152613245565b90565b906132e26132da61329f612fb0565b846132a930612a41565b906132d46132ce878a5f906132c86132c2600493611929565b92613125565b92613149565b90613176565b92613de3565b919015610632565b6132ed575b50505050565b6132ff6132f95f6131b8565b91612a4d565b115f146133bb5761331160015f6131ed565b61332961332461331f612fb0565b613219565b613225565b6394c7d7ee92919392813b156133b6575f61335791613362829661334b6101a2565b98899788968795611022565b855260048501613268565b03925af180156133b157613385575b5061337c5f5f6131ed565b5f8080806132e7565b6133a4905f3d81116133aa575b61339c81836103f3565b810190611028565b5f613371565b503d613392565b61105a565b61101e565b6133d5825f91829162d1953b60e31b835260048301610cee565b0390fd5b6133e1613e63565b6133e961342a565b565b60a81b90565b9061340060ff60a81b916133eb565b9181191691161790565b9061341f61341a61342692612082565b61208e565b82546133f1565b9055565b6134345f5f61340a565b61343c6130fe565b6134727f5db9ee0a495bf2e6ff9c91a7834c1ba4fdd244a5e8aa4e537bd38aeae4b073aa916134696101a2565b91829182610cee565b0390a1565b61347f6133d9565b565b60209181520190565b5f7f45564d0000000000000000000000000000000000000000000000000000000000910152565b6134be6003602092613481565b6134c78161348a565b0190565b91906134ee9060206134e6604086018681035f8801526134b1565b94019061054e565b565b60200190565b5190565b613502610f47565b506135266135356135124661306d565b61351a6101a2565b928391602083016134cb565b602082018103825203826103f3565b613547613541826134f6565b916134f0565b2090565b919461359361359d9298979561358960a09661357f6135a49a61357560c08a019e5f8b019061054e565b602089019061054e565b604087019061054e565b606085019061054e565b60808301906101fe565b01906101fe565b565b946135e5946135d693969492946135bb610f47565b509496929091926135ca6101a2565b9788966020880161354b565b602082018103825203826103f3565b6135f76135f1826134f6565b916134f0565b2090565b61360361190c565b61360957565b5f63d93c066560e01b81528061362160048201610399565b0390fd5b90565b61363c61363761364192613625565b610284565b6101fb565b90565b61364e6002613628565b90565b613659613e96565b61366b613664613644565b60016111d6565b565b90565b61368461367f6136899261366d565b610284565b6101fb565b90565b6136966001613670565b90565b6136ab6136a461368c565b60016111d6565b565b90565b906136c85f6136cd936136c16118db565b50016136ad565b613faa565b90565b6136e75f6136ec926136e06119ef565b50016136ad565b61400d565b90565b906137075f61370c93613700610f47565b50016136ad565b61407b565b90565b613719815f611197565b61374f7f2f658b440c35314f52658ea8a740e05b284cdc84dc9ae01e891f21b8933e7cad916137466101a2565b91829182610cee565b0390a1565b61375c6135fb565b613764613766565b565b61377160015f61340a565b6137796130fe565b6137af7f62e78cea01bee320cd4e420270b5ea74000d11b0c9f74754ebdbfc544b05a258916137a66101a2565b91829182610cee565b0390a1565b6137bc613754565b565b6137d26137cd6137d792610a19565b610284565b6101fb565b90565b156137e157565b5f63f396582760e01b8152806137f960048201610399565b0390fd5b61388f9061381561381060608301611f30565b612cb5565b61383261382d61382760a08401611f30565b15610632565b611f60565b61384f61384a61384460c08401611f30565b15610632565b611f3d565b61388861388261387d61386d6138686040429601611ff7565b6137be565b613877600b6110b0565b906119a5565b6101fb565b916101fb565b10156137da565b565b1561389857565b5f636f085cbd60e11b8152806138b060048201610399565b0390fd5b156138bb57565b5f635c1c168d60e11b8152806138d360048201610399565b0390fd5b6138e360808201611f30565b5f146139095750613906346139006138fa5f611929565b916101fb565b146138b4565b5b565b6139303461392961392361391e5f8601610f58565b6101fb565b916101fb565b1015613891565b3461394361393d5f611929565b916101fb565b1161394f575b50613907565b61395e602061397f9201611160565b61397861397261396d5f611f9f565b610457565b91610457565b1415611fab565b5f613949565b6139dd60206139b37f0000000000000000000000000000000000000000000000000000000000000000610c15565b63543b3af7906139d285926139c66101a2565b95869485938493611022565b835260048301610cee565b03915afa908115613c4f575f91613c21575b50613a026139fc5f611359565b91611359565b145f14613ab457613a327f0000000000000000000000000000000000000000000000000000000000000000610336565b63c6c3bbe692919392813b15613aaf575f613a6091613a6b8296613a546101a2565b98899788968795611022565b855260048501611365565b03925af18015613aaa57613a7e575b505b565b613a9d905f3d8111613aa3575b613a9581836103f3565b810190611028565b5f613a7a565b503d613a8b565b61105a565b61101e565b613b0c6020613ae27f0000000000000000000000000000000000000000000000000000000000000000610c15565b63543b3af790613b018592613af56101a2565b95869485938493611022565b835260048301610cee565b03915afa908115613c1c575f91613bee575b50613b32613b2c6001611359565b91611359565b14613b40575b505050613a7c565b613b697f00000000000000000000000000000000000000000000000000000000000000006102af565b6359508f8f92919392813b15613be9575f613b9791613ba28296613b8b6101a2565b98899788968795611022565b855260048501611365565b03925af18015613be457613bb8575b8080613b38565b613bd7905f3d8111613bdd575b613bcf81836103f3565b810190611028565b5f613bb1565b503d613bc5565b61105a565b61101e565b613c0f915060203d8111613c15575b613c0781836103f3565b810190611318565b5f613b1e565b503d613bfd565b61105a565b613c42915060203d8111613c48575b613c3a81836103f3565b810190611318565b5f6139ef565b503d613c30565b61105a565b613c5d90610287565b90565b613c6990613c54565b90565b613c75906102a3565b90565b905090565b613c885f8092613c78565b0190565b613c9590613c7d565b90565b67ffffffffffffffff8111613cb657613cb26020916103d5565b0190565b6103df565b90613ccd613cc883613c98565b61041c565b918252565b606090565b3d5f14613cf257613ce73d613cbb565b903d5f602084013e5b565b613cfa613cd2565b90613cf0565b15613d0757565b5f634033e4e360e01b815280613d1f60048201610399565b0390fd5b613d38613d3260808301611f30565b15610632565b80613d93575b613d46575b50565b5f80613d67613d62613d5d6020613d8d9601611160565b613c60565b613c6c565b34613d706101a2565b9081613d7b81613c8c565b03925af1613d87613cd7565b50613d00565b5f613d43565b5034613da7613da15f611929565b916101fb565b11613d3e565b5f90565b604090613dda613de19496959396613dd060608401985f850190610ce1565b6020830190610ce1565b01906109a8565b565b5f9060409294959395613e36613df76118db565b97613e27613e03613dad565b989193613e0e6101a2565b94859360046020860163b700961360e01b815201613db1565b602082018103825203826103f3565b9082805282602052602082519201905afa613e4e575b565b9150505f51906020518060201c150290613e4c565b613e74613e6e61190c565b15610632565b613e7a57565b5f638dfc202b60e01b815280613e9260048201610399565b0390fd5b613ea060016110b0565b613eb9613eb3613eae613644565b6101fb565b916101fb565b14613ec057565b5f633ee5aeb560e01b815280613ed860048201610399565b0390fd5b90565b5f5260205f2090565b5490565b613ef581613ee8565b821015613f0f57613f07600191613edf565b910201905f90565b611a02565b91906008613f2f910291613f295f1984613172565b92613172565b9181191691161790565b9190613f4f613f4a613f57936110f7565b611134565b908354613f14565b9055565b9081549168010000000000000000831015613f8b5782613f83916001613f8995018155613eec565b90613f39565b565b6103df565b5490565b90613f9e906110f7565b5f5260205260405f2090565b613fb26118db565b50613fc7613fc182849061409c565b15610632565b5f1461400757613ffd61400292613fe9613fe25f8501613edc565b8290613f5b565b6001613ff65f8501613f90565b9301613f94565b6111d6565b600190565b50505f90565b5f6140219161401a6119ef565b5001613f90565b90565b5f5260205f2090565b61403681613f90565b82101561405057614048600191614024565b910201905f90565b611a02565b61406590600861406a93026101bf565b61266a565b90565b906140789154614055565b90565b614099915f6140939261408c610f47565b500161402d565b9061406d565b90565b6140ba9160016140b5926140ae6118db565b5001613f94565b6110b0565b6140cc6140c65f611929565b916101fb565b14159056","linkReferences":{}},"methodIdentifiers":{"approveWithdraw(bytes32,address,address,bytes32,uint256,uint256,uint256,address,bool)":"7f86a1a8","authority()":"bf7e214f","cancelWithdrawApproval(bytes32)":"ac23b667","deposit(address,bytes32,bytes32,address,uint256)":"57ece64e","depositNonce()":"de35f5cb","getDepositFromHash(bytes32)":"930d9075","getDepositHash((bytes32,bytes32,bytes32,address,uint256,uint256))":"50a4b7be","getDepositHashes(uint256,uint256)":"ac4421cd","getWithdrawApproval(bytes32)":"9211345c","getWithdrawFromHash(bytes32)":"c49d6f69","getWithdrawHash((bytes32,address,bytes32,address,uint256,uint256))":"ee600efc","getWithdrawHashes(uint256,uint256)":"65b13e82","isConsumingScheduledOp()":"8fb36037","lockUnlock()":"0f3fe22f","mintBurn()":"1221c038","pause()":"8456cb59","paused()":"5c975abb","reenableWithdrawApproval(bytes32)":"9cec9904","setAuthority(address)":"7a9e5e4b","setWithdrawDelay(uint256)":"72f0cb30","tokenRegistry()":"9d23c4c7","unpause()":"3f4ba83a","withdraw(bytes32)":"8e19899e","withdrawDelay()":"0288a39c"},"id":59}