{"abi":[{"type":"constructor","inputs":[{"name":"initialAuthority","type":"address","internalType":"address"},{"name":"_tokenRegistry","type":"address","internalType":"contract TokenRegistry"},{"name":"_mintBurn","type":"address","internalType":"contract MintBurn"},{"name":"_lockUnlock","type":"address","internalType":"contract LockUnlock"}],"stateMutability":"nonpayable"},{"type":"function","name":"approveWithdraw","inputs":[{"name":"srcChainKey","type":"bytes32","internalType":"bytes32"},{"name":"token","type":"address","internalType":"address"},{"name":"to","type":"address","internalType":"address"},{"name":"destAccount","type":"bytes32","internalType":"bytes32"},{"name":"amount","type":"uint256","internalType":"uint256"},{"name":"nonce","type":"uint256","internalType":"uint256"},{"name":"fee","type":"uint256","internalType":"uint256"},{"name":"feeRecipient","type":"address","internalType":"address"},{"name":"deductFromAmount","type":"bool","internalType":"bool"}],"outputs":[],"stateMutability":"nonpayable"},{"type":"function","name":"authority","inputs":[],"outputs":[{"name":"","type":"address","internalType":"address"}],"stateMutability":"view"},{"type":"function","name":"cancelWithdrawApproval","inputs":[{"name":"srcChainKey","type":"bytes32","internalType":"bytes32"},{"name":"token","type":"address","internalType":"address"},{"name":"to","type":"address","internalType":"address"},{"name":"destAccount","type":"bytes32","internalType":"bytes32"},{"name":"amount","type":"uint256","internalType":"uint256"},{"name":"nonce","type":"uint256","internalType":"uint256"}],"outputs":[],"stateMutability":"nonpayable"},{"type":"function","name":"deposit","inputs":[{"name":"payer","type":"address","internalType":"address"},{"name":"destChainKey","type":"bytes32","internalType":"bytes32"},{"name":"destAccount","type":"bytes32","internalType":"bytes32"},{"name":"token","type":"address","internalType":"address"},{"name":"amount","type":"uint256","internalType":"uint256"}],"outputs":[],"stateMutability":"nonpayable"},{"type":"function","name":"depositNonce","inputs":[],"outputs":[{"name":"","type":"uint256","internalType":"uint256"}],"stateMutability":"view"},{"type":"function","name":"getDepositFromHash","inputs":[{"name":"depositHash","type":"bytes32","internalType":"bytes32"}],"outputs":[{"name":"deposit_","type":"tuple","internalType":"struct Cl8YBridge.Deposit","components":[{"name":"destChainKey","type":"bytes32","internalType":"bytes32"},{"name":"destTokenAddress","type":"bytes32","internalType":"bytes32"},{"name":"destAccount","type":"bytes32","internalType":"bytes32"},{"name":"from","type":"address","internalType":"address"},{"name":"amount","type":"uint256","internalType":"uint256"},{"name":"nonce","type":"uint256","internalType":"uint256"}]}],"stateMutability":"view"},{"type":"function","name":"getDepositHash","inputs":[{"name":"depositRequest","type":"tuple","internalType":"struct Cl8YBridge.Deposit","components":[{"name":"destChainKey","type":"bytes32","internalType":"bytes32"},{"name":"destTokenAddress","type":"bytes32","internalType":"bytes32"},{"name":"destAccount","type":"bytes32","internalType":"bytes32"},{"name":"from","type":"address","internalType":"address"},{"name":"amount","type":"uint256","internalType":"uint256"},{"name":"nonce","type":"uint256","internalType":"uint256"}]}],"outputs":[{"name":"depositHash","type":"bytes32","internalType":"bytes32"}],"stateMutability":"view"},{"type":"function","name":"getDepositHashes","inputs":[{"name":"index","type":"uint256","internalType":"uint256"},{"name":"count","type":"uint256","internalType":"uint256"}],"outputs":[{"name":"hashes","type":"bytes32[]","internalType":"bytes32[]"}],"stateMutability":"view"},{"type":"function","name":"getWithdrawApproval","inputs":[{"name":"withdrawHash","type":"bytes32","internalType":"bytes32"}],"outputs":[{"name":"approval","type":"tuple","internalType":"struct Cl8YBridge.WithdrawApproval","components":[{"name":"fee","type":"uint256","internalType":"uint256"},{"name":"feeRecipient","type":"address","internalType":"address"},{"name":"approvedAt","type":"uint64","internalType":"uint64"},{"name":"isApproved","type":"bool","internalType":"bool"},{"name":"deductFromAmount","type":"bool","internalType":"bool"},{"name":"cancelled","type":"bool","internalType":"bool"},{"name":"executed","type":"bool","internalType":"bool"}]}],"stateMutability":"view"},{"type":"function","name":"getWithdrawFromHash","inputs":[{"name":"withdrawHash","type":"bytes32","internalType":"bytes32"}],"outputs":[{"name":"withdraw_","type":"tuple","internalType":"struct Cl8YBridge.Withdraw","components":[{"name":"srcChainKey","type":"bytes32","internalType":"bytes32"},{"name":"token","type":"address","internalType":"address"},{"name":"destAccount","type":"bytes32","internalType":"bytes32"},{"name":"to","type":"address","internalType":"address"},{"name":"amount","type":"uint256","internalType":"uint256"},{"name":"nonce","type":"uint256","internalType":"uint256"}]}],"stateMutability":"view"},{"type":"function","name":"getWithdrawHash","inputs":[{"name":"withdrawRequest","type":"tuple","internalType":"struct Cl8YBridge.Withdraw","components":[{"name":"srcChainKey","type":"bytes32","internalType":"bytes32"},{"name":"token","type":"address","internalType":"address"},{"name":"destAccount","type":"bytes32","internalType":"bytes32"},{"name":"to","type":"address","internalType":"address"},{"name":"amount","type":"uint256","internalType":"uint256"},{"name":"nonce","type":"uint256","internalType":"uint256"}]}],"outputs":[{"name":"withdrawHash","type":"bytes32","internalType":"bytes32"}],"stateMutability":"view"},{"type":"function","name":"getWithdrawHashes","inputs":[{"name":"index","type":"uint256","internalType":"uint256"},{"name":"count","type":"uint256","internalType":"uint256"}],"outputs":[{"name":"hashes","type":"bytes32[]","internalType":"bytes32[]"}],"stateMutability":"view"},{"type":"function","name":"isConsumingScheduledOp","inputs":[],"outputs":[{"name":"","type":"bytes4","internalType":"bytes4"}],"stateMutability":"view"},{"type":"function","name":"lockUnlock","inputs":[],"outputs":[{"name":"","type":"address","internalType":"contract LockUnlock"}],"stateMutability":"view"},{"type":"function","name":"mintBurn","inputs":[],"outputs":[{"name":"","type":"address","internalType":"contract MintBurn"}],"stateMutability":"view"},{"type":"function","name":"pause","inputs":[],"outputs":[],"stateMutability":"nonpayable"},{"type":"function","name":"paused","inputs":[],"outputs":[{"name":"","type":"bool","internalType":"bool"}],"stateMutability":"view"},{"type":"function","name":"reenableWithdrawApproval","inputs":[{"name":"srcChainKey","type":"bytes32","internalType":"bytes32"},{"name":"token","type":"address","internalType":"address"},{"name":"to","type":"address","internalType":"address"},{"name":"destAccount","type":"bytes32","internalType":"bytes32"},{"name":"amount","type":"uint256","internalType":"uint256"},{"name":"nonce","type":"uint256","internalType":"uint256"}],"outputs":[],"stateMutability":"nonpayable"},{"type":"function","name":"setAuthority","inputs":[{"name":"newAuthority","type":"address","internalType":"address"}],"outputs":[],"stateMutability":"nonpayable"},{"type":"function","name":"setWithdrawDelay","inputs":[{"name":"newDelay","type":"uint256","internalType":"uint256"}],"outputs":[],"stateMutability":"nonpayable"},{"type":"function","name":"tokenRegistry","inputs":[],"outputs":[{"name":"","type":"address","internalType":"contract TokenRegistry"}],"stateMutability":"view"},{"type":"function","name":"unpause","inputs":[],"outputs":[],"stateMutability":"nonpayable"},{"type":"function","name":"withdraw","inputs":[{"name":"srcChainKey","type":"bytes32","internalType":"bytes32"},{"name":"token","type":"address","internalType":"address"},{"name":"to","type":"address","internalType":"address"},{"name":"destAccount","type":"bytes32","internalType":"bytes32"},{"name":"amount","type":"uint256","internalType":"uint256"},{"name":"nonce","type":"uint256","internalType":"uint256"}],"outputs":[],"stateMutability":"payable"},{"type":"function","name":"withdrawDelay","inputs":[],"outputs":[{"name":"","type":"uint256","internalType":"uint256"}],"stateMutability":"view"},{"type":"event","name":"AuthorityUpdated","inputs":[{"name":"authority","type":"address","indexed":false,"internalType":"address"}],"anonymous":false},{"type":"event","name":"DepositRequest","inputs":[{"name":"destChainKey","type":"bytes32","indexed":true,"internalType":"bytes32"},{"name":"destTokenAddress","type":"bytes32","indexed":true,"internalType":"bytes32"},{"name":"destAccount","type":"bytes32","indexed":true,"internalType":"bytes32"},{"name":"token","type":"address","indexed":false,"internalType":"address"},{"name":"amount","type":"uint256","indexed":false,"internalType":"uint256"},{"name":"nonce","type":"uint256","indexed":false,"internalType":"uint256"}],"anonymous":false},{"type":"event","name":"Paused","inputs":[{"name":"account","type":"address","indexed":false,"internalType":"address"}],"anonymous":false},{"type":"event","name":"Unpaused","inputs":[{"name":"account","type":"address","indexed":false,"internalType":"address"}],"anonymous":false},{"type":"event","name":"WithdrawApprovalCancelled","inputs":[{"name":"withdrawHash","type":"bytes32","indexed":true,"internalType":"bytes32"}],"anonymous":false},{"type":"event","name":"WithdrawApprovalReenabled","inputs":[{"name":"withdrawHash","type":"bytes32","indexed":true,"internalType":"bytes32"}],"anonymous":false},{"type":"event","name":"WithdrawApproved","inputs":[{"name":"withdrawHash","type":"bytes32","indexed":true,"internalType":"bytes32"},{"name":"srcChainKey","type":"bytes32","indexed":true,"internalType":"bytes32"},{"name":"token","type":"address","indexed":true,"internalType":"address"},{"name":"to","type":"address","indexed":false,"internalType":"address"},{"name":"amount","type":"uint256","indexed":false,"internalType":"uint256"},{"name":"nonce","type":"uint256","indexed":false,"internalType":"uint256"},{"name":"fee","type":"uint256","indexed":false,"internalType":"uint256"},{"name":"feeRecipient","type":"address","indexed":false,"internalType":"address"},{"name":"deductFromAmount","type":"bool","indexed":false,"internalType":"bool"}],"anonymous":false},{"type":"event","name":"WithdrawDelayUpdated","inputs":[{"name":"oldDelay","type":"uint256","indexed":false,"internalType":"uint256"},{"name":"newDelay","type":"uint256","indexed":false,"internalType":"uint256"}],"anonymous":false},{"type":"event","name":"WithdrawExecutedWithFee","inputs":[{"name":"withdrawHash","type":"bytes32","indexed":true,"internalType":"bytes32"},{"name":"fee","type":"uint256","indexed":false,"internalType":"uint256"},{"name":"feeRecipient","type":"address","indexed":false,"internalType":"address"},{"name":"feeDeductedFromAmount","type":"bool","indexed":false,"internalType":"bool"}],"anonymous":false},{"type":"event","name":"WithdrawRequest","inputs":[{"name":"srcChainKey","type":"bytes32","indexed":true,"internalType":"bytes32"},{"name":"token","type":"address","indexed":true,"internalType":"address"},{"name":"to","type":"address","indexed":true,"internalType":"address"},{"name":"amount","type":"uint256","indexed":false,"internalType":"uint256"},{"name":"nonce","type":"uint256","indexed":false,"internalType":"uint256"}],"anonymous":false},{"type":"error","name":"AccessManagedInvalidAuthority","inputs":[{"name":"authority","type":"address","internalType":"address"}]},{"type":"error","name":"AccessManagedRequiredDelay","inputs":[{"name":"caller","type":"address","internalType":"address"},{"name":"delay","type":"uint32","internalType":"uint32"}]},{"type":"error","name":"AccessManagedUnauthorized","inputs":[{"name":"caller","type":"address","internalType":"address"}]},{"type":"error","name":"ApprovalCancelled","inputs":[]},{"type":"error","name":"ApprovalExecuted","inputs":[]},{"type":"error","name":"EnforcedPause","inputs":[]},{"type":"error","name":"ExpectedPause","inputs":[]},{"type":"error","name":"FeeRecipientZero","inputs":[]},{"type":"error","name":"FeeTransferFailed","inputs":[]},{"type":"error","name":"IncorrectFeeValue","inputs":[]},{"type":"error","name":"NoFeeViaMsgValueWhenDeductFromAmount","inputs":[]},{"type":"error","name":"NonceAlreadyApproved","inputs":[{"name":"srcChainKey","type":"bytes32","internalType":"bytes32"},{"name":"nonce","type":"uint256","internalType":"uint256"}]},{"type":"error","name":"NotCancelled","inputs":[]},{"type":"error","name":"ReentrancyGuardReentrantCall","inputs":[]},{"type":"error","name":"WithdrawDelayNotElapsed","inputs":[]},{"type":"error","name":"WithdrawNotApproved","inputs":[]}],"bytecode":{"object":"0x60e06040523461009b5761001d610014610215565b929190916102db565b6100256100a0565b6141b761047c823960805181818161031401528181611cbd01526137e4015260a05181818161025701528181611df4015261391b015260c051818181610c2b015281816114ff01528181611a3d01528181611aad01528181611c3e01528181611d6d01528181613765015261389401526141b790f35b6100a6565b60405190565b5f80fd5b601f801991011690565b634e487b7160e01b5f52604160045260245ffd5b906100d2906100aa565b810190811060018060401b038211176100ea57604052565b6100b4565b906101026100fb6100a0565b92836100c8565b565b5f80fd5b60018060a01b031690565b61011c90610108565b90565b61012881610113565b0361012f57565b5f80fd5b905051906101408261011f565b565b61014b90610113565b90565b61015781610142565b0361015e57565b5f80fd5b9050519061016f8261014e565b565b61017a90610113565b90565b61018681610171565b0361018d57565b5f80fd5b9050519061019e8261017d565b565b6101a990610113565b90565b6101b5816101a0565b036101bc57565b5f80fd5b905051906101cd826101ac565b565b608081830312610210576101e5825f8301610133565b9261020d6101f68460208501610162565b936102048160408601610191565b936060016101c0565b90565b610104565b61023361463380380380610228816100ef565b9283398101906101cf565b90919293565b5f1b90565b9061024a5f1991610239565b9181191691161790565b90565b90565b90565b61027161026c61027692610254565b61025a565b610257565b90565b90565b9061029161028c6102989261025d565b610279565b825461023e565b9055565b90565b6102b36102ae6102b89261029c565b61025a565b610257565b90565b906102d06102cb6102d79261029f565b610279565b825461023e565b9055565b6102e49061036f565b6102ef5f600661027c565b6102fc61012c600b6102bb565b60c05260805260a052565b90565b61031e61031961032392610307565b61025a565b610257565b90565b610330600161030a565b90565b61034761034261034c92610257565b61025a565b610257565b90565b9061036461035f61036b92610333565b610279565b825461023e565b9055565b6103789061038c565b61038a610383610326565b600161034f565b565b61039590610397565b565b6103a090610436565b565b906103b360018060a01b0391610239565b9181191691161790565b6103d16103cc6103d692610108565b61025a565b610108565b90565b6103e2906103bd565b90565b6103ee906103d9565b90565b90565b90610409610404610410926103e5565b6103f1565b82546103a2565b9055565b61041d90610113565b9052565b9190610434905f60208501940190610414565b565b610440815f6103f4565b6104767f2f658b440c35314f52658ea8a740e05b284cdc84dc9ae01e891f21b8933e7cad9161046d6100a0565b91829182610421565b0390a156fe60806040526004361015610013575b610f85565b61001d5f3561019c565b80630288a39c146101975780630f3fe22f146101925780631221c0381461018d578063248426f4146101885780633f4ba83a1461018357806350a4b7be1461017e57806357ece64e146101795780635c975abb1461017457806365b13e821461016f57806372f0cb301461016a5780637a9e5e4b146101655780637f86a1a8146101605780638456cb591461015b5780638fb36037146101565780639211345c14610151578063930d90751461014c5780639d23c4c714610147578063abc1857e14610142578063ac4421cd1461013d578063bf7e214f14610138578063c49d6f6914610133578063c6c18fb41461012e578063de35f5cb146101295763ee600efc0361000e57610f50565b610e76565b610e2d565b610df8565b610d42565b610cea565b610cb0565b610c7b565b610bf4565b610b3e565b610a17565b6109b6565b610979565b610893565b610842565b6107ee565b6106ed565b61068f565b610604565b6104aa565b61047a565b610364565b6102dd565b610220565b60e01c90565b60405190565b5f80fd5b5f80fd5b5f9103126101ba57565b6101ac565b1c90565b90565b6101d69060086101db93026101bf565b6101c3565b90565b906101e991546101c6565b90565b6101f8600b5f906101de565b90565b90565b610207906101fb565b9052565b919061021e905f602085019401906101fe565b565b34610250576102303660046101b0565b61024c61023b6101ec565b6102436101a2565b9182918261020b565b0390f35b6101a8565b7f000000000000000000000000000000000000000000000000000000000000000090565b60018060a01b031690565b90565b61029b6102966102a092610279565b610284565b610279565b90565b6102ac90610287565b90565b6102b8906102a3565b90565b6102c4906102af565b9052565b91906102db905f602085019401906102bb565b565b3461030d576102ed3660046101b0565b6103096102f8610255565b6103006101a2565b918291826102c8565b0390f35b6101a8565b7f000000000000000000000000000000000000000000000000000000000000000090565b61033f906102a3565b90565b61034b90610336565b9052565b9190610362905f60208501940190610342565b565b34610394576103743660046101b0565b61039061037f610312565b6103876101a2565b9182918261034f565b0390f35b6101a8565b90565b6103a581610399565b036103ac57565b5f80fd5b905035906103bd8261039c565b565b6103c890610279565b90565b6103d4816103bf565b036103db57565b5f80fd5b905035906103ec826103cb565b565b6103f7816101fb565b036103fe57565b5f80fd5b9050359061040f826103ee565b565b909160c08284031261047057610429835f84016103b0565b9261043781602085016103df565b9261044582604083016103df565b9261046d61045684606085016103b0565b936104648160808601610402565b9360a001610402565b90565b6101ac565b5f0190565b610494610488366004610411565b94939093929192611741565b61049c6101a2565b806104a681610475565b0390f35b346104d8576104ba3660046101b0565b6104c261177e565b6104ca6101a2565b806104d481610475565b0390f35b6101a8565b5f80fd5b601f801991011690565b634e487b7160e01b5f52604160045260245ffd5b90610509906104e1565b810190811067ffffffffffffffff82111761052357604052565b6104eb565b9061053b6105346101a2565b92836104ff565b565b919060c0838203126105bf576105b89061055760c0610528565b93610564825f83016103b0565b5f86015261057582602083016103b0565b602086015261058782604083016103b0565b604086015261059982606083016103df565b60608601526105ab8260808301610402565b608086015260a001610402565b60a0830152565b6104dd565b9060c0828203126105dd576105da915f0161053d565b90565b6101ac565b6105eb90610399565b9052565b9190610602905f602085019401906105e2565b565b346106345761063061061f61061a3660046105c4565b61178c565b6106276101a2565b918291826105ef565b0390f35b6101a8565b919060a08382031261068a57610651815f85016103df565b9261065f82602083016103b0565b9261068761067084604085016103b0565b9361067e81606086016103df565b93608001610402565b90565b6101ac565b346106c1576106ab6106a2366004610639565b93929092611f6b565b6106b36101a2565b806106bd81610475565b0390f35b6101a8565b151590565b6106d4906106c6565b9052565b91906106eb905f602085019401906106cb565b565b3461071d576106fd3660046101b0565b610719610708611fa5565b6107106101a2565b918291826106d8565b0390f35b6101a8565b919060408382031261074a578061073e610747925f8601610402565b93602001610402565b90565b6101ac565b5190565b60209181520190565b60200190565b61076b90610399565b9052565b9061077c81602093610762565b0190565b60200190565b906107a361079d6107968461074f565b8093610753565b9261075c565b905f5b8181106107b35750505090565b9091926107cc6107c6600192865161076f565b94610780565b91019190916107a6565b6107eb9160208201915f818403910152610786565b90565b3461081f5761081b61080a610804366004610722565b906120cf565b6108126101a2565b918291826107d6565b0390f35b6101a8565b9060208282031261083d5761083a915f01610402565b90565b6101ac565b346108705761085a610855366004610824565b61223a565b6108626101a2565b8061086c81610475565b0390f35b6101a8565b9060208282031261088e5761088b915f016103df565b90565b6101ac565b346108c1576108ab6108a6366004610875565b612245565b6108b36101a2565b806108bd81610475565b0390f35b6101a8565b6108cf816106c6565b036108d657565b5f80fd5b905035906108e7826108c6565b565b90916101208284031261097457610902835f84016103b0565b9261091081602085016103df565b9261091e82604083016103df565b9261092c83606084016103b0565b9261093a8160808501610402565b926109488260a08301610402565b926109716109598460c08501610402565b936109678160e086016103df565b93610100016108da565b90565b6101ac565b346109b15761099b61098c3660046108e9565b97969096959195949294612908565b6109a36101a2565b806109ad81610475565b0390f35b6101a8565b346109e4576109c63660046101b0565b6109ce612948565b6109d66101a2565b806109e081610475565b0390f35b6101a8565b63ffffffff60e01b1690565b6109fe906109e9565b9052565b9190610a15905f602085019401906109f5565b565b34610a4757610a273660046101b0565b610a43610a326129c4565b610a3a6101a2565b91829182610a02565b0390f35b6101a8565b90602082820312610a6557610a62915f016103b0565b90565b6101ac565b610a73906101fb565b9052565b610a80906103bf565b9052565b67ffffffffffffffff1690565b610a9a90610a84565b9052565b610aa7906106c6565b9052565b9060c080610b2793610ac35f8201515f860190610a6a565b610ad560208201516020860190610a77565b610ae760408201516040860190610a91565b610af960608201516060860190610a9e565b610b0b60808201516080860190610a9e565b610b1d60a082015160a0860190610a9e565b0151910190610a9e565b565b9190610b3c905f60e08501940190610aab565b565b34610b6e57610b6a610b59610b54366004610a4c565b612a78565b610b616101a2565b91829182610b29565b0390f35b6101a8565b9060a080610bdd93610b8b5f8201515f860190610762565b610b9d60208201516020860190610762565b610baf60408201516040860190610762565b610bc160608201516060860190610a77565b610bd360808201516080860190610a6a565b0151910190610a6a565b565b9190610bf2905f60c08501940190610b73565b565b34610c2457610c20610c0f610c0a366004610a4c565b612bd2565b610c176101a2565b91829182610bdf565b0390f35b6101a8565b7f000000000000000000000000000000000000000000000000000000000000000090565b610c56906102a3565b90565b610c6290610c4d565b9052565b9190610c79905f60208501940190610c59565b565b34610cab57610c8b3660046101b0565b610ca7610c96610c29565b610c9e6101a2565b91829182610c66565b0390f35b6101a8565b34610ce557610ccf610cc3366004610411565b94939093929192612d36565b610cd76101a2565b80610ce181610475565b0390f35b6101a8565b34610d1b57610d17610d06610d00366004610722565b90612d46565b610d0e6101a2565b918291826107d6565b0390f35b6101a8565b610d29906103bf565b9052565b9190610d40905f60208501940190610d20565b565b34610d7257610d523660046101b0565b610d6e610d5d612e40565b610d656101a2565b91829182610d2d565b0390f35b6101a8565b9060a080610de193610d8f5f8201515f860190610762565b610da160208201516020860190610a77565b610db360408201516040860190610762565b610dc560608201516060860190610a77565b610dd760808201516080860190610a6a565b0151910190610a6a565b565b9190610df6905f60c08501940190610d77565b565b34610e2857610e24610e13610e0e366004610a4c565b612f68565b610e1b6101a2565b91829182610de3565b0390f35b6101a8565b34610e6257610e4c610e40366004610411565b949390939291926130f8565b610e546101a2565b80610e5e81610475565b0390f35b6101a8565b610e7360065f906101de565b90565b34610ea657610e863660046101b0565b610ea2610e91610e67565b610e996101a2565b9182918261020b565b0390f35b6101a8565b919060c083820312610f2d57610f2690610ec560c0610528565b93610ed2825f83016103b0565b5f860152610ee382602083016103df565b6020860152610ef582604083016103b0565b6040860152610f0782606083016103df565b6060860152610f198260808301610402565b608086015260a001610402565b60a0830152565b6104dd565b9060c082820312610f4b57610f48915f01610eab565b90565b6101ac565b34610f8057610f7c610f6b610f66366004610f32565b61314c565b610f736101a2565b918291826105ef565b0390f35b6101a8565b5f80fd5b90610fb09594939291610fab610f9d6131c1565b610fa56131d4565b91613353565b610fb2565b565b90610fc89594939291610fc361349c565b610fca565b565b90610fe09594939291610fdb6134f2565b6114f5565b610fe861353a565b565b5f80fd5b60e01b90565b5f910312610ffe57565b6101ac565b91602061102492949361101d60408201965f830190610d20565b01906105e2565b565b61102e6101a2565b3d5f823e3d90fd5b61104060c0610528565b90565b9061104d90610399565b9052565b9061105b906103bf565b9052565b90611069906101fb565b9052565b61107690610399565b90565b906110839061106d565b5f5260205260405f2090565b5f1c90565b6110a06110a59161108f565b6101c3565b90565b6110b29054611094565b90565b60018060a01b031690565b6110cc6110d19161108f565b6110b5565b90565b6110de90546110c0565b90565b60a01c90565b67ffffffffffffffff1690565b611100611105916110e1565b6110e7565b90565b61111290546110f4565b90565b9061111f90610a84565b9052565b60ff1690565b61113561113a9161019c565b611123565b90565b6111479054611129565b90565b90611154906106c6565b9052565b60e81c90565b61116a61116f91611158565b611123565b90565b61117c905461115e565b90565b60f01c90565b6111916111969161117f565b611123565b90565b6111a39054611185565b90565b60f81c90565b6111b86111bd916111a6565b611123565b90565b6111ca90546111ac565b90565b6111d760e0610528565b90565b9061128461127b60016111eb6111cd565b946112026111fa5f83016110a8565b5f880161105f565b6112196112108383016110d4565b60208801611051565b611230611227838301611108565b60408801611115565b61124761123e83830161113d565b6060880161114a565b61125e611255838301611172565b6080880161114a565b61127561126c838301611199565b60a0880161114a565b016111c0565b60c0840161114a565b565b61128f906111da565b90565b60f81b90565b906112a760ff60f81b91611292565b9181191691161790565b6112ba906106c6565b90565b90565b906112d56112d06112dc926112b1565b6112bd565b8254611298565b9055565b90565b906112ed9061106d565b5f5260205260405f2090565b6113039051610399565b90565b5f1b90565b906113175f1991611306565b9181191691161790565b61132a9061108f565b90565b9061134261133d6113499261106d565b611321565b825461130b565b9055565b61135790516103bf565b90565b9061136b60018060a01b0391611306565b9181191691161790565b61137e906102a3565b90565b90565b906113996113946113a092611375565b611381565b825461135a565b9055565b6113ae90516101fb565b90565b6113c56113c06113ca926101fb565b610284565b6101fb565b90565b90565b906113e56113e06113ec926113b1565b6113cd565b825461130b565b9055565b9061147f60a06005611485946114135f820161140d5f88016112f9565b9061132d565b61142c600182016114266020880161134d565b90611384565b6114456002820161143f604088016112f9565b9061132d565b61145e600382016114586060880161134d565b90611384565b61147760048201611471608088016113a4565b906113d0565b0192016113a4565b906113d0565b565b90611491916113f0565b565b9160206114b49294936114ad60408201965f8301906101fe565b01906101fe565b565b6114c090516106c6565b90565b6040906114ec6114f394969593966114e260608401985f8501906101fe565b6020830190610d20565b01906106cb565b565b93919094926115237f0000000000000000000000000000000000000000000000000000000000000000610c4d565b63db1303ea878792803b1561173c5761154e5f936115596115426101a2565b96879586948594610fee565b845260048401611003565b03915afa80156117375761170b575b506115c285916115b988916115b0866115a7899361159e8c9761159561158c611036565b9b5f8d01611043565b60208b01611051565b60408901611043565b60608701611051565b6080850161105f565b60a0830161105f565b946115cc8661314c565b946116356115e46115df60098990611079565b611286565b976115ee896135b0565b6115f78961368a565b61160f60018061160960098c90611079565b016112c0565b61162361161c60026112e0565b899061373b565b50611630600789906112e3565b611487565b6116418284869161375b565b61164a87613af9565b9091929361168a61168461167e7f3c4ed62fb7ce991dc39e73806120e885618eb76dd87482feb184ede130d42c339461106d565b94611375565b94611375565b9461169f6116966101a2565b92839283611493565b0390a46116ad5f83016113a4565b916116c660806116bf6020840161134d565b92016114b6565b926117066116f47f9091ddfd1914253eabb8ed215e6132a5de188489c3f3ad535d62fa8acf456e529461106d565b946116fd6101a2565b938493846114c3565b0390a2565b61172a905f3d8111611730575b61172281836104ff565b810190610ff4565b5f611568565b503d611718565b611026565b610fea565b9061174f9594939291610f89565b565b61176a61175c6131c1565b6117646131d4565b91613353565b611772611774565b565b61177c613c21565b565b611786611751565b565b5f90565b6117e490611798611788565b506117a1613ca4565b906117ad5f82016112f9565b6117b9602083016112f9565b6117c5604084016112f9565b916117de60a06117d7608087016113a4565b95016113a4565b94613d50565b90565b906117fc949392916117f761349c565b6117fe565b565b906118249493929161181f6118116131c1565b6118196131d4565b91613353565b611826565b565b9061183b949392916118366134f2565b611a36565b61184361353a565b565b905051906118528261039c565b565b9060208282031261186d5761186a915f01611845565b90565b6101ac565b61187c60c0610528565b90565b906118899061106d565b5f5260205260405f2090565b9061192460a0600561192a946118b85f82016118b25f88016112f9565b9061132d565b6118d1600182016118cb602088016112f9565b9061132d565b6118ea600282016118e4604088016112f9565b9061132d565b611903600382016118fd6060880161134d565b90611384565b61191c60048201611916608088016113a4565b906113d0565b0192016113a4565b906113d0565b565b9061193691611895565b565b604090611961611968949695939661195760608401985f850190610d20565b60208301906101fe565b01906101fe565b565b634e487b7160e01b5f52601160045260245ffd5b611987906101fb565b5f1981146119955760010190565b61196a565b600211156119a457565b5f80fd5b905051906119b58261199a565b565b906020828203126119d0576119cd915f016119a8565b90565b6101ac565b634e487b7160e01b5f52602160045260245ffd5b600211156119f357565b6119d5565b90611a02826119e9565b565b604090611a2d611a349496959396611a2360608401985f850190610d20565b6020830190610d20565b01906101fe565b565b9291611a617f0000000000000000000000000000000000000000000000000000000000000000610c4d565b63db1303ea848492803b15611f6657611a8c5f93611a97611a806101a2565b96879586948594610fee565b845260048401611003565b03915afa8015611f6157611f35575b5081611ad17f0000000000000000000000000000000000000000000000000000000000000000610c4d565b90602063aa2fc98d928690611af88795611b03611aec6101a2565b97889586948594610fee565b845260048401611003565b03915afa908115611f3057611b7c602092611bb6945f91611f03575b50611b7386611b6a8c611b618d9193611b58611b3b60066110a8565b97611b50611b47611872565b9b5f8d01611043565b8b8b01611043565b60408901611043565b60608701611051565b6080850161105f565b60a0830161105f565b93611baf611b898661178c565b611b9d611b9660046112e0565b829061373b565b50611baa8791600861187f565b61192c565b93016112f9565b839286611bc360066110a8565b94611c15611c03611bfd611bf77f6960733c1ac63ac84b84fa10df381b35b87dcc712dbd73a3005921960272ad099661106d565b9661106d565b9661106d565b96611c0c6101a2565b93849384611938565b0390a4611c34611c2d611c2860066110a8565b61197e565b60066113d0565b611c8c6020611c627f0000000000000000000000000000000000000000000000000000000000000000610c4d565b63543b3af790611c818592611c756101a2565b95869485938493610fee565b835260048301610d2d565b03915afa908115611efe575f91611ed0575b50611cb1611cab5f6119f8565b916119f8565b145f14611d6357611ce17f0000000000000000000000000000000000000000000000000000000000000000610336565b63f6b911bc92919392813b15611d5e575f611d0f91611d1a8296611d036101a2565b98899788968795610fee565b855260048501611a04565b03925af18015611d5957611d2d575b505b565b611d4c905f3d8111611d52575b611d4481836104ff565b810190610ff4565b5f611d29565b503d611d3a565b611026565b610fea565b611dbb6020611d917f0000000000000000000000000000000000000000000000000000000000000000610c4d565b63543b3af790611db08592611da46101a2565b95869485938493610fee565b835260048301610d2d565b03915afa908115611ecb575f91611e9d575b50611de1611ddb60016119f8565b916119f8565b14611def575b505050611d2b565b611e187f00000000000000000000000000000000000000000000000000000000000000006102af565b637750c9f092919392813b15611e98575f611e4691611e518296611e3a6101a2565b98899788968795610fee565b855260048501611a04565b03925af18015611e9357611e67575b8080611de7565b611e86905f3d8111611e8c575b611e7e81836104ff565b810190610ff4565b5f611e60565b503d611e74565b611026565b610fea565b611ebe915060203d8111611ec4575b611eb681836104ff565b8101906119b7565b5f611dcd565b503d611eac565b611026565b611ef1915060203d8111611ef7575b611ee981836104ff565b8101906119b7565b5f611c9e565b503d611edf565b611026565b611f239150843d8111611f29575b611f1b81836104ff565b810190611854565b5f611b1f565b503d611f11565b611026565b611f54905f3d8111611f5a575b611f4c81836104ff565b810190610ff4565b5f611aa6565b503d611f42565b611026565b610fea565b90611f78949392916117e7565b565b5f90565b60a81c90565b611f90611f9591611f7e565b611123565b90565b611fa29054611f84565b90565b611fad611f7a565b50611fb75f611f98565b90565b606090565b90565b611fd6611fd1611fdb92611fbf565b610284565b6101fb565b90565b67ffffffffffffffff8111611ff65760208091020190565b6104eb565b9061200d61200883611fde565b610528565b918252565b369037565b9061203c61202483611ffb565b926020806120328693611fde565b9201910390612012565b565b61204d612053919392936101fb565b926101fb565b820180921161205e57565b61196a565b612072612078919392936101fb565b926101fb565b820391821161208357565b61196a565b5f90565b600161209891016101fb565b90565b634e487b7160e01b5f52603260045260245ffd5b906120b98261074f565b8110156120ca576020809102010190565b61209b565b6120d7611fba565b506120ea6120e560026112e0565b613da5565b816120fd6120f7836101fb565b916101fb565b10156121ae5761210e82849061203e565b61212061211a836101fb565b916101fb565b1161219a575b5061213082612017565b92612139612088565b5b8061214d612147866101fb565b916101fb565b10156121945761218f9061218a61217861216760026112e0565b61217287859061203e565b90613dc4565b61218588918490926120af565b611043565b61208c565b61213a565b50915050565b6121a79192508290612063565b905f612126565b5050506121c26121bd5f611fc2565b612017565b90565b6121e7906121e26121d46131c1565b6121dc6131d4565b91613353565b6121e9565b565b6121f3600b6110a8565b6121fe82600b6113d0565b907f608f88597c1be343fb8b88747f4efa4d4f71538b3e3203d084d9e5e6fed29d619161223561222c6101a2565b92839283611493565b0390a1565b612243906121c5565b565b61224d6131c1565b8061226761226161225c612e40565b6103bf565b916103bf565b036122b05750803b61228161227b5f611fc2565b916101fb565b146122915761228f90613de4565b565b6122ac905f9182916361798f2f60e11b835260048301610d2d565b0390fd5b6122ca905f91829162d1953b60e31b835260048301610d2d565b0390fd5b906122f898979695949392916122f36122e56131c1565b6122ed6131d4565b91613353565b6122fa565b565b90612313989796959493929161230e61349c565b6126d7565b565b9061231f9061106d565b5f5260205260405f2090565b90612335906113b1565b5f5260205260405f2090565b61234d6123529161108f565b611123565b90565b61235f9054612341565b90565b91602061238392949361237c60408201965f8301906105e2565b01906101fe565b565b1561238e575050565b6123a85f928392634032ac6d60e11b845260048401612362565b0390fd5b156123b357565b5f630aaf476560e01b8152806123cb60048201610475565b0390fd5b156123d657565b5f6353b2f99960e11b8152806123ee60048201610475565b0390fd5b61240661240161240b92611fbf565b610284565b610279565b90565b612417906123f2565b90565b1561242157565b5f632509d95760e01b81528061243960048201610475565b0390fd5b61245161244c612456926101fb565b610284565b610a84565b90565b61246360e0610528565b90565b6124709051610a84565b90565b60a01b90565b9061248f67ffffffffffffffff60a01b91612473565b9181191691161790565b6124ad6124a86124b292610a84565b610284565b610a84565b90565b90565b906124cd6124c86124d492612499565b6124b5565b8254612479565b9055565b906124e760ff60e01b91610fee565b9181191691161790565b9061250661250161250d926112b1565b6112bd565b82546124d8565b9055565b60e81b90565b9061252660ff60e81b91612511565b9181191691161790565b9061254561254061254c926112b1565b6112bd565b8254612517565b9055565b60f01b90565b9061256560ff60f01b91612550565b9181191691161790565b9061258461257f61258b926112b1565b6112bd565b8254612556565b9055565b9061263260c06001612638946125b25f82016125ac5f88016113a4565b906113d0565b6125ca8282016125c46020880161134d565b90611384565b6125e28282016125dc60408801612466565b906124b8565b6125fa8282016125f4606088016114b6565b906124f1565b61261282820161260c608088016114b6565b90612530565b61262a82820161262460a088016114b6565b9061256f565b0192016114b6565b906112c0565b565b906126449161258f565b565b9061265260ff91611306565b9181191691161790565b9061267161266c612678926112b1565b6112bd565b8254612646565b9055565b91946126c46126ce929897956126ba60a0966126b06126d59a6126a660c08a019e5f8b0190610d20565b60208901906101fe565b60408701906101fe565b60608501906101fe565b6080830190610d20565b01906106cb565b565b9493929761274782612742859a94999b612739896127308a6127276128d99b8f61271e9099979193959761271561270c611036565b9b5f8d01611043565b60208b01611051565b60408901611043565b60608701611051565b6080850161105f565b60a0830161105f565b61314c565b61277961277161276b61276661275f600a8c90612315565b8a9061232b565b612355565b156106c6565b888891612385565b6127c66127c16127bb60a061279861279360098790611079565b611286565b6127b56127b06127aa60c084016114b6565b156106c6565b6123ac565b016114b6565b156106c6565b6123cf565b896127d96127d35f611fc2565b916101fb565b116128de575b6128625f6128518c6128488761283f6127f74261243d565b612836600161282d8c936128248b9761281b8d9b612813612459565b9e8f0161105f565b60208d01611051565b60408b01611115565b6060890161114a565b6080870161114a565b60a0850161114a565b60c0830161114a565b61285d60098490611079565b61263a565b612882600161287d612876600a8b90612315565b899061232b565b61265c565b9596979394989190916128c76128c16128bb7fe9c6fcc209e99f20220bb87e197c5584cdd23cee08c7919db0d702ee7dc2c8a29961106d565b9961106d565b99611375565b996128d06101a2565b9687968761267c565b0390a4565b612903836128fc6128f66128f15f61240e565b6103bf565b916103bf565b141561241a565b6127df565b9061291998979695949392916122ce565b565b6129346129266131c1565b61292e6131d4565b91613353565b61293c61293e565b565b612946613e89565b565b61295061291b565b565b5f90565b612962612967916110e1565b611123565b90565b6129749054612956565b90565b61298b61298661299092611fbf565b610fee565b6109e9565b90565b61299c906102a3565b90565b63ffffffff1690565b6129bc6129b76129c19261299f565b610fee565b6109e9565b90565b6129cc612952565b506129d65f61296a565b5f146129ed576129e9638fb360376129a8565b5b90565b6129f65f612977565b6129ea565b5f90565b5f90565b5f90565b5f90565b612a136111cd565b90602080808080808088612a256129fb565b815201612a306129ff565b815201612a3b612a03565b815201612a46612a07565b815201612a51612a07565b815201612a5c612a07565b815201612a67612a07565b81525050565b612a75612a0b565b90565b612a8f612a9491612a87612a6d565b506009611079565b611286565b90565b612aa160c0610528565b90565b5f90565b612ab0612a97565b906020808080808087612ac1612aa4565b815201612acc612aa4565b815201612ad7612aa4565b815201612ae26129ff565b815201612aed6129fb565b815201612af86129fb565b81525050565b612b06612aa8565b90565b90565b612b18612b1d9161108f565b612b09565b90565b612b2a9054612b0c565b90565b90612bc4612bbb6005612b3e612a97565b94612b55612b4d5f8301612b20565b5f8801611043565b612b6d612b6460018301612b20565b60208801611043565b612b85612b7c60028301612b20565b60408801611043565b612b9d612b94600383016110d4565b60608801611051565b612bb5612bac600483016110a8565b6080880161105f565b016110a8565b60a0840161105f565b565b612bcf90612b2d565b90565b612be9612bee91612be1612afe565b50600861187f565b612bc6565b90565b90612c189594939291612c13612c056131c1565b612c0d6131d4565b91613353565b612c1a565b565b90612c309594939291612c2b61349c565b612c35565b565b90565b94612c82612c8b9295612c79612c949695612c70612c999a999791939597612c67612c5e611036565b9b5f8d01611043565b60208b01611051565b60408901611043565b60608701611051565b6080850161105f565b60a0830161105f565b61314c565b612cf4612cb0612cab60098490611079565b612c32565b612ccd612cc8612cc260018401611199565b156106c6565b6123cf565b612cea612ce5612cdf600184016111c0565b156106c6565b6123ac565b600180910161256f565b612d1e7f2e274839df955d18079b80e616111416908cb01905936758bf016d0dbd6ca30c9161106d565b90612d276101a2565b80612d3181610475565b0390a2565b90612d449594939291612bf1565b565b612d4e611fba565b50612d61612d5c60046112e0565b613da5565b81612d74612d6e836101fb565b916101fb565b1015612e2557612d8582849061203e565b612d97612d91836101fb565b916101fb565b11612e11575b50612da782612017565b92612db0612088565b5b80612dc4612dbe866101fb565b916101fb565b1015612e0b57612e0690612e01612def612dde60046112e0565b612de987859061203e565b90613dc4565b612dfc88918490926120af565b611043565b61208c565b612db1565b50915050565b612e1e9192508290612063565b905f612d9d565b505050612e39612e345f611fc2565b612017565b90565b5f90565b612e48612e3c565b50612e525f6110d4565b90565b612e5f60c0610528565b90565b612e6a612e55565b906020808080808087612e7b612aa4565b815201612e866129ff565b815201612e91612aa4565b815201612e9c6129ff565b815201612ea76129fb565b815201612eb26129fb565b81525050565b612ec0612e62565b90565b90612f5a612f516005612ed4612e55565b94612eeb612ee35f8301612b20565b5f8801611043565b612f03612efa600183016110d4565b60208801611051565b612f1b612f1260028301612b20565b60408801611043565b612f33612f2a600383016110d4565b60608801611051565b612f4b612f42600483016110a8565b6080880161105f565b016110a8565b60a0840161105f565b565b612f6590612ec3565b90565b612f7f612f8491612f77612eb8565b5060076112e3565b612f5c565b90565b90612fae9594939291612fa9612f9b6131c1565b612fa36131d4565b91613353565b612fb0565b565b90612fc69594939291612fc161349c565b612feb565b565b15612fcf57565b5f632069e45f60e11b815280612fe760048201610475565b0390fd5b94613038613041929561302f61304a969561302661304f9a99979193959761301d613014611036565b9b5f8d01611043565b60208b01611051565b60408901611043565b60608701611051565b6080850161105f565b60a0830161105f565b61314c565b6130b661306661306160098490611079565b612c32565b61307a61307560018301611199565b612fc8565b61309761309261308c600184016111c0565b156106c6565b6123ac565b6130a45f6001830161256f565b60016130af4261243d565b91016124b8565b6130e07fb0d9959a4c756ad50b484cc23f020a922fa2f442b9132ae31957aef735ec0ac79161106d565b906130e96101a2565b806130f381610475565b0390a2565b906131069594939291612f87565b565b61311190610287565b90565b61312861312361312d92610279565b610284565b6101fb565b90565b61314461313f613149926101fb565b611306565b610399565b90565b6131be90613158611788565b50613161613ca4565b9061318661318161317c6131776020850161134d565b613108565b613114565b613130565b6131915f83016112f9565b929061319f604084016112f9565b916131b860a06131b1608087016113a4565b95016113a4565b94613d50565b90565b6131c9612e3c565b503390565b36905f90565b6131dc6131ce565b9050505f903690565b90565b6131fc6131f7613201926131e5565b610284565b6101fb565b90565b5f80fd5b5f80fd5b9093929384831161322c578411613227576001820201920390565b613208565b613204565b5090565b1b90565b9061324761324e9183613231565b91356109e9565b906004811061325c575b5090565b6132749063ffffffff60e01b90600403600802613235565b165f613258565b61328f61328a61329492611fbf565b610284565b61299f565b90565b906132a660ff60a01b91612473565b9181191691161790565b906132c56132c06132cc926112b1565b6112bd565b8254613297565b9055565b6132d990610287565b90565b6132e5906132d0565b90565b6132f1906102a3565b90565b60209181520190565b90825f939282370152565b91906133228161331b81613327956132f4565b80956132fd565b6104e1565b0190565b9161335093919261334360408201945f830190610d20565b6020818503910152613308565b90565b906133a561339d613362612e40565b8461336c30612993565b90613397613391878a5f9061338b613385600493611fc2565b926131e8565b9261320c565b90613239565b92613ec9565b9190156106c6565b6133b0575b50505050565b6133c26133bc5f61327b565b9161299f565b115f1461347e576133d460015f6132b0565b6133ec6133e76133e2612e40565b6132dc565b6132e8565b6394c7d7ee92919392813b15613479575f61341a91613425829661340e6101a2565b98899788968795610fee565b85526004850161332b565b03925af1801561347457613448575b5061343f5f5f6132b0565b5f8080806133aa565b613467905f3d811161346d575b61345f81836104ff565b810190610ff4565b5f613434565b503d613455565b611026565b610fea565b613498825f91829162d1953b60e31b835260048301610d2d565b0390fd5b6134a4611fa5565b6134aa57565b5f63d93c066560e01b8152806134c260048201610475565b0390fd5b90565b6134dd6134d86134e2926134c6565b610284565b6101fb565b90565b6134ef60026134c9565b90565b6134fa613f49565b61350c6135056134e5565b60016113d0565b565b90565b61352561352061352a9261350e565b610284565b6101fb565b90565b6135376001613511565b90565b61354c61354561352d565b60016113d0565b565b1561355557565b5f6336d2baeb60e21b81528061356d60048201610475565b0390fd5b61358561358061358a92610a84565b610284565b6101fb565b90565b1561359457565b5f63f396582760e01b8152806135ac60048201610475565b0390fd5b613642906135c86135c3606083016114b6565b61354e565b6135e56135e06135da60a084016114b6565b156106c6565b6123cf565b6136026135fd6135f760c084016114b6565b156106c6565b6123ac565b61363b61363561363061362061361b6040429601612466565b613571565b61362a600b6110a8565b9061203e565b6101fb565b916101fb565b101561358d565b565b1561364b57565b5f636f085cbd60e11b81528061366360048201610475565b0390fd5b1561366e57565b5f635c1c168d60e11b81528061368660048201610475565b0390fd5b613696608082016114b6565b5f146136bc57506136b9346136b36136ad5f611fc2565b916101fb565b14613667565b5b565b6136e3346136dc6136d66136d15f86016113a4565b6101fb565b916101fb565b1015613644565b346136f66136f05f611fc2565b916101fb565b11613702575b506136ba565b6137116020613732920161134d565b61372b6137256137205f61240e565b6103bf565b916103bf565b141561241a565b5f6136fc565b90565b906137535f6137589361374c611f7a565b5001613738565b61405d565b90565b6137b360206137897f0000000000000000000000000000000000000000000000000000000000000000610c4d565b63543b3af7906137a8859261379c6101a2565b95869485938493610fee565b835260048301610d2d565b03915afa908115613a25575f916139f7575b506137d86137d25f6119f8565b916119f8565b145f1461388a576138087f0000000000000000000000000000000000000000000000000000000000000000610336565b63c6c3bbe692919392813b15613885575f61383691613841829661382a6101a2565b98899788968795610fee565b855260048501611a04565b03925af1801561388057613854575b505b565b613873905f3d8111613879575b61386b81836104ff565b810190610ff4565b5f613850565b503d613861565b611026565b610fea565b6138e260206138b87f0000000000000000000000000000000000000000000000000000000000000000610c4d565b63543b3af7906138d785926138cb6101a2565b95869485938493610fee565b835260048301610d2d565b03915afa9081156139f2575f916139c4575b5061390861390260016119f8565b916119f8565b14613916575b505050613852565b61393f7f00000000000000000000000000000000000000000000000000000000000000006102af565b6359508f8f92919392813b156139bf575f61396d9161397882966139616101a2565b98899788968795610fee565b855260048501611a04565b03925af180156139ba5761398e575b808061390e565b6139ad905f3d81116139b3575b6139a581836104ff565b810190610ff4565b5f613987565b503d61399b565b611026565b610fea565b6139e5915060203d81116139eb575b6139dd81836104ff565b8101906119b7565b5f6138f4565b503d6139d3565b611026565b613a18915060203d8111613a1e575b613a1081836104ff565b8101906119b7565b5f6137c5565b503d613a06565b611026565b613a3390610287565b90565b613a3f90613a2a565b90565b613a4b906102a3565b90565b905090565b613a5e5f8092613a4e565b0190565b613a6b90613a53565b90565b67ffffffffffffffff8111613a8c57613a886020916104e1565b0190565b6104eb565b90613aa3613a9e83613a6e565b610528565b918252565b606090565b3d5f14613ac857613abd3d613a91565b903d5f602084013e5b565b613ad0613aa8565b90613ac6565b15613add57565b5f634033e4e360e01b815280613af560048201610475565b0390fd5b613b0e613b08608083016114b6565b156106c6565b80613b69575b613b1c575b50565b5f80613b3d613b38613b336020613b63960161134d565b613a36565b613a42565b34613b466101a2565b9081613b5181613a62565b03925af1613b5d613aad565b50613ad6565b5f613b19565b5034613b7d613b775f611fc2565b916101fb565b11613b14565b613b8b6140c0565b613b93613bd4565b565b60a81b90565b90613baa60ff60a81b91613b95565b9181191691161790565b90613bc9613bc4613bd0926112b1565b6112bd565b8254613b9b565b9055565b613bde5f5f613bb4565b613be66131c1565b613c1c7f5db9ee0a495bf2e6ff9c91a7834c1ba4fdd244a5e8aa4e537bd38aeae4b073aa91613c136101a2565b91829182610d2d565b0390a1565b613c29613b83565b565b60209181520190565b5f7f45564d0000000000000000000000000000000000000000000000000000000000910152565b613c686003602092613c2b565b613c7181613c34565b0190565b9190613c98906020613c90604086018681035f880152613c5b565b9401906105e2565b565b60200190565b5190565b613cac611788565b50613cd0613cdf613cbc46613130565b613cc46101a2565b92839160208301613c75565b602082018103825203826104ff565b613cf1613ceb82613ca0565b91613c9a565b2090565b9194613d3d613d4792989795613d3360a096613d29613d4e9a613d1f60c08a019e5f8b01906105e2565b60208901906105e2565b60408701906105e2565b60608501906105e2565b60808301906101fe565b01906101fe565b565b94613d8f94613d809396949294613d65611788565b50949692909192613d746101a2565b97889660208801613cf5565b602082018103825203826104ff565b613da1613d9b82613ca0565b91613c9a565b2090565b613dbc5f613dc192613db5612088565b5001613738565b6140f3565b90565b90613ddc5f613de193613dd5611788565b5001613738565b614161565b90565b613dee815f611384565b613e247f2f658b440c35314f52658ea8a740e05b284cdc84dc9ae01e891f21b8933e7cad91613e1b6101a2565b91829182610d2d565b0390a1565b613e3161349c565b613e39613e3b565b565b613e4660015f613bb4565b613e4e6131c1565b613e847f62e78cea01bee320cd4e420270b5ea74000d11b0c9f74754ebdbfc544b05a25891613e7b6101a2565b91829182610d2d565b0390a1565b613e91613e29565b565b5f90565b604090613ec0613ec79496959396613eb660608401985f850190610d20565b6020830190610d20565b01906109f5565b565b5f9060409294959395613f1c613edd611f7a565b97613f0d613ee9613e93565b989193613ef46101a2565b94859360046020860163b700961360e01b815201613e97565b602082018103825203826104ff565b9082805282602052602082519201905afa613f34575b565b9150505f51906020518060201c150290613f32565b613f5360016110a8565b613f6c613f66613f616134e5565b6101fb565b916101fb565b14613f7357565b5f633ee5aeb560e01b815280613f8b60048201610475565b0390fd5b90565b5f5260205f2090565b5490565b613fa881613f9b565b821015613fc257613fba600191613f92565b910201905f90565b61209b565b91906008613fe2910291613fdc5f1984613235565b92613235565b9181191691161790565b9190614002613ffd61400a9361106d565b611321565b908354613fc7565b9055565b908154916801000000000000000083101561403e578261403691600161403c95018155613f9f565b90613fec565b565b6104eb565b5490565b906140519061106d565b5f5260205260405f2090565b614065611f7a565b5061407a614074828490614182565b156106c6565b5f146140ba576140b06140b59261409c6140955f8501613f8f565b829061400e565b60016140a95f8501614043565b9301614047565b6113d0565b600190565b50505f90565b6140d16140cb611fa5565b156106c6565b6140d757565b5f638dfc202b60e01b8152806140ef60048201610475565b0390fd5b5f61410791614100612088565b5001614043565b90565b5f5260205f2090565b61411c81614043565b8210156141365761412e60019161410a565b910201905f90565b61209b565b61414b90600861415093026101bf565b612b09565b90565b9061415e915461413b565b90565b61417f915f61417992614172611788565b5001614113565b90614153565b90565b6141a091600161419b92614194611f7a565b5001614047565b6110a8565b6141b26141ac5f611fc2565b916101fb565b14159056","linkReferences":{}},"methodIdentifiers":{"approveWithdraw(bytes32,address,address,bytes32,uint256,uint256,uint256,address,bool)":"7f86a1a8","authority()":"bf7e214f","cancelWithdrawApproval(bytes32,address,address,bytes32,uint256,uint256)":"abc1857e","deposit(address,bytes32,bytes32,address,uint256)":"57ece64e","depositNonce()":"de35f5cb","getDepositFromHash(bytes32)":"930d9075","getDepositHash((bytes32,bytes32,bytes32,address,uint256,uint256))":"50a4b7be","getDepositHashes(uint256,uint256)":"ac4421cd","getWithdrawApproval(bytes32)":"9211345c","getWithdrawFromHash(bytes32)":"c49d6f69","getWithdrawHash((bytes32,address,bytes32,address,uint256,uint256))":"ee600efc","getWithdrawHashes(uint256,uint256)":"65b13e82","isConsumingScheduledOp()":"8fb36037","lockUnlock()":"0f3fe22f","mintBurn()":"1221c038","pause()":"8456cb59","paused()":"5c975abb","reenableWithdrawApproval(bytes32,address,address,bytes32,uint256,uint256)":"c6c18fb4","setAuthority(address)":"7a9e5e4b","setWithdrawDelay(uint256)":"72f0cb30","tokenRegistry()":"9d23c4c7","unpause()":"3f4ba83a","withdraw(bytes32,address,address,bytes32,uint256,uint256)":"248426f4","withdrawDelay()":"0288a39c"},"id":67}