{"abi":[{"type":"constructor","inputs":[{"name":"initialAuthority","type":"address","internalType":"address"}],"stateMutability":"nonpayable"},{"type":"function","name":"addCOSMWChainKey","inputs":[{"name":"rawChainKey","type":"string","internalType":"string"}],"outputs":[],"stateMutability":"nonpayable"},{"type":"function","name":"addChainKey","inputs":[{"name":"chainKey","type":"bytes32","internalType":"bytes32"}],"outputs":[],"stateMutability":"nonpayable"},{"type":"function","name":"addEVMChainKey","inputs":[{"name":"rawChainKey","type":"uint256","internalType":"uint256"}],"outputs":[],"stateMutability":"nonpayable"},{"type":"function","name":"addOtherChainType","inputs":[{"name":"chainType","type":"string","internalType":"string"},{"name":"rawChainKey","type":"bytes32","internalType":"bytes32"}],"outputs":[],"stateMutability":"nonpayable"},{"type":"function","name":"addSOLChainKey","inputs":[{"name":"rawChainKey","type":"string","internalType":"string"}],"outputs":[],"stateMutability":"nonpayable"},{"type":"function","name":"authority","inputs":[],"outputs":[{"name":"","type":"address","internalType":"address"}],"stateMutability":"view"},{"type":"function","name":"getChainKeyAt","inputs":[{"name":"index","type":"uint256","internalType":"uint256"}],"outputs":[{"name":"","type":"bytes32","internalType":"bytes32"}],"stateMutability":"view"},{"type":"function","name":"getChainKeyCOSMW","inputs":[{"name":"rawChainKey","type":"string","internalType":"string"}],"outputs":[{"name":"","type":"bytes32","internalType":"bytes32"}],"stateMutability":"pure"},{"type":"function","name":"getChainKeyCount","inputs":[],"outputs":[{"name":"","type":"uint256","internalType":"uint256"}],"stateMutability":"view"},{"type":"function","name":"getChainKeyEVM","inputs":[{"name":"rawChainKey","type":"uint256","internalType":"uint256"}],"outputs":[{"name":"","type":"bytes32","internalType":"bytes32"}],"stateMutability":"pure"},{"type":"function","name":"getChainKeyOther","inputs":[{"name":"chainType","type":"string","internalType":"string"},{"name":"rawChainKey","type":"bytes32","internalType":"bytes32"}],"outputs":[{"name":"","type":"bytes32","internalType":"bytes32"}],"stateMutability":"pure"},{"type":"function","name":"getChainKeySOL","inputs":[{"name":"rawChainKey","type":"string","internalType":"string"}],"outputs":[{"name":"","type":"bytes32","internalType":"bytes32"}],"stateMutability":"pure"},{"type":"function","name":"getChainKeys","inputs":[],"outputs":[{"name":"","type":"bytes32[]","internalType":"bytes32[]"}],"stateMutability":"view"},{"type":"function","name":"getChainKeysFrom","inputs":[{"name":"index","type":"uint256","internalType":"uint256"},{"name":"count","type":"uint256","internalType":"uint256"}],"outputs":[{"name":"items","type":"bytes32[]","internalType":"bytes32[]"}],"stateMutability":"view"},{"type":"function","name":"isChainKeyRegistered","inputs":[{"name":"chainKey","type":"bytes32","internalType":"bytes32"}],"outputs":[{"name":"","type":"bool","internalType":"bool"}],"stateMutability":"view"},{"type":"function","name":"isConsumingScheduledOp","inputs":[],"outputs":[{"name":"","type":"bytes4","internalType":"bytes4"}],"stateMutability":"view"},{"type":"function","name":"removeChainKey","inputs":[{"name":"chainKey","type":"bytes32","internalType":"bytes32"}],"outputs":[],"stateMutability":"nonpayable"},{"type":"function","name":"revertIfChainKeyNotRegistered","inputs":[{"name":"chainKey","type":"bytes32","internalType":"bytes32"}],"outputs":[],"stateMutability":"view"},{"type":"function","name":"setAuthority","inputs":[{"name":"newAuthority","type":"address","internalType":"address"}],"outputs":[],"stateMutability":"nonpayable"},{"type":"event","name":"AuthorityUpdated","inputs":[{"name":"authority","type":"address","indexed":false,"internalType":"address"}],"anonymous":false},{"type":"error","name":"AccessManagedInvalidAuthority","inputs":[{"name":"authority","type":"address","internalType":"address"}]},{"type":"error","name":"AccessManagedRequiredDelay","inputs":[{"name":"caller","type":"address","internalType":"address"},{"name":"delay","type":"uint32","internalType":"uint32"}]},{"type":"error","name":"AccessManagedUnauthorized","inputs":[{"name":"caller","type":"address","internalType":"address"}]},{"type":"error","name":"ChainKeyNotRegistered","inputs":[{"name":"chainKey","type":"bytes32","internalType":"bytes32"}]}],"bytecode":{"object":"0x60806040523461002f576100196100146100f4565b610115565b610021610034565b611c9361020d8239611c9390f35b61003a565b60405190565b5f80fd5b601f801991011690565b634e487b7160e01b5f52604160045260245ffd5b906100669061003e565b810190811060018060401b0382111761007e57604052565b610048565b9061009661008f610034565b928361005c565b565b5f80fd5b60018060a01b031690565b6100b09061009c565b90565b6100bc816100a7565b036100c357565b5f80fd5b905051906100d4826100b3565b565b906020828203126100ef576100ec915f016100c7565b90565b610098565b610112611ea08038038061010781610083565b9283398101906100d6565b90565b61011e90610120565b565b610129906101c7565b565b5f1b90565b9061014160018060a01b039161012b565b9181191691161790565b90565b61016261015d6101679261009c565b61014b565b61009c565b90565b6101739061014e565b90565b61017f9061016a565b90565b90565b9061019a6101956101a192610176565b610182565b8254610130565b9055565b6101ae906100a7565b9052565b91906101c5905f602085019401906101a5565b565b6101d1815f610185565b6102077f2f658b440c35314f52658ea8a740e05b284cdc84dc9ae01e891f21b8933e7cad916101fe610034565b918291826101b2565b0390a156fe60806040526004361015610013575b610926565b61001d5f3561014c565b80631b69b1761461014757806333b2306f146101425780633cd9cf911461013d5780634aae825a146101385780635411d37f14610133578063631c15ba1461012e5780637a9e5e4b146101295780638a0a736d146101245780638ac1b5761461011f5780638ef8c93b1461011a5780638fb3603714610115578063910201d014610110578063985c272c1461010b578063b2e3454814610106578063b95ad7dc14610101578063bf7e214f146100fc578063ceff7e0d146100f7578063e6da1c34146100f25763f044c7dd0361000e576108f1565b6108be565b610889565b610854565b6107fd565b6107c7565b610794565b610760565b6106e6565b610685565b610650565b6105e9565b6104ea565b61045f565b61042a565b6103f7565b610380565b610346565b6102a9565b60e01c90565b60405190565b5f80fd5b5f80fd5b5f80fd5b5f80fd5b5f80fd5b601f801991011690565b634e487b7160e01b5f52604160045260245ffd5b906101949061016c565b810190811067ffffffffffffffff8211176101ae57604052565b610176565b906101c66101bf610152565b928361018a565b565b67ffffffffffffffff81116101e6576101e260209161016c565b0190565b610176565b90825f939282370152565b9092919261020b610206826101c8565b6101b3565b9381855260208501908284011161022757610225926101eb565b565b610168565b9080601f8301121561024a57816020610247933591016101f6565b90565b610164565b9060208282031261027f575f82013567ffffffffffffffff811161027a57610277920161022c565b90565b610160565b61015c565b90565b61029090610284565b9052565b91906102a7905f60208501940190610287565b565b346102d9576102d56102c46102bf36600461024f565b6109fb565b6102cc610152565b91829182610294565b0390f35b610158565b6102e781610284565b036102ee57565b5f80fd5b905035906102ff826102de565b565b9060208282031261031a57610317915f016102f2565b90565b61015c565b151590565b61032d9061031f565b9052565b9190610344905f60208501940190610324565b565b346103765761037261036161035c366004610301565b610a5b565b610369610152565b91829182610331565b0390f35b610158565b5f0190565b346103ae5761039861039336600461024f565b610abe565b6103a0610152565b806103aa8161037b565b0390f35b610158565b90565b6103bf816103b3565b036103c657565b5f80fd5b905035906103d7826103b6565b565b906020828203126103f2576103ef915f016103ca565b90565b61015c565b346104255761040f61040a3660046103d9565b610b0d565b610417610152565b806104218161037b565b0390f35b610158565b3461045a576104566104456104403660046103d9565b610b84565b61044d610152565b91829182610294565b0390f35b610158565b3461048d57610477610472366004610301565b610ba9565b61047f610152565b806104898161037b565b0390f35b610158565b60018060a01b031690565b6104a690610492565b90565b6104b28161049d565b036104b957565b5f80fd5b905035906104ca826104a9565b565b906020828203126104e5576104e2915f016104bd565b90565b61015c565b34610518576105026104fd3660046104cc565b610c03565b61050a610152565b806105148161037b565b0390f35b610158565b91906040838203126105455780610539610542925f86016103ca565b936020016103ca565b90565b61015c565b5190565b60209181520190565b60200190565b61056690610284565b9052565b906105778160209361055d565b0190565b60200190565b9061059e6105986105918461054a565b809361054e565b92610557565b905f5b8181106105ae5750505090565b9091926105c76105c1600192865161056a565b9461057b565b91019190916105a1565b6105e69160208201915f818403910152610581565b90565b3461061a576106166106056105ff36600461051d565b90610da4565b61060d610152565b918291826105d1565b0390f35b610158565b5f91031261062957565b61015c565b610637906103b3565b9052565b919061064e905f6020850194019061062e565b565b346106805761066036600461061f565b61067c61066b610e9f565b610673610152565b9182918261063b565b0390f35b610158565b346106b35761069d61069836600461024f565b610f01565b6106a5610152565b806106af8161037b565b0390f35b610158565b63ffffffff60e01b1690565b6106cd906106b8565b9052565b91906106e4905f602085019401906106c4565b565b34610716576106f636600461061f565b610712610701610fb8565b610709610152565b918291826106d1565b0390f35b610158565b919060408382031261075b575f8301359067ffffffffffffffff82116107565761074a8161075393860161022c565b936020016102f2565b90565b610160565b61015c565b3461078f5761077961077336600461071b565b90611034565b610781610152565b8061078b8161037b565b0390f35b610158565b346107c2576107ac6107a7366004610301565b61107a565b6107b4610152565b806107be8161037b565b0390f35b610158565b346107f8576107f46107e36107dd36600461071b565b906110ab565b6107eb610152565b91829182610294565b0390f35b610158565b3461082d5761080d36600461061f565b6108296108186110f4565b610820610152565b918291826105d1565b0390f35b610158565b61083b9061049d565b9052565b9190610852905f60208501940190610832565b565b346108845761086436600461061f565b61088061086f611147565b610877610152565b9182918261083f565b0390f35b610158565b346108b9576108b56108a461089f3660046103d9565b61115c565b6108ac610152565b91829182610294565b0390f35b610158565b346108ec576108d66108d1366004610301565b6111b5565b6108de610152565b806108e88161037b565b0390f35b610158565b346109215761091d61090c61090736600461024f565b61120b565b610914610152565b91829182610294565b0390f35b610158565b5f80fd5b5f90565b5190565b60209181520190565b90825f9392825e0152565b61096561096e6020936109739361095c8161092e565b93848093610932565b9586910161093b565b61016c565b0190565b61098c9160208201915f818403910152610946565b90565b60200190565b5190565b906109ab6109a6836101c8565b6101b3565b918252565b5f7f434f534d57000000000000000000000000000000000000000000000000000000910152565b6109e16005610999565b906109ee602083016109b0565b565b6109f86109d7565b90565b610a22610a31610a5192610a0d61092a565b50610a16610152565b92839160208301610977565b6020820181038252038261018a565b610a43610a3d82610995565b9161098f565b20610a4c6109f0565b6110ab565b90565b5f90565b90565b610a7790610a67610a54565b50610a726001610a58565b611267565b90565b610a9c90610a97610a89611287565b610a9161129a565b91611446565b610a9e565b565b610abb90610ab5610aaf6001610a58565b9161120b565b9061158f565b50565b610ac790610a7a565b565b610aeb90610ae6610ad8611287565b610ae061129a565b91611446565b610aed565b565b610b0a90610b04610afe6001610a58565b91610b84565b9061158f565b50565b610b1690610ac9565b565b5f1b90565b610b31610b2c610b36926103b3565b610b18565b610284565b90565b5f7f45564d0000000000000000000000000000000000000000000000000000000000910152565b610b6a6003610999565b90610b7760208301610b39565b565b610b81610b60565b90565b610b99610ba691610b9361092a565b50610b1d565b610ba1610b79565b6110ab565b90565b610bbb610bb582610a5b565b1561031f565b610bc25750565b610bdd905f9182916304fb527960e51b835260048301610294565b0390fd5b90565b90565b610bfb610bf6610c0092610be1565b610be4565b6103b3565b90565b610c0b611287565b80610c25610c1f610c1a611147565b61049d565b9161049d565b03610c6e5750803b610c3f610c395f610be7565b916103b3565b14610c4f57610c4d906115f9565b565b610c6a905f9182916361798f2f60e11b83526004830161083f565b0390fd5b610c88905f91829162d1953b60e31b83526004830161083f565b0390fd5b606090565b67ffffffffffffffff8111610ca95760208091020190565b610176565b90610cc0610cbb83610c91565b6101b3565b918252565b369037565b90610cef610cd783610cae565b92602080610ce58693610c91565b9201910390610cc5565b565b634e487b7160e01b5f52601160045260245ffd5b610d14610d1a919392936103b3565b926103b3565b8201809211610d2557565b610cf1565b610d39610d3f919392936103b3565b926103b3565b8203918211610d4a57565b610cf1565b5f90565b6001610d5f91016103b3565b90565b634e487b7160e01b5f52603260045260245ffd5b90610d808261054a565b811015610d91576020809102010190565b610d62565b90610da090610284565b9052565b919091610daf610c8c565b50610dc2610dbd6001610a58565b61163e565b81610dd5610dcf836103b3565b916103b3565b1015610e8757610de6828590610d05565b610df8610df2836103b3565b916103b3565b11610e73575b50610e0883610cca565b91610e11610d4f565b5b80610e25610e1f876103b3565b916103b3565b1015610e6c57610e6790610e62610e50610e3f6001610a58565b610e4a878590610d05565b9061165d565b610e5d8791849092610d76565b610d96565b610d53565b610e12565b5092505090565b610e809193508390610d2a565b915f610dfe565b50509050610e9c610e975f610be7565b610cca565b90565b610ea7610d4f565b50610eba610eb56001610a58565b61163e565b90565b610edf90610eda610ecc611287565b610ed461129a565b91611446565b610ee1565b565b610efe90610ef8610ef26001610a58565b916109fb565b9061158f565b50565b610f0a90610ebd565b565b5f90565b60a01c90565b60ff1690565b610f28610f2d91610f10565b610f16565b90565b610f3a9054610f1c565b90565b60e01b90565b610f57610f52610f5c92610be1565b610f3d565b6106b8565b90565b610f73610f6e610f7892610492565b610be4565b610492565b90565b610f8490610f5f565b90565b610f9090610f7b565b90565b63ffffffff1690565b610fb0610fab610fb592610f93565b610f3d565b6106b8565b90565b610fc0610f0c565b50610fca5f610f30565b5f14610fe157610fdd638fb36037610f9c565b5b90565b610fea5f610f43565b610fde565b906110129161100d610fff611287565b61100761129a565b91611446565b611014565b565b61102b611031926110256001610a58565b926110ab565b9061158f565b50565b9061103e91610fef565b565b6110629061105d61104f611287565b61105761129a565b91611446565b611064565b565b611077906110726001610a58565b61158f565b50565b61108390611040565b565b929160206110a16110a99360408701908782035f890152610946565b940190610287565b565b6110de906110b761092a565b506110cf6110c3610152565b93849260208401611085565b6020820181038252038261018a565b6110f06110ea82610995565b9161098f565b2090565b6110fc610c8c565b5061110f61110a6001610a58565b61167d565b90565b5f90565b5f1c90565b60018060a01b031690565b61113261113791611116565b61111b565b90565b6111449054611126565b90565b61114f611112565b506111595f61113a565b90565b6111789061116861092a565b506111736001610a58565b61165d565b90565b61119d9061119861118a611287565b61119261129a565b91611446565b61119f565b565b6111b2906111ad6001610a58565b6116a5565b50565b6111be9061117b565b565b5f7f534f4c0000000000000000000000000000000000000000000000000000000000910152565b6111f16003610999565b906111fe602083016111c0565b565b6112086111e7565b90565b6112326112416112619261121d61092a565b50611226610152565b92839160208301610977565b6020820181038252038261018a565b61125361124d82610995565b9161098f565b2061125c611200565b6110ab565b90565b90565b9061127f5f61128493611278610a54565b5001611264565b61170b565b90565b61128f611112565b503390565b36905f90565b6112a2611294565b9050505f903690565b90565b6112c26112bd6112c7926112ab565b610be4565b6103b3565b90565b5f80fd5b5f80fd5b909392938483116112f25784116112ed576001820201920390565b6112ce565b6112ca565b5090565b1b90565b9061130d61131491836112f7565b91356106b8565b9060048110611322575b5090565b61133a9063ffffffff60e01b906004036008026112fb565b165f61131e565b61135561135061135a92610be1565b610be4565b610f93565b90565b60a01b90565b9061137260ff60a01b9161135d565b9181191691161790565b6113859061031f565b90565b90565b906113a061139b6113a79261137c565b611388565b8254611363565b9055565b6113b490610f5f565b90565b6113c0906113ab565b90565b6113cc90610f7b565b90565b5f80fd5b5f9103126113dd57565b61015c565b60209181520190565b9190611405816113fe8161140a956113e2565b80956101eb565b61016c565b0190565b9161143393919261142660408201945f830190610832565b60208185039101526113eb565b90565b61143e610152565b3d5f823e3d90fd5b90611498611490611455611147565b8461145f30610f87565b9061148a611484878a5f9061147e611478600493610be7565b926112ae565b926112d2565b906112ff565b92611776565b91901561031f565b6114a3575b50505050565b6114b56114af5f611341565b91610f93565b115f14611571576114c760015f61138b565b6114df6114da6114d5611147565b6113b7565b6113c3565b6394c7d7ee92919392813b1561156c575f61150d916115188296611501610152565b98899788968795610f3d565b85526004850161140e565b03925af180156115675761153b575b506115325f5f61138b565b5f80808061149d565b61155a905f3d8111611560575b611552818361018a565b8101906113d3565b5f611527565b503d611548565b611436565b6113cf565b61158b825f91829162d1953b60e31b83526004830161083f565b0390fd5b906115a75f6115ac936115a0610a54565b5001611264565b61190f565b90565b906115c060018060a01b0391610b18565b9181191691161790565b6115d390610f7b565b90565b90565b906115ee6115e96115f5926115ca565b6115d6565b82546115af565b9055565b611603815f6115d9565b6116397f2f658b440c35314f52658ea8a740e05b284cdc84dc9ae01e891f21b8933e7cad91611630610152565b9182918261083f565b0390a1565b6116555f61165a9261164e610d4f565b5001611264565b611972565b90565b906116755f61167a9361166e61092a565b5001611264565b6119e7565b90565b6116945f6116999261168d610c8c565b5001611264565b611aca565b6116a1610c8c565b5090565b906116bd5f6116c2936116b6610a54565b5001611264565b611b8d565b90565b6116ce90610284565b90565b906116db906116c5565b5f5260205260405f2090565b90565b6116f66116fb91611116565b6116e7565b90565b61170890546116ea565b90565b6117299160016117249261171d610a54565b50016116d1565b6116fe565b61173b6117355f610be7565b916103b3565b141590565b5f90565b60409061176d611774949695939661176360608401985f850190610832565b6020830190610832565b01906106c4565b565b5f90604092949593956117c961178a610a54565b976117ba611796611740565b9891936117a1610152565b94859360046020860163b700961360e01b815201611744565b6020820181038252038261018a565b9082805282602052602082519201905afa6117e1575b565b9150505f51906020518060201c1502906117df565b90565b5f5260205f2090565b5490565b61180f81611802565b821015611829576118216001916117f9565b910201905f90565b610d62565b919060086118499102916118435f19846112fb565b926112fb565b9181191691161790565b61185c90611116565b90565b919061187561187061187d936116c5565b611853565b90835461182e565b9055565b90815491680100000000000000008310156118b157826118a99160016118af95018155611806565b9061185f565b565b610176565b5490565b906118c65f1991610b18565b9181191691161790565b6118e46118df6118e9926103b3565b610be4565b6103b3565b90565b90565b906119046118ff61190b926118d0565b6118ec565b82546118ba565b9055565b611917610a54565b5061192c61192682849061170b565b1561031f565b5f1461196c576119626119679261194e6119475f85016117f6565b8290611881565b600161195b5f85016118b6565b93016116d1565b6118ef565b600190565b50505f90565b5f6119869161197f610d4f565b50016118b6565b90565b5f5260205f2090565b61199b816118b6565b8210156119b5576119ad600191611989565b910201905f90565b610d62565b1c90565b90565b6119d19060086119d693026119ba565b6119be565b90565b906119e491546119c1565b90565b611a05915f6119ff926119f861092a565b5001611992565b906119d9565b90565b60209181520190565b611a1d611a2291611116565b6119be565b90565b611a2f9054611a11565b90565b60010190565b90611a55611a4f611a48846118b6565b8093611a08565b92611989565b905f5b818110611a655750505090565b909192611a85611a7f600192611a7a87611a25565b61056a565b94611a32565b9101919091611a58565b90611a9991611a38565b90565b90611abc611ab592611aac610152565b93848092611a8f565b038361018a565b565b611ac790611a9c565b90565b5f611ade91611ad7610c8c565b5001611abe565b90565b90565b611af8611af3611afd92611ae1565b610be4565b6103b3565b90565b634e487b7160e01b5f52603160045260245ffd5b611b2691611b2061092a565b9161185f565b565b611b3181611802565b8015611b52576001900390611b4f611b498383611806565b90611b14565b55565b611b00565b9190611b6d611b68611b75936118d0565b6118ec565b90835461182e565b9055565b611b8b91611b85610d4f565b91611b57565b565b611b95610a54565b50611bac611ba76001830184906116d1565b6116fe565b9081611bc0611bba5f610be7565b916103b3565b14155f14611c8c57611c3e926001611c399284611be75f96611be185611ae4565b90610d2a565b611c04611bf58885016118b6565b611bfe86611ae4565b90610d2a565b81611c17611c11836103b3565b916103b3565b03611c43575b505050611c33611c2e8683016117f6565b611b28565b016116d1565b611b79565b600190565b611c8492611c76611c62611c5c611c7f948c8901611992565b906119d9565b93611c7085918c8901611992565b9061185f565b918585016116d1565b6118ef565b5f8080611c1d565b5050505f9056","linkReferences":{}},"methodIdentifiers":{"addCOSMWChainKey(string)":"8ef8c93b","addChainKey(bytes32)":"985c272c","addEVMChainKey(uint256)":"4aae825a","addOtherChainType(string,bytes32)":"910201d0","addSOLChainKey(string)":"3cd9cf91","authority()":"bf7e214f","getChainKeyAt(uint256)":"ceff7e0d","getChainKeyCOSMW(string)":"1b69b176","getChainKeyCount()":"8ac1b576","getChainKeyEVM(uint256)":"5411d37f","getChainKeyOther(string,bytes32)":"b2e34548","getChainKeySOL(string)":"f044c7dd","getChainKeys()":"b95ad7dc","getChainKeysFrom(uint256,uint256)":"8a0a736d","isChainKeyRegistered(bytes32)":"33b2306f","isConsumingScheduledOp()":"8fb36037","removeChainKey(bytes32)":"e6da1c34","revertIfChainKeyNotRegistered(bytes32)":"631c15ba","setAuthority(address)":"7a9e5e4b"},"id":68}