{"abi":[{"type":"constructor","inputs":[{"name":"initialAuthority","type":"address","internalType":"address"}],"stateMutability":"nonpayable"},{"type":"function","name":"addCOSMWChainKey","inputs":[{"name":"rawChainKey","type":"string","internalType":"string"}],"outputs":[],"stateMutability":"nonpayable"},{"type":"function","name":"addChainKey","inputs":[{"name":"chainKey","type":"bytes32","internalType":"bytes32"}],"outputs":[],"stateMutability":"nonpayable"},{"type":"function","name":"addEVMChainKey","inputs":[{"name":"rawChainKey","type":"uint256","internalType":"uint256"}],"outputs":[],"stateMutability":"nonpayable"},{"type":"function","name":"addOtherChainType","inputs":[{"name":"chainType","type":"string","internalType":"string"},{"name":"rawChainKey","type":"bytes32","internalType":"bytes32"}],"outputs":[],"stateMutability":"nonpayable"},{"type":"function","name":"addSOLChainKey","inputs":[{"name":"rawChainKey","type":"string","internalType":"string"}],"outputs":[],"stateMutability":"nonpayable"},{"type":"function","name":"authority","inputs":[],"outputs":[{"name":"","type":"address","internalType":"address"}],"stateMutability":"view"},{"type":"function","name":"getChainKeyAt","inputs":[{"name":"index","type":"uint256","internalType":"uint256"}],"outputs":[{"name":"","type":"bytes32","internalType":"bytes32"}],"stateMutability":"view"},{"type":"function","name":"getChainKeyCOSMW","inputs":[{"name":"rawChainKey","type":"string","internalType":"string"}],"outputs":[{"name":"","type":"bytes32","internalType":"bytes32"}],"stateMutability":"pure"},{"type":"function","name":"getChainKeyCount","inputs":[],"outputs":[{"name":"","type":"uint256","internalType":"uint256"}],"stateMutability":"view"},{"type":"function","name":"getChainKeyEVM","inputs":[{"name":"rawChainKey","type":"uint256","internalType":"uint256"}],"outputs":[{"name":"","type":"bytes32","internalType":"bytes32"}],"stateMutability":"pure"},{"type":"function","name":"getChainKeyOther","inputs":[{"name":"chainType","type":"string","internalType":"string"},{"name":"rawChainKey","type":"bytes32","internalType":"bytes32"}],"outputs":[{"name":"","type":"bytes32","internalType":"bytes32"}],"stateMutability":"pure"},{"type":"function","name":"getChainKeySOL","inputs":[{"name":"rawChainKey","type":"string","internalType":"string"}],"outputs":[{"name":"","type":"bytes32","internalType":"bytes32"}],"stateMutability":"pure"},{"type":"function","name":"getChainKeys","inputs":[],"outputs":[{"name":"","type":"bytes32[]","internalType":"bytes32[]"}],"stateMutability":"view"},{"type":"function","name":"getChainKeysFrom","inputs":[{"name":"index","type":"uint256","internalType":"uint256"},{"name":"count","type":"uint256","internalType":"uint256"}],"outputs":[{"name":"items","type":"bytes32[]","internalType":"bytes32[]"}],"stateMutability":"view"},{"type":"function","name":"isChainKeyRegistered","inputs":[{"name":"chainKey","type":"bytes32","internalType":"bytes32"}],"outputs":[{"name":"","type":"bool","internalType":"bool"}],"stateMutability":"view"},{"type":"function","name":"isConsumingScheduledOp","inputs":[],"outputs":[{"name":"","type":"bytes4","internalType":"bytes4"}],"stateMutability":"view"},{"type":"function","name":"removeChainKey","inputs":[{"name":"chainKey","type":"bytes32","internalType":"bytes32"}],"outputs":[],"stateMutability":"nonpayable"},{"type":"function","name":"revertIfChainKeyNotRegistered","inputs":[{"name":"chainKey","type":"bytes32","internalType":"bytes32"}],"outputs":[],"stateMutability":"view"},{"type":"function","name":"setAuthority","inputs":[{"name":"newAuthority","type":"address","internalType":"address"}],"outputs":[],"stateMutability":"nonpayable"},{"type":"event","name":"AuthorityUpdated","inputs":[{"name":"authority","type":"address","indexed":false,"internalType":"address"}],"anonymous":false},{"type":"error","name":"AccessManagedInvalidAuthority","inputs":[{"name":"authority","type":"address","internalType":"address"}]},{"type":"error","name":"AccessManagedRequiredDelay","inputs":[{"name":"caller","type":"address","internalType":"address"},{"name":"delay","type":"uint32","internalType":"uint32"}]},{"type":"error","name":"AccessManagedUnauthorized","inputs":[{"name":"caller","type":"address","internalType":"address"}]},{"type":"error","name":"ChainKeyNotRegistered","inputs":[{"name":"chainKey","type":"bytes32","internalType":"bytes32"}]}],"bytecode":{"object":"0x60806040523461002f576100196100146100f4565b610115565b610021610034565b611c9661020d8239611c9690f35b61003a565b60405190565b5f80fd5b601f801991011690565b634e487b7160e01b5f52604160045260245ffd5b906100669061003e565b810190811060018060401b0382111761007e57604052565b610048565b9061009661008f610034565b928361005c565b565b5f80fd5b60018060a01b031690565b6100b09061009c565b90565b6100bc816100a7565b036100c357565b5f80fd5b905051906100d4826100b3565b565b906020828203126100ef576100ec915f016100c7565b90565b610098565b610112611ea38038038061010781610083565b9283398101906100d6565b90565b61011e90610120565b565b610129906101c7565b565b5f1b90565b9061014160018060a01b039161012b565b9181191691161790565b90565b61016261015d6101679261009c565b61014b565b61009c565b90565b6101739061014e565b90565b61017f9061016a565b90565b90565b9061019a6101956101a192610176565b610182565b8254610130565b9055565b6101ae906100a7565b9052565b91906101c5905f602085019401906101a5565b565b6101d1815f610185565b6102077f2f658b440c35314f52658ea8a740e05b284cdc84dc9ae01e891f21b8933e7cad916101fe610034565b918291826101b2565b0390a156fe60806040526004361015610013575b610926565b61001d5f3561014c565b80631b69b1761461014757806333b2306f146101425780633cd9cf911461013d5780634aae825a146101385780635411d37f14610133578063631c15ba1461012e5780637a9e5e4b146101295780638a0a736d146101245780638ac1b5761461011f5780638ef8c93b1461011a5780638fb3603714610115578063910201d014610110578063985c272c1461010b578063b2e3454814610106578063b95ad7dc14610101578063bf7e214f146100fc578063ceff7e0d146100f7578063e6da1c34146100f25763f044c7dd0361000e576108f1565b6108be565b610889565b610854565b6107fd565b6107c7565b610794565b610760565b6106e6565b610685565b610650565b6105e9565b6104ea565b61045f565b61042a565b6103f7565b610380565b610346565b6102a9565b60e01c90565b60405190565b5f80fd5b5f80fd5b5f80fd5b5f80fd5b5f80fd5b601f801991011690565b634e487b7160e01b5f52604160045260245ffd5b906101949061016c565b810190811067ffffffffffffffff8211176101ae57604052565b610176565b906101c66101bf610152565b928361018a565b565b67ffffffffffffffff81116101e6576101e260209161016c565b0190565b610176565b90825f939282370152565b9092919261020b610206826101c8565b6101b3565b9381855260208501908284011161022757610225926101eb565b565b610168565b9080601f8301121561024a57816020610247933591016101f6565b90565b610164565b9060208282031261027f575f82013567ffffffffffffffff811161027a57610277920161022c565b90565b610160565b61015c565b90565b61029090610284565b9052565b91906102a7905f60208501940190610287565b565b346102d9576102d56102c46102bf36600461024f565b6109fb565b6102cc610152565b91829182610294565b0390f35b610158565b6102e781610284565b036102ee57565b5f80fd5b905035906102ff826102de565b565b9060208282031261031a57610317915f016102f2565b90565b61015c565b151590565b61032d9061031f565b9052565b9190610344905f60208501940190610324565b565b346103765761037261036161035c366004610301565b610a5b565b610369610152565b91829182610331565b0390f35b610158565b5f0190565b346103ae5761039861039336600461024f565b610abe565b6103a0610152565b806103aa8161037b565b0390f35b610158565b90565b6103bf816103b3565b036103c657565b5f80fd5b905035906103d7826103b6565b565b906020828203126103f2576103ef915f016103ca565b90565b61015c565b346104255761040f61040a3660046103d9565b610b0d565b610417610152565b806104218161037b565b0390f35b610158565b3461045a576104566104456104403660046103d9565b610b84565b61044d610152565b91829182610294565b0390f35b610158565b3461048d57610477610472366004610301565b610bd0565b61047f610152565b806104898161037b565b0390f35b610158565b60018060a01b031690565b6104a690610492565b90565b6104b28161049d565b036104b957565b5f80fd5b905035906104ca826104a9565b565b906020828203126104e5576104e2915f016104bd565b90565b61015c565b34610518576105026104fd3660046104cc565b610c06565b61050a610152565b806105148161037b565b0390f35b610158565b91906040838203126105455780610539610542925f86016103ca565b936020016103ca565b90565b61015c565b5190565b60209181520190565b60200190565b61056690610284565b9052565b906105778160209361055d565b0190565b60200190565b9061059e6105986105918461054a565b809361054e565b92610557565b905f5b8181106105ae5750505090565b9091926105c76105c1600192865161056a565b9461057b565b91019190916105a1565b6105e69160208201915f818403910152610581565b90565b3461061a576106166106056105ff36600461051d565b90610da7565b61060d610152565b918291826105d1565b0390f35b610158565b5f91031261062957565b61015c565b610637906103b3565b9052565b919061064e905f6020850194019061062e565b565b346106805761066036600461061f565b61067c61066b610ea2565b610673610152565b9182918261063b565b0390f35b610158565b346106b35761069d61069836600461024f565b610f04565b6106a5610152565b806106af8161037b565b0390f35b610158565b63ffffffff60e01b1690565b6106cd906106b8565b9052565b91906106e4905f602085019401906106c4565b565b34610716576106f636600461061f565b610712610701610fbb565b610709610152565b918291826106d1565b0390f35b610158565b919060408382031261075b575f8301359067ffffffffffffffff82116107565761074a8161075393860161022c565b936020016102f2565b90565b610160565b61015c565b3461078f5761077961077336600461071b565b90611037565b610781610152565b8061078b8161037b565b0390f35b610158565b346107c2576107ac6107a7366004610301565b61107d565b6107b4610152565b806107be8161037b565b0390f35b610158565b346107f8576107f46107e36107dd36600461071b565b906110ae565b6107eb610152565b91829182610294565b0390f35b610158565b3461082d5761080d36600461061f565b6108296108186110f7565b610820610152565b918291826105d1565b0390f35b610158565b61083b9061049d565b9052565b9190610852905f60208501940190610832565b565b346108845761086436600461061f565b61088061086f61114a565b610877610152565b9182918261083f565b0390f35b610158565b346108b9576108b56108a461089f3660046103d9565b61115f565b6108ac610152565b91829182610294565b0390f35b610158565b346108ec576108d66108d1366004610301565b6111b8565b6108de610152565b806108e88161037b565b0390f35b610158565b346109215761091d61090c61090736600461024f565b61120e565b610914610152565b91829182610294565b0390f35b610158565b5f80fd5b5f90565b5190565b60209181520190565b90825f9392825e0152565b61096561096e6020936109739361095c8161092e565b93848093610932565b9586910161093b565b61016c565b0190565b61098c9160208201915f818403910152610946565b90565b60200190565b5190565b906109ab6109a6836101c8565b6101b3565b918252565b5f7f434f534d57000000000000000000000000000000000000000000000000000000910152565b6109e16005610999565b906109ee602083016109b0565b565b6109f86109d7565b90565b610a22610a31610a5192610a0d61092a565b50610a16610152565b92839160208301610977565b6020820181038252038261018a565b610a43610a3d82610995565b9161098f565b20610a4c6109f0565b6110ae565b90565b5f90565b90565b610a7790610a67610a54565b50610a726001610a58565b61126a565b90565b610a9c90610a97610a8961128a565b610a9161129d565b91611449565b610a9e565b565b610abb90610ab5610aaf6001610a58565b9161120e565b90611592565b50565b610ac790610a7a565b565b610aeb90610ae6610ad861128a565b610ae061129d565b91611449565b610aed565b565b610b0a90610b04610afe6001610a58565b91610b84565b90611592565b50565b610b1690610ac9565b565b5f1b90565b610b31610b2c610b36926103b3565b610b18565b610284565b90565b5f7f45564d0000000000000000000000000000000000000000000000000000000000910152565b610b6a6003610999565b90610b7760208301610b39565b565b610b81610b60565b90565b610b99610ba691610b9361092a565b50610b1d565b610ba1610b79565b6110ae565b90565b15610bb15750565b610bcc905f9182916304fb527960e51b835260048301610294565b0390fd5b610be290610bdd81610a5b565b610ba9565b565b90565b90565b610bfe610bf9610c0392610be4565b610be7565b6103b3565b90565b610c0e61128a565b80610c28610c22610c1d61114a565b61049d565b9161049d565b03610c715750803b610c42610c3c5f610bea565b916103b3565b14610c5257610c50906115fc565b565b610c6d905f9182916361798f2f60e11b83526004830161083f565b0390fd5b610c8b905f91829162d1953b60e31b83526004830161083f565b0390fd5b606090565b67ffffffffffffffff8111610cac5760208091020190565b610176565b90610cc3610cbe83610c94565b6101b3565b918252565b369037565b90610cf2610cda83610cb1565b92602080610ce88693610c94565b9201910390610cc8565b565b634e487b7160e01b5f52601160045260245ffd5b610d17610d1d919392936103b3565b926103b3565b8201809211610d2857565b610cf4565b610d3c610d42919392936103b3565b926103b3565b8203918211610d4d57565b610cf4565b5f90565b6001610d6291016103b3565b90565b634e487b7160e01b5f52603260045260245ffd5b90610d838261054a565b811015610d94576020809102010190565b610d65565b90610da390610284565b9052565b919091610db2610c8f565b50610dc5610dc06001610a58565b611641565b81610dd8610dd2836103b3565b916103b3565b1015610e8a57610de9828590610d08565b610dfb610df5836103b3565b916103b3565b11610e76575b50610e0b83610ccd565b91610e14610d52565b5b80610e28610e22876103b3565b916103b3565b1015610e6f57610e6a90610e65610e53610e426001610a58565b610e4d878590610d08565b90611660565b610e608791849092610d79565b610d99565b610d56565b610e15565b5092505090565b610e839193508390610d2d565b915f610e01565b50509050610e9f610e9a5f610bea565b610ccd565b90565b610eaa610d52565b50610ebd610eb86001610a58565b611641565b90565b610ee290610edd610ecf61128a565b610ed761129d565b91611449565b610ee4565b565b610f0190610efb610ef56001610a58565b916109fb565b90611592565b50565b610f0d90610ec0565b565b5f90565b60a01c90565b60ff1690565b610f2b610f3091610f13565b610f19565b90565b610f3d9054610f1f565b90565b60e01b90565b610f5a610f55610f5f92610be4565b610f40565b6106b8565b90565b610f76610f71610f7b92610492565b610be7565b610492565b90565b610f8790610f62565b90565b610f9390610f7e565b90565b63ffffffff1690565b610fb3610fae610fb892610f96565b610f40565b6106b8565b90565b610fc3610f0f565b50610fcd5f610f33565b5f14610fe457610fe0638fb36037610f9f565b5b90565b610fed5f610f46565b610fe1565b906110159161101061100261128a565b61100a61129d565b91611449565b611017565b565b61102e611034926110286001610a58565b926110ae565b90611592565b50565b9061104191610ff2565b565b6110659061106061105261128a565b61105a61129d565b91611449565b611067565b565b61107a906110756001610a58565b611592565b50565b61108690611043565b565b929160206110a46110ac9360408701908782035f890152610946565b940190610287565b565b6110e1906110ba61092a565b506110d26110c6610152565b93849260208401611088565b6020820181038252038261018a565b6110f36110ed82610995565b9161098f565b2090565b6110ff610c8f565b5061111261110d6001610a58565b611680565b90565b5f90565b5f1c90565b60018060a01b031690565b61113561113a91611119565b61111e565b90565b6111479054611129565b90565b611152611115565b5061115c5f61113d565b90565b61117b9061116b61092a565b506111766001610a58565b611660565b90565b6111a09061119b61118d61128a565b61119561129d565b91611449565b6111a2565b565b6111b5906111b06001610a58565b6116a8565b50565b6111c19061117e565b565b5f7f534f4c0000000000000000000000000000000000000000000000000000000000910152565b6111f46003610999565b90611201602083016111c3565b565b61120b6111ea565b90565b6112356112446112649261122061092a565b50611229610152565b92839160208301610977565b6020820181038252038261018a565b61125661125082610995565b9161098f565b2061125f611203565b6110ae565b90565b90565b906112825f6112879361127b610a54565b5001611267565b61170e565b90565b611292611115565b503390565b36905f90565b6112a5611297565b9050505f903690565b90565b6112c56112c06112ca926112ae565b610be7565b6103b3565b90565b5f80fd5b5f80fd5b909392938483116112f55784116112f0576001820201920390565b6112d1565b6112cd565b5090565b1b90565b9061131061131791836112fa565b91356106b8565b9060048110611325575b5090565b61133d9063ffffffff60e01b906004036008026112fe565b165f611321565b61135861135361135d92610be4565b610be7565b610f96565b90565b60a01b90565b9061137560ff60a01b91611360565b9181191691161790565b6113889061031f565b90565b90565b906113a361139e6113aa9261137f565b61138b565b8254611366565b9055565b6113b790610f62565b90565b6113c3906113ae565b90565b6113cf90610f7e565b90565b5f80fd5b5f9103126113e057565b61015c565b60209181520190565b9190611408816114018161140d956113e5565b80956101eb565b61016c565b0190565b9161143693919261142960408201945f830190610832565b60208185039101526113ee565b90565b611441610152565b3d5f823e3d90fd5b9061149b61149361145861114a565b8461146230610f8a565b9061148d611487878a5f9061148161147b600493610bea565b926112b1565b926112d5565b90611302565b92611779565b91901561031f565b6114a6575b50505050565b6114b86114b25f611344565b91610f96565b115f14611574576114ca60015f61138e565b6114e26114dd6114d861114a565b6113ba565b6113c6565b6394c7d7ee92919392813b1561156f575f6115109161151b8296611504610152565b98899788968795610f40565b855260048501611411565b03925af1801561156a5761153e575b506115355f5f61138e565b5f8080806114a0565b61155d905f3d8111611563575b611555818361018a565b8101906113d6565b5f61152a565b503d61154b565b611439565b6113d2565b61158e825f91829162d1953b60e31b83526004830161083f565b0390fd5b906115aa5f6115af936115a3610a54565b5001611267565b611912565b90565b906115c360018060a01b0391610b18565b9181191691161790565b6115d690610f7e565b90565b90565b906115f16115ec6115f8926115cd565b6115d9565b82546115b2565b9055565b611606815f6115dc565b61163c7f2f658b440c35314f52658ea8a740e05b284cdc84dc9ae01e891f21b8933e7cad91611633610152565b9182918261083f565b0390a1565b6116585f61165d92611651610d52565b5001611267565b611975565b90565b906116785f61167d9361167161092a565b5001611267565b6119ea565b90565b6116975f61169c92611690610c8f565b5001611267565b611acd565b6116a4610c8f565b5090565b906116c05f6116c5936116b9610a54565b5001611267565b611b90565b90565b6116d190610284565b90565b906116de906116c8565b5f5260205260405f2090565b90565b6116f96116fe91611119565b6116ea565b90565b61170b90546116ed565b90565b61172c91600161172792611720610a54565b50016116d4565b611701565b61173e6117385f610bea565b916103b3565b141590565b5f90565b604090611770611777949695939661176660608401985f850190610832565b6020830190610832565b01906106c4565b565b5f90604092949593956117cc61178d610a54565b976117bd611799611743565b9891936117a4610152565b94859360046020860163b700961360e01b815201611747565b6020820181038252038261018a565b9082805282602052602082519201905afa6117e4575b565b9150505f51906020518060201c1502906117e2565b90565b5f5260205f2090565b5490565b61181281611805565b82101561182c576118246001916117fc565b910201905f90565b610d65565b9190600861184c9102916118465f19846112fe565b926112fe565b9181191691161790565b61185f90611119565b90565b9190611878611873611880936116c8565b611856565b908354611831565b9055565b90815491680100000000000000008310156118b457826118ac9160016118b295018155611809565b90611862565b565b610176565b5490565b906118c95f1991610b18565b9181191691161790565b6118e76118e26118ec926103b3565b610be7565b6103b3565b90565b90565b9061190761190261190e926118d3565b6118ef565b82546118bd565b9055565b61191a610a54565b5061192f61192982849061170e565b1561031f565b5f1461196f5761196561196a9261195161194a5f85016117f9565b8290611884565b600161195e5f85016118b9565b93016116d4565b6118f2565b600190565b50505f90565b5f61198991611982610d52565b50016118b9565b90565b5f5260205f2090565b61199e816118b9565b8210156119b8576119b060019161198c565b910201905f90565b610d65565b1c90565b90565b6119d49060086119d993026119bd565b6119c1565b90565b906119e791546119c4565b90565b611a08915f611a02926119fb61092a565b5001611995565b906119dc565b90565b60209181520190565b611a20611a2591611119565b6119c1565b90565b611a329054611a14565b90565b60010190565b90611a58611a52611a4b846118b9565b8093611a0b565b9261198c565b905f5b818110611a685750505090565b909192611a88611a82600192611a7d87611a28565b61056a565b94611a35565b9101919091611a5b565b90611a9c91611a3b565b90565b90611abf611ab892611aaf610152565b93848092611a92565b038361018a565b565b611aca90611a9f565b90565b5f611ae191611ada610c8f565b5001611ac1565b90565b90565b611afb611af6611b0092611ae4565b610be7565b6103b3565b90565b634e487b7160e01b5f52603160045260245ffd5b611b2991611b2361092a565b91611862565b565b611b3481611805565b8015611b55576001900390611b52611b4c8383611809565b90611b17565b55565b611b03565b9190611b70611b6b611b78936118d3565b6118ef565b908354611831565b9055565b611b8e91611b88610d52565b91611b5a565b565b611b98610a54565b50611baf611baa6001830184906116d4565b611701565b9081611bc3611bbd5f610bea565b916103b3565b14155f14611c8f57611c41926001611c3c9284611bea5f96611be485611ae7565b90610d2d565b611c07611bf88885016118b9565b611c0186611ae7565b90610d2d565b81611c1a611c14836103b3565b916103b3565b03611c46575b505050611c36611c318683016117f9565b611b2b565b016116d4565b611b7c565b600190565b611c8792611c79611c65611c5f611c82948c8901611995565b906119dc565b93611c7385918c8901611995565b90611862565b918585016116d4565b6118f2565b5f8080611c20565b5050505f9056","linkReferences":{}},"methodIdentifiers":{"addCOSMWChainKey(string)":"8ef8c93b","addChainKey(bytes32)":"985c272c","addEVMChainKey(uint256)":"4aae825a","addOtherChainType(string,bytes32)":"910201d0","addSOLChainKey(string)":"3cd9cf91","authority()":"bf7e214f","getChainKeyAt(uint256)":"ceff7e0d","getChainKeyCOSMW(string)":"1b69b176","getChainKeyCount()":"8ac1b576","getChainKeyEVM(uint256)":"5411d37f","getChainKeyOther(string,bytes32)":"b2e34548","getChainKeySOL(string)":"f044c7dd","getChainKeys()":"b95ad7dc","getChainKeysFrom(uint256,uint256)":"8a0a736d","isChainKeyRegistered(bytes32)":"33b2306f","isConsumingScheduledOp()":"8fb36037","removeChainKey(bytes32)":"e6da1c34","revertIfChainKeyNotRegistered(bytes32)":"631c15ba","setAuthority(address)":"7a9e5e4b"},"id":68}