{"abi":[{"type":"constructor","inputs":[{"name":"initialAuthority","type":"address","internalType":"address"},{"name":"_bridge","type":"address","internalType":"contract Cl8YBridge"},{"name":"_tokenRegistry","type":"address","internalType":"contract TokenRegistry"},{"name":"_mintBurn","type":"address","internalType":"contract MintBurn"},{"name":"_lockUnlock","type":"address","internalType":"contract LockUnlock"},{"name":"_wrappedNative","type":"address","internalType":"contract IWETH"},{"name":"_guard","type":"address","internalType":"contract IGuardBridge"}],"stateMutability":"nonpayable"},{"type":"receive","stateMutability":"payable"},{"type":"function","name":"authority","inputs":[],"outputs":[{"name":"","type":"address","internalType":"address"}],"stateMutability":"view"},{"type":"function","name":"bridge","inputs":[],"outputs":[{"name":"","type":"address","internalType":"contract Cl8YBridge"}],"stateMutability":"view"},{"type":"function","name":"deposit","inputs":[{"name":"token","type":"address","internalType":"address"},{"name":"amount","type":"uint256","internalType":"uint256"},{"name":"destChainKey","type":"bytes32","internalType":"bytes32"},{"name":"destAccount","type":"bytes32","internalType":"bytes32"}],"outputs":[],"stateMutability":"nonpayable"},{"type":"function","name":"depositNative","inputs":[{"name":"destChainKey","type":"bytes32","internalType":"bytes32"},{"name":"destAccount","type":"bytes32","internalType":"bytes32"}],"outputs":[],"stateMutability":"payable"},{"type":"function","name":"guard","inputs":[],"outputs":[{"name":"","type":"address","internalType":"contract IGuardBridge"}],"stateMutability":"view"},{"type":"function","name":"isConsumingScheduledOp","inputs":[],"outputs":[{"name":"","type":"bytes4","internalType":"bytes4"}],"stateMutability":"view"},{"type":"function","name":"lockUnlock","inputs":[],"outputs":[{"name":"","type":"address","internalType":"contract LockUnlock"}],"stateMutability":"view"},{"type":"function","name":"mintBurn","inputs":[],"outputs":[{"name":"","type":"address","internalType":"contract MintBurn"}],"stateMutability":"view"},{"type":"function","name":"pause","inputs":[],"outputs":[],"stateMutability":"nonpayable"},{"type":"function","name":"paused","inputs":[],"outputs":[{"name":"","type":"bool","internalType":"bool"}],"stateMutability":"view"},{"type":"function","name":"setAuthority","inputs":[{"name":"newAuthority","type":"address","internalType":"address"}],"outputs":[],"stateMutability":"nonpayable"},{"type":"function","name":"tokenRegistry","inputs":[],"outputs":[{"name":"","type":"address","internalType":"contract TokenRegistry"}],"stateMutability":"view"},{"type":"function","name":"unpause","inputs":[],"outputs":[],"stateMutability":"nonpayable"},{"type":"function","name":"withdraw","inputs":[{"name":"withdrawHash","type":"bytes32","internalType":"bytes32"}],"outputs":[],"stateMutability":"payable"},{"type":"function","name":"withdrawNative","inputs":[{"name":"withdrawHash","type":"bytes32","internalType":"bytes32"}],"outputs":[],"stateMutability":"nonpayable"},{"type":"function","name":"wrappedNative","inputs":[],"outputs":[{"name":"","type":"address","internalType":"contract IWETH"}],"stateMutability":"view"},{"type":"event","name":"AuthorityUpdated","inputs":[{"name":"authority","type":"address","indexed":false,"internalType":"address"}],"anonymous":false},{"type":"event","name":"DepositNative","inputs":[{"name":"sender","type":"address","indexed":true,"internalType":"address"},{"name":"amount","type":"uint256","indexed":false,"internalType":"uint256"},{"name":"destChainKey","type":"bytes32","indexed":true,"internalType":"bytes32"},{"name":"destAccount","type":"bytes32","indexed":true,"internalType":"bytes32"}],"anonymous":false},{"type":"event","name":"Paused","inputs":[{"name":"account","type":"address","indexed":false,"internalType":"address"}],"anonymous":false},{"type":"event","name":"Unpaused","inputs":[{"name":"account","type":"address","indexed":false,"internalType":"address"}],"anonymous":false},{"type":"event","name":"WithdrawNative","inputs":[{"name":"to","type":"address","indexed":true,"internalType":"address"},{"name":"amount","type":"uint256","indexed":false,"internalType":"uint256"}],"anonymous":false},{"type":"error","name":"AccessManagedInvalidAuthority","inputs":[{"name":"authority","type":"address","internalType":"address"}]},{"type":"error","name":"AccessManagedRequiredDelay","inputs":[{"name":"caller","type":"address","internalType":"address"},{"name":"delay","type":"uint32","internalType":"uint32"}]},{"type":"error","name":"AccessManagedUnauthorized","inputs":[{"name":"caller","type":"address","internalType":"address"}]},{"type":"error","name":"ApprovalNotNativePath","inputs":[]},{"type":"error","name":"ApprovalRequiresNativePath","inputs":[]},{"type":"error","name":"EnforcedPause","inputs":[]},{"type":"error","name":"ExpectedPause","inputs":[]},{"type":"error","name":"FeeExceedsAmount","inputs":[]},{"type":"error","name":"InsufficientNativeValue","inputs":[]},{"type":"error","name":"NativeTransferFailed","inputs":[]},{"type":"error","name":"NativeValueRequired","inputs":[]},{"type":"error","name":"ReentrancyGuardReentrantCall","inputs":[]}],"bytecode":{"object":"0x6101406040523461014157610021610015610372565b95949094939193610399565b610029610146565b612c3c610551823960805181818161073001528181610dd201528181611588015281816117b30152818161186201528181611ded0152818161206c015281816121dc01526122a3015260a05181610652015260c05181610200015260e05181818161014301528181610d5b0152610f3d0152610100518181816107b701528181610c4101528181610cae01528181610d1d01528181610e0d01528181610f0c015281816116030152818161173601526118d201526101205181818161046901528181610b1b01528181610ba301528181610c1301528181611514015281816116990152818161170801528181611c8201528181611d0a01528181611d7a01528181611ff8015281816120d2015261214c0152612c3c90f35b61014c565b60405190565b5f80fd5b601f801991011690565b634e487b7160e01b5f52604160045260245ffd5b9061017890610150565b810190811060018060401b0382111761019057604052565b61015a565b906101a86101a1610146565b928361016e565b565b5f80fd5b60018060a01b031690565b6101c2906101ae565b90565b6101ce816101b9565b036101d557565b5f80fd5b905051906101e6826101c5565b565b6101f1906101b9565b90565b6101fd816101e8565b0361020457565b5f80fd5b90505190610215826101f4565b565b610220906101b9565b90565b61022c81610217565b0361023357565b5f80fd5b9050519061024482610223565b565b61024f906101b9565b90565b61025b81610246565b0361026257565b5f80fd5b9050519061027382610252565b565b61027e906101b9565b90565b61028a81610275565b0361029157565b5f80fd5b905051906102a282610281565b565b6102ad906101b9565b90565b6102b9816102a4565b036102c057565b5f80fd5b905051906102d1826102b0565b565b6102dc906101b9565b90565b6102e8816102d3565b036102ef57565b5f80fd5b90505190610300826102df565b565b60e08183031261036d57610318825f83016101d9565b926103268360208401610208565b926103348160408501610237565b926103428260608301610266565b9261036a6103538460808501610295565b936103618160a086016102c4565b9360c0016102f3565b90565b6101aa565b61039061318d8038038061038581610195565b928339810190610302565b90919293949596565b6103a290610444565b60805260a05260c05260e0526101005261012052565b90565b90565b90565b6103d56103d06103da926103b8565b6103be565b6103bb565b90565b6103e760016103c1565b90565b5f1b90565b906103fb5f19916103ea565b9181191691161790565b61041961041461041e926103bb565b6103be565b6103bb565b90565b90565b9061043961043461044092610405565b610421565b82546103ef565b9055565b61044d90610461565b61045f6104586103dd565b6001610424565b565b61046a9061046c565b565b6104759061050b565b565b9061048860018060a01b03916103ea565b9181191691161790565b6104a66104a16104ab926101ae565b6103be565b6101ae565b90565b6104b790610492565b90565b6104c3906104ae565b90565b90565b906104de6104d96104e5926104ba565b6104c6565b8254610477565b9055565b6104f2906101b9565b9052565b9190610509905f602085019401906104e9565b565b610515815f6104c9565b61054b7f2f658b440c35314f52658ea8a740e05b284cdc84dc9ae01e891f21b8933e7cad91610542610146565b918291826104f6565b0390a156fe60806040526004361015610015575b3661083c57005b61001f5f3561011e565b80630f3fe22f146101195780631221c0381461011457806317b07adc1461010f5780633f4ba83a1461010a5780635c975abb14610105578063703f51d0146101005780637a9e5e4b146100fb5780637ceab3b1146100f65780637dcc9f07146100f15780638456cb59146100ec5780638e19899e146100e75780638fb36037146100e25780639d23c4c7146100dd578063bf7e214f146100d8578063e78cea92146100d35763eb6d3a110361000e57610807565b610780565b6106f9565b6106a2565b61061b565b6105c4565b610591565b61055a565b6104b9565b610434565b6103b4565b610361565b610307565b6102dd565b610250565b6101c9565b60e01c90565b60405190565b5f80fd5b5f80fd5b5f91031261013c57565b61012e565b7f000000000000000000000000000000000000000000000000000000000000000090565b60018060a01b031690565b90565b61018761018261018c92610165565b610170565b610165565b90565b61019890610173565b90565b6101a49061018f565b90565b6101b09061019b565b9052565b91906101c7905f602085019401906101a7565b565b346101f9576101d9366004610132565b6101f56101e4610141565b6101ec610124565b918291826101b4565b0390f35b61012a565b7f000000000000000000000000000000000000000000000000000000000000000090565b61022b9061018f565b90565b61023790610222565b9052565b919061024e905f6020850194019061022e565b565b3461028057610260366004610132565b61027c61026b6101fe565b610273610124565b9182918261023b565b0390f35b61012a565b90565b61029181610285565b0361029857565b5f80fd5b905035906102a982610288565b565b91906040838203126102d357806102c76102d0925f860161029c565b9360200161029c565b90565b61012e565b5f0190565b6102f16102eb3660046102ab565b906110dc565b6102f9610124565b80610303816102d8565b0390f35b3461033557610317366004610132565b61031f611115565b610327610124565b80610331816102d8565b0390f35b61012a565b151590565b6103489061033a565b9052565b919061035f905f6020850194019061033f565b565b3461039157610371366004610132565b61038d61037c611150565b610384610124565b9182918261034c565b0390f35b61012a565b906020828203126103af576103ac915f0161029c565b90565b61012e565b346103e2576103cc6103c7366004610396565b611bb3565b6103d4610124565b806103de816102d8565b0390f35b61012a565b6103f090610165565b90565b6103fc816103e7565b0361040357565b5f80fd5b90503590610414826103f3565b565b9060208282031261042f5761042c915f01610407565b90565b61012e565b346104625761044c610447366004610416565b611bbe565b610454610124565b8061045e816102d8565b0390f35b61012a565b7f000000000000000000000000000000000000000000000000000000000000000090565b6104949061018f565b90565b6104a09061048b565b9052565b91906104b7905f60208501940190610497565b565b346104e9576104c9366004610132565b6104e56104d4610467565b6104dc610124565b918291826104a4565b0390f35b61012a565b90565b6104fa816104ee565b0361050157565b5f80fd5b90503590610512826104f1565b565b6080818303126105555761052a825f8301610407565b9261055261053b8460208501610505565b93610549816040860161029c565b9360600161029c565b90565b61012e565b3461058c5761057661056d366004610514565b92919091611f3a565b61057e610124565b80610588816102d8565b0390f35b61012a565b346105bf576105a1366004610132565b6105a9611f75565b6105b1610124565b806105bb816102d8565b0390f35b61012a565b6105d76105d2366004610396565b612475565b6105df610124565b806105e9816102d8565b0390f35b63ffffffff60e01b1690565b610602906105ed565b9052565b9190610619905f602085019401906105f9565b565b3461064b5761062b366004610132565b6106476106366124f8565b61063e610124565b91829182610606565b0390f35b61012a565b7f000000000000000000000000000000000000000000000000000000000000000090565b61067d9061018f565b90565b61068990610674565b9052565b91906106a0905f60208501940190610680565b565b346106d2576106b2366004610132565b6106ce6106bd610650565b6106c5610124565b9182918261068d565b0390f35b61012a565b6106e0906103e7565b9052565b91906106f7905f602085019401906106d7565b565b3461072957610709366004610132565b61072561071461255f565b61071c610124565b918291826106e4565b0390f35b61012a565b7f000000000000000000000000000000000000000000000000000000000000000090565b61075b9061018f565b90565b61076790610752565b9052565b919061077e905f6020850194019061075e565b565b346107b057610790366004610132565b6107ac61079b61072e565b6107a3610124565b9182918261076b565b0390f35b61012a565b7f000000000000000000000000000000000000000000000000000000000000000090565b6107e29061018f565b90565b6107ee906107d9565b9052565b9190610805905f602085019401906107e5565b565b3461083757610817366004610132565b6108336108226107b5565b61082a610124565b918291826107f2565b0390f35b61012a565b5f80fd5b906108529161084d612574565b610854565b565b9061086691610861612608565b610af8565b61086e612650565b565b90565b61088761088261088c92610870565b610170565b6104ee565b90565b1561089657565b5f62fbf37960e71b8152806108ad600482016102d8565b0390fd5b5f80fd5b601f801991011690565b634e487b7160e01b5f52604160045260245ffd5b906108dd906108b5565b810190811067ffffffffffffffff8211176108f757604052565b6108bf565b60e01b90565b5f91031261090c57565b61012e565b610919610124565b3d5f823e3d90fd5b5f1c90565b61093a61093561093f926104ee565b610170565b6104ee565b90565b61094e61095391610921565b610926565b90565b61096a61096561096f926104ee565b610170565b610165565b90565b61097b906104ee565b9052565b6040906109a86109af949695939661099e60608401985f8501906106d7565b6020830190610972565b01906106d7565b565b6109ba9061018f565b90565b905051906109ca826104f1565b565b906020828203126109e5576109e2915f016109bd565b90565b61012e565b916020610a0b929493610a0460408201965f8301906106d7565b01906106d7565b565b610a168161033a565b03610a1d57565b5f80fd5b90505190610a2e82610a0d565b565b90602082820312610a4957610a46915f01610a21565b90565b61012e565b916020610a6f929493610a6860408201965f8301906106d7565b0190610972565b565b610a7a90610285565b9052565b90959492610ac994610ab8610ac292610aae608096610aa460a088019c5f8901906106d7565b6020870190610a71565b6040850190610a71565b60608301906106d7565b0190610972565b565b610ad49061018f565b90565b610ae090610285565b90565b9190610af6905f60208501940190610972565b565b90610b1634610b0f610b095f610873565b916104ee565b141561088f565b610b3f7f000000000000000000000000000000000000000000000000000000000000000061048b565b6369921c2633823b156110d757610b7592610b6a5f8094610b5e610124565b968795869485936108fc565b8352600483016106e4565b03925af180156110d2576110a6575b50610b9e610b99610b9483610942565b610956565b61018f565b610bc77f000000000000000000000000000000000000000000000000000000000000000061048b565b906369921c2690823b156110a157610bfe92610bf35f8094610be7610124565b968795869485936108fc565b8352600483016106e4565b03925af1801561109c57611070575b50610c377f000000000000000000000000000000000000000000000000000000000000000061048b565b635fb03511610c657f00000000000000000000000000000000000000000000000000000000000000006107d9565b34923392813b1561106b575f610c8e91610c998296610c82610124565b988997889687956108fc565b85526004850161097f565b03925af180156110665761103a575b50610cd27f00000000000000000000000000000000000000000000000000000000000000006107d9565b63d0e30db0349190813b15611035575f91610cf991610cef610124565b94859384926108fc565b825281610d08600482016102d8565b03925af1801561103057611004575b50610d417f00000000000000000000000000000000000000000000000000000000000000006107d9565b602063dd62ed3e91610d52306109b1565b90610d97610d7f7f000000000000000000000000000000000000000000000000000000000000000061019b565b94610da2610d8b610124565b968795869485946108fc565b8452600484016109ea565b03915afa908115610fff575f91610fd1575b50610dc7610dc1346104ee565b916104ee565b10610f07575b610df67f0000000000000000000000000000000000000000000000000000000000000000610752565b6357ece64e610e04306109b1565b84928492610e317f00000000000000000000000000000000000000000000000000000000000000006107d9565b3491833b15610f0257610e65610e5a935f97938894610e4e610124565b9a8b998a9889976108fc565b875260048701610a7e565b03925af18015610efd57610ed1575b50339034929091610ecc610eba610eb4610eae7f96121caa8ec74dd8f329dffb17bdd0e358c86b3afa68634375a3d9986ab639ff94610acb565b94610ad7565b94610ad7565b94610ec3610124565b91829182610ae3565b0390a4565b610ef0905f3d8111610ef6575b610ee881836108d3565b810190610902565b5f610e74565b503d610ede565b610911565b6108b1565b610f307f00000000000000000000000000000000000000000000000000000000000000006107d9565b602063095ea7b391610f617f000000000000000000000000000000000000000000000000000000000000000061019b565b90610f805f801995610f8b610f74610124565b978896879586946108fc565b845260048401610a4e565b03925af18015610fcc57610fa0575b50610dcd565b610fc09060203d8111610fc5575b610fb881836108d3565b810190610a30565b610f9a565b503d610fae565b610911565b610ff2915060203d8111610ff8575b610fea81836108d3565b8101906109cc565b5f610db4565b503d610fe0565b610911565b611023905f3d8111611029575b61101b81836108d3565b810190610902565b5f610d17565b503d611011565b610911565b6108b1565b611059905f3d811161105f575b61105181836108d3565b810190610902565b5f610ca8565b503d611047565b610911565b6108b1565b61108f905f3d8111611095575b61108781836108d3565b810190610902565b5f610c0d565b503d61107d565b610911565b6108b1565b6110c5905f3d81116110cb575b6110bd81836108d3565b810190610902565b5f610b84565b503d6110b3565b610911565b6108b1565b906110e691610840565b565b6111016110f3612664565b6110fb612677565b9161280b565b61110961110b565b565b6111136129f2565b565b61111d6110e8565b565b5f90565b60a81c90565b60ff1690565b61113b61114091611123565b611129565b90565b61114d905461112f565b90565b61115861111f565b506111625f611143565b90565b61117690611171612574565b611178565b565b61118990611184612608565b61150f565b611191612650565b565b5f80fd5b906111aa6111a3610124565b92836108d3565b565b905051906111b982610288565b565b905051906111c8826103f3565b565b919060c08382031261124c57611245906111e460c0611197565b936111f1825f83016111ac565b5f86015261120282602083016111bb565b602086015261121482604083016111ac565b604086015261122682606083016111bb565b606086015261123882608083016109bd565b608086015260a0016109bd565b60a0830152565b611193565b9060c08282031261126a57611267915f016111ca565b90565b61012e565b9190611282905f60208501940190610a71565b565b61128e90516103e7565b90565b1561129857565b5f630a085c1760e41b8152806112b0600482016102d8565b0390fd5b6112be9051610285565b90565b6112ca90610173565b90565b6112d6906112c1565b90565b6112e29061018f565b90565b6112ee906112d9565b9052565b9190611305905f602085019401906112e5565b565b61131190516104ee565b90565b67ffffffffffffffff1690565b61132a81611314565b0361133157565b5f80fd5b9050519061134282611321565b565b919060e0838203126113d8576113d19061135e60e0611197565b9361136b825f83016109bd565b5f86015261137c82602083016111bb565b602086015261138e8260408301611335565b60408601526113a08260608301610a21565b60608601526113b28260808301610a21565b60808601526113c48260a08301610a21565b60a086015260c001610a21565b60c0830152565b611193565b9060e0828203126113f6576113f3915f01611344565b90565b61012e565b611405905161033a565b90565b1561140f57565b5f6320e65ddd60e21b815280611427600482016102d8565b0390fd5b905090565b61143b5f809261142b565b0190565b61144890611430565b90565b67ffffffffffffffff8111611469576114656020916108b5565b0190565b6108bf565b9061148061147b8361144b565b611197565b918252565b606090565b3d5f146114a55761149a3d61146e565b903d5f602084013e5b565b6114ad611485565b906114a3565b156114ba57565b5f633d2cec6f60e21b8152806114d2600482016102d8565b0390fd5b634e487b7160e01b5f52601160045260245ffd5b6114f96114ff919392936104ee565b926104ee565b820391821161150a57565b6114d6565b6115387f000000000000000000000000000000000000000000000000000000000000000061048b565b6369921c2633823b15611bae5761156e926115635f8094611557610124565b968795869485936108fc565b8352600483016106e4565b03925af18015611ba957611b7d575b506115d660c06115ac7f0000000000000000000000000000000000000000000000000000000000000000610752565b63c49d6f69906115cb85926115bf610124565b958694859384936108fc565b83526004830161126f565b03915afa908115611b78575f91611b4a575b506116386115f860208301611284565b61163261162c6116277f00000000000000000000000000000000000000000000000000000000000000006107d9565b6103e7565b916103e7565b14611291565b61166761164760608301611284565b61166161165b611656306109b1565b6103e7565b916103e7565b14611291565b61169361168e61168961168461167f604086016112b4565b610942565b610956565b61018f565b6112cd565b916116bd7f000000000000000000000000000000000000000000000000000000000000000061048b565b6369921c2684823b15611b45576116f3926116e85f80946116dc610124565b968795869485936108fc565b8352600483016112f2565b03925af18015611b4057611b14575b5061172c7f000000000000000000000000000000000000000000000000000000000000000061048b565b63a44eda3c61175a7f00000000000000000000000000000000000000000000000000000000000000006107d9565b61176660808601611307565b923392813b15611b0f575f61178e916117998296611782610124565b988997889687956108fc565b85526004850161097f565b03925af18015611b0a57611ade575b5061180160e06117d77f0000000000000000000000000000000000000000000000000000000000000000610752565b639211345c906117f685926117ea610124565b958694859384936108fc565b83526004830161126f565b03915afa908115611ad9575f91611aab575b5091611829611824608085016113fb565b611291565b6118345f8401611307565b9161185d8361185661185061184b60808701611307565b6104ee565b916104ee565b1115611408565b6118867f0000000000000000000000000000000000000000000000000000000000000000610752565b90638e19899e90823b15611aa6576118bd926118b25f80946118a6610124565b968795869485936108fc565b83526004830161126f565b03925af18015611aa157611a75575b506118f67f00000000000000000000000000000000000000000000000000000000000000006107d9565b90632e1a7d4d61190860808301611307565b833b15611a70576119389361192d5f8094611921610124565b978895869485936108fc565b835260048301610ae3565b03925af1908115611a6b576119799461197493608093611a3f575b50846119676119615f610873565b916104ee565b116119f2575b5001611307565b6114ea565b906119ae5f80611988846112d9565b85611991610124565b908161199c8161143f565b03925af16119a861148a565b506114b3565b6119ed6119db7fde93db11f7aedf7cb3be22dc4d80e7790ab4b59a30aae83e86ac8326245542c5926112d9565b926119e4610124565b91829182610ae3565b0390a2565b5f80611a13611a0e611a096020611a399601611284565b6112cd565b6112d9565b87611a1c610124565b9081611a278161143f565b03925af1611a3361148a565b506114b3565b5f61196d565b611a5e905f3d8111611a64575b611a5681836108d3565b810190610902565b5f611953565b503d611a4c565b610911565b6108b1565b611a94905f3d8111611a9a575b611a8c81836108d3565b810190610902565b5f6118cc565b503d611a82565b610911565b6108b1565b611acc915060e03d8111611ad2575b611ac481836108d3565b8101906113dd565b5f611813565b503d611aba565b610911565b611afd905f3d8111611b03575b611af581836108d3565b810190610902565b5f6117a8565b503d611aeb565b610911565b6108b1565b611b33905f3d8111611b39575b611b2b81836108d3565b810190610902565b5f611702565b503d611b21565b610911565b6108b1565b611b6b915060c03d8111611b71575b611b6381836108d3565b810190611251565b5f6115e8565b503d611b59565b610911565b611b9c905f3d8111611ba2575b611b9481836108d3565b810190610902565b5f61157d565b503d611b8a565b610911565b6108b1565b611bbc90611165565b565b611bc6612664565b80611be0611bda611bd561255f565b6103e7565b916103e7565b03611c295750803b611bfa611bf45f610873565b916104ee565b14611c0a57611c0890612a3a565b565b611c25905f9182916361798f2f60e11b8352600483016106e4565b0390fd5b611c43905f91829162d1953b60e31b8352600483016106e4565b0390fd5b90611c5b939291611c56612574565b611c5d565b565b90611c71939291611c6c612608565b611c7b565b611c79612650565b565b9190611ca67f000000000000000000000000000000000000000000000000000000000000000061048b565b6369921c2633823b15611f3557611cdc92611cd15f8094611cc5610124565b968795869485936108fc565b8352600483016106e4565b03925af18015611f3057611f04575b50611d05611d00611cfb86610942565b610956565b61018f565b611d2e7f000000000000000000000000000000000000000000000000000000000000000061048b565b906369921c2690823b15611eff57611d6592611d5a5f8094611d4e610124565b968795869485936108fc565b8352600483016106e4565b03925af18015611efa57611ece575b50611d9e7f000000000000000000000000000000000000000000000000000000000000000061048b565b635fb035118483923392813b15611ec9575f611dcd91611dd88296611dc1610124565b988997889687956108fc565b85526004850161097f565b03925af18015611ec457611e98575b50611e117f0000000000000000000000000000000000000000000000000000000000000000610752565b906357ece64e90339395949091833b15611e9357611e50611e45935f97938894611e39610124565b9a8b998a9889976108fc565b875260048701610a7e565b03925af18015611e8e57611e62575b50565b611e81905f3d8111611e87575b611e7981836108d3565b810190610902565b5f611e5f565b503d611e6f565b610911565b6108b1565b611eb7905f3d8111611ebd575b611eaf81836108d3565b810190610902565b5f611de7565b503d611ea5565b610911565b6108b1565b611eed905f3d8111611ef3575b611ee581836108d3565b810190610902565b5f611d74565b503d611edb565b610911565b6108b1565b611f23905f3d8111611f29575b611f1b81836108d3565b810190610902565b5f611ceb565b503d611f11565b610911565b6108b1565b90611f46939291611c47565b565b611f61611f53612664565b611f5b612677565b9161280b565b611f69611f6b565b565b611f73612adf565b565b611f7d611f48565b565b611f9090611f8b612574565b611f92565b565b611fa390611f9e612608565b611ff3565b611fab612650565b565b15611fb457565b5f63035a524f60e11b815280611fcc600482016102d8565b0390fd5b15611fd757565b5f631ac4c73760e11b815280611fef600482016102d8565b0390fd5b61201c7f000000000000000000000000000000000000000000000000000000000000000061048b565b6369921c2633823b1561247057612052926120475f809461203b610124565b968795869485936108fc565b8352600483016106e4565b03925af1801561246b5761243f575b506120ba60c06120907f0000000000000000000000000000000000000000000000000000000000000000610752565b63c49d6f69906120af85926120a3610124565b958694859384936108fc565b83526004830161126f565b03915afa90811561243a575f9161240c575b506120f67f000000000000000000000000000000000000000000000000000000000000000061048b565b6369921c2661210760608401611284565b823b15612407576121379261212c5f8094612120610124565b968795869485936108fc565b8352600483016106e4565b03925af18015612402576123d6575b506121707f000000000000000000000000000000000000000000000000000000000000000061048b565b9063a44eda3c9061218f608061218860208401611284565b9201611307565b923392813b156123d1575f6121b7916121c282966121ab610124565b988997889687956108fc565b85526004850161097f565b03925af180156123cc576123a0575b5061222a60e06122007f0000000000000000000000000000000000000000000000000000000000000000610752565b639211345c9061221f8592612213610124565b958694859384936108fc565b83526004830161126f565b03915afa90811561239b57612266915f91829161236d575b5061226061225b612255608084016113fb565b1561033a565b611fad565b01611307565b806122796122735f610873565b916104ee565b145f1461234a575061229d346122976122915f610873565b916104ee565b14611fd0565b5b6122c77f0000000000000000000000000000000000000000000000000000000000000000610752565b90638e19899e349290929190803b15612345576122f75f93612302956122eb610124565b968795869485936108fc565b83526004830161126f565b03925af1801561234057612314575b50565b612333905f3d8111612339575b61232b81836108d3565b810190610902565b5f612311565b503d612321565b610911565b6108b1565b6123689061236161235b34926104ee565b916104ee565b1015611fd0565b61229e565b61238e915060e03d8111612394575b61238681836108d3565b8101906113dd565b5f612242565b503d61237c565b610911565b6123bf905f3d81116123c5575b6123b781836108d3565b810190610902565b5f6121d1565b503d6123ad565b610911565b6108b1565b6123f5905f3d81116123fb575b6123ed81836108d3565b810190610902565b5f612146565b503d6123e3565b610911565b6108b1565b61242d915060c03d8111612433575b61242581836108d3565b810190611251565b5f6120cc565b503d61241b565b610911565b61245e905f3d8111612464575b61245681836108d3565b810190610902565b5f612061565b503d61244c565b610911565b6108b1565b61247e90611f7f565b565b5f90565b60a01c90565b61249661249b91612484565b611129565b90565b6124a8905461248a565b90565b6124bf6124ba6124c492610870565b6108fc565b6105ed565b90565b6124d09061018f565b90565b63ffffffff1690565b6124f06124eb6124f5926124d3565b6108fc565b6105ed565b90565b612500612480565b5061250a5f61249e565b5f146125215761251d638fb360376124dc565b5b90565b61252a5f6124ab565b61251e565b5f90565b60018060a01b031690565b61254a61254f91610921565b612533565b90565b61255c905461253e565b90565b61256761252f565b506125715f612552565b90565b61257c611150565b61258257565b5f63d93c066560e01b81528061259a600482016102d8565b0390fd5b90565b6125b56125b06125ba9261259e565b610170565b6104ee565b90565b6125c760026125a1565b90565b5f1b90565b906125db5f19916125ca565b9181191691161790565b90565b906125fd6125f861260492610926565b6125e5565b82546125cf565b9055565b612610612b0d565b61262261261b6125bd565b60016125e8565b565b90565b61263b61263661264092612624565b610170565b6104ee565b90565b61264d6001612627565b90565b61266261265b612643565b60016125e8565b565b61266c61252f565b503390565b36905f90565b61267f612671565b9050505f903690565b90565b61269f61269a6126a492612688565b610170565b6104ee565b90565b5f80fd5b5f80fd5b909392938483116126cf5784116126ca576001820201920390565b6126ab565b6126a7565b5090565b1b90565b906126ea6126f191836126d4565b91356105ed565b90600481106126ff575b5090565b6127179063ffffffff60e01b906004036008026126d8565b165f6126fb565b61273261272d61273792610870565b610170565b6124d3565b90565b60a01b90565b9061274f60ff60a01b9161273a565b9181191691161790565b6127629061033a565b90565b90565b9061277d61277861278492612759565b612765565b8254612740565b9055565b61279190610173565b90565b61279d90612788565b90565b6127a99061018f565b90565b60209181520190565b90825f939282370152565b91906127da816127d3816127df956127ac565b80956127b5565b6108b5565b0190565b916128089391926127fb60408201945f8301906106d7565b60208185039101526127c0565b90565b9061285d61285561281a61255f565b84612824306124c7565b9061284f612849878a5f9061284361283d600493610873565b9261268b565b926126af565b906126dc565b92612b89565b91901561033a565b612868575b50505050565b61287a6128745f61271e565b916124d3565b115f146129365761288c60015f612768565b6128a461289f61289a61255f565b612794565b6127a0565b6394c7d7ee92919392813b15612931575f6128d2916128dd82966128c6610124565b988997889687956108fc565b8552600485016127e3565b03925af1801561292c57612900575b506128f75f5f612768565b5f808080612862565b61291f905f3d8111612925575b61291781836108d3565b810190610902565b5f6128ec565b503d61290d565b610911565b6108b1565b612950825f91829162d1953b60e31b8352600483016106e4565b0390fd5b61295c612c09565b6129646129a5565b565b60a81b90565b9061297b60ff60a81b91612966565b9181191691161790565b9061299a6129956129a192612759565b612765565b825461296c565b9055565b6129af5f5f612985565b6129b7612664565b6129ed7f5db9ee0a495bf2e6ff9c91a7834c1ba4fdd244a5e8aa4e537bd38aeae4b073aa916129e4610124565b918291826106e4565b0390a1565b6129fa612954565b565b90612a0d60018060a01b03916125ca565b9181191691161790565b90565b90612a2f612a2a612a3692610acb565b612a17565b82546129fc565b9055565b612a44815f612a1a565b612a7a7f2f658b440c35314f52658ea8a740e05b284cdc84dc9ae01e891f21b8933e7cad91612a71610124565b918291826106e4565b0390a1565b612a87612574565b612a8f612a91565b565b612a9c60015f612985565b612aa4612664565b612ada7f62e78cea01bee320cd4e420270b5ea74000d11b0c9f74754ebdbfc544b05a25891612ad1610124565b918291826106e4565b0390a1565b612ae7612a7f565b565b90565b612af8612afd91610921565b612ae9565b90565b612b0a9054612aec565b90565b612b176001612b00565b612b30612b2a612b256125bd565b6104ee565b916104ee565b14612b3757565b5f633ee5aeb560e01b815280612b4f600482016102d8565b0390fd5b5f90565b604090612b80612b879496959396612b7660608401985f8501906106d7565b60208301906106d7565b01906105f9565b565b5f9060409294959395612bdc612b9d61111f565b97612bcd612ba9612b53565b989193612bb4610124565b94859360046020860163b700961360e01b815201612b57565b602082018103825203826108d3565b9082805282602052602082519201905afa612bf4575b565b9150505f51906020518060201c150290612bf2565b612c1a612c14611150565b1561033a565b612c2057565b5f638dfc202b60e01b815280612c38600482016102d8565b0390fd","linkReferences":{}},"methodIdentifiers":{"authority()":"bf7e214f","bridge()":"e78cea92","deposit(address,uint256,bytes32,bytes32)":"7dcc9f07","depositNative(bytes32,bytes32)":"17b07adc","guard()":"7ceab3b1","isConsumingScheduledOp()":"8fb36037","lockUnlock()":"0f3fe22f","mintBurn()":"1221c038","pause()":"8456cb59","paused()":"5c975abb","setAuthority(address)":"7a9e5e4b","tokenRegistry()":"9d23c4c7","unpause()":"3f4ba83a","withdraw(bytes32)":"8e19899e","withdrawNative(bytes32)":"703f51d0","wrappedNative()":"eb6d3a11"},"id":58}