{"abi":[{"type":"constructor","inputs":[{"name":"initialAuthority","type":"address","internalType":"address"},{"name":"_bridge","type":"address","internalType":"contract Cl8YBridge"},{"name":"_tokenRegistry","type":"address","internalType":"contract TokenRegistry"},{"name":"_mintBurn","type":"address","internalType":"contract MintBurn"},{"name":"_lockUnlock","type":"address","internalType":"contract LockUnlock"},{"name":"_wrappedNative","type":"address","internalType":"contract IWETH"},{"name":"_guard","type":"address","internalType":"contract IGuardBridge"}],"stateMutability":"nonpayable"},{"type":"receive","stateMutability":"payable"},{"type":"function","name":"authority","inputs":[],"outputs":[{"name":"","type":"address","internalType":"address"}],"stateMutability":"view"},{"type":"function","name":"bridge","inputs":[],"outputs":[{"name":"","type":"address","internalType":"contract Cl8YBridge"}],"stateMutability":"view"},{"type":"function","name":"deposit","inputs":[{"name":"token","type":"address","internalType":"address"},{"name":"amount","type":"uint256","internalType":"uint256"},{"name":"destChainKey","type":"bytes32","internalType":"bytes32"},{"name":"destAccount","type":"bytes32","internalType":"bytes32"}],"outputs":[],"stateMutability":"nonpayable"},{"type":"function","name":"depositNative","inputs":[{"name":"destChainKey","type":"bytes32","internalType":"bytes32"},{"name":"destAccount","type":"bytes32","internalType":"bytes32"}],"outputs":[],"stateMutability":"payable"},{"type":"function","name":"guard","inputs":[],"outputs":[{"name":"","type":"address","internalType":"contract IGuardBridge"}],"stateMutability":"view"},{"type":"function","name":"isConsumingScheduledOp","inputs":[],"outputs":[{"name":"","type":"bytes4","internalType":"bytes4"}],"stateMutability":"view"},{"type":"function","name":"lockUnlock","inputs":[],"outputs":[{"name":"","type":"address","internalType":"contract LockUnlock"}],"stateMutability":"view"},{"type":"function","name":"mintBurn","inputs":[],"outputs":[{"name":"","type":"address","internalType":"contract MintBurn"}],"stateMutability":"view"},{"type":"function","name":"pause","inputs":[],"outputs":[],"stateMutability":"nonpayable"},{"type":"function","name":"paused","inputs":[],"outputs":[{"name":"","type":"bool","internalType":"bool"}],"stateMutability":"view"},{"type":"function","name":"setAuthority","inputs":[{"name":"newAuthority","type":"address","internalType":"address"}],"outputs":[],"stateMutability":"nonpayable"},{"type":"function","name":"tokenRegistry","inputs":[],"outputs":[{"name":"","type":"address","internalType":"contract TokenRegistry"}],"stateMutability":"view"},{"type":"function","name":"unpause","inputs":[],"outputs":[],"stateMutability":"nonpayable"},{"type":"function","name":"withdraw","inputs":[{"name":"srcChainKey","type":"bytes32","internalType":"bytes32"},{"name":"token","type":"address","internalType":"address"},{"name":"to","type":"address","internalType":"address"},{"name":"amount","type":"uint256","internalType":"uint256"},{"name":"nonce","type":"uint256","internalType":"uint256"}],"outputs":[],"stateMutability":"payable"},{"type":"function","name":"withdrawNative","inputs":[{"name":"srcChainKey","type":"bytes32","internalType":"bytes32"},{"name":"amount","type":"uint256","internalType":"uint256"},{"name":"nonce","type":"uint256","internalType":"uint256"},{"name":"to","type":"address","internalType":"address payable"}],"outputs":[],"stateMutability":"nonpayable"},{"type":"function","name":"wrappedNative","inputs":[],"outputs":[{"name":"","type":"address","internalType":"contract IWETH"}],"stateMutability":"view"},{"type":"event","name":"AuthorityUpdated","inputs":[{"name":"authority","type":"address","indexed":false,"internalType":"address"}],"anonymous":false},{"type":"event","name":"DepositNative","inputs":[{"name":"sender","type":"address","indexed":true,"internalType":"address"},{"name":"amount","type":"uint256","indexed":false,"internalType":"uint256"},{"name":"destChainKey","type":"bytes32","indexed":true,"internalType":"bytes32"},{"name":"destAccount","type":"bytes32","indexed":true,"internalType":"bytes32"}],"anonymous":false},{"type":"event","name":"Paused","inputs":[{"name":"account","type":"address","indexed":false,"internalType":"address"}],"anonymous":false},{"type":"event","name":"Unpaused","inputs":[{"name":"account","type":"address","indexed":false,"internalType":"address"}],"anonymous":false},{"type":"event","name":"WithdrawNative","inputs":[{"name":"to","type":"address","indexed":true,"internalType":"address"},{"name":"amount","type":"uint256","indexed":false,"internalType":"uint256"}],"anonymous":false},{"type":"error","name":"AccessManagedInvalidAuthority","inputs":[{"name":"authority","type":"address","internalType":"address"}]},{"type":"error","name":"AccessManagedRequiredDelay","inputs":[{"name":"caller","type":"address","internalType":"address"},{"name":"delay","type":"uint32","internalType":"uint32"}]},{"type":"error","name":"AccessManagedUnauthorized","inputs":[{"name":"caller","type":"address","internalType":"address"}]},{"type":"error","name":"ApprovalNotNativePath","inputs":[]},{"type":"error","name":"ApprovalRequiresNativePath","inputs":[]},{"type":"error","name":"EnforcedPause","inputs":[]},{"type":"error","name":"ExpectedPause","inputs":[]},{"type":"error","name":"FeeExceedsAmount","inputs":[]},{"type":"error","name":"InsufficientNativeValue","inputs":[]},{"type":"error","name":"NativeTransferFailed","inputs":[]},{"type":"error","name":"NativeValueRequired","inputs":[]},{"type":"error","name":"ReentrancyGuardReentrantCall","inputs":[]}],"bytecode":{"object":"0x6101406040523461014857610021610015610379565b959490949391936103a0565b61002961014d565b612e5061055882396080518181816107e501528181610e870152818161170e015281816117780152818161183c01528181611c970152818161217d015281816122b70152612321015260a05181610707015260c05181610200015260e05181818161014301528181610e100152610ff201526101005181818161086c01528181610cf601528181610d6301528181610dd201528181610ec201528181610fc1015281816120ee015281816121ac0152818161223a01526123c20152610120518181816104c101528181610bd001528181610c5801528181610cc801528181611547015281816115b60152818161162501528181611b2c01528181611bb401528181611c2401528181611fe20152818161205101526120c00152612e5090f35b610153565b60405190565b5f80fd5b601f801991011690565b634e487b7160e01b5f52604160045260245ffd5b9061017f90610157565b810190811060018060401b0382111761019757604052565b610161565b906101af6101a861014d565b9283610175565b565b5f80fd5b60018060a01b031690565b6101c9906101b5565b90565b6101d5816101c0565b036101dc57565b5f80fd5b905051906101ed826101cc565b565b6101f8906101c0565b90565b610204816101ef565b0361020b57565b5f80fd5b9050519061021c826101fb565b565b610227906101c0565b90565b6102338161021e565b0361023a57565b5f80fd5b9050519061024b8261022a565b565b610256906101c0565b90565b6102628161024d565b0361026957565b5f80fd5b9050519061027a82610259565b565b610285906101c0565b90565b6102918161027c565b0361029857565b5f80fd5b905051906102a982610288565b565b6102b4906101c0565b90565b6102c0816102ab565b036102c757565b5f80fd5b905051906102d8826102b7565b565b6102e3906101c0565b90565b6102ef816102da565b036102f657565b5f80fd5b90505190610307826102e6565b565b60e0818303126103745761031f825f83016101e0565b9261032d836020840161020f565b9261033b816040850161023e565b92610349826060830161026d565b9261037161035a846080850161029c565b936103688160a086016102cb565b9360c0016102fa565b90565b6101b1565b6103976133a88038038061038c8161019c565b928339810190610309565b90919293949596565b6103a99061044b565b60805260a05260c05260e0526101005261012052565b90565b90565b90565b6103dc6103d76103e1926103bf565b6103c5565b6103c2565b90565b6103ee60016103c8565b90565b5f1b90565b906104025f19916103f1565b9181191691161790565b61042061041b610425926103c2565b6103c5565b6103c2565b90565b90565b9061044061043b6104479261040c565b610428565b82546103f6565b9055565b61045490610468565b61046661045f6103e4565b600161042b565b565b61047190610473565b565b61047c90610512565b565b9061048f60018060a01b03916103f1565b9181191691161790565b6104ad6104a86104b2926101b5565b6103c5565b6101b5565b90565b6104be90610499565b90565b6104ca906104b5565b90565b90565b906104e56104e06104ec926104c1565b6104cd565b825461047e565b9055565b6104f9906101c0565b9052565b9190610510905f602085019401906104f0565b565b61051c815f6104d0565b6105527f2f658b440c35314f52658ea8a740e05b284cdc84dc9ae01e891f21b8933e7cad9161054961014d565b918291826104fd565b0390a156fe60806040526004361015610015575b366108f157005b61001f5f3561011e565b80630f3fe22f146101195780631221c0381461011457806317b07adc1461010f5780633f4ba83a1461010a57806356aca36f146101055780635c975abb146101005780637a9e5e4b146100fb5780637ceab3b1146100f65780637dcc9f07146100f15780638456cb59146100ec5780638c93301c146100e75780638fb36037146100e25780639d23c4c7146100dd578063bf7e214f146100d8578063e78cea92146100d35763eb6d3a110361000e576108bc565b610835565b6107ae565b610757565b6106d0565b61066b565b6105c3565b61058c565b610511565b61048c565b610439565b6103e5565b610307565b6102dd565b610250565b6101c9565b60e01c90565b60405190565b5f80fd5b5f80fd5b5f91031261013c57565b61012e565b7f000000000000000000000000000000000000000000000000000000000000000090565b60018060a01b031690565b90565b61018761018261018c92610165565b610170565b610165565b90565b61019890610173565b90565b6101a49061018f565b90565b6101b09061019b565b9052565b91906101c7905f602085019401906101a7565b565b346101f9576101d9366004610132565b6101f56101e4610141565b6101ec610124565b918291826101b4565b0390f35b61012a565b7f000000000000000000000000000000000000000000000000000000000000000090565b61022b9061018f565b90565b61023790610222565b9052565b919061024e905f6020850194019061022e565b565b3461028057610260366004610132565b61027c61026b6101fe565b610273610124565b9182918261023b565b0390f35b61012a565b90565b61029181610285565b0361029857565b5f80fd5b905035906102a982610288565b565b91906040838203126102d357806102c76102d0925f860161029c565b9360200161029c565b90565b61012e565b5f0190565b6102f16102eb3660046102ab565b90611191565b6102f9610124565b80610303816102d8565b0390f35b3461033557610317366004610132565b61031f6111ca565b610327610124565b80610331816102d8565b0390f35b61012a565b61034390610165565b90565b61034f8161033a565b0361035657565b5f80fd5b9050359061036782610346565b565b90565b61037581610369565b0361037c57565b5f80fd5b9050359061038d8261036c565b565b919060a0838203126103e0576103a7815f850161029c565b926103b5826020830161035a565b926103dd6103c6846040850161035a565b936103d48160608601610380565b93608001610380565b90565b61012e565b6103fc6103f336600461038f565b93929092611a13565b610404610124565b8061040e816102d8565b0390f35b151590565b61042090610412565b9052565b9190610437905f60208501940190610417565b565b3461046957610449366004610132565b610465610454611a53565b61045c610124565b91829182610424565b0390f35b61012a565b9060208282031261048757610484915f0161035a565b90565b61012e565b346104ba576104a461049f36600461046e565b611a68565b6104ac610124565b806104b6816102d8565b0390f35b61012a565b7f000000000000000000000000000000000000000000000000000000000000000090565b6104ec9061018f565b90565b6104f8906104e3565b9052565b919061050f905f602085019401906104ef565b565b3461054157610521366004610132565b61053d61052c6104bf565b610534610124565b918291826104fc565b0390f35b61012a565b6080818303126105875761055c825f830161035a565b9261058461056d8460208501610380565b9361057b816040860161029c565b9360600161029c565b90565b61012e565b346105be576105a861059f366004610546565b92919091611de4565b6105b0610124565b806105ba816102d8565b0390f35b61012a565b346105f1576105d3366004610132565b6105db611e1f565b6105e3610124565b806105ed816102d8565b0390f35b61012a565b6105ff90610165565b90565b61060b816105f6565b0361061257565b5f80fd5b9050359061062382610602565b565b6080818303126106665761063b825f830161029c565b9261066361064c8460208501610380565b9361065a8160408601610380565b93606001610616565b90565b61012e565b3461069d5761068761067e366004610625565b9291909161268b565b61068f610124565b80610699816102d8565b0390f35b61012a565b63ffffffff60e01b1690565b6106b7906106a2565b9052565b91906106ce905f602085019401906106ae565b565b34610700576106e0366004610132565b6106fc6106eb612711565b6106f3610124565b918291826106bb565b0390f35b61012a565b7f000000000000000000000000000000000000000000000000000000000000000090565b6107329061018f565b90565b61073e90610729565b9052565b9190610755905f60208501940190610735565b565b3461078757610767366004610132565b610783610772610705565b61077a610124565b91829182610742565b0390f35b61012a565b6107959061033a565b9052565b91906107ac905f6020850194019061078c565b565b346107de576107be366004610132565b6107da6107c9612778565b6107d1610124565b91829182610799565b0390f35b61012a565b7f000000000000000000000000000000000000000000000000000000000000000090565b6108109061018f565b90565b61081c90610807565b9052565b9190610833905f60208501940190610813565b565b3461086557610845366004610132565b6108616108506107e3565b610858610124565b91829182610820565b0390f35b61012a565b7f000000000000000000000000000000000000000000000000000000000000000090565b6108979061018f565b90565b6108a39061088e565b9052565b91906108ba905f6020850194019061089a565b565b346108ec576108cc366004610132565b6108e86108d761086a565b6108df610124565b918291826108a7565b0390f35b61012a565b5f80fd5b906109079161090261278d565b610909565b565b9061091b9161091661281c565b610bad565b610923612864565b565b90565b61093c61093761094192610925565b610170565b610369565b90565b1561094b57565b5f62fbf37960e71b815280610962600482016102d8565b0390fd5b5f80fd5b601f801991011690565b634e487b7160e01b5f52604160045260245ffd5b906109929061096a565b810190811067ffffffffffffffff8211176109ac57604052565b610974565b60e01b90565b5f9103126109c157565b61012e565b6109ce610124565b3d5f823e3d90fd5b5f1c90565b6109ef6109ea6109f492610369565b610170565b610369565b90565b610a03610a08916109d6565b6109db565b90565b610a1f610a1a610a2492610369565b610170565b610165565b90565b610a3090610369565b9052565b604090610a5d610a649496959396610a5360608401985f85019061078c565b6020830190610a27565b019061078c565b565b610a6f9061018f565b90565b90505190610a7f8261036c565b565b90602082820312610a9a57610a97915f01610a72565b90565b61012e565b916020610ac0929493610ab960408201965f83019061078c565b019061078c565b565b610acb81610412565b03610ad257565b5f80fd5b90505190610ae382610ac2565b565b90602082820312610afe57610afb915f01610ad6565b90565b61012e565b916020610b24929493610b1d60408201965f83019061078c565b0190610a27565b565b610b2f90610285565b9052565b90959492610b7e94610b6d610b7792610b63608096610b5960a088019c5f89019061078c565b6020870190610b26565b6040850190610b26565b606083019061078c565b0190610a27565b565b610b899061018f565b90565b610b9590610285565b90565b9190610bab905f60208501940190610a27565b565b90610bcb34610bc4610bbe5f610928565b91610369565b1415610944565b610bf47f00000000000000000000000000000000000000000000000000000000000000006104e3565b6369921c2633823b1561118c57610c2a92610c1f5f8094610c13610124565b968795869485936109b1565b835260048301610799565b03925af180156111875761115b575b50610c53610c4e610c49836109f7565b610a0b565b61018f565b610c7c7f00000000000000000000000000000000000000000000000000000000000000006104e3565b906369921c2690823b1561115657610cb392610ca85f8094610c9c610124565b968795869485936109b1565b835260048301610799565b03925af1801561115157611125575b50610cec7f00000000000000000000000000000000000000000000000000000000000000006104e3565b635fb03511610d1a7f000000000000000000000000000000000000000000000000000000000000000061088e565b34923392813b15611120575f610d4391610d4e8296610d37610124565b988997889687956109b1565b855260048501610a34565b03925af1801561111b576110ef575b50610d877f000000000000000000000000000000000000000000000000000000000000000061088e565b63d0e30db0349190813b156110ea575f91610dae91610da4610124565b94859384926109b1565b825281610dbd600482016102d8565b03925af180156110e5576110b9575b50610df67f000000000000000000000000000000000000000000000000000000000000000061088e565b602063dd62ed3e91610e0730610a66565b90610e4c610e347f000000000000000000000000000000000000000000000000000000000000000061019b565b94610e57610e40610124565b968795869485946109b1565b845260048401610a9f565b03915afa9081156110b4575f91611086575b50610e7c610e7634610369565b91610369565b10610fbc575b610eab7f0000000000000000000000000000000000000000000000000000000000000000610807565b6357ece64e610eb930610a66565b84928492610ee67f000000000000000000000000000000000000000000000000000000000000000061088e565b3491833b15610fb757610f1a610f0f935f97938894610f03610124565b9a8b998a9889976109b1565b875260048701610b33565b03925af18015610fb257610f86575b50339034929091610f81610f6f610f69610f637f96121caa8ec74dd8f329dffb17bdd0e358c86b3afa68634375a3d9986ab639ff94610b80565b94610b8c565b94610b8c565b94610f78610124565b91829182610b98565b0390a4565b610fa5905f3d8111610fab575b610f9d8183610988565b8101906109b7565b5f610f29565b503d610f93565b6109c6565b610966565b610fe57f000000000000000000000000000000000000000000000000000000000000000061088e565b602063095ea7b3916110167f000000000000000000000000000000000000000000000000000000000000000061019b565b906110355f801995611040611029610124565b978896879586946109b1565b845260048401610b03565b03925af1801561108157611055575b50610e82565b6110759060203d811161107a575b61106d8183610988565b810190610ae5565b61104f565b503d611063565b6109c6565b6110a7915060203d81116110ad575b61109f8183610988565b810190610a81565b5f610e69565b503d611095565b6109c6565b6110d8905f3d81116110de575b6110d08183610988565b8101906109b7565b5f610dcc565b503d6110c6565b6109c6565b610966565b61110e905f3d8111611114575b6111068183610988565b8101906109b7565b5f610d5d565b503d6110fc565b6109c6565b610966565b611144905f3d811161114a575b61113c8183610988565b8101906109b7565b5f610cc2565b503d611132565b6109c6565b610966565b61117a905f3d8111611180575b6111728183610988565b8101906109b7565b5f610c39565b503d611168565b6109c6565b610966565b9061119b916108f5565b565b6111b66111a8612878565b6111b061288b565b91612a1f565b6111be6111c0565b565b6111c8612c06565b565b6111d261119d565b565b906111e9949392916111e461278d565b6111eb565b565b90611200949392916111fb61281c565b61153e565b611208612864565b565b61121390610173565b90565b61122a61122561122f92610165565b610170565b610369565b90565b5f1b90565b61124b61124661125092610369565b611232565b610285565b90565b9061126661125f610124565b9283610988565b565b61127260c0611253565b90565b9061127f90610285565b9052565b9061128d9061033a565b9052565b9061129b90610369565b9052565b905051906112ac82610288565b565b906020828203126112c7576112c4915f0161129f565b90565b61012e565b6112d590610285565b9052565b6112e29061033a565b9052565b6112ef90610369565b9052565b9060a08061135d9361130b5f8201515f8601906112cc565b61131d602082015160208601906112d9565b61132f604082015160408601906112cc565b611341606082015160608601906112d9565b611353608082015160808601906112e6565b01519101906112e6565b565b9190611372905f60c085019401906112f3565b565b5f80fd5b9050519061138582610346565b565b67ffffffffffffffff1690565b61139d81611387565b036113a457565b5f80fd5b905051906113b582611394565b565b919060e08382031261144b57611444906113d160e0611253565b936113de825f8301610a72565b5f8601526113ef8260208301611378565b602086015261140182604083016113a8565b60408601526114138260608301610ad6565b60608601526114258260808301610ad6565b60808601526114378260a08301610ad6565b60a086015260c001610ad6565b60c0830152565b611374565b9060e08282031261146957611466915f016113b7565b90565b61012e565b9190611481905f60208501940190610b26565b565b61148d9051610412565b90565b1561149757565b5f63035a524f60e11b8152806114af600482016102d8565b0390fd5b6114bd9051610369565b90565b156114c757565b5f631ac4c73760e11b8152806114df600482016102d8565b0390fd5b919461152b6115359298979561152160a09661151761153c9a61150d60c08a019e5f8b0190610b26565b602089019061078c565b604087019061078c565b6060850190610b26565b6080830190610a27565b0190610a27565b565b9091939261156b7f00000000000000000000000000000000000000000000000000000000000000006104e3565b6369921c2633823b15611a0e576115a1926115965f809461158a610124565b968795869485936109b1565b835260048301610799565b03925af18015611a09576119dd575b506115da7f00000000000000000000000000000000000000000000000000000000000000006104e3565b6369921c2686823b156119d857611610926116055f80946115f9610124565b968795869485936109b1565b835260048301610799565b03925af180156119d3576119a7575b506116497f00000000000000000000000000000000000000000000000000000000000000006104e3565b63a44eda3c8483923392813b156119a2575f61167891611683829661166c610124565b988997889687956109b1565b855260048501610a34565b03925af1801561199d57611971575b506116ac6116a76116a28761120a565b611216565b611237565b91611759602082611709876117008a6116f78d6116ee8c6116e58d95976116dd6116d4611268565b9b5f8d01611275565b8b8b01611283565b60408901611275565b60608701611283565b60808501611291565b60a08301611291565b6117327f0000000000000000000000000000000000000000000000000000000000000000610807565b61174e63ee600efc611742610124565b958694859384936109b1565b83526004830161135f565b03915afa90811561196c576117c39160e0915f9161193e575b5061179c7f0000000000000000000000000000000000000000000000000000000000000000610807565b6117b8639211345c6117ac610124565b958694859384936109b1565b83526004830161146e565b03915afa908115611939576117ff915f91829161190b575b506117f96117f46117ee60808401611483565b15610412565b611490565b016114b3565b8061181261180c5f610928565b91610369565b145f146118e857506118363461183061182a5f610928565b91610369565b146114c0565b5b6118607f0000000000000000000000000000000000000000000000000000000000000000610807565b63248426f49334919491929597909396853b156118e3575f97611895956118a093611889610124565b9b8c9a8b998a986109b1565b8852600488016114e3565b03925af180156118de576118b2575b50565b6118d1905f3d81116118d7575b6118c98183610988565b8101906109b7565b5f6118af565b503d6118bf565b6109c6565b610966565b611906906118ff6118f93492610369565b91610369565b10156114c0565b611837565b61192c915060e03d8111611932575b6119248183610988565b810190611450565b5f6117db565b503d61191a565b6109c6565b61195f915060203d8111611965575b6119578183610988565b8101906112ae565b5f611772565b503d61194d565b6109c6565b611990905f3d8111611996575b6119888183610988565b8101906109b7565b5f611692565b503d61197e565b6109c6565b610966565b6119c6905f3d81116119cc575b6119be8183610988565b8101906109b7565b5f61161f565b503d6119b4565b6109c6565b610966565b6119fc905f3d8111611a02575b6119f48183610988565b8101906109b7565b5f6115b0565b503d6119ea565b6109c6565b610966565b90611a20949392916111d4565b565b5f90565b60a81c90565b60ff1690565b611a3e611a4391611a26565b611a2c565b90565b611a509054611a32565b90565b611a5b611a22565b50611a655f611a46565b90565b611a70612878565b80611a8a611a84611a7f612778565b61033a565b9161033a565b03611ad35750803b611aa4611a9e5f610928565b91610369565b14611ab457611ab290612c4e565b565b611acf905f9182916361798f2f60e11b835260048301610799565b0390fd5b611aed905f91829162d1953b60e31b835260048301610799565b0390fd5b90611b05939291611b0061278d565b611b07565b565b90611b1b939291611b1661281c565b611b25565b611b23612864565b565b9190611b507f00000000000000000000000000000000000000000000000000000000000000006104e3565b6369921c2633823b15611ddf57611b8692611b7b5f8094611b6f610124565b968795869485936109b1565b835260048301610799565b03925af18015611dda57611dae575b50611baf611baa611ba5866109f7565b610a0b565b61018f565b611bd87f00000000000000000000000000000000000000000000000000000000000000006104e3565b906369921c2690823b15611da957611c0f92611c045f8094611bf8610124565b968795869485936109b1565b835260048301610799565b03925af18015611da457611d78575b50611c487f00000000000000000000000000000000000000000000000000000000000000006104e3565b635fb035118483923392813b15611d73575f611c7791611c828296611c6b610124565b988997889687956109b1565b855260048501610a34565b03925af18015611d6e57611d42575b50611cbb7f0000000000000000000000000000000000000000000000000000000000000000610807565b906357ece64e90339395949091833b15611d3d57611cfa611cef935f97938894611ce3610124565b9a8b998a9889976109b1565b875260048701610b33565b03925af18015611d3857611d0c575b50565b611d2b905f3d8111611d31575b611d238183610988565b8101906109b7565b5f611d09565b503d611d19565b6109c6565b610966565b611d61905f3d8111611d67575b611d598183610988565b8101906109b7565b5f611c91565b503d611d4f565b6109c6565b610966565b611d97905f3d8111611d9d575b611d8f8183610988565b8101906109b7565b5f611c1e565b503d611d85565b6109c6565b610966565b611dcd905f3d8111611dd3575b611dc58183610988565b8101906109b7565b5f611b95565b503d611dbb565b6109c6565b610966565b90611df0939291611af1565b565b611e0b611dfd612878565b611e0561288b565b91612a1f565b611e13611e15565b565b611e1d612cf3565b565b611e27611df2565b565b90611e3d939291611e3861278d565b611e3f565b565b90611e53939291611e4e61281c565b611fda565b611e5b612864565b565b611e669061018f565b90565b611e7290611e5d565b9052565b9190611e89905f60208501940190611e69565b565b15611e9257565b5f630a085c1760e41b815280611eaa600482016102d8565b0390fd5b15611eb557565b5f6320e65ddd60e21b815280611ecd600482016102d8565b0390fd5b611edb905161033a565b90565b611ee790610173565b90565b611ef390611ede565b90565b905090565b611f065f8092611ef6565b0190565b611f1390611efb565b90565b67ffffffffffffffff8111611f3457611f3060209161096a565b0190565b610974565b90611f4b611f4683611f16565b611253565b918252565b606090565b3d5f14611f7057611f653d611f39565b903d5f602084013e5b565b611f78611f50565b90611f6e565b15611f8557565b5f633d2cec6f60e21b815280611f9d600482016102d8565b0390fd5b634e487b7160e01b5f52601160045260245ffd5b611fc4611fca91939293610369565b92610369565b8203918211611fd557565b611fa1565b9190916120067f00000000000000000000000000000000000000000000000000000000000000006104e3565b6369921c2633823b156126865761203c926120315f8094612025610124565b968795869485936109b1565b835260048301610799565b03925af1801561268157612655575b506120757f00000000000000000000000000000000000000000000000000000000000000006104e3565b6369921c2685823b15612650576120ab926120a05f8094612094610124565b968795869485936109b1565b835260048301611e76565b03925af1801561264b5761261f575b506120e47f00000000000000000000000000000000000000000000000000000000000000006104e3565b63a44eda3c6121127f000000000000000000000000000000000000000000000000000000000000000061088e565b85923392813b1561261a575f61213b91612146829661212f610124565b988997889687956109b1565b855260048501610a34565b03925af18015612615576125e9575b5061217761217261216d61216887611e5d565b61120a565b611216565b611237565b916121a17f0000000000000000000000000000000000000000000000000000000000000000610807565b63248426f4836121d07f000000000000000000000000000000000000000000000000000000000000000061088e565b926121da30610a66565b928789918795843b156125e4575f96612207948894612212936121fb610124565b9b8c9a8b998a986109b1565b8852600488016114e3565b03925af19384156125df576122a96020946122b293612302976125b3575b50936122a061225e7f000000000000000000000000000000000000000000000000000000000000000061088e565b9361229761226b30610a66565b9161228e8c959761228661227d611268565b9b5f8d01611275565b8b8b01611283565b60408901611275565b60608701611283565b60808501611291565b60a08301611291565b6122db7f0000000000000000000000000000000000000000000000000000000000000000610807565b6122f763ee600efc6122eb610124565b958694859384936109b1565b83526004830161135f565b03915afa9081156125ae5761236c9160e0915f91612580575b506123457f0000000000000000000000000000000000000000000000000000000000000000610807565b612361639211345c612355610124565b958694859384936109b1565b83526004830161146e565b03915afa90811561257b575f9161254d575b509061239461238f60808401611483565b611e8b565b61239f5f83016114b3565b906123bd826123b66123b084610369565b91610369565b1115611eae565b6123e67f000000000000000000000000000000000000000000000000000000000000000061088e565b92632e1a7d4d82853b156125485761241d956124125f8094612406610124565b998a95869485936109b1565b835260048301610b98565b03925af19384156125435761245194612517575b508261244561243f5f610928565b91610369565b116124ca575b50611fb5565b906124865f8061246084611e5d565b85612469610124565b908161247481611f0a565b03925af1612480611f55565b50611f7e565b6124c56124b37fde93db11f7aedf7cb3be22dc4d80e7790ab4b59a30aae83e86ac8326245542c592611e5d565b926124bc610124565b91829182610b98565b0390a2565b5f806124eb6124e66124e160206125119601611ed1565b611eea565b611e5d565b856124f4610124565b90816124ff81611f0a565b03925af161250b611f55565b50611f7e565b5f61244b565b612536905f3d811161253c575b61252e8183610988565b8101906109b7565b5f612431565b503d612524565b6109c6565b610966565b61256e915060e03d8111612574575b6125668183610988565b810190611450565b5f61237e565b503d61255c565b6109c6565b6125a1915060203d81116125a7575b6125998183610988565b8101906112ae565b5f61231b565b503d61258f565b6109c6565b6125d2905f3d81116125d8575b6125ca8183610988565b8101906109b7565b5f612230565b503d6125c0565b6109c6565b610966565b612608905f3d811161260e575b6126008183610988565b8101906109b7565b5f612155565b503d6125f6565b6109c6565b610966565b61263e905f3d8111612644575b6126368183610988565b8101906109b7565b5f6120ba565b503d61262c565b6109c6565b610966565b612674905f3d811161267a575b61266c8183610988565b8101906109b7565b5f61204b565b503d612662565b6109c6565b610966565b90612697939291611e29565b565b5f90565b60a01c90565b6126af6126b49161269d565b611a2c565b90565b6126c190546126a3565b90565b6126d86126d36126dd92610925565b6109b1565b6106a2565b90565b6126e99061018f565b90565b63ffffffff1690565b61270961270461270e926126ec565b6109b1565b6106a2565b90565b612719612699565b506127235f6126b7565b5f1461273a57612736638fb360376126f5565b5b90565b6127435f6126c4565b612737565b5f90565b60018060a01b031690565b612763612768916109d6565b61274c565b90565b6127759054612757565b90565b612780612748565b5061278a5f61276b565b90565b612795611a53565b61279b57565b5f63d93c066560e01b8152806127b3600482016102d8565b0390fd5b90565b6127ce6127c96127d3926127b7565b610170565b610369565b90565b6127e060026127ba565b90565b906127ef5f1991611232565b9181191691161790565b90565b9061281161280c612818926109db565b6127f9565b82546127e3565b9055565b612824612d21565b61283661282f6127d6565b60016127fc565b565b90565b61284f61284a61285492612838565b610170565b610369565b90565b612861600161283b565b90565b61287661286f612857565b60016127fc565b565b612880612748565b503390565b36905f90565b612893612885565b9050505f903690565b90565b6128b36128ae6128b89261289c565b610170565b610369565b90565b5f80fd5b5f80fd5b909392938483116128e35784116128de576001820201920390565b6128bf565b6128bb565b5090565b1b90565b906128fe61290591836128e8565b91356106a2565b9060048110612913575b5090565b61292b9063ffffffff60e01b906004036008026128ec565b165f61290f565b61294661294161294b92610925565b610170565b6126ec565b90565b60a01b90565b9061296360ff60a01b9161294e565b9181191691161790565b61297690610412565b90565b90565b9061299161298c6129989261296d565b612979565b8254612954565b9055565b6129a590610173565b90565b6129b19061299c565b90565b6129bd9061018f565b90565b60209181520190565b90825f939282370152565b91906129ee816129e7816129f3956129c0565b80956129c9565b61096a565b0190565b91612a1c939192612a0f60408201945f83019061078c565b60208185039101526129d4565b90565b90612a71612a69612a2e612778565b84612a38306126e0565b90612a63612a5d878a5f90612a57612a51600493610928565b9261289f565b926128c3565b906128f0565b92612d9d565b919015610412565b612a7c575b50505050565b612a8e612a885f612932565b916126ec565b115f14612b4a57612aa060015f61297c565b612ab8612ab3612aae612778565b6129a8565b6129b4565b6394c7d7ee92919392813b15612b45575f612ae691612af18296612ada610124565b988997889687956109b1565b8552600485016129f7565b03925af18015612b4057612b14575b50612b0b5f5f61297c565b5f808080612a76565b612b33905f3d8111612b39575b612b2b8183610988565b8101906109b7565b5f612b00565b503d612b21565b6109c6565b610966565b612b64825f91829162d1953b60e31b835260048301610799565b0390fd5b612b70612e1d565b612b78612bb9565b565b60a81b90565b90612b8f60ff60a81b91612b7a565b9181191691161790565b90612bae612ba9612bb59261296d565b612979565b8254612b80565b9055565b612bc35f5f612b99565b612bcb612878565b612c017f5db9ee0a495bf2e6ff9c91a7834c1ba4fdd244a5e8aa4e537bd38aeae4b073aa91612bf8610124565b91829182610799565b0390a1565b612c0e612b68565b565b90612c2160018060a01b0391611232565b9181191691161790565b90565b90612c43612c3e612c4a92610b80565b612c2b565b8254612c10565b9055565b612c58815f612c2e565b612c8e7f2f658b440c35314f52658ea8a740e05b284cdc84dc9ae01e891f21b8933e7cad91612c85610124565b91829182610799565b0390a1565b612c9b61278d565b612ca3612ca5565b565b612cb060015f612b99565b612cb8612878565b612cee7f62e78cea01bee320cd4e420270b5ea74000d11b0c9f74754ebdbfc544b05a25891612ce5610124565b91829182610799565b0390a1565b612cfb612c93565b565b90565b612d0c612d11916109d6565b612cfd565b90565b612d1e9054612d00565b90565b612d2b6001612d14565b612d44612d3e612d396127d6565b610369565b91610369565b14612d4b57565b5f633ee5aeb560e01b815280612d63600482016102d8565b0390fd5b5f90565b604090612d94612d9b9496959396612d8a60608401985f85019061078c565b602083019061078c565b01906106ae565b565b5f9060409294959395612df0612db1611a22565b97612de1612dbd612d67565b989193612dc8610124565b94859360046020860163b700961360e01b815201612d6b565b60208201810382520382610988565b9082805282602052602082519201905afa612e08575b565b9150505f51906020518060201c150290612e06565b612e2e612e28611a53565b15610412565b612e3457565b5f638dfc202b60e01b815280612e4c600482016102d8565b0390fd","linkReferences":{}},"methodIdentifiers":{"authority()":"bf7e214f","bridge()":"e78cea92","deposit(address,uint256,bytes32,bytes32)":"7dcc9f07","depositNative(bytes32,bytes32)":"17b07adc","guard()":"7ceab3b1","isConsumingScheduledOp()":"8fb36037","lockUnlock()":"0f3fe22f","mintBurn()":"1221c038","pause()":"8456cb59","paused()":"5c975abb","setAuthority(address)":"7a9e5e4b","tokenRegistry()":"9d23c4c7","unpause()":"3f4ba83a","withdraw(bytes32,address,address,uint256,uint256)":"56aca36f","withdrawNative(bytes32,uint256,uint256,address)":"8c93301c","wrappedNative()":"eb6d3a11"},"id":66}