{"abi":[{"type":"constructor","inputs":[{"name":"initialAuthority","type":"address","internalType":"address"},{"name":"_bridge","type":"address","internalType":"contract Cl8YBridge"},{"name":"_tokenRegistry","type":"address","internalType":"contract TokenRegistry"},{"name":"_mintBurn","type":"address","internalType":"contract MintBurn"},{"name":"_lockUnlock","type":"address","internalType":"contract LockUnlock"},{"name":"_wrappedNative","type":"address","internalType":"contract IWETH"},{"name":"_guard","type":"address","internalType":"contract IGuardBridge"}],"stateMutability":"nonpayable"},{"type":"receive","stateMutability":"payable"},{"type":"function","name":"authority","inputs":[],"outputs":[{"name":"","type":"address","internalType":"address"}],"stateMutability":"view"},{"type":"function","name":"bridge","inputs":[],"outputs":[{"name":"","type":"address","internalType":"contract Cl8YBridge"}],"stateMutability":"view"},{"type":"function","name":"deposit","inputs":[{"name":"token","type":"address","internalType":"address"},{"name":"amount","type":"uint256","internalType":"uint256"},{"name":"destChainKey","type":"bytes32","internalType":"bytes32"},{"name":"destAccount","type":"bytes32","internalType":"bytes32"}],"outputs":[],"stateMutability":"nonpayable"},{"type":"function","name":"depositNative","inputs":[{"name":"destChainKey","type":"bytes32","internalType":"bytes32"},{"name":"destAccount","type":"bytes32","internalType":"bytes32"}],"outputs":[],"stateMutability":"payable"},{"type":"function","name":"guard","inputs":[],"outputs":[{"name":"","type":"address","internalType":"contract IGuardBridge"}],"stateMutability":"view"},{"type":"function","name":"isConsumingScheduledOp","inputs":[],"outputs":[{"name":"","type":"bytes4","internalType":"bytes4"}],"stateMutability":"view"},{"type":"function","name":"lockUnlock","inputs":[],"outputs":[{"name":"","type":"address","internalType":"contract LockUnlock"}],"stateMutability":"view"},{"type":"function","name":"mintBurn","inputs":[],"outputs":[{"name":"","type":"address","internalType":"contract MintBurn"}],"stateMutability":"view"},{"type":"function","name":"pause","inputs":[],"outputs":[],"stateMutability":"nonpayable"},{"type":"function","name":"paused","inputs":[],"outputs":[{"name":"","type":"bool","internalType":"bool"}],"stateMutability":"view"},{"type":"function","name":"setAuthority","inputs":[{"name":"newAuthority","type":"address","internalType":"address"}],"outputs":[],"stateMutability":"nonpayable"},{"type":"function","name":"tokenRegistry","inputs":[],"outputs":[{"name":"","type":"address","internalType":"contract TokenRegistry"}],"stateMutability":"view"},{"type":"function","name":"unpause","inputs":[],"outputs":[],"stateMutability":"nonpayable"},{"type":"function","name":"withdraw","inputs":[{"name":"srcChainKey","type":"bytes32","internalType":"bytes32"},{"name":"token","type":"address","internalType":"address"},{"name":"to","type":"address","internalType":"address"},{"name":"amount","type":"uint256","internalType":"uint256"},{"name":"nonce","type":"uint256","internalType":"uint256"}],"outputs":[],"stateMutability":"payable"},{"type":"function","name":"withdrawNative","inputs":[{"name":"srcChainKey","type":"bytes32","internalType":"bytes32"},{"name":"amount","type":"uint256","internalType":"uint256"},{"name":"nonce","type":"uint256","internalType":"uint256"},{"name":"to","type":"address","internalType":"address payable"}],"outputs":[],"stateMutability":"nonpayable"},{"type":"function","name":"wrappedNative","inputs":[],"outputs":[{"name":"","type":"address","internalType":"contract IWETH"}],"stateMutability":"view"},{"type":"event","name":"AuthorityUpdated","inputs":[{"name":"authority","type":"address","indexed":false,"internalType":"address"}],"anonymous":false},{"type":"event","name":"DepositNative","inputs":[{"name":"sender","type":"address","indexed":true,"internalType":"address"},{"name":"amount","type":"uint256","indexed":false,"internalType":"uint256"},{"name":"destChainKey","type":"bytes32","indexed":true,"internalType":"bytes32"},{"name":"destAccount","type":"bytes32","indexed":true,"internalType":"bytes32"}],"anonymous":false},{"type":"event","name":"Paused","inputs":[{"name":"account","type":"address","indexed":false,"internalType":"address"}],"anonymous":false},{"type":"event","name":"Unpaused","inputs":[{"name":"account","type":"address","indexed":false,"internalType":"address"}],"anonymous":false},{"type":"event","name":"WithdrawNative","inputs":[{"name":"to","type":"address","indexed":true,"internalType":"address"},{"name":"amount","type":"uint256","indexed":false,"internalType":"uint256"}],"anonymous":false},{"type":"error","name":"AccessManagedInvalidAuthority","inputs":[{"name":"authority","type":"address","internalType":"address"}]},{"type":"error","name":"AccessManagedRequiredDelay","inputs":[{"name":"caller","type":"address","internalType":"address"},{"name":"delay","type":"uint32","internalType":"uint32"}]},{"type":"error","name":"AccessManagedUnauthorized","inputs":[{"name":"caller","type":"address","internalType":"address"}]},{"type":"error","name":"EnforcedPause","inputs":[]},{"type":"error","name":"ExpectedPause","inputs":[]},{"type":"error","name":"FeeExceedsAmount","inputs":[]},{"type":"error","name":"InsufficientNativeValue","inputs":[]},{"type":"error","name":"NativeTransferFailed","inputs":[]},{"type":"error","name":"NativeValueRequired","inputs":[]},{"type":"error","name":"ReentrancyGuardReentrantCall","inputs":[]}],"bytecode":{"object":"0x6101406040523461014857610021610015610379565b959490949391936103a0565b61002961014d565b612e6461055882396080518181816107e501528181610e60015281816116b601528181611720015281816117e001528181611c6a015281816121450152818161227001526122da015260a05181610707015260c05181610200015260e05181818161014301528181610de90152610fcb01526101005181818161086c01528181610ccf01528181610d3c01528181610dab01528181610e9b01528181610f9a015281816120d801528181612175015281816121fd01526123750152610120518181816104c101528181610ba901528181610c3101528181610ca10152818161151601528181611585015281816115f401528181611aff01528181611b8701528181611bf701528181611fcc0152818161203b01526120aa0152612e6490f35b610153565b60405190565b5f80fd5b601f801991011690565b634e487b7160e01b5f52604160045260245ffd5b9061017f90610157565b810190811060018060401b0382111761019757604052565b610161565b906101af6101a861014d565b9283610175565b565b5f80fd5b60018060a01b031690565b6101c9906101b5565b90565b6101d5816101c0565b036101dc57565b5f80fd5b905051906101ed826101cc565b565b6101f8906101c0565b90565b610204816101ef565b0361020b57565b5f80fd5b9050519061021c826101fb565b565b610227906101c0565b90565b6102338161021e565b0361023a57565b5f80fd5b9050519061024b8261022a565b565b610256906101c0565b90565b6102628161024d565b0361026957565b5f80fd5b9050519061027a82610259565b565b610285906101c0565b90565b6102918161027c565b0361029857565b5f80fd5b905051906102a982610288565b565b6102b4906101c0565b90565b6102c0816102ab565b036102c757565b5f80fd5b905051906102d8826102b7565b565b6102e3906101c0565b90565b6102ef816102da565b036102f657565b5f80fd5b90505190610307826102e6565b565b60e0818303126103745761031f825f83016101e0565b9261032d836020840161020f565b9261033b816040850161023e565b92610349826060830161026d565b9261037161035a846080850161029c565b936103688160a086016102cb565b9360c0016102fa565b90565b6101b1565b6103976133bc8038038061038c8161019c565b928339810190610309565b90919293949596565b6103a99061044b565b60805260a05260c05260e0526101005261012052565b90565b90565b90565b6103dc6103d76103e1926103bf565b6103c5565b6103c2565b90565b6103ee60016103c8565b90565b5f1b90565b906104025f19916103f1565b9181191691161790565b61042061041b610425926103c2565b6103c5565b6103c2565b90565b90565b9061044061043b6104479261040c565b610428565b82546103f6565b9055565b61045490610468565b61046661045f6103e4565b600161042b565b565b61047190610473565b565b61047c90610512565b565b9061048f60018060a01b03916103f1565b9181191691161790565b6104ad6104a86104b2926101b5565b6103c5565b6101b5565b90565b6104be90610499565b90565b6104ca906104b5565b90565b90565b906104e56104e06104ec926104c1565b6104cd565b825461047e565b9055565b6104f9906101c0565b9052565b9190610510905f602085019401906104f0565b565b61051c815f6104d0565b6105527f2f658b440c35314f52658ea8a740e05b284cdc84dc9ae01e891f21b8933e7cad9161054961014d565b918291826104fd565b0390a156fe60806040526004361015610015575b366108f157005b61001f5f3561011e565b80630f3fe22f146101195780631221c0381461011457806317b07adc1461010f5780633f4ba83a1461010a57806356aca36f146101055780635c975abb146101005780637a9e5e4b146100fb5780637ceab3b1146100f65780637dcc9f07146100f15780638456cb59146100ec5780638c93301c146100e75780638fb36037146100e25780639d23c4c7146100dd578063bf7e214f146100d8578063e78cea92146100d35763eb6d3a110361000e576108bc565b610835565b6107ae565b610757565b6106d0565b61066b565b6105c3565b61058c565b610511565b61048c565b610439565b6103e5565b610307565b6102dd565b610250565b6101c9565b60e01c90565b60405190565b5f80fd5b5f80fd5b5f91031261013c57565b61012e565b7f000000000000000000000000000000000000000000000000000000000000000090565b60018060a01b031690565b90565b61018761018261018c92610165565b610170565b610165565b90565b61019890610173565b90565b6101a49061018f565b90565b6101b09061019b565b9052565b91906101c7905f602085019401906101a7565b565b346101f9576101d9366004610132565b6101f56101e4610141565b6101ec610124565b918291826101b4565b0390f35b61012a565b7f000000000000000000000000000000000000000000000000000000000000000090565b61022b9061018f565b90565b61023790610222565b9052565b919061024e905f6020850194019061022e565b565b3461028057610260366004610132565b61027c61026b6101fe565b610273610124565b9182918261023b565b0390f35b61012a565b90565b61029181610285565b0361029857565b5f80fd5b905035906102a982610288565b565b91906040838203126102d357806102c76102d0925f860161029c565b9360200161029c565b90565b61012e565b5f0190565b6102f16102eb3660046102ab565b90611185565b6102f9610124565b80610303816102d8565b0390f35b3461033557610317366004610132565b61031f6111be565b610327610124565b80610331816102d8565b0390f35b61012a565b61034390610165565b90565b61034f8161033a565b0361035657565b5f80fd5b9050359061036782610346565b565b90565b61037581610369565b0361037c57565b5f80fd5b9050359061038d8261036c565b565b919060a0838203126103e0576103a7815f850161029c565b926103b5826020830161035a565b926103dd6103c6846040850161035a565b936103d48160608601610380565b93608001610380565b90565b61012e565b6103fc6103f336600461038f565b939290926119e6565b610404610124565b8061040e816102d8565b0390f35b151590565b61042090610412565b9052565b9190610437905f60208501940190610417565b565b3461046957610449366004610132565b610465610454611a26565b61045c610124565b91829182610424565b0390f35b61012a565b9060208282031261048757610484915f0161035a565b90565b61012e565b346104ba576104a461049f36600461046e565b611a3b565b6104ac610124565b806104b6816102d8565b0390f35b61012a565b7f000000000000000000000000000000000000000000000000000000000000000090565b6104ec9061018f565b90565b6104f8906104e3565b9052565b919061050f905f602085019401906104ef565b565b3461054157610521366004610132565b61053d61052c6104bf565b610534610124565b918291826104fc565b0390f35b61012a565b6080818303126105875761055c825f830161035a565b9261058461056d8460208501610380565b9361057b816040860161029c565b9360600161029c565b90565b61012e565b346105be576105a861059f366004610546565b92919091611db7565b6105b0610124565b806105ba816102d8565b0390f35b61012a565b346105f1576105d3366004610132565b6105db611df2565b6105e3610124565b806105ed816102d8565b0390f35b61012a565b6105ff90610165565b90565b61060b816105f6565b0361061257565b5f80fd5b9050359061062382610602565b565b6080818303126106665761063b825f830161029c565b9261066361064c8460208501610380565b9361065a8160408601610380565b93606001610616565b90565b61012e565b3461069d5761068761067e366004610625565b9291909161269a565b61068f610124565b80610699816102d8565b0390f35b61012a565b63ffffffff60e01b1690565b6106b7906106a2565b9052565b91906106ce905f602085019401906106ae565b565b34610700576106e0366004610132565b6106fc6106eb612720565b6106f3610124565b918291826106bb565b0390f35b61012a565b7f000000000000000000000000000000000000000000000000000000000000000090565b6107329061018f565b90565b61073e90610729565b9052565b9190610755905f60208501940190610735565b565b3461078757610767366004610132565b610783610772610705565b61077a610124565b91829182610742565b0390f35b61012a565b6107959061033a565b9052565b91906107ac905f6020850194019061078c565b565b346107de576107be366004610132565b6107da6107c9612787565b6107d1610124565b91829182610799565b0390f35b61012a565b7f000000000000000000000000000000000000000000000000000000000000000090565b6108109061018f565b90565b61081c90610807565b9052565b9190610833905f60208501940190610813565b565b3461086557610845366004610132565b6108616108506107e3565b610858610124565b91829182610820565b0390f35b61012a565b7f000000000000000000000000000000000000000000000000000000000000000090565b6108979061018f565b90565b6108a39061088e565b9052565b91906108ba905f6020850194019061089a565b565b346108ec576108cc366004610132565b6108e86108d761086a565b6108df610124565b918291826108a7565b0390f35b61012a565b5f80fd5b906109079161090261279c565b610909565b565b9061091b91610916612830565b610b8b565b610923612878565b565b90565b61093c61093761094192610925565b610170565b610369565b90565b5f80fd5b601f801991011690565b634e487b7160e01b5f52604160045260245ffd5b9061097090610948565b810190811067ffffffffffffffff82111761098a57604052565b610952565b60e01b90565b5f91031261099f57565b61012e565b6109ac610124565b3d5f823e3d90fd5b5f1c90565b6109cd6109c86109d292610369565b610170565b610369565b90565b6109e16109e6916109b4565b6109b9565b90565b6109fd6109f8610a0292610369565b610170565b610165565b90565b610a0e90610369565b9052565b604090610a3b610a429496959396610a3160608401985f85019061078c565b6020830190610a05565b019061078c565b565b610a4d9061018f565b90565b90505190610a5d8261036c565b565b90602082820312610a7857610a75915f01610a50565b90565b61012e565b916020610a9e929493610a9760408201965f83019061078c565b019061078c565b565b610aa981610412565b03610ab057565b5f80fd5b90505190610ac182610aa0565b565b90602082820312610adc57610ad9915f01610ab4565b90565b61012e565b916020610b02929493610afb60408201965f83019061078c565b0190610a05565b565b610b0d90610285565b9052565b90959492610b5c94610b4b610b5592610b41608096610b3760a088019c5f89019061078c565b6020870190610b04565b6040850190610b04565b606083019061078c565b0190610a05565b565b610b679061018f565b90565b610b7390610285565b90565b9190610b89905f60208501940190610a05565b565b9034610b9f610b995f610928565b91610369565b1461116a57610bcd7f00000000000000000000000000000000000000000000000000000000000000006104e3565b6369921c2633823b1561116557610c0392610bf85f8094610bec610124565b9687958694859361098f565b835260048301610799565b03925af1801561116057611134575b50610c2c610c27610c22836109d5565b6109e9565b61018f565b610c557f00000000000000000000000000000000000000000000000000000000000000006104e3565b906369921c2690823b1561112f57610c8c92610c815f8094610c75610124565b9687958694859361098f565b835260048301610799565b03925af1801561112a576110fe575b50610cc57f00000000000000000000000000000000000000000000000000000000000000006104e3565b635fb03511610cf37f000000000000000000000000000000000000000000000000000000000000000061088e565b34923392813b156110f9575f610d1c91610d278296610d10610124565b9889978896879561098f565b855260048501610a12565b03925af180156110f4576110c8575b50610d607f000000000000000000000000000000000000000000000000000000000000000061088e565b63d0e30db0349190813b156110c3575f91610d8791610d7d610124565b948593849261098f565b825281610d96600482016102d8565b03925af180156110be57611092575b50610dcf7f000000000000000000000000000000000000000000000000000000000000000061088e565b602063dd62ed3e91610de030610a44565b90610e25610e0d7f000000000000000000000000000000000000000000000000000000000000000061019b565b94610e30610e19610124565b9687958694859461098f565b845260048401610a7d565b03915afa90811561108d575f9161105f575b50610e55610e4f34610369565b91610369565b10610f95575b610e847f0000000000000000000000000000000000000000000000000000000000000000610807565b6357ece64e610e9230610a44565b84928492610ebf7f000000000000000000000000000000000000000000000000000000000000000061088e565b3491833b15610f9057610ef3610ee8935f97938894610edc610124565b9a8b998a98899761098f565b875260048701610b11565b03925af18015610f8b57610f5f575b50339034929091610f5a610f48610f42610f3c7f96121caa8ec74dd8f329dffb17bdd0e358c86b3afa68634375a3d9986ab639ff94610b5e565b94610b6a565b94610b6a565b94610f51610124565b91829182610b76565b0390a4565b610f7e905f3d8111610f84575b610f768183610966565b810190610995565b5f610f02565b503d610f6c565b6109a4565b610944565b610fbe7f000000000000000000000000000000000000000000000000000000000000000061088e565b602063095ea7b391610fef7f000000000000000000000000000000000000000000000000000000000000000061019b565b9061100e5f801995611019611002610124565b9788968795869461098f565b845260048401610ae1565b03925af1801561105a5761102e575b50610e5b565b61104e9060203d8111611053575b6110468183610966565b810190610ac3565b611028565b503d61103c565b6109a4565b611080915060203d8111611086575b6110788183610966565b810190610a5f565b5f610e42565b503d61106e565b6109a4565b6110b1905f3d81116110b7575b6110a98183610966565b810190610995565b5f610da5565b503d61109f565b6109a4565b610944565b6110e7905f3d81116110ed575b6110df8183610966565b810190610995565b5f610d36565b503d6110d5565b6109a4565b610944565b61111d905f3d8111611123575b6111158183610966565b810190610995565b5f610c9b565b503d61110b565b6109a4565b610944565b611153905f3d8111611159575b61114b8183610966565b810190610995565b5f610c12565b503d611141565b6109a4565b610944565b5f62fbf37960e71b815280611181600482016102d8565b0390fd5b9061118f916108f5565b565b6111aa61119c61288c565b6111a461289f565b91612a33565b6111b26111b4565b565b6111bc612c1a565b565b6111c6611191565b565b906111dd949392916111d861279c565b6111df565b565b906111f4949392916111ef612830565b61150e565b6111fc612878565b565b9061121161120a610124565b9283610966565b565b61121d60a06111fe565b90565b9061122a90610285565b9052565b906112389061033a565b9052565b9061124690610369565b9052565b9050519061125782610288565b565b906020828203126112725761126f915f0161124a565b90565b61012e565b61128090610285565b9052565b61128d9061033a565b9052565b61129a90610369565b9052565b906080806112f6936112b65f8201515f860190611277565b6112c860208201516020860190611284565b6112da60408201516040860190611284565b6112ec60608201516060860190611291565b0151910190611291565b565b919061130b905f60a0850194019061129e565b565b5f80fd5b9050519061131e82610346565b565b67ffffffffffffffff1690565b61133681611320565b0361133d57565b5f80fd5b9050519061134e8261132d565b565b919060e0838203126113e4576113dd9061136a60e06111fe565b93611377825f8301610a50565b5f8601526113888260208301611311565b602086015261139a8260408301611341565b60408601526113ac8260608301610ab4565b60608601526113be8260808301610ab4565b60808601526113d08260a08301610ab4565b60a086015260c001610ab4565b60c0830152565b61130d565b9060e082820312611402576113ff915f01611350565b90565b61012e565b919061141a905f60208501940190610b04565b565b6114269051610412565b90565b60209181520190565b5f7f417070726f76616c207265717569726573206e61746976652070617468000000910152565b611466601d602092611429565b61146f81611432565b0190565b6114889060208101905f818303910152611459565b90565b1561149257565b61149a610124565b62461bcd60e51b8152806114b060048201611473565b0390fd5b6114be9051610369565b90565b9095949261150c946114fb611505926114f16080966114e760a088019c5f890190610b04565b602087019061078c565b604085019061078c565b6060830190610a05565b0190610a05565b565b90919361153a7f00000000000000000000000000000000000000000000000000000000000000006104e3565b6369921c2633823b156119e157611570926115655f8094611559610124565b9687958694859361098f565b835260048301610799565b03925af180156119dc576119b0575b506115a97f00000000000000000000000000000000000000000000000000000000000000006104e3565b6369921c2686823b156119ab576115df926115d45f80946115c8610124565b9687958694859361098f565b835260048301610799565b03925af180156119a65761197a575b506116187f00000000000000000000000000000000000000000000000000000000000000006104e3565b63a44eda3c8486923392813b15611975575f61164791611652829661163b610124565b9889978896879561098f565b855260048501610a12565b03925af1801561197057611944575b506117016020836116b1866116a88a61169f8b916116968a9561168e611685611213565b995f8b01611220565b89890161122e565b6040870161122e565b6060850161123c565b6080830161123c565b6116da7f0000000000000000000000000000000000000000000000000000000000000000610807565b6116f66387033f276116ea610124565b9586948593849361098f565b8352600483016112f8565b03915afa90811561193f5761176b9160e0915f91611911575b506117447f0000000000000000000000000000000000000000000000000000000000000000610807565b611760639211345c611754610124565b9586948593849361098f565b835260048301611407565b03915afa90811561190c576117a7915f9182916118de575b506117a161179c6117966080840161141c565b15610412565b61148b565b016114b4565b806117ba6117b45f610928565b91610369565b145f146118a95750346117d56117cf5f610928565b91610369565b0361188d575b6118047f0000000000000000000000000000000000000000000000000000000000000000610807565b916356aca36f9234909390919496959295843b15611888575f9661183a946118459261182e610124565b9a8b998a98899761098f565b8752600487016114c1565b03925af1801561188357611857575b50565b611876905f3d811161187c575b61186e8183610966565b810190610995565b5f611854565b503d611864565b6109a4565b610944565b5f631ac4c73760e11b8152806118a5600482016102d8565b0390fd5b6118bc6118b63492610369565b91610369565b10156117db575f631ac4c73760e11b8152806118da600482016102d8565b0390fd5b6118ff915060e03d8111611905575b6118f78183610966565b8101906113e9565b5f611783565b503d6118ed565b6109a4565b611932915060203d8111611938575b61192a8183610966565b810190611259565b5f61171a565b503d611920565b6109a4565b611963905f3d8111611969575b61195b8183610966565b810190610995565b5f611661565b503d611951565b6109a4565b610944565b611999905f3d811161199f575b6119918183610966565b810190610995565b5f6115ee565b503d611987565b6109a4565b610944565b6119cf905f3d81116119d5575b6119c78183610966565b810190610995565b5f61157f565b503d6119bd565b6109a4565b610944565b906119f3949392916111c8565b565b5f90565b60a81c90565b60ff1690565b611a11611a16916119f9565b6119ff565b90565b611a239054611a05565b90565b611a2e6119f5565b50611a385f611a19565b90565b611a4361288c565b80611a5d611a57611a52612787565b61033a565b9161033a565b03611aa65750803b611a77611a715f610928565b91610369565b14611a8757611a8590612c62565b565b611aa2905f9182916361798f2f60e11b835260048301610799565b0390fd5b611ac0905f91829162d1953b60e31b835260048301610799565b0390fd5b90611ad8939291611ad361279c565b611ada565b565b90611aee939291611ae9612830565b611af8565b611af6612878565b565b9190611b237f00000000000000000000000000000000000000000000000000000000000000006104e3565b6369921c2633823b15611db257611b5992611b4e5f8094611b42610124565b9687958694859361098f565b835260048301610799565b03925af18015611dad57611d81575b50611b82611b7d611b78866109d5565b6109e9565b61018f565b611bab7f00000000000000000000000000000000000000000000000000000000000000006104e3565b906369921c2690823b15611d7c57611be292611bd75f8094611bcb610124565b9687958694859361098f565b835260048301610799565b03925af18015611d7757611d4b575b50611c1b7f00000000000000000000000000000000000000000000000000000000000000006104e3565b635fb035118483923392813b15611d46575f611c4a91611c558296611c3e610124565b9889978896879561098f565b855260048501610a12565b03925af18015611d4157611d15575b50611c8e7f0000000000000000000000000000000000000000000000000000000000000000610807565b906357ece64e90339395949091833b15611d1057611ccd611cc2935f97938894611cb6610124565b9a8b998a98899761098f565b875260048701610b11565b03925af18015611d0b57611cdf575b50565b611cfe905f3d8111611d04575b611cf68183610966565b810190610995565b5f611cdc565b503d611cec565b6109a4565b610944565b611d34905f3d8111611d3a575b611d2c8183610966565b810190610995565b5f611c64565b503d611d22565b6109a4565b610944565b611d6a905f3d8111611d70575b611d628183610966565b810190610995565b5f611bf1565b503d611d58565b6109a4565b610944565b611da0905f3d8111611da6575b611d988183610966565b810190610995565b5f611b68565b503d611d8e565b6109a4565b610944565b90611dc3939291611ac4565b565b611dde611dd061288c565b611dd861289f565b91612a33565b611de6611de8565b565b611df0612d07565b565b611dfa611dc5565b565b90611e10939291611e0b61279c565b611e12565b565b90611e26939291611e21612830565b611fc5565b611e2e612878565b565b611e399061018f565b90565b611e4590611e30565b9052565b9190611e5c905f60208501940190611e3c565b565b5f7f417070726f76616c206e6f742073657420666f72206e61746976652070617468910152565b611e9160208092611429565b611e9a81611e5e565b0190565b611eb39060208101905f818303910152611e85565b90565b15611ebd57565b611ec5610124565b62461bcd60e51b815280611edb60048201611e9e565b0390fd5b611ee9905161033a565b90565b611ef590610173565b90565b611f0190611eec565b90565b905090565b611f145f8092611f04565b0190565b611f2190611f09565b90565b67ffffffffffffffff8111611f4257611f3e602091610948565b0190565b610952565b90611f59611f5483611f24565b6111fe565b918252565b606090565b3d5f14611f7e57611f733d611f47565b903d5f602084013e5b565b611f86611f5e565b90611f7c565b634e487b7160e01b5f52601160045260245ffd5b611faf611fb591939293610369565b92610369565b8203918211611fc057565b611f8c565b9091611ff07f00000000000000000000000000000000000000000000000000000000000000006104e3565b6369921c2633823b15612695576120269261201b5f809461200f610124565b9687958694859361098f565b835260048301610799565b03925af1801561269057612664575b5061205f7f00000000000000000000000000000000000000000000000000000000000000006104e3565b6369921c2685823b1561265f576120959261208a5f809461207e610124565b9687958694859361098f565b835260048301611e49565b03925af1801561265a5761262e575b506120ce7f00000000000000000000000000000000000000000000000000000000000000006104e3565b63a44eda3c6120fc7f000000000000000000000000000000000000000000000000000000000000000061088e565b85923392813b15612629575f612125916121308296612119610124565b9889978896879561098f565b855260048501610a12565b03925af18015612624576125f8575b506121697f0000000000000000000000000000000000000000000000000000000000000000610807565b906356aca36f836121997f000000000000000000000000000000000000000000000000000000000000000061088e565b936121a330610a44565b92878591833b156125f3576121d96121ce935f979388946121c2610124565b9b8c998a98899761098f565b8752600487016114c1565b03925af180156125ee576122bb9360209361226b926125c2575b50916122626122217f000000000000000000000000000000000000000000000000000000000000000061088e565b9161225961222e30610a44565b6122508a939561224861223f611213565b995f8b01611220565b89890161122e565b6040870161122e565b6060850161123c565b6080830161123c565b6122947f0000000000000000000000000000000000000000000000000000000000000000610807565b6122b06387033f276122a4610124565b9586948593849361098f565b8352600483016112f8565b03915afa9081156125bd576123259160e0915f9161258f575b506122fe7f0000000000000000000000000000000000000000000000000000000000000000610807565b61231a639211345c61230e610124565b9586948593849361098f565b835260048301611407565b03915afa90811561258a575f9161255c575b5061234c6123476080830161141c565b611eb6565b6123575f82016114b4565b908161236b61236585610369565b91610369565b11612540576123997f000000000000000000000000000000000000000000000000000000000000000061088e565b632e1a7d4d84823b1561253b576123cf926123c45f80946123b8610124565b9687958694859361098f565b835260048301610b76565b03925af180156125365761250a575b50816123f26123ec5f610928565b91610369565b1161249c575b5061240291611fa0565b906124385f8061241184611e30565b8561241a610124565b908161242581611f18565b03925af1612431611f63565b5015610412565b6124805761247b6124697fde93db11f7aedf7cb3be22dc4d80e7790ab4b59a30aae83e86ac8326245542c592611e30565b92612472610124565b91829182610b76565b0390a2565b5f633d2cec6f60e21b815280612498600482016102d8565b0390fd5b5f806124bd6124b86124b360206124e49601611edf565b611ef8565b611e30565b846124c6610124565b90816124d181611f18565b03925af16124dd611f63565b5015610412565b6124ee575f6123f8565b5f633d2cec6f60e21b815280612506600482016102d8565b0390fd5b612529905f3d811161252f575b6125218183610966565b810190610995565b5f6123de565b503d612517565b6109a4565b610944565b5f6320e65ddd60e21b815280612558600482016102d8565b0390fd5b61257d915060e03d8111612583575b6125758183610966565b8101906113e9565b5f612337565b503d61256b565b6109a4565b6125b0915060203d81116125b6575b6125a88183610966565b810190611259565b5f6122d4565b503d61259e565b6109a4565b6125e1905f3d81116125e7575b6125d98183610966565b810190610995565b5f6121f3565b503d6125cf565b6109a4565b610944565b612617905f3d811161261d575b61260f8183610966565b810190610995565b5f61213f565b503d612605565b6109a4565b610944565b61264d905f3d8111612653575b6126458183610966565b810190610995565b5f6120a4565b503d61263b565b6109a4565b610944565b612683905f3d8111612689575b61267b8183610966565b810190610995565b5f612035565b503d612671565b6109a4565b610944565b906126a6939291611dfc565b565b5f90565b60a01c90565b6126be6126c3916126ac565b6119ff565b90565b6126d090546126b2565b90565b6126e76126e26126ec92610925565b61098f565b6106a2565b90565b6126f89061018f565b90565b63ffffffff1690565b61271861271361271d926126fb565b61098f565b6106a2565b90565b6127286126a8565b506127325f6126c6565b5f1461274957612745638fb36037612704565b5b90565b6127525f6126d3565b612746565b5f90565b60018060a01b031690565b612772612777916109b4565b61275b565b90565b6127849054612766565b90565b61278f612757565b506127995f61277a565b90565b6127a4611a26565b6127aa57565b5f63d93c066560e01b8152806127c2600482016102d8565b0390fd5b90565b6127dd6127d86127e2926127c6565b610170565b610369565b90565b6127ef60026127c9565b90565b5f1b90565b906128035f19916127f2565b9181191691161790565b90565b9061282561282061282c926109b9565b61280d565b82546127f7565b9055565b612838612d35565b61284a6128436127e5565b6001612810565b565b90565b61286361285e6128689261284c565b610170565b610369565b90565b612875600161284f565b90565b61288a61288361286b565b6001612810565b565b612894612757565b503390565b36905f90565b6128a7612899565b9050505f903690565b90565b6128c76128c26128cc926128b0565b610170565b610369565b90565b5f80fd5b5f80fd5b909392938483116128f75784116128f2576001820201920390565b6128d3565b6128cf565b5090565b1b90565b9061291261291991836128fc565b91356106a2565b9060048110612927575b5090565b61293f9063ffffffff60e01b90600403600802612900565b165f612923565b61295a61295561295f92610925565b610170565b6126fb565b90565b60a01b90565b9061297760ff60a01b91612962565b9181191691161790565b61298a90610412565b90565b90565b906129a56129a06129ac92612981565b61298d565b8254612968565b9055565b6129b990610173565b90565b6129c5906129b0565b90565b6129d19061018f565b90565b60209181520190565b90825f939282370152565b9190612a02816129fb81612a07956129d4565b80956129dd565b610948565b0190565b91612a30939192612a2360408201945f83019061078c565b60208185039101526129e8565b90565b90612a85612a7d612a42612787565b84612a4c306126ef565b90612a77612a71878a5f90612a6b612a65600493610928565b926128b3565b926128d7565b90612904565b92612db1565b919015610412565b612a90575b50505050565b612aa2612a9c5f612946565b916126fb565b115f14612b5e57612ab460015f612990565b612acc612ac7612ac2612787565b6129bc565b6129c8565b6394c7d7ee92919392813b15612b59575f612afa91612b058296612aee610124565b9889978896879561098f565b855260048501612a0b565b03925af18015612b5457612b28575b50612b1f5f5f612990565b5f808080612a8a565b612b47905f3d8111612b4d575b612b3f8183610966565b810190610995565b5f612b14565b503d612b35565b6109a4565b610944565b612b78825f91829162d1953b60e31b835260048301610799565b0390fd5b612b84612e31565b612b8c612bcd565b565b60a81b90565b90612ba360ff60a81b91612b8e565b9181191691161790565b90612bc2612bbd612bc992612981565b61298d565b8254612b94565b9055565b612bd75f5f612bad565b612bdf61288c565b612c157f5db9ee0a495bf2e6ff9c91a7834c1ba4fdd244a5e8aa4e537bd38aeae4b073aa91612c0c610124565b91829182610799565b0390a1565b612c22612b7c565b565b90612c3560018060a01b03916127f2565b9181191691161790565b90565b90612c57612c52612c5e92610b5e565b612c3f565b8254612c24565b9055565b612c6c815f612c42565b612ca27f2f658b440c35314f52658ea8a740e05b284cdc84dc9ae01e891f21b8933e7cad91612c99610124565b91829182610799565b0390a1565b612caf61279c565b612cb7612cb9565b565b612cc460015f612bad565b612ccc61288c565b612d027f62e78cea01bee320cd4e420270b5ea74000d11b0c9f74754ebdbfc544b05a25891612cf9610124565b91829182610799565b0390a1565b612d0f612ca7565b565b90565b612d20612d25916109b4565b612d11565b90565b612d329054612d14565b90565b612d3f6001612d28565b612d58612d52612d4d6127e5565b610369565b91610369565b14612d5f57565b5f633ee5aeb560e01b815280612d77600482016102d8565b0390fd5b5f90565b604090612da8612daf9496959396612d9e60608401985f85019061078c565b602083019061078c565b01906106ae565b565b5f9060409294959395612e04612dc56119f5565b97612df5612dd1612d7b565b989193612ddc610124565b94859360046020860163b700961360e01b815201612d7f565b60208201810382520382610966565b9082805282602052602082519201905afa612e1c575b565b9150505f51906020518060201c150290612e1a565b612e42612e3c611a26565b15610412565b612e4857565b5f638dfc202b60e01b815280612e60600482016102d8565b0390fd","linkReferences":{}},"methodIdentifiers":{"authority()":"bf7e214f","bridge()":"e78cea92","deposit(address,uint256,bytes32,bytes32)":"7dcc9f07","depositNative(bytes32,bytes32)":"17b07adc","guard()":"7ceab3b1","isConsumingScheduledOp()":"8fb36037","lockUnlock()":"0f3fe22f","mintBurn()":"1221c038","pause()":"8456cb59","paused()":"5c975abb","setAuthority(address)":"7a9e5e4b","tokenRegistry()":"9d23c4c7","unpause()":"3f4ba83a","withdraw(bytes32,address,address,uint256,uint256)":"56aca36f","withdrawNative(bytes32,uint256,uint256,address)":"8c93301c","wrappedNative()":"eb6d3a11"},"id":66}