{"abi":[{"type":"constructor","inputs":[],"stateMutability":"nonpayable"},{"type":"function","name":"allowance","inputs":[{"name":"owner","type":"address","internalType":"address"},{"name":"spender","type":"address","internalType":"address"}],"outputs":[{"name":"","type":"uint256","internalType":"uint256"}],"stateMutability":"view"},{"type":"function","name":"approve","inputs":[{"name":"spender","type":"address","internalType":"address"},{"name":"value","type":"uint256","internalType":"uint256"}],"outputs":[{"name":"","type":"bool","internalType":"bool"}],"stateMutability":"nonpayable"},{"type":"function","name":"balanceOf","inputs":[{"name":"account","type":"address","internalType":"address"}],"outputs":[{"name":"","type":"uint256","internalType":"uint256"}],"stateMutability":"view"},{"type":"function","name":"decimals","inputs":[],"outputs":[{"name":"","type":"uint8","internalType":"uint8"}],"stateMutability":"view"},{"type":"function","name":"enableInvalidUnlockThis","inputs":[],"outputs":[],"stateMutability":"nonpayable"},{"type":"function","name":"mint","inputs":[{"name":"to","type":"address","internalType":"address"},{"name":"amount","type":"uint256","internalType":"uint256"}],"outputs":[],"stateMutability":"nonpayable"},{"type":"function","name":"name","inputs":[],"outputs":[{"name":"","type":"string","internalType":"string"}],"stateMutability":"view"},{"type":"function","name":"shouldTriggerInvalidUnlockThis","inputs":[],"outputs":[{"name":"","type":"bool","internalType":"bool"}],"stateMutability":"view"},{"type":"function","name":"symbol","inputs":[],"outputs":[{"name":"","type":"string","internalType":"string"}],"stateMutability":"view"},{"type":"function","name":"totalSupply","inputs":[],"outputs":[{"name":"","type":"uint256","internalType":"uint256"}],"stateMutability":"view"},{"type":"function","name":"transfer","inputs":[{"name":"to","type":"address","internalType":"address"},{"name":"amount","type":"uint256","internalType":"uint256"}],"outputs":[{"name":"","type":"bool","internalType":"bool"}],"stateMutability":"nonpayable"},{"type":"function","name":"transferFrom","inputs":[{"name":"from","type":"address","internalType":"address"},{"name":"to","type":"address","internalType":"address"},{"name":"value","type":"uint256","internalType":"uint256"}],"outputs":[{"name":"","type":"bool","internalType":"bool"}],"stateMutability":"nonpayable"},{"type":"event","name":"Approval","inputs":[{"name":"owner","type":"address","indexed":true,"internalType":"address"},{"name":"spender","type":"address","indexed":true,"internalType":"address"},{"name":"value","type":"uint256","indexed":false,"internalType":"uint256"}],"anonymous":false},{"type":"event","name":"Transfer","inputs":[{"name":"from","type":"address","indexed":true,"internalType":"address"},{"name":"to","type":"address","indexed":true,"internalType":"address"},{"name":"value","type":"uint256","indexed":false,"internalType":"uint256"}],"anonymous":false},{"type":"error","name":"ERC20InsufficientAllowance","inputs":[{"name":"spender","type":"address","internalType":"address"},{"name":"allowance","type":"uint256","internalType":"uint256"},{"name":"needed","type":"uint256","internalType":"uint256"}]},{"type":"error","name":"ERC20InsufficientBalance","inputs":[{"name":"sender","type":"address","internalType":"address"},{"name":"balance","type":"uint256","internalType":"uint256"},{"name":"needed","type":"uint256","internalType":"uint256"}]},{"type":"error","name":"ERC20InvalidApprover","inputs":[{"name":"approver","type":"address","internalType":"address"}]},{"type":"error","name":"ERC20InvalidReceiver","inputs":[{"name":"receiver","type":"address","internalType":"address"}]},{"type":"error","name":"ERC20InvalidSender","inputs":[{"name":"sender","type":"address","internalType":"address"}]},{"type":"error","name":"ERC20InvalidSpender","inputs":[{"name":"spender","type":"address","internalType":"address"}]}],"bytecode":{"object":"0x608060405234610027576100116101ad565b61001961002c565b610f506104438239610f5090f35b610032565b60405190565b5f80fd5b601f801991011690565b634e487b7160e01b5f52604160045260245ffd5b9061005e90610036565b810190811060018060401b0382111761007657604052565b610040565b9061008e61008761002c565b9283610054565b565b60018060401b0381116100ac576100a8602091610036565b0190565b610040565b906100c36100be83610090565b61007b565b918252565b5f7f4d6f636b496e76616c6964556e6c6f636b54686973546f6b656e000000000000910152565b6100f9601a6100b1565b90610106602083016100c8565b565b6101106100ef565b90565b5f7f4d49555400000000000000000000000000000000000000000000000000000000910152565b61014460046100b1565b9061015160208301610113565b565b61015b61013a565b90565b5f1b90565b9061016f60ff9161015e565b9181191691161790565b151590565b61018790610179565b90565b90565b906101a261019d6101a99261017e565b61018a565b8254610163565b9055565b6101c66101b8610108565b6101c0610153565b9061042a565b6101d15f600561018d565b565b5190565b634e487b7160e01b5f52602260045260245ffd5b906001600283049216801561020b575b602083101461020657565b6101d7565b91607f16916101fb565b5f5260205f2090565b601f602091010490565b1b90565b919060086102479102916102415f1984610228565b92610228565b9181191691161790565b90565b90565b61026b61026661027092610251565b610254565b610251565b90565b90565b919061028c61028761029493610257565b610273565b90835461022c565b9055565b5f90565b6102ae916102a8610298565b91610276565b565b5b8181106102bc575050565b806102c95f60019361029c565b016102b1565b9190601f81116102df575b505050565b6102eb61031093610215565b9060206102f78461021e565b83019310610318575b6103099061021e565b01906102b0565b5f80806102da565b915061030981929050610300565b1c90565b9061033a905f1990600802610326565b191690565b816103499161032a565b906002021790565b9061035b816101d3565b9060018060401b0382116104195761037d8261037785546101eb565b856102cf565b602090601f83116001146103b1579180916103a0935f926103a5575b505061033f565b90555b565b90915001515f80610399565b601f198316916103c085610215565b925f5b818110610401575091600293918560019694106103e7575b505050020190556103a3565b6103f7910151601f84169061032a565b90555f80806103db565b919360206001819287870151815501950192016103c3565b610040565b9061042891610351565b565b9061043961044092600361041e565b600461041e565b56fe60806040526004361015610013575b6105ae565b61001d5f356100dc565b806302257dc9146100d757806306fdde03146100d2578063095ea7b3146100cd57806318160ddd146100c857806323b872dd146100c3578063313ce567146100be57806340c10f19146100b957806370a08231146100b457806395d89b41146100af578063a9059cbb146100aa578063c6ef82cc146100a55763dd62ed3e0361000e57610578565b610516565b6104a1565b61046c565b610437565b6103e5565b6103b0565b610352565b6102e3565b61028b565b6101a2565b610104565b60e01c90565b60405190565b5f80fd5b5f80fd5b5f9103126100fa57565b6100ec565b5f0190565b34610132576101143660046100f0565b61011c6105fc565b6101246100e2565b8061012e816100ff565b0390f35b6100e8565b5190565b60209181520190565b90825f9392825e0152565b601f801991011690565b6101786101816020936101869361016f81610137565b9384809361013b565b95869101610144565b61014f565b0190565b61019f9160208201915f818403910152610159565b90565b346101d2576101b23660046100f0565b6101ce6101bd610763565b6101c56100e2565b9182918261018a565b0390f35b6100e8565b60018060a01b031690565b6101eb906101d7565b90565b6101f7816101e2565b036101fe57565b5f80fd5b9050359061020f826101ee565b565b90565b61021d81610211565b0361022457565b5f80fd5b9050359061023582610214565b565b919060408382031261025f578061025361025c925f8601610202565b93602001610228565b90565b6100ec565b151590565b61027290610264565b9052565b9190610289905f60208501940190610269565b565b346102bc576102b86102a76102a1366004610237565b9061077d565b6102af6100e2565b91829182610276565b0390f35b6100e8565b6102ca90610211565b9052565b91906102e1905f602085019401906102c1565b565b34610313576102f33660046100f0565b61030f6102fe6107cc565b6103066100e2565b918291826102ce565b0390f35b6100e8565b909160608284031261034d5761034a610333845f8501610202565b936103418160208601610202565b93604001610228565b90565b6100ec565b346103835761037f61036e610368366004610318565b916107e2565b6103766100e2565b91829182610276565b0390f35b6100e8565b60ff1690565b61039790610388565b9052565b91906103ae905f6020850194019061038e565b565b346103e0576103c03660046100f0565b6103dc6103cb610837565b6103d36100e2565b9182918261039b565b0390f35b6100e8565b34610414576103fe6103f8366004610237565b9061084d565b6104066100e2565b80610410816100ff565b0390f35b6100e8565b906020828203126104325761042f915f01610202565b90565b6100ec565b346104675761046361045261044d366004610419565b6108a3565b61045a6100e2565b918291826102ce565b0390f35b6100e8565b3461049c5761047c3660046100f0565b6104986104876108c1565b61048f6100e2565b9182918261018a565b0390f35b6100e8565b346104d2576104ce6104bd6104b7366004610237565b90610961565b6104c56100e2565b91829182610276565b0390f35b6100e8565b1c90565b60ff1690565b6104f19060086104f693026104d7565b6104db565b90565b9061050491546104e1565b90565b61051360055f906104f9565b90565b34610546576105263660046100f0565b610542610531610507565b6105396100e2565b91829182610276565b0390f35b6100e8565b91906040838203126105735780610567610570925f8601610202565b93602001610202565b90565b6100ec565b346105a9576105a561059461058e36600461054b565b906109cb565b61059c6100e2565b918291826102ce565b0390f35b6100e8565b5f80fd5b5f1b90565b906105c360ff916105b2565b9181191691161790565b6105d690610264565b90565b90565b906105f16105ec6105f8926105cd565b6105d9565b82546105b7565b9055565b610608600160056105dc565b565b606090565b634e487b7160e01b5f52602260045260245ffd5b9060016002830492168015610643575b602083101461063e57565b61060f565b91607f1691610633565b60209181520190565b5f5260205f2090565b905f929180549061067961067283610623565b809461064d565b916001811690815f146106d05750600114610694575b505050565b6106a19192939450610656565b915f925b8184106106b857505001905f808061068f565b600181602092959395548486015201910192906106a5565b92949550505060ff19168252151560200201905f808061068f565b906106f59161065f565b90565b634e487b7160e01b5f52604160045260245ffd5b906107169061014f565b810190811067ffffffffffffffff82111761073057604052565b6106f8565b9061075561074e926107456100e2565b938480926106eb565b038361070c565b565b61076090610735565b90565b61076b61060a565b506107766003610757565b90565b5f90565b61079a91610789610779565b506107926109f7565b919091610a04565b600190565b5f90565b5f1c90565b90565b6107b76107bc916107a3565b6107a8565b90565b6107c990546107ab565b90565b6107d461079f565b506107df60026107bf565b90565b9161080c926107ef610779565b506108046107fb6109f7565b82908491610a61565b919091610b2d565b600190565b5f90565b90565b90565b61082f61082a61083492610815565b610818565b610388565b90565b61083f610811565b5061084a601261081b565b90565b9061085791610bca565b565b61086d610868610872926101d7565b610818565b6101d7565b90565b61087e90610859565b90565b61088a90610875565b90565b9061089790610881565b5f5260205260405f2090565b6108b96108be916108b261079f565b505f61088d565b6107bf565b90565b6108c961060a565b506108d46004610757565b90565b6108e36108e8916107a3565b6104db565b90565b6108f590546108d7565b90565b90565b61090f61090a610914926108f8565b610818565b610211565b90565b634e487b7160e01b5f52601260045260245ffd5b634e487b7160e01b5f52601160045260245ffd5b61094b61095191610211565b91610211565b90811561095c570490565b610917565b9061096a610779565b5061097560056108eb565b6109855761098291610c28565b90565b6109956109b09233908391610b2d565b6109aa33916109a460026108fb565b9061093f565b90610bca565b600190565b906109bf90610881565b5f5260205260405f2090565b6109f0916109e66109eb926109de61079f565b5060016109b5565b61088d565b6107bf565b90565b5f90565b6109ff6109f3565b503390565b91610a129291600192610c9f565b565b610a1d906101e2565b9052565b604090610a4a610a519496959396610a4060608401985f850190610a14565b60208301906102c1565b01906102c1565b565b90610a5e9103610211565b90565b929192610a6f8183906109cb565b9081610a84610a7e5f19610211565b91610211565b10610a91575b5050509050565b81610aa4610a9e87610211565b91610211565b10610aca57610ac19394610ab9919392610a53565b905f92610c9f565b805f8080610a8a565b50610ae9849291925f938493637dc7a0d960e11b855260048501610a21565b0390fd5b90565b610b04610aff610b0992610aed565b610818565b6101d7565b90565b610b1590610af0565b90565b9190610b2b905f60208501940190610a14565b565b9182610b49610b43610b3e5f610b0c565b6101e2565b916101e2565b14610ba35781610b69610b63610b5e5f610b0c565b6101e2565b916101e2565b14610b7c57610b7a92919091610de1565b565b610b9f610b885f610b0c565b5f91829163ec442f0560e01b835260048301610b18565b0390fd5b610bc6610baf5f610b0c565b5f918291634b637e8f60e11b835260048301610b18565b0390fd5b80610be5610bdf610bda5f610b0c565b6101e2565b916101e2565b14610c0157610bff91610bf75f610b0c565b919091610de1565b565b610c24610c0d5f610b0c565b5f91829163ec442f0560e01b835260048301610b18565b0390fd5b610c4591610c34610779565b50610c3d6109f7565b919091610b2d565b600190565b90610c565f19916105b2565b9181191691161790565b610c74610c6f610c7992610211565b610818565b610211565b90565b90565b90610c94610c8f610c9b92610c60565b610c7c565b8254610c4a565b9055565b909281610cbc610cb6610cb15f610b0c565b6101e2565b916101e2565b14610d875783610cdc610cd6610cd15f610b0c565b6101e2565b916101e2565b14610d6057610d0083610cfb610cf4600186906109b5565b879061088d565b610c7f565b610d0a575b505050565b919091610d55610d43610d3d7f8c5be1e5ebec7d5bd14f71427d1e84f3dd0314c0f7b2291e5b200ac8c7c3b92593610881565b93610881565b93610d4c6100e2565b918291826102ce565b0390a35f8080610d05565b610d83610d6c5f610b0c565b5f918291634a1406b160e11b835260048301610b18565b0390fd5b610daa610d935f610b0c565b5f91829163e602df0560e01b835260048301610b18565b0390fd5b610dbd610dc391939293610211565b92610211565b8201809211610dce57565b61092b565b90610dde9101610211565b90565b91909180610dff610df9610df45f610b0c565b6101e2565b916101e2565b145f14610ee057610e23610e1c83610e1760026107bf565b610dae565b6002610c7f565b5b82610e3f610e39610e345f610b0c565b6101e2565b916101e2565b145f14610eb457610e63610e5c83610e5760026107bf565b610a53565b6002610c7f565b5b919091610eaf610e9d610e977fddf252ad1be2c89b69c2b068fc378daa952ba7f163c4a11628f55a4df523b3ef93610881565b93610881565b93610ea66100e2565b918291826102ce565b0390a3565b610edb82610ed5610ec65f879061088d565b91610ed0836107bf565b610dd3565b90610c7f565b610e64565b610ef3610eee5f839061088d565b6107bf565b80610f06610f0085610211565b91610211565b10610f2e57610f19610f29918490610a53565b610f245f849061088d565b610c7f565b610e24565b90610f4c9091925f93849363391434e360e21b855260048501610a21565b0390fd","linkReferences":{}},"methodIdentifiers":{"allowance(address,address)":"dd62ed3e","approve(address,uint256)":"095ea7b3","balanceOf(address)":"70a08231","decimals()":"313ce567","enableInvalidUnlockThis()":"02257dc9","mint(address,uint256)":"40c10f19","name()":"06fdde03","shouldTriggerInvalidUnlockThis()":"c6ef82cc","symbol()":"95d89b41","totalSupply()":"18160ddd","transfer(address,uint256)":"a9059cbb","transferFrom(address,address,uint256)":"23b872dd"},"id":102}