{"abi":[{"type":"constructor","inputs":[],"stateMutability":"nonpayable"},{"type":"function","name":"allowance","inputs":[{"name":"owner","type":"address","internalType":"address"},{"name":"spender","type":"address","internalType":"address"}],"outputs":[{"name":"","type":"uint256","internalType":"uint256"}],"stateMutability":"view"},{"type":"function","name":"approve","inputs":[{"name":"spender","type":"address","internalType":"address"},{"name":"value","type":"uint256","internalType":"uint256"}],"outputs":[{"name":"","type":"bool","internalType":"bool"}],"stateMutability":"nonpayable"},{"type":"function","name":"balanceOf","inputs":[{"name":"account","type":"address","internalType":"address"}],"outputs":[{"name":"","type":"uint256","internalType":"uint256"}],"stateMutability":"view"},{"type":"function","name":"decimals","inputs":[],"outputs":[{"name":"","type":"uint8","internalType":"uint8"}],"stateMutability":"view"},{"type":"function","name":"enableInvalidFrom","inputs":[],"outputs":[],"stateMutability":"nonpayable"},{"type":"function","name":"mint","inputs":[{"name":"to","type":"address","internalType":"address"},{"name":"amount","type":"uint256","internalType":"uint256"}],"outputs":[],"stateMutability":"nonpayable"},{"type":"function","name":"name","inputs":[],"outputs":[{"name":"","type":"string","internalType":"string"}],"stateMutability":"view"},{"type":"function","name":"shouldTriggerInvalidFrom","inputs":[],"outputs":[{"name":"","type":"bool","internalType":"bool"}],"stateMutability":"view"},{"type":"function","name":"symbol","inputs":[],"outputs":[{"name":"","type":"string","internalType":"string"}],"stateMutability":"view"},{"type":"function","name":"totalSupply","inputs":[],"outputs":[{"name":"","type":"uint256","internalType":"uint256"}],"stateMutability":"view"},{"type":"function","name":"transfer","inputs":[{"name":"to","type":"address","internalType":"address"},{"name":"value","type":"uint256","internalType":"uint256"}],"outputs":[{"name":"","type":"bool","internalType":"bool"}],"stateMutability":"nonpayable"},{"type":"function","name":"transferFrom","inputs":[{"name":"from","type":"address","internalType":"address"},{"name":"to","type":"address","internalType":"address"},{"name":"amount","type":"uint256","internalType":"uint256"}],"outputs":[{"name":"","type":"bool","internalType":"bool"}],"stateMutability":"nonpayable"},{"type":"event","name":"Approval","inputs":[{"name":"owner","type":"address","indexed":true,"internalType":"address"},{"name":"spender","type":"address","indexed":true,"internalType":"address"},{"name":"value","type":"uint256","indexed":false,"internalType":"uint256"}],"anonymous":false},{"type":"event","name":"Transfer","inputs":[{"name":"from","type":"address","indexed":true,"internalType":"address"},{"name":"to","type":"address","indexed":true,"internalType":"address"},{"name":"value","type":"uint256","indexed":false,"internalType":"uint256"}],"anonymous":false},{"type":"error","name":"ERC20InsufficientAllowance","inputs":[{"name":"spender","type":"address","internalType":"address"},{"name":"allowance","type":"uint256","internalType":"uint256"},{"name":"needed","type":"uint256","internalType":"uint256"}]},{"type":"error","name":"ERC20InsufficientBalance","inputs":[{"name":"sender","type":"address","internalType":"address"},{"name":"balance","type":"uint256","internalType":"uint256"},{"name":"needed","type":"uint256","internalType":"uint256"}]},{"type":"error","name":"ERC20InvalidApprover","inputs":[{"name":"approver","type":"address","internalType":"address"}]},{"type":"error","name":"ERC20InvalidReceiver","inputs":[{"name":"receiver","type":"address","internalType":"address"}]},{"type":"error","name":"ERC20InvalidSender","inputs":[{"name":"sender","type":"address","internalType":"address"}]},{"type":"error","name":"ERC20InvalidSpender","inputs":[{"name":"spender","type":"address","internalType":"address"}]}],"bytecode":{"object":"0x608060405234610027576100116101ad565b61001961002c565b610f546104438239610f5490f35b610032565b60405190565b5f80fd5b601f801991011690565b634e487b7160e01b5f52604160045260245ffd5b9061005e90610036565b810190811060018060401b0382111761007657604052565b610040565b9061008e61008761002c565b9283610054565b565b60018060401b0381116100ac576100a8602091610036565b0190565b610040565b906100c36100be83610090565b61007b565b918252565b5f7f4d6f636b496e76616c696446726f6d546f6b656e000000000000000000000000910152565b6100f960146100b1565b90610106602083016100c8565b565b6101106100ef565b90565b5f7f4d49465400000000000000000000000000000000000000000000000000000000910152565b61014460046100b1565b9061015160208301610113565b565b61015b61013a565b90565b5f1b90565b9061016f60ff9161015e565b9181191691161790565b151590565b61018790610179565b90565b90565b906101a261019d6101a99261017e565b61018a565b8254610163565b9055565b6101c66101b8610108565b6101c0610153565b9061042a565b6101d15f600561018d565b565b5190565b634e487b7160e01b5f52602260045260245ffd5b906001600283049216801561020b575b602083101461020657565b6101d7565b91607f16916101fb565b5f5260205f2090565b601f602091010490565b1b90565b919060086102479102916102415f1984610228565b92610228565b9181191691161790565b90565b90565b61026b61026661027092610251565b610254565b610251565b90565b90565b919061028c61028761029493610257565b610273565b90835461022c565b9055565b5f90565b6102ae916102a8610298565b91610276565b565b5b8181106102bc575050565b806102c95f60019361029c565b016102b1565b9190601f81116102df575b505050565b6102eb61031093610215565b9060206102f78461021e565b83019310610318575b6103099061021e565b01906102b0565b5f80806102da565b915061030981929050610300565b1c90565b9061033a905f1990600802610326565b191690565b816103499161032a565b906002021790565b9061035b816101d3565b9060018060401b0382116104195761037d8261037785546101eb565b856102cf565b602090601f83116001146103b1579180916103a0935f926103a5575b505061033f565b90555b565b90915001515f80610399565b601f198316916103c085610215565b925f5b818110610401575091600293918560019694106103e7575b505050020190556103a3565b6103f7910151601f84169061032a565b90555f80806103db565b919360206001819287870151815501950192016103c3565b610040565b9061042891610351565b565b9061043961044092600361041e565b600461041e565b56fe60806040526004361015610013575b6105ae565b61001d5f356100dc565b806306fdde03146100d7578063095ea7b3146100d257806318160ddd146100cd57806318c3cb59146100c857806323b872dd146100c3578063313ce567146100be5780633c5772a7146100b957806340c10f19146100b457806370a08231146100af57806395d89b41146100aa578063a9059cbb146100a55763dd62ed3e0361000e57610578565b610515565b6104e0565b6104ab565b610459565b610424565b6103b0565b610352565b6102e5565b6102ab565b610253565b61016a565b60e01c90565b60405190565b5f80fd5b5f80fd5b5f9103126100fa57565b6100ec565b5190565b60209181520190565b90825f9392825e0152565b601f801991011690565b61014061014960209361014e93610137816100ff565b93848093610103565b9586910161010c565b610117565b0190565b6101679160208201915f818403910152610121565b90565b3461019a5761017a3660046100f0565b61019661018561070b565b61018d6100e2565b91829182610152565b0390f35b6100e8565b60018060a01b031690565b6101b39061019f565b90565b6101bf816101aa565b036101c657565b5f80fd5b905035906101d7826101b6565b565b90565b6101e5816101d9565b036101ec57565b5f80fd5b905035906101fd826101dc565b565b9190604083820312610227578061021b610224925f86016101ca565b936020016101f0565b90565b6100ec565b151590565b61023a9061022c565b9052565b9190610251905f60208501940190610231565b565b346102845761028061026f6102693660046101ff565b90610725565b6102776100e2565b9182918261023e565b0390f35b6100e8565b610292906101d9565b9052565b91906102a9905f60208501940190610289565b565b346102db576102bb3660046100f0565b6102d76102c6610774565b6102ce6100e2565b91829182610296565b0390f35b6100e8565b5f0190565b34610313576102f53660046100f0565b6102fd6107d4565b6103056100e2565b8061030f816102e0565b0390f35b6100e8565b909160608284031261034d5761034a610333845f85016101ca565b9361034181602086016101ca565b936040016101f0565b90565b6100ec565b346103835761037f61036e610368366004610318565b9161086f565b6103766100e2565b9182918261023e565b0390f35b6100e8565b60ff1690565b61039790610388565b9052565b91906103ae905f6020850194019061038e565b565b346103e0576103c03660046100f0565b6103dc6103cb6108ea565b6103d36100e2565b9182918261039b565b0390f35b6100e8565b1c90565b60ff1690565b6103ff90600861040493026103e5565b6103e9565b90565b9061041291546103ef565b90565b61042160055f90610407565b90565b34610454576104343660046100f0565b61045061043f610415565b6104476100e2565b9182918261023e565b0390f35b6100e8565b346104885761047261046c3660046101ff565b90610900565b61047a6100e2565b80610484816102e0565b0390f35b6100e8565b906020828203126104a6576104a3915f016101ca565b90565b6100ec565b346104db576104d76104c66104c136600461048d565b610956565b6104ce6100e2565b91829182610296565b0390f35b6100e8565b34610510576104f03660046100f0565b61050c6104fb610974565b6105036100e2565b91829182610152565b0390f35b6100e8565b346105465761054261053161052b3660046101ff565b9061098a565b6105396100e2565b9182918261023e565b0390f35b6100e8565b91906040838203126105735780610567610570925f86016101ca565b936020016101ca565b90565b6100ec565b346105a9576105a561059461058e36600461054b565b906109c2565b61059c6100e2565b91829182610296565b0390f35b6100e8565b5f80fd5b606090565b634e487b7160e01b5f52602260045260245ffd5b90600160028304921680156105eb575b60208310146105e657565b6105b7565b91607f16916105db565b60209181520190565b5f5260205f2090565b905f929180549061062161061a836105cb565b80946105f5565b916001811690815f14610678575060011461063c575b505050565b61064991929394506105fe565b915f925b81841061066057505001905f8080610637565b6001816020929593955484860152019101929061064d565b92949550505060ff19168252151560200201905f8080610637565b9061069d91610607565b90565b634e487b7160e01b5f52604160045260245ffd5b906106be90610117565b810190811067ffffffffffffffff8211176106d857604052565b6106a0565b906106fd6106f6926106ed6100e2565b93848092610693565b03836106b4565b565b610708906106dd565b90565b6107136105b2565b5061071e60036106ff565b90565b5f90565b61074291610731610721565b5061073a6109ee565b9190916109fb565b600190565b5f90565b5f1c90565b90565b61075f6107649161074b565b610750565b90565b6107719054610753565b90565b61077c610747565b506107876002610767565b90565b5f1b90565b9061079b60ff9161078a565b9181191691161790565b6107ae9061022c565b90565b90565b906107c96107c46107d0926107a5565b6107b1565b825461078f565b9055565b6107e0600160056107b4565b565b6107ee6107f39161074b565b6103e9565b90565b61080090546107e2565b90565b90565b90565b61081d61081861082292610803565b610806565b6101d9565b90565b634e487b7160e01b5f52601260045260245ffd5b634e487b7160e01b5f52601160045260245ffd5b61085961085f916101d9565b916101d9565b90811561086a570490565b610825565b91610878610721565b5061088360056107f6565b6108965761089392919091610b53565b90565b90826108ab6108bc926108c295908591610a58565b916108b66002610809565b9061084d565b90610af5565b600190565b5f90565b90565b6108e26108dd6108e7926108cb565b610806565b610388565b90565b6108f26108c7565b506108fd60126108ce565b90565b9061090a91610af5565b565b61092061091b6109259261019f565b610806565b61019f565b90565b6109319061090c565b90565b61093d90610928565b90565b9061094a90610934565b5f5260205260405f2090565b61096c61097191610965610747565b505f610940565b610767565b90565b61097c6105b2565b5061098760046106ff565b90565b6109a791610996610721565b5061099f6109ee565b919091610a58565b600190565b906109b690610934565b5f5260205260405f2090565b6109e7916109dd6109e2926109d5610747565b5060016109ac565b610940565b610767565b90565b5f90565b6109f66109ea565b503390565b91610a099291600192610bd7565b565b90565b610a22610a1d610a2792610a0b565b610806565b61019f565b90565b610a3390610a0e565b90565b610a3f906101aa565b9052565b9190610a56905f60208501940190610a36565b565b9182610a74610a6e610a695f610a2a565b6101aa565b916101aa565b14610ace5781610a94610a8e610a895f610a2a565b6101aa565b916101aa565b14610aa757610aa592919091610d59565b565b610aca610ab35f610a2a565b5f91829163ec442f0560e01b835260048301610a43565b0390fd5b610af1610ada5f610a2a565b5f918291634b637e8f60e11b835260048301610a43565b0390fd5b80610b10610b0a610b055f610a2a565b6101aa565b916101aa565b14610b2c57610b2a91610b225f610a2a565b919091610d59565b565b610b4f610b385f610a2a565b5f91829163ec442f0560e01b835260048301610a43565b0390fd5b91610b7d92610b60610721565b50610b75610b6c6109ee565b82908491610ec8565b919091610a58565b600190565b90610b8e5f199161078a565b9181191691161790565b610bac610ba7610bb1926101d9565b610806565b6101d9565b90565b90565b90610bcc610bc7610bd392610b98565b610bb4565b8254610b82565b9055565b909281610bf4610bee610be95f610a2a565b6101aa565b916101aa565b14610cbf5783610c14610c0e610c095f610a2a565b6101aa565b916101aa565b14610c9857610c3883610c33610c2c600186906109ac565b8790610940565b610bb7565b610c42575b505050565b919091610c8d610c7b610c757f8c5be1e5ebec7d5bd14f71427d1e84f3dd0314c0f7b2291e5b200ac8c7c3b92593610934565b93610934565b93610c846100e2565b91829182610296565b0390a35f8080610c3d565b610cbb610ca45f610a2a565b5f918291634a1406b160e11b835260048301610a43565b0390fd5b610ce2610ccb5f610a2a565b5f91829163e602df0560e01b835260048301610a43565b0390fd5b604090610d0f610d169496959396610d0560608401985f850190610a36565b6020830190610289565b0190610289565b565b90610d2391036101d9565b90565b610d35610d3b919392936101d9565b926101d9565b8201809211610d4657565b610839565b90610d5691016101d9565b90565b91909180610d77610d71610d6c5f610a2a565b6101aa565b916101aa565b145f14610e5857610d9b610d9483610d8f6002610767565b610d26565b6002610bb7565b5b82610db7610db1610dac5f610a2a565b6101aa565b916101aa565b145f14610e2c57610ddb610dd483610dcf6002610767565b610d18565b6002610bb7565b5b919091610e27610e15610e0f7fddf252ad1be2c89b69c2b068fc378daa952ba7f163c4a11628f55a4df523b3ef93610934565b93610934565b93610e1e6100e2565b91829182610296565b0390a3565b610e5382610e4d610e3e5f8790610940565b91610e4883610767565b610d4b565b90610bb7565b610ddc565b610e6b610e665f8390610940565b610767565b80610e7e610e78856101d9565b916101d9565b10610ea657610e91610ea1918490610d18565b610e9c5f8490610940565b610bb7565b610d9c565b90610ec49091925f93849363391434e360e21b855260048501610ce6565b0390fd5b929192610ed68183906109c2565b9081610eeb610ee55f196101d9565b916101d9565b10610ef8575b5050509050565b81610f0b610f05876101d9565b916101d9565b10610f3157610f289394610f20919392610d18565b905f92610bd7565b805f8080610ef1565b50610f50849291925f938493637dc7a0d960e11b855260048501610ce6565b0390fd","linkReferences":{}},"methodIdentifiers":{"allowance(address,address)":"dd62ed3e","approve(address,uint256)":"095ea7b3","balanceOf(address)":"70a08231","decimals()":"313ce567","enableInvalidFrom()":"18c3cb59","mint(address,uint256)":"40c10f19","name()":"06fdde03","shouldTriggerInvalidFrom()":"3c5772a7","symbol()":"95d89b41","totalSupply()":"18160ddd","transfer(address,uint256)":"a9059cbb","transferFrom(address,address,uint256)":"23b872dd"},"id":101}