{"abi":[{"type":"constructor","inputs":[{"name":"_initialAuthority","type":"address","internalType":"address"}],"stateMutability":"nonpayable"},{"type":"function","name":"authority","inputs":[],"outputs":[{"name":"","type":"address","internalType":"address"}],"stateMutability":"view"},{"type":"function","name":"checkAccount","inputs":[{"name":"account","type":"address","internalType":"address"}],"outputs":[],"stateMutability":"view"},{"type":"function","name":"checkDeposit","inputs":[{"name":"","type":"address","internalType":"address"},{"name":"","type":"uint256","internalType":"uint256"},{"name":"sender","type":"address","internalType":"address"}],"outputs":[],"stateMutability":"view"},{"type":"function","name":"checkWithdraw","inputs":[{"name":"","type":"address","internalType":"address"},{"name":"","type":"uint256","internalType":"uint256"},{"name":"sender","type":"address","internalType":"address"}],"outputs":[],"stateMutability":"view"},{"type":"function","name":"isBlacklisted","inputs":[{"name":"account","type":"address","internalType":"address"}],"outputs":[{"name":"status","type":"bool","internalType":"bool"}],"stateMutability":"view"},{"type":"function","name":"isConsumingScheduledOp","inputs":[],"outputs":[{"name":"","type":"bytes4","internalType":"bytes4"}],"stateMutability":"view"},{"type":"function","name":"revertIfBlacklisted","inputs":[{"name":"_account","type":"address","internalType":"address"}],"outputs":[],"stateMutability":"nonpayable"},{"type":"function","name":"setAuthority","inputs":[{"name":"newAuthority","type":"address","internalType":"address"}],"outputs":[],"stateMutability":"nonpayable"},{"type":"function","name":"setIsBlacklistedToFalse","inputs":[{"name":"_accounts","type":"address[]","internalType":"address[]"}],"outputs":[],"stateMutability":"nonpayable"},{"type":"function","name":"setIsBlacklistedToTrue","inputs":[{"name":"_accounts","type":"address[]","internalType":"address[]"}],"outputs":[],"stateMutability":"nonpayable"},{"type":"event","name":"AuthorityUpdated","inputs":[{"name":"authority","type":"address","indexed":false,"internalType":"address"}],"anonymous":false},{"type":"error","name":"AccessManagedInvalidAuthority","inputs":[{"name":"authority","type":"address","internalType":"address"}]},{"type":"error","name":"AccessManagedRequiredDelay","inputs":[{"name":"caller","type":"address","internalType":"address"},{"name":"delay","type":"uint32","internalType":"uint32"}]},{"type":"error","name":"AccessManagedUnauthorized","inputs":[{"name":"caller","type":"address","internalType":"address"}]},{"type":"error","name":"Blacklisted","inputs":[{"name":"account","type":"address","internalType":"address"}]}],"bytecode":{"object":"0x60806040523461002f576100196100146100f4565b610115565b610021610034565b610e7361020d8239610e7390f35b61003a565b60405190565b5f80fd5b601f801991011690565b634e487b7160e01b5f52604160045260245ffd5b906100669061003e565b810190811060018060401b0382111761007e57604052565b610048565b9061009661008f610034565b928361005c565b565b5f80fd5b60018060a01b031690565b6100b09061009c565b90565b6100bc816100a7565b036100c357565b5f80fd5b905051906100d4826100b3565b565b906020828203126100ef576100ec915f016100c7565b90565b610098565b6101126110808038038061010781610083565b9283398101906100d6565b90565b61011e90610120565b565b610129906101c7565b565b5f1b90565b9061014160018060a01b039161012b565b9181191691161790565b90565b61016261015d6101679261009c565b61014b565b61009c565b90565b6101739061014e565b90565b61017f9061016a565b90565b90565b9061019a6101956101a192610176565b610182565b8254610130565b9055565b6101ae906100a7565b9052565b91906101c5905f602085019401906101a5565b565b6101d1815f610185565b6102077f2f658b440c35314f52658ea8a740e05b284cdc84dc9ae01e891f21b8933e7cad916101fe610034565b918291826101b2565b0390a156fe60806040526004361015610013575b610536565b61001d5f356100bc565b80635fb03511146100b757806369921c26146100b25780636c788d26146100ad5780637a9e5e4b146100a8578063805cab6d146100a35780638fb360371461009e578063a44eda3c14610099578063acb0cb6c14610094578063bf7e214f1461008f5763fe575a870361000e57610501565b61040f565b6103b9565b610385565b610350565b6102df565b61022b565b6101f8565b6101c5565b610173565b60e01c90565b60405190565b5f80fd5b5f80fd5b5f80fd5b60018060a01b031690565b6100e8906100d4565b90565b6100f4816100df565b036100fb57565b5f80fd5b9050359061010c826100eb565b565b90565b61011a8161010e565b0361012157565b5f80fd5b9050359061013282610111565b565b90916060828403126101695761016661014f845f85016100ff565b9361015d8160208601610125565b936040016100ff565b90565b6100cc565b5f0190565b346101a25761018c610186366004610134565b91610560565b6101946100c2565b8061019e8161016e565b0390f35b6100c8565b906020828203126101c0576101bd915f016100ff565b90565b6100cc565b346101f3576101dd6101d83660046101a7565b61059c565b6101e56100c2565b806101ef8161016e565b0390f35b6100c8565b346102265761021061020b3660046101a7565b610634565b6102186100c2565b806102228161016e565b0390f35b6100c8565b346102595761024361023e3660046101a7565b61065e565b61024b6100c2565b806102558161016e565b0390f35b6100c8565b5f80fd5b5f80fd5b5f80fd5b909182601f830112156102a45781359167ffffffffffffffff831161029f57602001926020830284011161029a57565b610266565b610262565b61025e565b906020828203126102da575f82013567ffffffffffffffff81116102d5576102d1920161026a565b9091565b6100d0565b6100cc565b3461030e576102f86102f23660046102a9565b9061080b565b6103006100c2565b8061030a8161016e565b0390f35b6100c8565b5f91031261031d57565b6100cc565b63ffffffff60e01b1690565b61033790610322565b9052565b919061034e905f6020850194019061032e565b565b3461038057610360366004610313565b61037c61036b610895565b6103736100c2565b9182918261033b565b0390f35b6100c8565b346103b45761039e610398366004610134565b916108cc565b6103a66100c2565b806103b08161016e565b0390f35b6100c8565b346103e8576103d26103cc3660046102a9565b9061099a565b6103da6100c2565b806103e48161016e565b0390f35b6100c8565b6103f6906100df565b9052565b919061040d905f602085019401906103ed565b565b3461043f5761041f366004610313565b61043b61042a6109d6565b6104326100c2565b918291826103fa565b0390f35b6100c8565b90565b61045b610456610460926100d4565b610444565b6100d4565b90565b61046c90610447565b90565b61047890610463565b90565b906104859061046f565b5f5260205260405f2090565b1c90565b60ff1690565b6104ab9060086104b09302610491565b610495565b90565b906104be915461049b565b90565b6104d7906104d26001915f9261047b565b6104b3565b90565b151590565b6104e8906104da565b9052565b91906104ff905f602085019401906104df565b565b346105315761052d61051c6105173660046101a7565b6104c1565b6105246100c2565b918291826104ec565b0390f35b6100c8565b5f80fd5b5f1c90565b61054b6105509161053a565b610495565b90565b61055d905461053f565b90565b50506105766105716001839061047b565b610553565b61057d5750565b610598905f918291631ff49cc360e31b8352600483016103fa565b0390fd5b6105b06105ab6001839061047b565b610553565b6105b75750565b6105d2905f918291631ff49cc360e31b8352600483016103fa565b0390fd5b6105f8906105f36105e56109eb565b6105ed6109fe565b91610bed565b6105fa565b565b61060e6106096001839061047b565b610553565b6106155750565b610630905f918291631ff49cc360e31b8352600483016103fa565b0390fd5b61063d906105d6565b565b90565b61065661065161065b9261063f565b610444565b61010e565b90565b6106666109eb565b8061068061067a6106756109d6565b6100df565b916100df565b036106c95750803b61069a6106945f610642565b9161010e565b146106aa576106a890610d74565b565b6106c5905f9182916361798f2f60e11b8352600483016103fa565b0390fd5b6106e3905f91829162d1953b60e31b8352600483016103fa565b0390fd5b9061070a916107056106f76109eb565b6106ff6109fe565b91610bed565b61079f565b565b6001610718910161010e565b90565b5090565b634e487b7160e01b5f52603260045260245ffd5b9190811015610743576020020190565b61071f565b35610752816100eb565b90565b5f1b90565b9061076660ff91610755565b9181191691161790565b610779906104da565b90565b90565b9061079461078f61079b92610770565b61077c565b825461075a565b9055565b9190916107ab5f610642565b5b806107c96107c36107be85889061071b565b61010e565b9161010e565b101561080557610800906107fb5f6107f660016107f06107eb888b8891610733565b610748565b9061047b565b61077f565b61070c565b6107ac565b50509050565b90610815916106e7565b565b5f90565b60a01c90565b61082d6108329161081b565b610495565b90565b61083f9054610821565b90565b60e01b90565b61085c6108576108619261063f565b610842565b610322565b90565b61086d90610463565b90565b63ffffffff1690565b61088d61088861089292610870565b610842565b610322565b90565b61089d610817565b506108a75f610835565b5f146108be576108ba638fb36037610879565b5b90565b6108c75f610848565b6108bb565b50506108e26108dd6001839061047b565b610553565b6108e95750565b610904905f918291631ff49cc360e31b8352600483016103fa565b0390fd5b9061092b916109266109186109eb565b6109206109fe565b91610bed565b61092d565b565b9190916109395f610642565b5b8061095761095161094c85889061071b565b61010e565b9161010e565b10156109945761098f9061098a6001610985600161097f61097a888b8891610733565b610748565b9061047b565b61077f565b61070c565b61093a565b50509050565b906109a491610908565b565b5f90565b60018060a01b031690565b6109c16109c69161053a565b6109aa565b90565b6109d390546109b5565b90565b6109de6109a6565b506109e85f6109c9565b90565b6109f36109a6565b503390565b36905f90565b610a066109f8565b9050505f903690565b90565b610a26610a21610a2b92610a0f565b610444565b61010e565b90565b5f80fd5b5f80fd5b90939293848311610a56578411610a51576001820201920390565b610a32565b610a2e565b5090565b1b90565b90610a71610a789183610a5b565b9135610322565b9060048110610a86575b5090565b610a9e9063ffffffff60e01b90600403600802610a5f565b165f610a82565b610ab9610ab4610abe9261063f565b610444565b610870565b90565b60a01b90565b90610ad660ff60a01b91610ac1565b9181191691161790565b90610af5610af0610afc92610770565b61077c565b8254610ac7565b9055565b610b0990610447565b90565b610b1590610b00565b90565b610b2190610463565b90565b5f80fd5b601f801991011690565b634e487b7160e01b5f52604160045260245ffd5b90610b5090610b28565b810190811067ffffffffffffffff821117610b6a57604052565b610b32565b5f910312610b7957565b6100cc565b60209181520190565b90825f939282370152565b9190610bac81610ba581610bb195610b7e565b8095610b87565b610b28565b0190565b91610bda939192610bcd60408201945f8301906103ed565b6020818503910152610b92565b90565b610be56100c2565b3d5f823e3d90fd5b90610c3f610c37610bfc6109d6565b84610c0630610864565b90610c31610c2b878a5f90610c25610c1f600493610642565b92610a12565b92610a36565b90610a63565b92610df3565b9190156104da565b610c4a575b50505050565b610c5c610c565f610aa5565b91610870565b115f14610d1857610c6e60015f610ae0565b610c86610c81610c7c6109d6565b610b0c565b610b18565b6394c7d7ee92919392813b15610d13575f610cb491610cbf8296610ca86100c2565b98899788968795610842565b855260048501610bb5565b03925af18015610d0e57610ce2575b50610cd95f5f610ae0565b5f808080610c44565b610d01905f3d8111610d07575b610cf98183610b46565b810190610b6f565b5f610cce565b503d610cef565b610bdd565b610b24565b610d32825f91829162d1953b60e31b8352600483016103fa565b0390fd5b90610d4760018060a01b0391610755565b9181191691161790565b90565b90610d69610d64610d709261046f565b610d51565b8254610d36565b9055565b610d7e815f610d54565b610db47f2f658b440c35314f52658ea8a740e05b284cdc84dc9ae01e891f21b8933e7cad91610dab6100c2565b918291826103fa565b0390a1565b5f90565b5f90565b604090610dea610df19496959396610de060608401985f8501906103ed565b60208301906103ed565b019061032e565b565b5f9060409294959395610e46610e07610db9565b97610e37610e13610dbd565b989193610e1e6100c2565b94859360046020860163b700961360e01b815201610dc1565b60208201810382520382610b46565b9082805282602052602082519201905afa610e5e575b565b9150505f51906020518060201c150290610e5c56","linkReferences":{}},"methodIdentifiers":{"authority()":"bf7e214f","checkAccount(address)":"69921c26","checkDeposit(address,uint256,address)":"5fb03511","checkWithdraw(address,uint256,address)":"a44eda3c","isBlacklisted(address)":"fe575a87","isConsumingScheduledOp()":"8fb36037","revertIfBlacklisted(address)":"6c788d26","setAuthority(address)":"7a9e5e4b","setIsBlacklistedToFalse(address[])":"805cab6d","setIsBlacklistedToTrue(address[])":"acb0cb6c"},"id":65}