{"abi":[{"type":"constructor","inputs":[{"name":"_initialAuthority","type":"address","internalType":"address"}],"stateMutability":"nonpayable"},{"type":"function","name":"authority","inputs":[],"outputs":[{"name":"","type":"address","internalType":"address"}],"stateMutability":"view"},{"type":"function","name":"checkAccount","inputs":[{"name":"account","type":"address","internalType":"address"}],"outputs":[],"stateMutability":"view"},{"type":"function","name":"checkDeposit","inputs":[{"name":"","type":"address","internalType":"address"},{"name":"","type":"uint256","internalType":"uint256"},{"name":"sender","type":"address","internalType":"address"}],"outputs":[],"stateMutability":"view"},{"type":"function","name":"checkWithdraw","inputs":[{"name":"","type":"address","internalType":"address"},{"name":"","type":"uint256","internalType":"uint256"},{"name":"sender","type":"address","internalType":"address"}],"outputs":[],"stateMutability":"view"},{"type":"function","name":"isBlacklisted","inputs":[{"name":"account","type":"address","internalType":"address"}],"outputs":[{"name":"status","type":"bool","internalType":"bool"}],"stateMutability":"view"},{"type":"function","name":"isConsumingScheduledOp","inputs":[],"outputs":[{"name":"","type":"bytes4","internalType":"bytes4"}],"stateMutability":"view"},{"type":"function","name":"revertIfBlacklisted","inputs":[{"name":"_account","type":"address","internalType":"address"}],"outputs":[],"stateMutability":"nonpayable"},{"type":"function","name":"setAuthority","inputs":[{"name":"newAuthority","type":"address","internalType":"address"}],"outputs":[],"stateMutability":"nonpayable"},{"type":"function","name":"setIsBlacklistedToFalse","inputs":[{"name":"_accounts","type":"address[]","internalType":"address[]"}],"outputs":[],"stateMutability":"nonpayable"},{"type":"function","name":"setIsBlacklistedToTrue","inputs":[{"name":"_accounts","type":"address[]","internalType":"address[]"}],"outputs":[],"stateMutability":"nonpayable"},{"type":"event","name":"AuthorityUpdated","inputs":[{"name":"authority","type":"address","indexed":false,"internalType":"address"}],"anonymous":false},{"type":"error","name":"AccessManagedInvalidAuthority","inputs":[{"name":"authority","type":"address","internalType":"address"}]},{"type":"error","name":"AccessManagedRequiredDelay","inputs":[{"name":"caller","type":"address","internalType":"address"},{"name":"delay","type":"uint32","internalType":"uint32"}]},{"type":"error","name":"AccessManagedUnauthorized","inputs":[{"name":"caller","type":"address","internalType":"address"}]},{"type":"error","name":"Blacklisted","inputs":[{"name":"account","type":"address","internalType":"address"}]}],"bytecode":{"object":"0x60806040523461002f576100196100146100f4565b610115565b610021610034565b610e5261020d8239610e5290f35b61003a565b60405190565b5f80fd5b601f801991011690565b634e487b7160e01b5f52604160045260245ffd5b906100669061003e565b810190811060018060401b0382111761007e57604052565b610048565b9061009661008f610034565b928361005c565b565b5f80fd5b60018060a01b031690565b6100b09061009c565b90565b6100bc816100a7565b036100c357565b5f80fd5b905051906100d4826100b3565b565b906020828203126100ef576100ec915f016100c7565b90565b610098565b61011261105f8038038061010781610083565b9283398101906100d6565b90565b61011e90610120565b565b610129906101c7565b565b5f1b90565b9061014160018060a01b039161012b565b9181191691161790565b90565b61016261015d6101679261009c565b61014b565b61009c565b90565b6101739061014e565b90565b61017f9061016a565b90565b90565b9061019a6101956101a192610176565b610182565b8254610130565b9055565b6101ae906100a7565b9052565b91906101c5905f602085019401906101a5565b565b6101d1815f610185565b6102077f2f658b440c35314f52658ea8a740e05b284cdc84dc9ae01e891f21b8933e7cad916101fe610034565b918291826101b2565b0390a156fe60806040526004361015610013575b610536565b61001d5f356100bc565b80635fb03511146100b757806369921c26146100b25780636c788d26146100ad5780637a9e5e4b146100a8578063805cab6d146100a35780638fb360371461009e578063a44eda3c14610099578063acb0cb6c14610094578063bf7e214f1461008f5763fe575a870361000e57610501565b61040f565b6103b9565b610385565b610350565b6102df565b61022b565b6101f8565b6101c5565b610173565b60e01c90565b60405190565b5f80fd5b5f80fd5b5f80fd5b60018060a01b031690565b6100e8906100d4565b90565b6100f4816100df565b036100fb57565b5f80fd5b9050359061010c826100eb565b565b90565b61011a8161010e565b0361012157565b5f80fd5b9050359061013282610111565b565b90916060828403126101695761016661014f845f85016100ff565b9361015d8160208601610125565b936040016100ff565b90565b6100cc565b5f0190565b346101a25761018c610186366004610134565b91610587565b6101946100c2565b8061019e8161016e565b0390f35b6100c8565b906020828203126101c0576101bd915f016100ff565b90565b6100cc565b346101f3576101dd6101d83660046101a7565b6105b1565b6101e56100c2565b806101ef8161016e565b0390f35b6100c8565b346102265761021061020b3660046101a7565b610625565b6102186100c2565b806102228161016e565b0390f35b6100c8565b346102595761024361023e3660046101a7565b61064f565b61024b6100c2565b806102558161016e565b0390f35b6100c8565b5f80fd5b5f80fd5b5f80fd5b909182601f830112156102a45781359167ffffffffffffffff831161029f57602001926020830284011161029a57565b610266565b610262565b61025e565b906020828203126102da575f82013567ffffffffffffffff81116102d5576102d1920161026a565b9091565b6100d0565b6100cc565b3461030e576102f86102f23660046102a9565b906107fc565b6103006100c2565b8061030a8161016e565b0390f35b6100c8565b5f91031261031d57565b6100cc565b63ffffffff60e01b1690565b61033790610322565b9052565b919061034e905f6020850194019061032e565b565b3461038057610360366004610313565b61037c61036b610886565b6103736100c2565b9182918261033b565b0390f35b6100c8565b346103b45761039e610398366004610134565b916108bd565b6103a66100c2565b806103b08161016e565b0390f35b6100c8565b346103e8576103d26103cc3660046102a9565b90610979565b6103da6100c2565b806103e48161016e565b0390f35b6100c8565b6103f6906100df565b9052565b919061040d905f602085019401906103ed565b565b3461043f5761041f366004610313565b61043b61042a6109b5565b6104326100c2565b918291826103fa565b0390f35b6100c8565b90565b61045b610456610460926100d4565b610444565b6100d4565b90565b61046c90610447565b90565b61047890610463565b90565b906104859061046f565b5f5260205260405f2090565b1c90565b60ff1690565b6104ab9060086104b09302610491565b610495565b90565b906104be915461049b565b90565b6104d7906104d26001915f9261047b565b6104b3565b90565b151590565b6104e8906104da565b9052565b91906104ff905f602085019401906104df565b565b346105315761052d61051c6105173660046101a7565b6104c1565b6105246100c2565b918291826104ec565b0390f35b6100c8565b5f80fd5b5f1c90565b61054b6105509161053a565b610495565b90565b61055d905461053f565b90565b156105685750565b610583905f918291631ff49cc360e31b8352600483016103fa565b0390fd5b50506105af906105aa6105a461059f6001849061047b565b610553565b156104da565b610560565b565b6105d7906105d26105cc6105c76001849061047b565b610553565b156104da565b610560565b565b6105fb906105f66105e86109ca565b6105f06109dd565b91610bcc565b6105fd565b565b6106239061061e6106186106136001849061047b565b610553565b156104da565b610560565b565b61062e906105d9565b565b90565b61064761064261064c92610630565b610444565b61010e565b90565b6106576109ca565b8061067161066b6106666109b5565b6100df565b916100df565b036106ba5750803b61068b6106855f610633565b9161010e565b1461069b5761069990610d53565b565b6106b6905f9182916361798f2f60e11b8352600483016103fa565b0390fd5b6106d4905f91829162d1953b60e31b8352600483016103fa565b0390fd5b906106fb916106f66106e86109ca565b6106f06109dd565b91610bcc565b610790565b565b6001610709910161010e565b90565b5090565b634e487b7160e01b5f52603260045260245ffd5b9190811015610734576020020190565b610710565b35610743816100eb565b90565b5f1b90565b9061075760ff91610746565b9181191691161790565b61076a906104da565b90565b90565b9061078561078061078c92610761565b61076d565b825461074b565b9055565b91909161079c5f610633565b5b806107ba6107b46107af85889061070c565b61010e565b9161010e565b10156107f6576107f1906107ec5f6107e760016107e16107dc888b8891610724565b610739565b9061047b565b610770565b6106fd565b61079d565b50509050565b90610806916106d8565b565b5f90565b60a01c90565b61081e6108239161080c565b610495565b90565b6108309054610812565b90565b60e01b90565b61084d61084861085292610630565b610833565b610322565b90565b61085e90610463565b90565b63ffffffff1690565b61087e61087961088392610861565b610833565b610322565b90565b61088e610808565b506108985f610826565b5f146108af576108ab638fb3603761086a565b5b90565b6108b85f610839565b6108ac565b50506108e5906108e06108da6108d56001849061047b565b610553565b156104da565b610560565b565b9061090a916109056108f76109ca565b6108ff6109dd565b91610bcc565b61090c565b565b9190916109185f610633565b5b8061093661093061092b85889061070c565b61010e565b9161010e565b10156109735761096e906109696001610964600161095e610959888b8891610724565b610739565b9061047b565b610770565b6106fd565b610919565b50509050565b90610983916108e7565b565b5f90565b60018060a01b031690565b6109a06109a59161053a565b610989565b90565b6109b29054610994565b90565b6109bd610985565b506109c75f6109a8565b90565b6109d2610985565b503390565b36905f90565b6109e56109d7565b9050505f903690565b90565b610a05610a00610a0a926109ee565b610444565b61010e565b90565b5f80fd5b5f80fd5b90939293848311610a35578411610a30576001820201920390565b610a11565b610a0d565b5090565b1b90565b90610a50610a579183610a3a565b9135610322565b9060048110610a65575b5090565b610a7d9063ffffffff60e01b90600403600802610a3e565b165f610a61565b610a98610a93610a9d92610630565b610444565b610861565b90565b60a01b90565b90610ab560ff60a01b91610aa0565b9181191691161790565b90610ad4610acf610adb92610761565b61076d565b8254610aa6565b9055565b610ae890610447565b90565b610af490610adf565b90565b610b0090610463565b90565b5f80fd5b601f801991011690565b634e487b7160e01b5f52604160045260245ffd5b90610b2f90610b07565b810190811067ffffffffffffffff821117610b4957604052565b610b11565b5f910312610b5857565b6100cc565b60209181520190565b90825f939282370152565b9190610b8b81610b8481610b9095610b5d565b8095610b66565b610b07565b0190565b91610bb9939192610bac60408201945f8301906103ed565b6020818503910152610b71565b90565b610bc46100c2565b3d5f823e3d90fd5b90610c1e610c16610bdb6109b5565b84610be530610855565b90610c10610c0a878a5f90610c04610bfe600493610633565b926109f1565b92610a15565b90610a42565b92610dd2565b9190156104da565b610c29575b50505050565b610c3b610c355f610a84565b91610861565b115f14610cf757610c4d60015f610abf565b610c65610c60610c5b6109b5565b610aeb565b610af7565b6394c7d7ee92919392813b15610cf2575f610c9391610c9e8296610c876100c2565b98899788968795610833565b855260048501610b94565b03925af18015610ced57610cc1575b50610cb85f5f610abf565b5f808080610c23565b610ce0905f3d8111610ce6575b610cd88183610b25565b810190610b4e565b5f610cad565b503d610cce565b610bbc565b610b03565b610d11825f91829162d1953b60e31b8352600483016103fa565b0390fd5b90610d2660018060a01b0391610746565b9181191691161790565b90565b90610d48610d43610d4f9261046f565b610d30565b8254610d15565b9055565b610d5d815f610d33565b610d937f2f658b440c35314f52658ea8a740e05b284cdc84dc9ae01e891f21b8933e7cad91610d8a6100c2565b918291826103fa565b0390a1565b5f90565b5f90565b604090610dc9610dd09496959396610dbf60608401985f8501906103ed565b60208301906103ed565b019061032e565b565b5f9060409294959395610e25610de6610d98565b97610e16610df2610d9c565b989193610dfd6100c2565b94859360046020860163b700961360e01b815201610da0565b60208201810382520382610b25565b9082805282602052602082519201905afa610e3d575b565b9150505f51906020518060201c150290610e3b56","linkReferences":{}},"methodIdentifiers":{"authority()":"bf7e214f","checkAccount(address)":"69921c26","checkDeposit(address,uint256,address)":"5fb03511","checkWithdraw(address,uint256,address)":"a44eda3c","isBlacklisted(address)":"fe575a87","isConsumingScheduledOp()":"8fb36037","revertIfBlacklisted(address)":"6c788d26","setAuthority(address)":"7a9e5e4b","setIsBlacklistedToFalse(address[])":"805cab6d","setIsBlacklistedToTrue(address[])":"acb0cb6c"},"id":65}