{"abi":[{"type":"constructor","inputs":[{"name":"_bridge","type":"address","internalType":"address"},{"name":"_token","type":"address","internalType":"address"}],"stateMutability":"nonpayable"},{"type":"receive","stateMutability":"payable"},{"type":"function","name":"ATTACK_AMOUNT","inputs":[],"outputs":[{"name":"","type":"uint256","internalType":"uint256"}],"stateMutability":"view"},{"type":"function","name":"DEST_ACCOUNT","inputs":[],"outputs":[{"name":"","type":"bytes32","internalType":"bytes32"}],"stateMutability":"view"},{"type":"function","name":"DEST_CHAIN_KEY","inputs":[],"outputs":[{"name":"","type":"bytes32","internalType":"bytes32"}],"stateMutability":"view"},{"type":"function","name":"attemptDuplicateDeposits","inputs":[],"outputs":[],"stateMutability":"nonpayable"},{"type":"function","name":"attemptReentrantDeposit","inputs":[],"outputs":[],"stateMutability":"nonpayable"},{"type":"function","name":"bridge","inputs":[],"outputs":[{"name":"","type":"address","internalType":"contract Cl8YBridge"}],"stateMutability":"view"},{"type":"function","name":"callCount","inputs":[],"outputs":[{"name":"","type":"uint256","internalType":"uint256"}],"stateMutability":"view"},{"type":"function","name":"disableReentrancy","inputs":[],"outputs":[],"stateMutability":"nonpayable"},{"type":"function","name":"enableReentrancy","inputs":[],"outputs":[],"stateMutability":"nonpayable"},{"type":"function","name":"onTokenTransfer","inputs":[{"name":"from","type":"address","internalType":"address"},{"name":"to","type":"address","internalType":"address"},{"name":"amount","type":"uint256","internalType":"uint256"}],"outputs":[],"stateMutability":"nonpayable"},{"type":"function","name":"reentrancyEnabled","inputs":[],"outputs":[{"name":"","type":"bool","internalType":"bool"}],"stateMutability":"view"},{"type":"function","name":"resetCallCount","inputs":[],"outputs":[],"stateMutability":"nonpayable"},{"type":"function","name":"token","inputs":[],"outputs":[{"name":"","type":"address","internalType":"address"}],"stateMutability":"view"}],"bytecode":{"object":"0x6080604052346100305761001a610014610104565b9061028c565b610022610035565b6110d06102c282396110d090f35b61003b565b60405190565b5f80fd5b601f801991011690565b634e487b7160e01b5f52604160045260245ffd5b906100679061003f565b810190811060018060401b0382111761007f57604052565b610049565b90610097610090610035565b928361005d565b565b5f80fd5b60018060a01b031690565b6100b19061009d565b90565b6100bd816100a8565b036100c457565b5f80fd5b905051906100d5826100b4565b565b91906040838203126100ff57806100f36100fc925f86016100c8565b936020016100c8565b90565b610099565b6101226113928038038061011781610084565b9283398101906100d7565b9091565b5f1b90565b906101375f1991610126565b9181191691161790565b90565b90565b90565b61015e61015961016392610141565b610147565b610144565b90565b90565b9061017e6101796101859261014a565b610166565b825461012b565b9055565b9061019560ff91610126565b9181191691161790565b151590565b6101ad9061019f565b90565b90565b906101c86101c36101cf926101a4565b6101b0565b8254610189565b9055565b6101e76101e26101ec9261009d565b610147565b61009d565b90565b6101f8906101d3565b90565b610204906101ef565b90565b9061021860018060a01b0391610126565b9181191691161790565b61022b906101ef565b90565b90565b9061024661024161024d92610222565b61022e565b8254610207565b9055565b61025a906101d3565b90565b61026690610251565b90565b90565b9061028161027c6102889261025d565b610269565b8254610207565b9055565b906102b86102b26102bf936102a25f6002610169565b6102ad5f60036101b3565b6101fb565b5f610231565b600161026c565b56fe6080604052600436101561001d575b366107bf5761001b610fb8565b005b6100275f356100f6565b8063209afb28146100f15780634b28f9a2146100ec578063677ba3d3146100e757806377561a1b146100e257806389ea43e4146100dd5780639485b8f0146100d85780639b39e8d4146100d3578063cc23fb1c146100ce578063cf22dff7146100c9578063d8391237146100c4578063df96bf2d146100bf578063e78cea92146100ba5763fc0c546a0361000e5761078a565b6106f3565b610629565b6105c7565b610592565b6104fd565b6104c8565b61035c565b610327565b6102b2565b61027e565b6101b2565b61011e565b60e01c90565b60405190565b5f80fd5b5f80fd5b5f91031261011457565b610106565b5f0190565b3461014c5761012e36600461010a565b6101366109bf565b61013e6100fc565b8061014881610119565b0390f35b610102565b1c90565b90565b61016890600861016d9302610151565b610155565b90565b9061017b9154610158565b90565b61018a60025f90610170565b90565b90565b6101999061018d565b9052565b91906101b0905f60208501940190610190565b565b346101e2576101c236600461010a565b6101de6101cd61017e565b6101d56100fc565b9182918261019d565b0390f35b610102565b60018060a01b031690565b6101fb906101e7565b90565b610207816101f2565b0361020e57565b5f80fd5b9050359061021f826101fe565b565b61022a8161018d565b0361023157565b5f80fd5b9050359061024282610221565b565b90916060828403126102795761027661025f845f8501610212565b9361026d8160208601610212565b93604001610235565b90565b610106565b346102ad57610297610291366004610244565b91610b7d565b61029f6100fc565b806102a981610119565b0390f35b610102565b346102e0576102c236600461010a565b6102ca610cfc565b6102d26100fc565b806102dc81610119565b0390f35b610102565b90565b90565b6102ff6102fa610304926102e5565b6102e8565b61018d565b90565b610319683635c9adc5dea000006102eb565b90565b610324610307565b90565b346103575761033736600461010a565b61035361034261031c565b61034a6100fc565b9182918261019d565b0390f35b610102565b3461038a5761036c36600461010a565b610374610d1d565b61037c6100fc565b8061038681610119565b0390f35b610102565b90565b6103a66103a16103ab9261038f565b6102e8565b6101e7565b90565b6103b790610392565b90565b60601b90565b6103c9906103ba565b90565b6103d5906103c0565b90565b6103e46103e9916101f2565b6103cc565b9052565b6103f9816014936103d8565b0190565b601f801991011690565b634e487b7160e01b5f52604160045260245ffd5b90610425906103fd565b810190811067ffffffffffffffff82111761043f57604052565b610407565b60200190565b5190565b61047361048261045f6101236103ae565b6104676100fc565b928391602083016103ed565b6020820181038252038261041b565b61049461048e8261044a565b91610444565b2090565b6104a061044e565b90565b90565b6104af906104a3565b9052565b91906104c6905f602085019401906104a6565b565b346104f8576104d836600461010a565b6104f46104e3610498565b6104eb6100fc565b918291826104b3565b0390f35b610102565b3461052b5761050d36600461010a565b610515610d32565b61051d6100fc565b8061052781610119565b0390f35b610102565b60ff1690565b61054690600861054b9302610151565b610530565b90565b906105599154610536565b90565b61056860035f9061054e565b90565b151590565b6105799061056b565b9052565b9190610590905f60208501940190610570565b565b346105c2576105a236600461010a565b6105be6105ad61055c565b6105b56100fc565b9182918261057d565b0390f35b610102565b346105f5576105d736600461010a565b6105df610d87565b6105e76100fc565b806105f181610119565b0390f35b610102565b7faaaebeba3810b1e6b70781f14b2d72c1cb89c0b2b320c43bb67ff79f562f5ff490565b6106266105fa565b90565b346106595761063936600461010a565b61065561064461061e565b61064c6100fc565b918291826104b3565b0390f35b610102565b60018060a01b031690565b61067990600861067e9302610151565b61065e565b90565b9061068c9154610669565b90565b61069a5f5f90610681565b90565b6106b16106ac6106b6926101e7565b6102e8565b6101e7565b90565b6106c29061069d565b90565b6106ce906106b9565b90565b6106da906106c5565b9052565b91906106f1905f602085019401906106d1565b565b346107235761070336600461010a565b61071f61070e61068f565b6107166100fc565b918291826106de565b0390f35b610102565b60018060a01b031690565b6107439060086107489302610151565b610728565b90565b906107569154610733565b90565b61076560015f9061074b565b90565b610771906101f2565b9052565b9190610788905f60208501940190610768565b565b346107ba5761079a36600461010a565b6107b66107a5610759565b6107ad6100fc565b91829182610775565b0390f35b610102565b5f80fd5b5f1c90565b6107d46107d9916107c3565b610728565b90565b6107e690546107c8565b90565b6107f29061069d565b90565b6107fe906107e9565b90565b61080a906106b9565b90565b61081961081e916107c3565b61065e565b90565b61082b905461080d565b90565b5f80fd5b60e01b90565b6108418161056b565b0361084857565b5f80fd5b9050519061085982610838565b565b9060208282031261087457610871915f0161084c565b90565b610106565b91602061089a92949361089360408201965f830190610768565b0190610190565b565b6108a46100fc565b3d5f823e3d90fd5b6108b86108bd916107c3565b610155565b90565b6108ca90546108ac565b90565b634e487b7160e01b5f52601160045260245ffd5b6108ea9061018d565b5f1981146108f85760010190565b6108cd565b5f1b90565b9061090e5f19916108fd565b9181191691161790565b61092c6109276109319261018d565b6102e8565b61018d565b90565b90565b9061094c61094761095392610918565b610934565b8254610902565b9055565b610960906106b9565b90565b5f91031261096d57565b610106565b909594926109bd946109ac6109b6926109a260809661099860a088019c5f890190610768565b60208701906104a6565b60408501906104a6565b6060830190610768565b0190610190565b565b6109d96109d46109cf60016107dc565b6107f5565b610801565b602063095ea7b3916109f26109ed5f610821565b6106c5565b90610a175f6109ff610307565b95610a22610a0b6100fc565b97889687958694610832565b845260048401610879565b03925af18015610b3857610b0c575b50610a4e610a47610a4260026108c0565b6108e1565b6002610937565b610a5f610a5a5f610821565b6106c5565b6357ece64e610a6d30610957565b610a756105fa565b92610a7e61044e565b92610a8960016107dc565b610a91610307565b91833b15610b0757610ac4610ab9935f97938894610aad6100fc565b9a8b998a988997610832565b875260048701610972565b03925af18015610b0257610ad6575b50565b610af5905f3d8111610afb575b610aed818361041b565b810190610963565b5f610ad3565b503d610ae3565b61089c565b61082e565b610b2c9060203d8111610b31575b610b24818361041b565b81019061085b565b610a31565b503d610b1a565b61089c565b610b49610b4e916107c3565b610530565b90565b610b5b9054610b3d565b90565b90565b610b75610b70610b7a92610b5e565b6102e8565b61018d565b90565b505050610b8a6003610b51565b80610c74575b610b97575b565b610bb3610bac610ba760026108c0565b6108e1565b6002610937565b610bc4610bbf5f610821565b6106c5565b6357ece64e610bd230610957565b610bda6105fa565b92610be361044e565b92610bee60016107dc565b610bf6610307565b91833b15610c6f57610c29610c1e935f97938894610c126100fc565b9a8b998a988997610832565b875260048701610972565b03925af18015610c6a57610c3e575b50610b95565b610c5d905f3d8111610c63575b610c55818361041b565b810190610963565b5f610c38565b503d610c4b565b61089c565b61082e565b50610c7f60026108c0565b610c92610c8c6002610b61565b9161018d565b10610b90565b90610ca460ff916108fd565b9181191691161790565b610cb79061056b565b90565b90565b90610cd2610ccd610cd992610cae565b610cba565b8254610c98565b9055565b90565b610cf4610cef610cf992610cdd565b6102e8565b61018d565b90565b610d0860016003610cbd565b610d1b610d145f610ce0565b6002610937565b565b610d30610d295f610ce0565b6002610937565b565b610d3d5f6003610cbd565b610d50610d495f610ce0565b6002610937565b565b610d61610d679193929361018d565b9261018d565b91610d7383820261018d565b928184041490151715610d8257565b6108cd565b610da1610d9c610d9760016107dc565b6107f5565b610801565b602063095ea7b391610dba610db55f610821565b6106c5565b90610df25f610dda610dca610307565b610dd46002610b61565b90610d52565b95610dfd610de66100fc565b97889687958694610832565b845260048401610879565b03925af18015610fb357610f87575b50610e1e610e195f610821565b6106c5565b6357ece64e610e2c30610957565b610e346105fa565b92610e3d61044e565b92610e4860016107dc565b610e50610307565b91833b15610f8257610e83610e78935f97938894610e6c6100fc565b9a8b998a988997610832565b875260048701610972565b03925af18015610f7d57610f51575b50610ea4610e9f5f610821565b6106c5565b6357ece64e610eb230610957565b610eba6105fa565b92610ec361044e565b92610ece60016107dc565b610ed6610307565b91833b15610f4c57610f09610efe935f97938894610ef26100fc565b9a8b998a988997610832565b875260048701610972565b03925af18015610f4757610f1b575b50565b610f3a905f3d8111610f40575b610f32818361041b565b810190610963565b5f610f18565b503d610f28565b61089c565b61082e565b610f70905f3d8111610f76575b610f68818361041b565b810190610963565b5f610e92565b503d610f5e565b61089c565b61082e565b610fa79060203d8111610fac575b610f9f818361041b565b81019061085b565b610e0c565b503d610f95565b61089c565b610fc26003610b51565b806110ac575b610fcf575b565b610feb610fe4610fdf60026108c0565b6108e1565b6002610937565b610ffc610ff75f610821565b6106c5565b6357ece64e61100a30610957565b6110126105fa565b9261101b61044e565b9261102660016107dc565b61102e610307565b91833b156110a757611061611056935f9793889461104a6100fc565b9a8b998a988997610832565b875260048701610972565b03925af180156110a257611076575b50610fcd565b611095905f3d811161109b575b61108d818361041b565b810190610963565b5f611070565b503d611083565b61089c565b61082e565b506110b760026108c0565b6110ca6110c46002610b61565b9161018d565b10610fc856","linkReferences":{}},"methodIdentifiers":{"ATTACK_AMOUNT()":"89ea43e4","DEST_ACCOUNT()":"9b39e8d4","DEST_CHAIN_KEY()":"df96bf2d","attemptDuplicateDeposits()":"d8391237","attemptReentrantDeposit()":"209afb28","bridge()":"e78cea92","callCount()":"4b28f9a2","disableReentrancy()":"cc23fb1c","enableReentrancy()":"77561a1b","onTokenTransfer(address,address,uint256)":"677ba3d3","reentrancyEnabled()":"cf22dff7","resetCallCount()":"9485b8f0","token()":"fc0c546a"},"id":95}