{"abi":[{"type":"constructor","inputs":[],"stateMutability":"nonpayable"},{"type":"function","name":"allowance","inputs":[{"name":"owner","type":"address","internalType":"address"},{"name":"spender","type":"address","internalType":"address"}],"outputs":[{"name":"","type":"uint256","internalType":"uint256"}],"stateMutability":"view"},{"type":"function","name":"approve","inputs":[{"name":"spender","type":"address","internalType":"address"},{"name":"value","type":"uint256","internalType":"uint256"}],"outputs":[{"name":"","type":"bool","internalType":"bool"}],"stateMutability":"nonpayable"},{"type":"function","name":"balanceOf","inputs":[{"name":"account","type":"address","internalType":"address"}],"outputs":[{"name":"","type":"uint256","internalType":"uint256"}],"stateMutability":"view"},{"type":"function","name":"decimals","inputs":[],"outputs":[{"name":"","type":"uint8","internalType":"uint8"}],"stateMutability":"view"},{"type":"function","name":"mint","inputs":[{"name":"to","type":"address","internalType":"address"},{"name":"amount","type":"uint256","internalType":"uint256"}],"outputs":[],"stateMutability":"nonpayable"},{"type":"function","name":"name","inputs":[],"outputs":[{"name":"","type":"string","internalType":"string"}],"stateMutability":"view"},{"type":"function","name":"symbol","inputs":[],"outputs":[{"name":"","type":"string","internalType":"string"}],"stateMutability":"view"},{"type":"function","name":"taxRate","inputs":[],"outputs":[{"name":"","type":"uint256","internalType":"uint256"}],"stateMutability":"view"},{"type":"function","name":"totalSupply","inputs":[],"outputs":[{"name":"","type":"uint256","internalType":"uint256"}],"stateMutability":"view"},{"type":"function","name":"transfer","inputs":[{"name":"to","type":"address","internalType":"address"},{"name":"amount","type":"uint256","internalType":"uint256"}],"outputs":[{"name":"","type":"bool","internalType":"bool"}],"stateMutability":"nonpayable"},{"type":"function","name":"transferFrom","inputs":[{"name":"from","type":"address","internalType":"address"},{"name":"to","type":"address","internalType":"address"},{"name":"amount","type":"uint256","internalType":"uint256"}],"outputs":[{"name":"","type":"bool","internalType":"bool"}],"stateMutability":"nonpayable"},{"type":"event","name":"Approval","inputs":[{"name":"owner","type":"address","indexed":true,"internalType":"address"},{"name":"spender","type":"address","indexed":true,"internalType":"address"},{"name":"value","type":"uint256","indexed":false,"internalType":"uint256"}],"anonymous":false},{"type":"event","name":"Transfer","inputs":[{"name":"from","type":"address","indexed":true,"internalType":"address"},{"name":"to","type":"address","indexed":true,"internalType":"address"},{"name":"value","type":"uint256","indexed":false,"internalType":"uint256"}],"anonymous":false},{"type":"error","name":"ERC20InsufficientAllowance","inputs":[{"name":"spender","type":"address","internalType":"address"},{"name":"allowance","type":"uint256","internalType":"uint256"},{"name":"needed","type":"uint256","internalType":"uint256"}]},{"type":"error","name":"ERC20InsufficientBalance","inputs":[{"name":"sender","type":"address","internalType":"address"},{"name":"balance","type":"uint256","internalType":"uint256"},{"name":"needed","type":"uint256","internalType":"uint256"}]},{"type":"error","name":"ERC20InvalidApprover","inputs":[{"name":"approver","type":"address","internalType":"address"}]},{"type":"error","name":"ERC20InvalidReceiver","inputs":[{"name":"receiver","type":"address","internalType":"address"}]},{"type":"error","name":"ERC20InvalidSender","inputs":[{"name":"sender","type":"address","internalType":"address"}]},{"type":"error","name":"ERC20InvalidSpender","inputs":[{"name":"spender","type":"address","internalType":"address"}]}],"bytecode":{"object":"0x608060405234610027576100116101c1565b61001961002c565b610fc361044f8239610fc390f35b610032565b60405190565b5f80fd5b601f801991011690565b634e487b7160e01b5f52604160045260245ffd5b9061005e90610036565b810190811060018060401b0382111761007657604052565b610040565b9061008e61008761002c565b9283610054565b565b60018060401b0381116100ac576100a8602091610036565b0190565b610040565b906100c36100be83610090565b61007b565b918252565b5f7f546178546f6b656e000000000000000000000000000000000000000000000000910152565b6100f960086100b1565b90610106602083016100c8565b565b6101106100ef565b90565b5f7f5441580000000000000000000000000000000000000000000000000000000000910152565b61014460036100b1565b9061015160208301610113565b565b61015b61013a565b90565b5f1b90565b9061016f5f199161015e565b9181191691161790565b90565b90565b90565b61019661019161019b92610179565b61017f565b61017c565b90565b90565b906101b66101b16101bd92610182565b61019e565b8254610163565b9055565b6101da6101cc610108565b6101d4610153565b90610436565b6101e6600a60056101a1565b565b5190565b634e487b7160e01b5f52602260045260245ffd5b9060016002830492168015610220575b602083101461021b57565b6101ec565b91607f1691610210565b5f5260205f2090565b601f602091010490565b1b90565b9190600861025c9102916102565f198461023d565b9261023d565b9181191691161790565b61027a61027561027f9261017c565b61017f565b61017c565b90565b91906102986102936102a093610266565b61019e565b908354610241565b9055565b5f90565b6102ba916102b46102a4565b91610282565b565b5b8181106102c8575050565b806102d55f6001936102a8565b016102bd565b9190601f81116102eb575b505050565b6102f761031c9361022a565b90602061030384610233565b83019310610324575b61031590610233565b01906102bc565b5f80806102e6565b91506103158192905061030c565b1c90565b90610346905f1990600802610332565b191690565b8161035591610336565b906002021790565b90610367816101e8565b9060018060401b03821161042557610389826103838554610200565b856102db565b602090601f83116001146103bd579180916103ac935f926103b1575b505061034b565b90555b565b90915001515f806103a5565b601f198316916103cc8561022a565b925f5b81811061040d575091600293918560019694106103f3575b505050020190556103af565b610403910151601f841690610336565b90555f80806103e7565b919360206001819287870151815501950192016103cf565b610040565b906104349161035d565b565b9061044561044c92600361042a565b600461042a565b56fe60806040526004361015610013575b610568565b61001d5f356100cc565b806306fdde03146100c7578063095ea7b3146100c257806318160ddd146100bd57806323b872dd146100b8578063313ce567146100b357806340c10f19146100ae57806370a08231146100a9578063771a3a1d146100a457806395d89b411461009f578063a9059cbb1461009a5763dd62ed3e0361000e57610532565b6104cf565b61049a565b610465565b6103f4565b6103a2565b610368565b61030a565b61029b565b610243565b61015a565b60e01c90565b60405190565b5f80fd5b5f80fd5b5f9103126100ea57565b6100dc565b5190565b60209181520190565b90825f9392825e0152565b601f801991011690565b61013061013960209361013e93610127816100ef565b938480936100f3565b958691016100fc565b610107565b0190565b6101579160208201915f818403910152610111565b90565b3461018a5761016a3660046100e0565b6101866101756106c5565b61017d6100d2565b91829182610142565b0390f35b6100d8565b60018060a01b031690565b6101a39061018f565b90565b6101af8161019a565b036101b657565b5f80fd5b905035906101c7826101a6565b565b90565b6101d5816101c9565b036101dc57565b5f80fd5b905035906101ed826101cc565b565b9190604083820312610217578061020b610214925f86016101ba565b936020016101e0565b90565b6100dc565b151590565b61022a9061021c565b9052565b9190610241905f60208501940190610221565b565b346102745761027061025f6102593660046101ef565b906106df565b6102676100d2565b9182918261022e565b0390f35b6100d8565b610282906101c9565b9052565b9190610299905f60208501940190610279565b565b346102cb576102ab3660046100e0565b6102c76102b661072b565b6102be6100d2565b91829182610286565b0390f35b6100d8565b9091606082840312610305576103026102eb845f85016101ba565b936102f981602086016101ba565b936040016101e0565b90565b6100dc565b3461033b576103376103266103203660046102d0565b91610826565b61032e6100d2565b9182918261022e565b0390f35b6100d8565b60ff1690565b61034f90610340565b9052565b9190610366905f60208501940190610346565b565b34610398576103783660046100e0565b6103946103836108d2565b61038b6100d2565b91829182610353565b0390f35b6100d8565b5f0190565b346103d1576103bb6103b53660046101ef565b906108e8565b6103c36100d2565b806103cd8161039d565b0390f35b6100d8565b906020828203126103ef576103ec915f016101ba565b90565b6100dc565b346104245761042061040f61040a3660046103d6565b61093e565b6104176100d2565b91829182610286565b0390f35b6100d8565b1c90565b90565b6104409060086104459302610429565b61042d565b90565b906104539154610430565b90565b61046260055f90610448565b90565b34610495576104753660046100e0565b610491610480610456565b6104886100d2565b91829182610286565b0390f35b6100d8565b346104ca576104aa3660046100e0565b6104c66104b561095c565b6104bd6100d2565b91829182610142565b0390f35b6100d8565b34610500576104fc6104eb6104e53660046101ef565b90610972565b6104f36100d2565b9182918261022e565b0390f35b6100d8565b919060408382031261052d578061052161052a925f86016101ba565b936020016101ba565b90565b6100dc565b346105635761055f61054e610548366004610505565b906109ff565b6105566100d2565b91829182610286565b0390f35b6100d8565b5f80fd5b606090565b634e487b7160e01b5f52602260045260245ffd5b90600160028304921680156105a5575b60208310146105a057565b610571565b91607f1691610595565b60209181520190565b5f5260205f2090565b905f92918054906105db6105d483610585565b80946105af565b916001811690815f1461063257506001146105f6575b505050565b61060391929394506105b8565b915f925b81841061061a57505001905f80806105f1565b60018160209295939554848601520191019290610607565b92949550505060ff19168252151560200201905f80806105f1565b90610657916105c1565b90565b634e487b7160e01b5f52604160045260245ffd5b9061067890610107565b810190811067ffffffffffffffff82111761069257604052565b61065a565b906106b76106b0926106a76100d2565b9384809261064d565b038361066e565b565b6106c290610697565b90565b6106cd61056c565b506106d860036106b9565b90565b5f90565b6106fc916106eb6106db565b506106f4610a2b565b919091610a38565b600190565b5f90565b5f1c90565b61071661071b91610705565b61042d565b90565b610728905461070a565b90565b610733610701565b5061073e600261071e565b90565b634e487b7160e01b5f52601160045260245ffd5b61076461076a919392936101c9565b926101c9565b916107768382026101c9565b92818404149015171561078557565b610741565b90565b90565b6107a461079f6107a99261078a565b61078d565b6101c9565b90565b634e487b7160e01b5f52601260045260245ffd5b6107cc6107d2916101c9565b916101c9565b9081156107dd570490565b6107ac565b6107f16107f7919392936101c9565b926101c9565b820391821161080257565b610741565b90565b61081e61081961082392610807565b61078d565b6101c9565b90565b919061087f906108346106db565b5061085c61084c84610846600561071e565b90610755565b6108566064610790565b906107c0565b9261087661086b8286906107e2565b918690339091610a95565b84919091610b5e565b8061089261088c5f61080a565b916101c9565b1161089f575b5050600190565b6108a891610bfb565b5f80610898565b5f90565b90565b6108ca6108c56108cf926108b3565b61078d565b610340565b90565b6108da6108af565b506108e560126108b6565b90565b906108f291610c5a565b565b61090861090361090d9261018f565b61078d565b61018f565b90565b610919906108f4565b90565b61092590610910565b90565b906109329061091c565b5f5260205260405f2090565b6109546109599161094d610701565b505f610928565b61071e565b90565b61096461056c565b5061096f60046106b9565b90565b6109ba9061097e6106db565b506109b16109a961099985610993600561071e565b90610755565b6109a36064610790565b906107c0565b9384906107e2565b33919091610b5e565b806109cd6109c75f61080a565b916101c9565b116109d9575b50600190565b6109e39033610bfb565b5f6109d3565b906109f39061091c565b5f5260205260405f2090565b610a2491610a1a610a1f92610a12610701565b5060016109e9565b610928565b61071e565b90565b5f90565b610a33610a27565b503390565b91610a469291600192610d12565b565b610a519061019a565b9052565b604090610a7e610a859496959396610a7460608401985f850190610a48565b6020830190610279565b0190610279565b565b90610a9291036101c9565b90565b929192610aa38183906109ff565b9081610ab8610ab25f196101c9565b916101c9565b10610ac5575b5050509050565b81610ad8610ad2876101c9565b916101c9565b10610afe57610af59394610aed919392610a87565b905f92610d12565b805f8080610abe565b50610b1d849291925f938493637dc7a0d960e11b855260048501610a55565b0390fd5b610b35610b30610b3a92610807565b61078d565b61018f565b90565b610b4690610b21565b90565b9190610b5c905f60208501940190610a48565b565b9182610b7a610b74610b6f5f610b3d565b61019a565b9161019a565b14610bd45781610b9a610b94610b8f5f610b3d565b61019a565b9161019a565b14610bad57610bab92919091610e54565b565b610bd0610bb95f610b3d565b5f91829163ec442f0560e01b835260048301610b49565b0390fd5b610bf7610be05f610b3d565b5f918291634b637e8f60e11b835260048301610b49565b0390fd5b9081610c17610c11610c0c5f610b3d565b61019a565b9161019a565b14610c3357610c319190610c2a5f610b3d565b9091610e54565b565b610c56610c3f5f610b3d565b5f918291634b637e8f60e11b835260048301610b49565b0390fd5b80610c75610c6f610c6a5f610b3d565b61019a565b9161019a565b14610c9157610c8f91610c875f610b3d565b919091610e54565b565b610cb4610c9d5f610b3d565b5f91829163ec442f0560e01b835260048301610b49565b0390fd5b5f1b90565b90610cc95f1991610cb8565b9181191691161790565b610ce7610ce2610cec926101c9565b61078d565b6101c9565b90565b90565b90610d07610d02610d0e92610cd3565b610cef565b8254610cbd565b9055565b909281610d2f610d29610d245f610b3d565b61019a565b9161019a565b14610dfa5783610d4f610d49610d445f610b3d565b61019a565b9161019a565b14610dd357610d7383610d6e610d67600186906109e9565b8790610928565b610cf2565b610d7d575b505050565b919091610dc8610db6610db07f8c5be1e5ebec7d5bd14f71427d1e84f3dd0314c0f7b2291e5b200ac8c7c3b9259361091c565b9361091c565b93610dbf6100d2565b91829182610286565b0390a35f8080610d78565b610df6610ddf5f610b3d565b5f918291634a1406b160e11b835260048301610b49565b0390fd5b610e1d610e065f610b3d565b5f91829163e602df0560e01b835260048301610b49565b0390fd5b610e30610e36919392936101c9565b926101c9565b8201809211610e4157565b610741565b90610e5191016101c9565b90565b91909180610e72610e6c610e675f610b3d565b61019a565b9161019a565b145f14610f5357610e96610e8f83610e8a600261071e565b610e21565b6002610cf2565b5b82610eb2610eac610ea75f610b3d565b61019a565b9161019a565b145f14610f2757610ed6610ecf83610eca600261071e565b610a87565b6002610cf2565b5b919091610f22610f10610f0a7fddf252ad1be2c89b69c2b068fc378daa952ba7f163c4a11628f55a4df523b3ef9361091c565b9361091c565b93610f196100d2565b91829182610286565b0390a3565b610f4e82610f48610f395f8790610928565b91610f438361071e565b610e46565b90610cf2565b610ed7565b610f66610f615f8390610928565b61071e565b80610f79610f73856101c9565b916101c9565b10610fa157610f8c610f9c918490610a87565b610f975f8490610928565b610cf2565b610e97565b90610fbf9091925f93849363391434e360e21b855260048501610a55565b0390fd","linkReferences":{}},"methodIdentifiers":{"allowance(address,address)":"dd62ed3e","approve(address,uint256)":"095ea7b3","balanceOf(address)":"70a08231","decimals()":"313ce567","mint(address,uint256)":"40c10f19","name()":"06fdde03","symbol()":"95d89b41","taxRate()":"771a3a1d","totalSupply()":"18160ddd","transfer(address,uint256)":"a9059cbb","transferFrom(address,address,uint256)":"23b872dd"},"id":107}