{"abi":[{"type":"function","name":"attemptBridgeTypeManipulation","inputs":[{"name":"tokenRegistry","type":"address","internalType":"contract TokenRegistry"},{"name":"token","type":"address","internalType":"address"}],"outputs":[],"stateMutability":"nonpayable"},{"type":"function","name":"attemptDestChainKeyAdd","inputs":[{"name":"tokenRegistry","type":"address","internalType":"contract TokenRegistry"},{"name":"token","type":"address","internalType":"address"},{"name":"chainKey","type":"bytes32","internalType":"bytes32"},{"name":"destTokenAddr","type":"bytes32","internalType":"bytes32"}],"outputs":[],"stateMutability":"nonpayable"},{"type":"function","name":"attemptMaliciousTokenAdd","inputs":[{"name":"tokenRegistry","type":"address","internalType":"contract TokenRegistry"},{"name":"token","type":"address","internalType":"address"}],"outputs":[],"stateMutability":"nonpayable"},{"type":"function","name":"attemptMultipleMaliciousOps","inputs":[{"name":"tokenRegistry","type":"address","internalType":"contract TokenRegistry"},{"name":"token","type":"address","internalType":"address"}],"outputs":[],"stateMutability":"nonpayable"}],"bytecode":{"object":"0x608060405234601c57600e6020565b61062261002b823961062290f35b6026565b60405190565b5f80fdfe60806040526004361015610013575b61024a565b61001d5f3561005c565b8063482ec65e14610057578063d145edd714610052578063d6ae1ed51461004d5763de8c8a400361000e57610216565b6101df565b61013f565b61010b565b60e01c90565b60405190565b5f80fd5b5f80fd5b60018060a01b031690565b61008490610070565b90565b6100909061007b565b90565b61009c81610087565b036100a357565b5f80fd5b905035906100b482610093565b565b6100bf8161007b565b036100c657565b5f80fd5b905035906100d7826100b6565b565b919060408382031261010157806100f56100fe925f86016100a7565b936020016100ca565b90565b61006c565b5f0190565b3461013a5761012461011e3660046100d9565b9061036d565b61012c610062565b8061013681610106565b0390f35b610068565b3461016e576101586101523660046100d9565b906103f6565b610160610062565b8061016a81610106565b0390f35b610068565b90565b61017f81610173565b0361018657565b5f80fd5b9050359061019782610176565b565b6080818303126101da576101af825f83016100a7565b926101d76101c084602085016100ca565b936101ce816040860161018a565b9360600161018a565b90565b61006c565b34610211576101fb6101f2366004610199565b929190916104fa565b610203610062565b8061020d81610106565b0390f35b610068565b346102455761022f6102293660046100d9565b90610589565b610237610062565b8061024181610106565b0390f35b610068565b5f80fd5b90565b61026561026061026a92610070565b61024e565b610070565b90565b61027690610251565b90565b6102829061026d565b90565b5f80fd5b601f801991011690565b634e487b7160e01b5f52604160045260245ffd5b906102b190610289565b810190811067ffffffffffffffff8211176102cb57604052565b610293565b60e01b90565b5f9103126102e057565b61006c565b6102ee9061007b565b9052565b634e487b7160e01b5f52602160045260245ffd5b6002111561031057565b6102f2565b9061031f82610306565b565b61032a90610315565b90565b61033690610321565b9052565b91602061035b92949361035460408201965f8301906102e5565b019061032d565b565b610365610062565b3d5f823e3d90fd5b61037690610279565b9063a74ea63f905f92803b156103f1576103a35f80946103ae610397610062565b978896879586946102d0565b84526004840161033a565b03925af180156103ec576103c0575b50565b6103df905f3d81116103e5575b6103d781836102a7565b8101906102d6565b5f6103bd565b503d6103cd565b61035d565b610285565b6103ff90610279565b90633f0bbc4c90600192803b1561047b5761042d5f8094610438610421610062565b978896879586946102d0565b84526004840161033a565b03925af180156104765761044a575b50565b610469905f3d811161046f575b61046181836102a7565b8101906102d6565b5f610447565b503d610457565b61035d565b610285565b61048990610173565b9052565b90565b90565b6104a76104a26104ac9261048d565b61024e565b610490565b90565b6104b890610493565b9052565b6104f16104f8946104e76060949897956104dd608086019a5f8701906102e5565b6020850190610480565b6040830190610480565b01906104af565b565b61050690929192610279565b630e220c0e9291936012823b15610584575f9461054186926105369461052a610062565b998a98899788966102d0565b8652600486016104bc565b03925af1801561057f57610553575b50565b610572905f3d8111610578575b61056a81836102a7565b8101906102d6565b5f610550565b503d610560565b61035d565b610285565b61059290610279565b9063a74ea63f905f92803b1561061d576105bf5f80946105ca6105b3610062565b978896879586946102d0565b84526004840161033a565b03925af190816105f1575b50155f146105ec5760016105e7575b5b565b6105e4565b6105e5565b610610905f3d8111610616575b61060881836102a7565b8101906102d6565b5f6105d5565b503d6105fe565b61028556","linkReferences":{}},"methodIdentifiers":{"attemptBridgeTypeManipulation(address,address)":"d145edd7","attemptDestChainKeyAdd(address,address,bytes32,bytes32)":"d6ae1ed5","attemptMaliciousTokenAdd(address,address)":"482ec65e","attemptMultipleMaliciousOps(address,address)":"de8c8a40"},"id":98}