{"abi":[{"type":"function","name":"getTokenBridgeType","inputs":[{"name":"token","type":"address","internalType":"address"}],"outputs":[{"name":"","type":"uint8","internalType":"enum TokenRegistry.BridgeTypeLocal"}],"stateMutability":"view"},{"type":"function","name":"getTokenDestChainTokenAddress","inputs":[{"name":"token","type":"address","internalType":"address"},{"name":"destChainKey","type":"bytes32","internalType":"bytes32"}],"outputs":[{"name":"","type":"bytes32","internalType":"bytes32"}],"stateMutability":"view"},{"type":"function","name":"isTokenDestChainKeyRegistered","inputs":[{"name":"token","type":"address","internalType":"address"},{"name":"destChainKey","type":"bytes32","internalType":"bytes32"}],"outputs":[{"name":"","type":"bool","internalType":"bool"}],"stateMutability":"view"},{"type":"function","name":"revertIfTokenDestChainKeyNotRegistered","inputs":[{"name":"token","type":"address","internalType":"address"},{"name":"destChainKey","type":"bytes32","internalType":"bytes32"}],"outputs":[],"stateMutability":"view"},{"type":"function","name":"setShouldRevertOnNotRegistered","inputs":[{"name":"shouldRevert","type":"bool","internalType":"bool"}],"outputs":[],"stateMutability":"nonpayable"},{"type":"function","name":"setTokenBridgeType","inputs":[{"name":"token","type":"address","internalType":"address"},{"name":"bridgeType","type":"uint8","internalType":"enum TokenRegistry.BridgeTypeLocal"}],"outputs":[],"stateMutability":"nonpayable"},{"type":"function","name":"setTokenDestChainKeyRegistered","inputs":[{"name":"token","type":"address","internalType":"address"},{"name":"destChainKey","type":"bytes32","internalType":"bytes32"},{"name":"registered","type":"bool","internalType":"bool"}],"outputs":[],"stateMutability":"nonpayable"},{"type":"function","name":"setTokenDestChainTokenAddress","inputs":[{"name":"token","type":"address","internalType":"address"},{"name":"destChainKey","type":"bytes32","internalType":"bytes32"},{"name":"tokenAddress","type":"bytes32","internalType":"bytes32"}],"outputs":[],"stateMutability":"nonpayable"},{"type":"function","name":"shouldRevertOnNotRegistered","inputs":[],"outputs":[{"name":"","type":"bool","internalType":"bool"}],"stateMutability":"view"},{"type":"function","name":"tokenBridgeType","inputs":[{"name":"token","type":"address","internalType":"address"}],"outputs":[{"name":"","type":"uint8","internalType":"enum TokenRegistry.BridgeTypeLocal"}],"stateMutability":"view"},{"type":"function","name":"tokenDestChainTokenAddress","inputs":[{"name":"token","type":"address","internalType":"address"},{"name":"destChainKey","type":"bytes32","internalType":"bytes32"}],"outputs":[{"name":"","type":"bytes32","internalType":"bytes32"}],"stateMutability":"view"}],"bytecode":{"object":"0x608060405234602257600e6075565b60146026565b6109f161008182396109f190f35b602c565b60405190565b5f80fd5b5f1b90565b90603f60ff916030565b9181191691161790565b151590565b6055906049565b90565b90565b90606b6067607192604e565b6058565b82546035565b9055565b607e5f6003605b565b56fe60806040526004361015610013575b610727565b61001d5f356100cc565b80633a1efa9f146100c75780633f0bbc4c146100c2578063543b3af7146100bd5780639d943cb7146100b8578063a6f102b1146100b3578063aa2fc98d146100ae578063af9a5e16146100a9578063b2072f30146100a4578063c05750241461009f578063d03245791461009a5763db1303ea0361000e576106f3565b6106c0565b61066c565b6105c0565b610534565b6104c4565b610441565b610389565b6102e3565b6102af565b61022b565b60e01c90565b60405190565b5f80fd5b5f80fd5b60018060a01b031690565b6100f4906100e0565b90565b610100816100eb565b0361010757565b5f80fd5b90503590610118826100f7565b565b9060208282031261013357610130915f0161010b565b90565b6100dc565b90565b61014f61014a610154926100e0565b610138565b6100e0565b90565b6101609061013b565b90565b61016c90610157565b90565b9061017990610163565b5f5260205260405f2090565b1c90565b60ff1690565b61019f9060086101a49302610185565b610189565b90565b906101b2915461018f565b90565b6101cb906101c66002915f9261016f565b6101a7565b90565b634e487b7160e01b5f52602160045260245ffd5b600211156101ec57565b6101ce565b906101fb826101e2565b565b610206906101f1565b90565b610212906101fd565b9052565b9190610229905f60208501940190610209565b565b3461025b5761025761024661024136600461011a565b6101b5565b61024e6100d2565b91829182610216565b0390f35b6100d8565b6002111561026a57565b5f80fd5b9050359061027b82610260565b565b91906040838203126102a557806102996102a2925f860161010b565b9360200161026e565b90565b6100dc565b5f0190565b346102de576102c86102c236600461027d565b90610775565b6102d06100d2565b806102da816102aa565b0390f35b6100d8565b346103135761030f6102fe6102f936600461011a565b6107b5565b6103066100d2565b91829182610216565b0390f35b6100d8565b5f91031261032257565b6100dc565b60ff1690565b61033d9060086103429302610185565b610327565b90565b90610350915461032d565b90565b61035f60035f90610345565b90565b151590565b61037090610362565b9052565b9190610387905f60208501940190610367565b565b346103b957610399366004610318565b6103b56103a4610353565b6103ac6100d2565b91829182610374565b0390f35b6100d8565b90565b6103ca816103be565b036103d157565b5f80fd5b905035906103e2826103c1565b565b6103ed81610362565b036103f457565b5f80fd5b90503590610405826103e4565b565b909160608284031261043c57610439610422845f850161010b565b9361043081602086016103d5565b936040016103f8565b90565b6100dc565b346104705761045a610454366004610407565b91610803565b6104626100d2565b8061046c816102aa565b0390f35b6100d8565b919060408382031261049d578061049161049a925f860161010b565b936020016103d5565b90565b6100dc565b6104ab906103be565b9052565b91906104c2905f602085019401906104a2565b565b346104f5576104f16104e06104da366004610475565b90610847565b6104e86100d2565b918291826104af565b0390f35b6100d8565b909160608284031261052f5761052c610515845f850161010b565b9361052381602086016103d5565b936040016103d5565b90565b6100dc565b346105635761054d6105473660046104fa565b916108b1565b6105556100d2565b8061055f816102aa565b0390f35b6100d8565b9061057290610163565b5f5260205260405f2090565b610587906103be565b90565b906105949061057e565b5f5260205260405f2090565b6105b86105bd926105b35f935f94610568565b61058a565b610345565b90565b346105f1576105ed6105dc6105d6366004610475565b906105a0565b6105e46100d2565b91829182610374565b0390f35b6100d8565b9061060090610163565b5f5260205260405f2090565b906106169061057e565b5f5260205260405f2090565b90565b61063590600861063a9302610185565b610622565b90565b906106489154610625565b90565b6106646106699261065f6001935f946105f6565b61060c565b61063d565b90565b3461069d57610699610688610682366004610475565b9061064b565b6106906100d2565b918291826104af565b0390f35b6100d8565b906020828203126106bb576106b8915f016103f8565b90565b6100dc565b346106ee576106d86106d33660046106a2565b6108d1565b6106e06100d2565b806106ea816102aa565b0390f35b6100d8565b346107225761070c610706366004610475565b90610987565b6107146100d2565b8061071e816102aa565b0390f35b6100d8565b5f80fd5b5f1b90565b9061073c60ff9161072b565b9181191691161790565b61074f906101f1565b90565b90565b9061076a61076561077192610746565b610752565b8254610730565b9055565b6107846107899291600261016f565b610755565b565b5f90565b5f1c90565b6107a06107a59161078f565b610189565b90565b6107b29054610794565b90565b6107cc6107d1916107c461078b565b50600261016f565b6107a8565b90565b6107dd90610362565b90565b90565b906107f86107f36107ff926107d4565b6107e0565b8254610730565b9055565b9061081b9061081661082094935f610568565b61058a565b6107e3565b565b5f90565b6108326108379161078f565b610622565b90565b6108449054610826565b90565b61086c916108626108679261085a610822565b5060016105f6565b61060c565b61083a565b90565b9061087b5f199161072b565b9181191691161790565b61088e9061078f565b90565b906108a66108a16108ad9261057e565b610885565b825461086f565b9055565b906108ca906108c56108cf949360016105f6565b61060c565b610891565b565b6108dc9060036107e3565b565b6108ea6108ef9161078f565b610327565b90565b6108fc90546108de565b90565b60209181520190565b60207f7265640000000000000000000000000000000000000000000000000000000000917f546f6b656e206465737420636861696e206b6579206e6f7420726567697374655f8201520152565b61096260236040926108ff565b61096b81610908565b0190565b6109849060208101905f818303910152610955565b90565b9061099260036108f2565b9182156109c4575b50506109a257565b6109aa6100d2565b62461bcd60e51b8152806109c06004820161096f565b0390fd5b6109ea92506109e4916109da6109df925f610568565b61058a565b6108f2565b15610362565b5f8061099a56","linkReferences":{}},"methodIdentifiers":{"getTokenBridgeType(address)":"543b3af7","getTokenDestChainTokenAddress(address,bytes32)":"aa2fc98d","isTokenDestChainKeyRegistered(address,bytes32)":"b2072f30","revertIfTokenDestChainKeyNotRegistered(address,bytes32)":"db1303ea","setShouldRevertOnNotRegistered(bool)":"d0324579","setTokenBridgeType(address,uint8)":"3f0bbc4c","setTokenDestChainKeyRegistered(address,bytes32,bool)":"a6f102b1","setTokenDestChainTokenAddress(address,bytes32,bytes32)":"af9a5e16","shouldRevertOnNotRegistered()":"9d943cb7","tokenBridgeType(address)":"3a1efa9f","tokenDestChainTokenAddress(address,bytes32)":"c0575024"},"id":106}