{"abi":[{"type":"constructor","inputs":[{"name":"initialAdmin","type":"address","internalType":"address"}],"stateMutability":"nonpayable"},{"type":"function","name":"ADMIN_ROLE","inputs":[],"outputs":[{"name":"","type":"uint64","internalType":"uint64"}],"stateMutability":"view"},{"type":"function","name":"PUBLIC_ROLE","inputs":[],"outputs":[{"name":"","type":"uint64","internalType":"uint64"}],"stateMutability":"view"},{"type":"function","name":"canCall","inputs":[{"name":"caller","type":"address","internalType":"address"},{"name":"target","type":"address","internalType":"address"},{"name":"selector","type":"bytes4","internalType":"bytes4"}],"outputs":[{"name":"immediate","type":"bool","internalType":"bool"},{"name":"delay","type":"uint32","internalType":"uint32"}],"stateMutability":"view"},{"type":"function","name":"cancel","inputs":[{"name":"caller","type":"address","internalType":"address"},{"name":"target","type":"address","internalType":"address"},{"name":"data","type":"bytes","internalType":"bytes"}],"outputs":[{"name":"","type":"uint32","internalType":"uint32"}],"stateMutability":"nonpayable"},{"type":"function","name":"consumeScheduledOp","inputs":[{"name":"caller","type":"address","internalType":"address"},{"name":"data","type":"bytes","internalType":"bytes"}],"outputs":[],"stateMutability":"nonpayable"},{"type":"function","name":"execute","inputs":[{"name":"target","type":"address","internalType":"address"},{"name":"data","type":"bytes","internalType":"bytes"}],"outputs":[{"name":"","type":"uint32","internalType":"uint32"}],"stateMutability":"payable"},{"type":"function","name":"expiration","inputs":[],"outputs":[{"name":"","type":"uint32","internalType":"uint32"}],"stateMutability":"view"},{"type":"function","name":"getAccess","inputs":[{"name":"roleId","type":"uint64","internalType":"uint64"},{"name":"account","type":"address","internalType":"address"}],"outputs":[{"name":"since","type":"uint48","internalType":"uint48"},{"name":"currentDelay","type":"uint32","internalType":"uint32"},{"name":"pendingDelay","type":"uint32","internalType":"uint32"},{"name":"effect","type":"uint48","internalType":"uint48"}],"stateMutability":"view"},{"type":"function","name":"getActiveRoleMemberCount","inputs":[{"name":"roleId","type":"uint64","internalType":"uint64"}],"outputs":[{"name":"count","type":"uint256","internalType":"uint256"}],"stateMutability":"view"},{"type":"function","name":"getActiveRoleMembers","inputs":[{"name":"roleId","type":"uint64","internalType":"uint64"}],"outputs":[{"name":"items","type":"address[]","internalType":"address[]"}],"stateMutability":"view"},{"type":"function","name":"getActiveRoleMembersFrom","inputs":[{"name":"roleId","type":"uint64","internalType":"uint64"},{"name":"index","type":"uint256","internalType":"uint256"},{"name":"count","type":"uint256","internalType":"uint256"}],"outputs":[{"name":"items","type":"address[]","internalType":"address[]"}],"stateMutability":"view"},{"type":"function","name":"getManagedTargetAt","inputs":[{"name":"index","type":"uint256","internalType":"uint256"}],"outputs":[{"name":"item","type":"address","internalType":"address"}],"stateMutability":"view"},{"type":"function","name":"getManagedTargetCount","inputs":[],"outputs":[{"name":"count","type":"uint256","internalType":"uint256"}],"stateMutability":"view"},{"type":"function","name":"getManagedTargets","inputs":[],"outputs":[{"name":"items","type":"address[]","internalType":"address[]"}],"stateMutability":"view"},{"type":"function","name":"getManagedTargetsFrom","inputs":[{"name":"index","type":"uint256","internalType":"uint256"},{"name":"count","type":"uint256","internalType":"uint256"}],"outputs":[{"name":"items","type":"address[]","internalType":"address[]"}],"stateMutability":"view"},{"type":"function","name":"getNonce","inputs":[{"name":"id","type":"bytes32","internalType":"bytes32"}],"outputs":[{"name":"","type":"uint32","internalType":"uint32"}],"stateMutability":"view"},{"type":"function","name":"getRoleAdmin","inputs":[{"name":"roleId","type":"uint64","internalType":"uint64"}],"outputs":[{"name":"","type":"uint64","internalType":"uint64"}],"stateMutability":"view"},{"type":"function","name":"getRoleGrantDelay","inputs":[{"name":"roleId","type":"uint64","internalType":"uint64"}],"outputs":[{"name":"","type":"uint32","internalType":"uint32"}],"stateMutability":"view"},{"type":"function","name":"getRoleGuardian","inputs":[{"name":"roleId","type":"uint64","internalType":"uint64"}],"outputs":[{"name":"","type":"uint64","internalType":"uint64"}],"stateMutability":"view"},{"type":"function","name":"getRoleMemberAt","inputs":[{"name":"roleId","type":"uint64","internalType":"uint64"},{"name":"index","type":"uint256","internalType":"uint256"}],"outputs":[{"name":"item","type":"address","internalType":"address"}],"stateMutability":"view"},{"type":"function","name":"getRoleMemberCount","inputs":[{"name":"roleId","type":"uint64","internalType":"uint64"}],"outputs":[{"name":"count","type":"uint256","internalType":"uint256"}],"stateMutability":"view"},{"type":"function","name":"getRoleMembers","inputs":[{"name":"roleId","type":"uint64","internalType":"uint64"}],"outputs":[{"name":"items","type":"address[]","internalType":"address[]"}],"stateMutability":"view"},{"type":"function","name":"getRoleMembersFrom","inputs":[{"name":"roleId","type":"uint64","internalType":"uint64"},{"name":"index","type":"uint256","internalType":"uint256"},{"name":"count","type":"uint256","internalType":"uint256"}],"outputs":[{"name":"items","type":"address[]","internalType":"address[]"}],"stateMutability":"view"},{"type":"function","name":"getSchedule","inputs":[{"name":"id","type":"bytes32","internalType":"bytes32"}],"outputs":[{"name":"","type":"uint48","internalType":"uint48"}],"stateMutability":"view"},{"type":"function","name":"getTargetAdminDelay","inputs":[{"name":"target","type":"address","internalType":"address"}],"outputs":[{"name":"","type":"uint32","internalType":"uint32"}],"stateMutability":"view"},{"type":"function","name":"getTargetFunctionRole","inputs":[{"name":"target","type":"address","internalType":"address"},{"name":"selector","type":"bytes4","internalType":"bytes4"}],"outputs":[{"name":"","type":"uint64","internalType":"uint64"}],"stateMutability":"view"},{"type":"function","name":"getTargetRoleSelectorAt","inputs":[{"name":"target","type":"address","internalType":"address"},{"name":"roleId","type":"uint64","internalType":"uint64"},{"name":"index","type":"uint256","internalType":"uint256"}],"outputs":[{"name":"","type":"bytes4","internalType":"bytes4"}],"stateMutability":"view"},{"type":"function","name":"getTargetRoleSelectorCount","inputs":[{"name":"target","type":"address","internalType":"address"},{"name":"roleId","type":"uint64","internalType":"uint64"}],"outputs":[{"name":"count","type":"uint256","internalType":"uint256"}],"stateMutability":"view"},{"type":"function","name":"getTargetRoleSelectors","inputs":[{"name":"target","type":"address","internalType":"address"},{"name":"roleId","type":"uint64","internalType":"uint64"}],"outputs":[{"name":"selectors","type":"bytes4[]","internalType":"bytes4[]"}],"stateMutability":"view"},{"type":"function","name":"getTargetRoleSelectorsFrom","inputs":[{"name":"target","type":"address","internalType":"address"},{"name":"roleId","type":"uint64","internalType":"uint64"},{"name":"index","type":"uint256","internalType":"uint256"},{"name":"count","type":"uint256","internalType":"uint256"}],"outputs":[{"name":"selectors","type":"bytes4[]","internalType":"bytes4[]"}],"stateMutability":"view"},{"type":"function","name":"grantRole","inputs":[{"name":"roleId","type":"uint64","internalType":"uint64"},{"name":"account","type":"address","internalType":"address"},{"name":"executionDelay","type":"uint32","internalType":"uint32"}],"outputs":[],"stateMutability":"nonpayable"},{"type":"function","name":"hasRole","inputs":[{"name":"roleId","type":"uint64","internalType":"uint64"},{"name":"account","type":"address","internalType":"address"}],"outputs":[{"name":"isMember","type":"bool","internalType":"bool"},{"name":"executionDelay","type":"uint32","internalType":"uint32"}],"stateMutability":"view"},{"type":"function","name":"hashOperation","inputs":[{"name":"caller","type":"address","internalType":"address"},{"name":"target","type":"address","internalType":"address"},{"name":"data","type":"bytes","internalType":"bytes"}],"outputs":[{"name":"","type":"bytes32","internalType":"bytes32"}],"stateMutability":"view"},{"type":"function","name":"isManagedTarget","inputs":[{"name":"target","type":"address","internalType":"address"}],"outputs":[{"name":"","type":"bool","internalType":"bool"}],"stateMutability":"view"},{"type":"function","name":"isRoleMember","inputs":[{"name":"roleId","type":"uint64","internalType":"uint64"},{"name":"account","type":"address","internalType":"address"}],"outputs":[{"name":"","type":"bool","internalType":"bool"}],"stateMutability":"view"},{"type":"function","name":"isRoleMemberActive","inputs":[{"name":"roleId","type":"uint64","internalType":"uint64"},{"name":"account","type":"address","internalType":"address"}],"outputs":[{"name":"","type":"bool","internalType":"bool"}],"stateMutability":"view"},{"type":"function","name":"isTargetClosed","inputs":[{"name":"target","type":"address","internalType":"address"}],"outputs":[{"name":"","type":"bool","internalType":"bool"}],"stateMutability":"view"},{"type":"function","name":"isTargetRoleSelector","inputs":[{"name":"target","type":"address","internalType":"address"},{"name":"roleId","type":"uint64","internalType":"uint64"},{"name":"selector","type":"bytes4","internalType":"bytes4"}],"outputs":[{"name":"","type":"bool","internalType":"bool"}],"stateMutability":"view"},{"type":"function","name":"labelRole","inputs":[{"name":"roleId","type":"uint64","internalType":"uint64"},{"name":"label","type":"string","internalType":"string"}],"outputs":[],"stateMutability":"nonpayable"},{"type":"function","name":"minSetback","inputs":[],"outputs":[{"name":"","type":"uint32","internalType":"uint32"}],"stateMutability":"view"},{"type":"function","name":"multicall","inputs":[{"name":"data","type":"bytes[]","internalType":"bytes[]"}],"outputs":[{"name":"results","type":"bytes[]","internalType":"bytes[]"}],"stateMutability":"nonpayable"},{"type":"function","name":"renounceRole","inputs":[{"name":"roleId","type":"uint64","internalType":"uint64"},{"name":"callerConfirmation","type":"address","internalType":"address"}],"outputs":[],"stateMutability":"nonpayable"},{"type":"function","name":"revokeRole","inputs":[{"name":"roleId","type":"uint64","internalType":"uint64"},{"name":"account","type":"address","internalType":"address"}],"outputs":[],"stateMutability":"nonpayable"},{"type":"function","name":"schedule","inputs":[{"name":"target","type":"address","internalType":"address"},{"name":"data","type":"bytes","internalType":"bytes"},{"name":"when","type":"uint48","internalType":"uint48"}],"outputs":[{"name":"operationId","type":"bytes32","internalType":"bytes32"},{"name":"nonce","type":"uint32","internalType":"uint32"}],"stateMutability":"nonpayable"},{"type":"function","name":"setGrantDelay","inputs":[{"name":"roleId","type":"uint64","internalType":"uint64"},{"name":"newDelay","type":"uint32","internalType":"uint32"}],"outputs":[],"stateMutability":"nonpayable"},{"type":"function","name":"setRoleAdmin","inputs":[{"name":"roleId","type":"uint64","internalType":"uint64"},{"name":"admin","type":"uint64","internalType":"uint64"}],"outputs":[],"stateMutability":"nonpayable"},{"type":"function","name":"setRoleGuardian","inputs":[{"name":"roleId","type":"uint64","internalType":"uint64"},{"name":"guardian","type":"uint64","internalType":"uint64"}],"outputs":[],"stateMutability":"nonpayable"},{"type":"function","name":"setTargetAdminDelay","inputs":[{"name":"target","type":"address","internalType":"address"},{"name":"newDelay","type":"uint32","internalType":"uint32"}],"outputs":[],"stateMutability":"nonpayable"},{"type":"function","name":"setTargetClosed","inputs":[{"name":"target","type":"address","internalType":"address"},{"name":"closed","type":"bool","internalType":"bool"}],"outputs":[],"stateMutability":"nonpayable"},{"type":"function","name":"setTargetFunctionRole","inputs":[{"name":"target","type":"address","internalType":"address"},{"name":"selectors","type":"bytes4[]","internalType":"bytes4[]"},{"name":"roleId","type":"uint64","internalType":"uint64"}],"outputs":[],"stateMutability":"nonpayable"},{"type":"function","name":"updateAuthority","inputs":[{"name":"target","type":"address","internalType":"address"},{"name":"newAuthority","type":"address","internalType":"address"}],"outputs":[],"stateMutability":"nonpayable"},{"type":"event","name":"OperationCanceled","inputs":[{"name":"operationId","type":"bytes32","indexed":true,"internalType":"bytes32"},{"name":"nonce","type":"uint32","indexed":true,"internalType":"uint32"}],"anonymous":false},{"type":"event","name":"OperationExecuted","inputs":[{"name":"operationId","type":"bytes32","indexed":true,"internalType":"bytes32"},{"name":"nonce","type":"uint32","indexed":true,"internalType":"uint32"}],"anonymous":false},{"type":"event","name":"OperationScheduled","inputs":[{"name":"operationId","type":"bytes32","indexed":true,"internalType":"bytes32"},{"name":"nonce","type":"uint32","indexed":true,"internalType":"uint32"},{"name":"schedule","type":"uint48","indexed":false,"internalType":"uint48"},{"name":"caller","type":"address","indexed":false,"internalType":"address"},{"name":"target","type":"address","indexed":false,"internalType":"address"},{"name":"data","type":"bytes","indexed":false,"internalType":"bytes"}],"anonymous":false},{"type":"event","name":"RoleAdminChanged","inputs":[{"name":"roleId","type":"uint64","indexed":true,"internalType":"uint64"},{"name":"admin","type":"uint64","indexed":true,"internalType":"uint64"}],"anonymous":false},{"type":"event","name":"RoleGrantDelayChanged","inputs":[{"name":"roleId","type":"uint64","indexed":true,"internalType":"uint64"},{"name":"delay","type":"uint32","indexed":false,"internalType":"uint32"},{"name":"since","type":"uint48","indexed":false,"internalType":"uint48"}],"anonymous":false},{"type":"event","name":"RoleGranted","inputs":[{"name":"roleId","type":"uint64","indexed":true,"internalType":"uint64"},{"name":"account","type":"address","indexed":true,"internalType":"address"},{"name":"delay","type":"uint32","indexed":false,"internalType":"uint32"},{"name":"since","type":"uint48","indexed":false,"internalType":"uint48"},{"name":"newMember","type":"bool","indexed":false,"internalType":"bool"}],"anonymous":false},{"type":"event","name":"RoleGuardianChanged","inputs":[{"name":"roleId","type":"uint64","indexed":true,"internalType":"uint64"},{"name":"guardian","type":"uint64","indexed":true,"internalType":"uint64"}],"anonymous":false},{"type":"event","name":"RoleLabel","inputs":[{"name":"roleId","type":"uint64","indexed":true,"internalType":"uint64"},{"name":"label","type":"string","indexed":false,"internalType":"string"}],"anonymous":false},{"type":"event","name":"RoleRevoked","inputs":[{"name":"roleId","type":"uint64","indexed":true,"internalType":"uint64"},{"name":"account","type":"address","indexed":true,"internalType":"address"}],"anonymous":false},{"type":"event","name":"TargetAdminDelayUpdated","inputs":[{"name":"target","type":"address","indexed":true,"internalType":"address"},{"name":"delay","type":"uint32","indexed":false,"internalType":"uint32"},{"name":"since","type":"uint48","indexed":false,"internalType":"uint48"}],"anonymous":false},{"type":"event","name":"TargetClosed","inputs":[{"name":"target","type":"address","indexed":true,"internalType":"address"},{"name":"closed","type":"bool","indexed":false,"internalType":"bool"}],"anonymous":false},{"type":"event","name":"TargetFunctionRoleUpdated","inputs":[{"name":"target","type":"address","indexed":true,"internalType":"address"},{"name":"selector","type":"bytes4","indexed":false,"internalType":"bytes4"},{"name":"roleId","type":"uint64","indexed":true,"internalType":"uint64"}],"anonymous":false},{"type":"error","name":"AccessManagerAlreadyScheduled","inputs":[{"name":"operationId","type":"bytes32","internalType":"bytes32"}]},{"type":"error","name":"AccessManagerBadConfirmation","inputs":[]},{"type":"error","name":"AccessManagerExpired","inputs":[{"name":"operationId","type":"bytes32","internalType":"bytes32"}]},{"type":"error","name":"AccessManagerInvalidInitialAdmin","inputs":[{"name":"initialAdmin","type":"address","internalType":"address"}]},{"type":"error","name":"AccessManagerLockedRole","inputs":[{"name":"roleId","type":"uint64","internalType":"uint64"}]},{"type":"error","name":"AccessManagerNotReady","inputs":[{"name":"operationId","type":"bytes32","internalType":"bytes32"}]},{"type":"error","name":"AccessManagerNotScheduled","inputs":[{"name":"operationId","type":"bytes32","internalType":"bytes32"}]},{"type":"error","name":"AccessManagerUnauthorizedAccount","inputs":[{"name":"msgsender","type":"address","internalType":"address"},{"name":"roleId","type":"uint64","internalType":"uint64"}]},{"type":"error","name":"AccessManagerUnauthorizedCall","inputs":[{"name":"caller","type":"address","internalType":"address"},{"name":"target","type":"address","internalType":"address"},{"name":"selector","type":"bytes4","internalType":"bytes4"}]},{"type":"error","name":"AccessManagerUnauthorizedCancel","inputs":[{"name":"msgsender","type":"address","internalType":"address"},{"name":"caller","type":"address","internalType":"address"},{"name":"target","type":"address","internalType":"address"},{"name":"selector","type":"bytes4","internalType":"bytes4"}]},{"type":"error","name":"AccessManagerUnauthorizedConsume","inputs":[{"name":"target","type":"address","internalType":"address"}]},{"type":"error","name":"AddressEmptyCode","inputs":[{"name":"target","type":"address","internalType":"address"}]},{"type":"error","name":"FailedCall","inputs":[]},{"type":"error","name":"InsufficientBalance","inputs":[{"name":"balance","type":"uint256","internalType":"uint256"},{"name":"needed","type":"uint256","internalType":"uint256"}]},{"type":"error","name":"SafeCastOverflowedUintDowncast","inputs":[{"name":"bits","type":"uint8","internalType":"uint8"},{"name":"value","type":"uint256","internalType":"uint256"}]}],"bytecode":{"object":"0x60806040523461002f576100196100146100f4565b61015c565b610021610034565b615fc4610f428239615fc490f35b61003a565b60405190565b5f80fd5b601f801991011690565b634e487b7160e01b5f52604160045260245ffd5b906100669061003e565b810190811060018060401b0382111761007e57604052565b610048565b9061009661008f610034565b928361005c565b565b5f80fd5b60018060a01b031690565b6100b09061009c565b90565b6100bc816100a7565b036100c357565b5f80fd5b905051906100d4826100b3565b565b906020828203126100ef576100ec915f016100c7565b90565b610098565b610112616f068038038061010781610083565b9283398101906100d6565b90565b5f90565b60018060401b031690565b90565b61013b61013661014092610119565b610124565b610119565b90565b9061014d90610127565b5f5260205260405f2090565b90565b61018990610169816101fe565b61018461017f6004610179610115565b90610143565b610159565b6102e2565b50565b90565b6101a361019e6101a89261018c565b610124565b61009c565b90565b6101b49061018f565b90565b6101c0906100a7565b9052565b91906101d7905f602085019401906101b7565b565b63ffffffff1690565b6101f66101f16101fb9261018c565b610124565b6101d9565b90565b8061021961021361020e5f6101ab565b6100a7565b916100a7565b14610249576102469061022a610115565b905f9061024061023a5f936101e2565b926101e2565b9261061d565b50565b61026c6102555f6101ab565b5f918291630409d6d160e11b8352600483016101c4565b0390fd5b5f90565b61028861028361028d9261009c565b610124565b61009c565b90565b61029990610274565b90565b90565b6102b36102ae6102b89261009c565b610124565b61029c565b90565b90565b5f1b90565b6102d76102d26102dc9261029c565b6102be565b6102bb565b90565b90565b9061031461030e6103096103045f610319966102fc610270565b500194610290565b61029f565b6102c3565b916102df565b61091a565b90565b60018060401b0390565b61032f90610119565b9052565b9190610346905f60208501940190610326565b565b9061035290610127565b5f5260205260405f2090565b61036790610274565b90565b6103739061035e565b90565b906103809061036a565b5f5260205260405f2090565b5f1c90565b65ffffffffffff1690565b6103a86103ad9161038c565b610391565b90565b6103ba905461039c565b90565b65ffffffffffff1690565b6103dc6103d76103e19261018c565b610124565b6103bd565b90565b5f90565b60301c90565b60018060701b031690565b61040561040a916103e8565b6103ee565b90565b61041790546103f9565b90565b60301b90565b906104386601000000000000600160a01b039161041a565b9181191691161790565b60018060701b031690565b61046161045c61046692610442565b610124565b610442565b90565b90565b9061048161047c6104889261044d565b610469565b8254610420565b9055565b6104a061049b6104a5926101d9565b610124565b6103bd565b90565b634e487b7160e01b5f52601160045260245ffd5b6104c86104ce916103bd565b916103bd565b019065ffffffffffff82116104df57565b6104a8565b6104ee6040610083565b90565b906104fb906103bd565b9052565b9061050990610442565b9052565b61051790516103bd565b90565b9061052b65ffffffffffff916102be565b9181191691161790565b61054961054461054e926103bd565b610124565b6103bd565b90565b90565b9061056961056461057092610535565b610551565b825461051a565b9055565b61057e9051610442565b90565b906105ab60205f6105b1946105a382820161059d84880161050d565b90610554565b019201610574565b9061046c565b565b906105bd91610581565b565b6105c8906101d9565b9052565b6105d5906103bd565b9052565b151590565b6105e7906105d9565b9052565b60409061061461061b949695939661060a60608401985f8501906105bf565b60208301906105cc565b01906105de565b565b919290610628610270565b508261064361063d61063861031c565b610119565b91610119565b146107a85761066a5f6106648161065c60018890610348565b018490610376565b016103b0565b61067c6106765f6103c8565b916103bd565b14936106866103e4565b50845f14610748576106a9906106a361069d610a88565b9161048c565b906104bc565b926106f4846106d76106ba86610ab9565b6106ce6106c56104e4565b935f85016104f1565b602083016104ff565b6106ef5f6106e760018690610348565b018590610376565b6105b3565b5b909192849361074261073061072a7ff98448b987f1428e0e230e1f3c6e2ce15b5693eaf31827fbd0b1ec4b424ae7cf95610127565b9561036a565b95610739610034565b938493846105eb565b0390a390565b506107a3926107826107725f61076c8161076460018790610348565b018690610376565b0161040d565b8461077c5f6101e2565b916109e0565b94905f61079d8161079560018790610348565b018690610376565b0161046c565b6106f5565b6107c3835f91829163061c6a4360e21b835260048301610333565b0390fd5b90565b5f5260205f2090565b634e487b7160e01b5f52603260045260245ffd5b5490565b6107f4816107e7565b82101561080e576108066001916107ca565b910201905f90565b6107d3565b1b90565b9190600861083291029161082c5f1984610813565b92610813565b9181191691161790565b610845906102bb565b90565b6108519061038c565b90565b919061086a6108656108729361083c565b610848565b908354610817565b9055565b90815491680100000000000000008310156108a6578261089e9160016108a4950181556107eb565b90610854565b565b610048565b5490565b906108b99061083c565b5f5260205260405f2090565b906108d15f19916102be565b9181191691161790565b6108ef6108ea6108f49261029c565b610124565b61029c565b90565b90565b9061090f61090a610916926108db565b6108f7565b82546108c5565b9055565b610922610270565b50610937610931828490610b0e565b156105d9565b5f146109775761096d610972926109596109525f85016107c7565b8290610876565b60016109665f85016108ab565b93016108af565b6108fa565b600190565b50505f90565b5f90565b61098d610993916101d9565b916101d9565b90039063ffffffff82116109a357565b6104a8565b6109bc6109b76109c1926101d9565b610124565b61029c565b90565b6109d86109d36109dd9261029c565b610124565b6101d9565b90565b90610a66610a4f610a4a610a0b610a6f959796976109fc61097d565b50610a056103e4565b50610b47565b9687610a1f610a19876101d9565b916101d9565b115f14610a7357610a44610a3e610a378a8890610981565b925b6109a8565b916109a8565b90610b62565b6109c4565b610a60610a5a610a88565b9161048c565b906104bc565b93908491610c15565b9190565b610a44610a3e610a825f6101e2565b92610a39565b610a906103e4565b50610a9a42610d01565b90565b610ab1610aac610ab6926101d9565b610124565b610442565b90565b610acb90610ac561097d565b50610a9d565b90565b90565b610add610ae29161038c565b610ace565b90565b610aef9054610ad1565b90565b610b06610b01610b0b9261018c565b610124565b61029c565b90565b610b2c916001610b2792610b20610270565b50016108af565b610ae5565b610b3e610b385f610af2565b9161029c565b141590565b5f90565b610b5990610b53610b43565b50610d54565b505090565b5f90565b610b8b91610b6e610b5e565b5081610b82610b7c8361029c565b9161029c565b11919091610d96565b90565b610ba2610b9d610ba7926103bd565b610124565b610442565b90565b90565b60ff1690565b610bc7610bc2610bcc92610baa565b610124565b610bad565b90565b610bee90610be8610be2610bf394610bad565b91610442565b90610813565b610442565b90565b90565b610c0d610c08610c1292610bf6565b610124565b610bad565b90565b610c6490610c5d610c4d610c47610c37610c6a97610c3161097d565b50610b8e565b610c416040610bb3565b90610bcf565b92610a9d565b610c576020610bf9565b90610bcf565b1791610a9d565b1761044d565b90565b610c81610c7c610c86926103bd565b610124565b61029c565b90565b90565b610ca0610c9b610ca592610c89565b610124565b610bad565b90565b610cb190610c8c565b9052565b610cbe9061029c565b9052565b916020610ce3929493610cdc60408201965f830190610ca8565b0190610cb5565b565b610cf9610cf4610cfe9261029c565b610124565b6103bd565b90565b610d096103e4565b5080610d23610d1d65ffffffffffff610c6d565b9161029c565b11610d3457610d3190610ce5565b90565b6030610d505f9283926306dfcc6560e41b845260048401610cc2565b0390fd5b610d8190610d60610b43565b50610d69610b43565b50610d726103e4565b50610d7b610a88565b90610df7565b9192909190565b90610d93910261029c565b90565b610db0610db69293610da6610b5e565b5080941891610e60565b90610d88565b1890565b610dce610dc9610dd3926101d9565b610124565b6101d9565b90565b610dee610de8610df492959395610dba565b946101e2565b926103c8565b90565b610e1b90610e03610b43565b50610e0c610b43565b50610e156103e4565b50610ed1565b92909192919290610e35610e2f84926103bd565b916103bd565b11155f14610e55575050610e4b905f5f91610dd6565b919290925b929190565b929092919291610e50565b610e68610b5e565b50151590565b610e82610e7d610e8792610442565b610124565b6101d9565b90565b1c90565b610ead90610ea7610ea1610eb294610bad565b91610442565b90610e8a565b610442565b90565b610ec9610ec4610ece92610442565b610124565b6103bd565b90565b610ef590610edd610b43565b50610ee6610b43565b50610eef6103e4565b5061044d565b90610eff82610e6e565b90610f38610f33610f22610f1d86610f176020610bf9565b90610e8e565b610e6e565b94610f2d6040610bb3565b90610e8e565b610eb5565b9291929192919056fe60806040526004361015610013575b6119d5565b61001d5f3561034b565b806299287014610346578063010986c81461034157806308d6122d1461033c5780630b0a93ba1461033757806312be872714610332578063167bd3951461032d57806318ff183c146103285780631cff79cd1461032357806325c471a01461031e5780632d47c2a0146103195780632f161d51146103145780633078f1141461030f57806330cae1871461030a5780633adc277a146103055780633ca7c02a146103005780634136a33c146102fb5780634665096d146102f657806348b52e73146102f15780634c1da1e2146102ec57806352962952146102e7578063530dd456146102e25780635b6d53eb146102dd5780636d5115bd146102d857806372c817ef146102d357806375b238fc146102ce5780637f0cf947146102c957806380606aba146102c4578063853551b8146102bf57806394c7d7ee146102ba578063a166aa89146102b5578063a5808e2f146102b0578063a64d95ce146102ab578063abd9bd2a146102a6578063ac9650d8146102a1578063b41a91a01461029c578063b700961314610297578063b7d2b16214610292578063bae2c3f71461028d578063c1116ba014610288578063cc1b6c8114610283578063cdf1f8941461027e578063d1f856ee14610279578063d22b598914610274578063d6bb62c61461026f578063d9c452651461026a578063dfdafffe14610265578063ef37dc0714610260578063f801a6981461025b578063fb1d57a114610256578063fc8610d1146102515763fe0776f50361000e576119a1565b61196c565b611936565b6118fc565b61182d565b6117ca565b611794565b611721565b6116ed565b611689565b611653565b6115f1565b6115bc565b611587565b611553565b61151c565b61148a565b611414565b61126e565b6111c6565b611164565b61112f565b6110fb565b6110c7565b61100d565b610fd7565b610fa2565b610f5d565b610ecb565b610e45565b610dd6565b610da2565b610d6d565b610d37565b610d02565b610ccd565b610c98565b610c3d565b610bb0565b610b49565b610a91565b610a1b565b61091b565b610892565b6107d9565b610778565b6106ee565b61068e565b610635565b61055d565b6104e4565b60e01c90565b60405190565b5f80fd5b5f80fd5b5f80fd5b60018060a01b031690565b61037790610363565b90565b6103838161036e565b0361038a57565b5f80fd5b9050359061039b8261037a565b565b67ffffffffffffffff1690565b6103b38161039d565b036103ba57565b5f80fd5b905035906103cb826103aa565b565b90565b6103d9816103cd565b036103e057565b5f80fd5b905035906103f1826103d0565b565b60808183031261043457610409825f830161038e565b9261043161041a84602085016103be565b9361042881604086016103e4565b936060016103e4565b90565b61035b565b5190565b60209181520190565b60200190565b63ffffffff60e01b1690565b6104619061044c565b9052565b9061047281602093610458565b0190565b60200190565b9061049961049361048c84610439565b809361043d565b92610446565b905f5b8181106104a95750505090565b9091926104c26104bc6001928651610465565b94610476565b910191909161049c565b6104e19160208201915f81840391015261047c565b90565b34610518576105146105036104fa3660046103f3565b92919091611bec565b61050b610351565b918291826104cc565b0390f35b610357565b9060208282031261053657610533915f016103be565b90565b61035b565b610544906103cd565b9052565b919061055b905f6020850194019061053b565b565b3461058d5761058961057861057336600461051d565b611d34565b610580610351565b91829182610548565b0390f35b610357565b5f80fd5b5f80fd5b5f80fd5b909182601f830112156105d85781359167ffffffffffffffff83116105d35760200192602083028401116105ce57565b61059a565b610596565b610592565b9060608282031261062b576105f4815f840161038e565b92602083013567ffffffffffffffff8111610626576106188361062392860161059e565b9390946040016103be565b90565b61035f565b61035b565b5f0190565b34610667576106516106483660046105dd565b92919091611f13565b610659610351565b8061066381610630565b0390f35b610357565b6106759061039d565b9052565b919061068c905f6020850194019061066c565b565b346106be576106ba6106a96106a436600461051d565b611f6f565b6106b1610351565b91829182610679565b0390f35b610357565b63ffffffff1690565b6106d5906106c3565b9052565b91906106ec905f602085019401906106cc565b565b3461071e5761071a61070961070436600461051d565b611fce565b610711610351565b918291826106d9565b0390f35b610357565b151590565b61073181610723565b0361073857565b5f80fd5b9050359061074982610728565b565b91906040838203126107735780610767610770925f860161038e565b9360200161073c565b90565b61035b565b346107a75761079161078b36600461074b565b9061202c565b610799610351565b806107a381610630565b0390f35b610357565b91906040838203126107d457806107c86107d1925f860161038e565b9360200161038e565b90565b61035b565b34610808576107f26107ec3660046107ac565b9061206d565b6107fa610351565b8061080481610630565b0390f35b610357565b909182601f830112156108475781359167ffffffffffffffff831161084257602001926001830284011161083d57565b61059a565b610596565b610592565b91909160408184031261088d57610865835f830161038e565b92602082013567ffffffffffffffff811161088857610884920161080d565b9091565b61035f565b61035b565b6108ba6108a96108a336600461084c565b916121d5565b6108b1610351565b918291826106d9565b0390f35b6108c7816106c3565b036108ce57565b5f80fd5b905035906108df826108be565b565b9091606082840312610916576109136108fc845f85016103be565b9361090a816020860161038e565b936040016108d2565b90565b61035b565b3461094a5761093461092e3660046108e1565b9161236f565b61093c610351565b8061094681610630565b0390f35b610357565b9190604083820312610977578061096b610974925f86016103e4565b936020016103e4565b90565b61035b565b5190565b60209181520190565b60200190565b6109989061036e565b9052565b906109a98160209361098f565b0190565b60200190565b906109d06109ca6109c38461097c565b8093610980565b92610989565b905f5b8181106109e05750505090565b9091926109f96109f3600192865161099c565b946109ad565b91019190916109d3565b610a189160208201915f8184039101526109b3565b90565b34610a4c57610a48610a37610a3136600461094f565b9061240f565b610a3f610351565b91829182610a03565b0390f35b610357565b90602082820312610a6a57610a67915f0161038e565b90565b61035b565b610a7890610723565b9052565b9190610a8f905f60208501940190610a6f565b565b34610ac157610abd610aac610aa7366004610a51565b61250a565b610ab4610351565b91829182610a7c565b0390f35b610357565b9190604083820312610aee5780610ae2610aeb925f86016103be565b9360200161038e565b90565b61035b565b65ffffffffffff1690565b610b0790610af3565b9052565b610b40610b4794610b36606094989795610b2c608086019a5f870190610afe565b60208501906106cc565b60408301906106cc565b0190610afe565b565b34610b7e57610b7a610b65610b5f366004610ac6565b90612599565b90610b71949294610351565b94859485610b0b565b0390f35b610357565b9190604083820312610bab5780610b9f610ba8925f86016103be565b936020016103be565b90565b61035b565b34610bdf57610bc9610bc3366004610b83565b90612627565b610bd1610351565b80610bdb81610630565b0390f35b610357565b90565b610bf081610be4565b03610bf757565b5f80fd5b90503590610c0882610be7565b565b90602082820312610c2357610c20915f01610bfb565b90565b61035b565b9190610c3b905f60208501940190610afe565b565b34610c6d57610c69610c58610c53366004610c0a565b612649565b610c60610351565b91829182610c28565b0390f35b610357565b5f910312610c7c57565b61035b565b67ffffffffffffffff90565b610c95610c81565b90565b34610cc857610ca8366004610c72565b610cc4610cb3610c8d565b610cbb610351565b91829182610679565b0390f35b610357565b34610cfd57610cf9610ce8610ce3366004610c0a565b6126b3565b610cf0610351565b918291826106d9565b0390f35b610357565b34610d3257610d12366004610c72565b610d2e610d1d6126f3565b610d25610351565b918291826106d9565b0390f35b610357565b34610d6857610d64610d53610d4d366004610ac6565b9061270b565b610d5b610351565b91829182610a7c565b0390f35b610357565b34610d9d57610d99610d88610d83366004610a51565b612759565b610d90610351565b918291826106d9565b0390f35b610357565b34610dd157610dbb610db5366004610b83565b906127a2565b610dc3610351565b80610dcd81610630565b0390f35b610357565b34610e0657610e02610df1610dec36600461051d565b6127cf565b610df9610351565b91829182610679565b0390f35b610357565b9091606082840312610e4057610e3d610e26845f85016103be565b93610e3481602086016103e4565b936040016103e4565b90565b61035b565b34610e7657610e72610e61610e5b366004610e0b565b91612819565b610e69610351565b91829182610a03565b0390f35b610357565b610e848161044c565b03610e8b57565b5f80fd5b90503590610e9c82610e7b565b565b9190604083820312610ec65780610eba610ec3925f860161038e565b93602001610e8f565b90565b61035b565b34610efc57610ef8610ee7610ee1366004610e9e565b906129bb565b610eef610351565b91829182610679565b0390f35b610357565b9091606082840312610f3657610f33610f1c845f850161038e565b93610f2a81602086016103be565b936040016103e4565b90565b61035b565b610f449061044c565b9052565b9190610f5b905f60208501940190610f3b565b565b34610f8e57610f8a610f79610f73366004610f01565b916129e8565b610f81610351565b91829182610f48565b0390f35b610357565b5f90565b610f9f610f93565b90565b34610fd257610fb2366004610c72565b610fce610fbd610f97565b610fc5610351565b91829182610679565b0390f35b610357565b3461100857611004610ff3610fed366004610ac6565b90612a21565b610ffb610351565b91829182610a7c565b0390f35b610357565b3461103d5761103961102861102336600461051d565b612a49565b611030610351565b91829182610a03565b0390f35b610357565b909182601f8301121561107c5781359167ffffffffffffffff831161107757602001926001830284011161107257565b61059a565b610596565b610592565b9190916040818403126110c25761109a835f83016103be565b92602082013567ffffffffffffffff81116110bd576110b99201611042565b9091565b61035f565b61035b565b346110f6576110e06110da366004611081565b91612c76565b6110e8610351565b806110f281610630565b0390f35b610357565b3461112a5761111461110e36600461084c565b91612cee565b61111c610351565b8061112681610630565b0390f35b610357565b3461115f5761115b61114a611145366004610a51565b612e00565b611152610351565b91829182610a7c565b0390f35b610357565b346111945761119061117f61117a36600461051d565b612e21565b611187610351565b91829182610a03565b0390f35b610357565b91906040838203126111c157806111b56111be925f86016103be565b936020016108d2565b90565b61035b565b346111f5576111df6111d9366004611199565b90612e68565b6111e7610351565b806111f181610630565b0390f35b610357565b9160608383031261124757611211825f850161038e565b9261121f836020830161038e565b92604082013567ffffffffffffffff81116112425761123e920161080d565b9091565b61035f565b61035b565b61125590610be4565b9052565b919061126c905f6020850194019061124c565b565b346112a25761129e61128d6112843660046111fa565b92919091612ee0565b611295610351565b91829182611259565b0390f35b610357565b909182601f830112156112e15781359167ffffffffffffffff83116112dc5760200192602083028401116112d757565b61059a565b610596565b610592565b90602082820312611317575f82013567ffffffffffffffff81116113125761130e92016112a7565b9091565b61035f565b61035b565b5190565b60209181520190565b60200190565b5190565b60209181520190565b90825f9392825e0152565b601f801991011690565b61137061137960209361137e936113678161132f565b93848093611333565b9586910161133c565b611347565b0190565b9061138c91611351565b90565b60200190565b906113a96113a28361131c565b8092611320565b90816113ba60208302840194611329565b925f915b8383106113cd57505050505090565b909192939460206113ef6113e983856001950387528951611382565b9761138f565b93019301919392906113be565b6114119160208201915f818403910152611395565b90565b346114455761144161143061142a3660046112e6565b9061315b565b611438610351565b918291826113fc565b0390f35b610357565b9060208282031261146357611460915f016103e4565b90565b61035b565b6114719061036e565b9052565b9190611488905f60208501940190611468565b565b346114ba576114b66114a56114a036600461144a565b613268565b6114ad610351565b91829182611475565b0390f35b610357565b90916060828403126114f4576114f16114da845f850161038e565b936114e8816020860161038e565b93604001610e8f565b90565b61035b565b91602061151a92949361151360408201965f830190610a6f565b01906106cc565b565b3461154e5761153561152f3660046114bf565b916132b7565b9061154a611541610351565b928392836114f9565b0390f35b610357565b346115825761156c611566366004610ac6565b906133b9565b611574610351565b8061157e81610630565b0390f35b610357565b346115b757611597366004610c72565b6115b36115a26133c5565b6115aa610351565b91829182610548565b0390f35b610357565b346115ec576115cc366004610c72565b6115e86115d76133e3565b6115df610351565b91829182610a03565b0390f35b610357565b3461162157611601366004610c72565b61161d61160c613420565b611614610351565b918291826106d9565b0390f35b610357565b919060408382031261164e578061164261164b925f86016103be565b936020016103e4565b90565b61035b565b346116845761168061166f611669366004611626565b90613438565b611677610351565b91829182611475565b0390f35b610357565b346116bb576116a261169c366004610ac6565b90613460565b906116b76116ae610351565b928392836114f9565b0390f35b610357565b91906040838203126116e857806116dc6116e5925f860161038e565b936020016108d2565b90565b61035b565b3461171c576117066117003660046116c0565b9061352b565b61170e610351565b8061171881610630565b0390f35b610357565b34611755576117516117406117373660046111fa565b92919091613614565b611748610351565b918291826106d9565b0390f35b610357565b909160608284031261178f5761178c611775845f850161038e565b9361178381602086016103be565b93604001610e8f565b90565b61035b565b346117c5576117c16117b06117aa36600461175a565b916137ac565b6117b8610351565b91829182610a7c565b0390f35b610357565b346117fb576117f76117e66117e0366004610e0b565b916137e7565b6117ee610351565b91829182610a03565b0390f35b610357565b9190604083820312611828578061181c611825925f860161038e565b936020016103be565b90565b61035b565b3461185e5761185a611849611843366004611800565b906138f4565b611851610351565b91829182610548565b0390f35b610357565b61186c81610af3565b0361187357565b5f80fd5b9050359061188482611863565b565b906060828203126118d45761189d815f840161038e565b92602083013567ffffffffffffffff81116118cf576118c1836118cc92860161080d565b939094604001611877565b90565b61035f565b61035b565b9160206118fa9294936118f360408201965f83019061124c565b01906106cc565b565b346119315761191861190f366004611886565b92919091613a94565b9061192d611924610351565b928392836118d9565b0390f35b610357565b346119675761196361195261194c366004611800565b90613c7b565b61195a610351565b918291826104cc565b0390f35b610357565b3461199c5761199861198761198236600461051d565b613d28565b61198f610351565b91829182610548565b0390f35b610357565b346119d0576119ba6119b4366004610ac6565b90613d4f565b6119c2610351565b806119cc81610630565b0390f35b610357565b5f80fd5b606090565b90565b6119f56119f06119fa92610363565b6119de565b610363565b90565b611a06906119e1565b90565b611a12906119fd565b90565b90611a1f90611a09565b5f5260205260405f2090565b611a3f611a3a611a449261039d565b6119de565b61039d565b90565b90611a5190611a2b565b5f5260205260405f2090565b90565b90565b611a77611a72611a7c92611a60565b6119de565b6103cd565b90565b634e487b7160e01b5f52604160045260245ffd5b90611a9d90611347565b810190811067ffffffffffffffff821117611ab757604052565b611a7f565b90611acf611ac8610351565b9283611a93565b565b67ffffffffffffffff8111611ae95760208091020190565b611a7f565b90611b00611afb83611ad1565b611abc565b918252565b369037565b90611b2f611b1783611aee565b92602080611b258693611ad1565b9201910390611b05565b565b634e487b7160e01b5f52601160045260245ffd5b611b54611b5a919392936103cd565b926103cd565b8201809211611b6557565b611b31565b611b79611b7f919392936103cd565b926103cd565b8203918211611b8a57565b611b31565b6001611b9b91016103cd565b90565b611ba79061044c565b90565b634e487b7160e01b5f52603260045260245ffd5b90611bc882610439565b811015611bd9576020809102010190565b611baa565b90611be89061044c565b9052565b611bf46119d9565b50611c1b611c16611c11611c0a60078590611a15565b8590611a47565b611a5d565b613da8565b83611c2e611c28836103cd565b916103cd565b1015611cfe57611c3f848690611b45565b611c51611c4b836103cd565b916103cd565b11611cea575b50611c6184611b0a565b94611c6b5f611a63565b5b80611c7f611c79886103cd565b916103cd565b1015611ce257611cdd90611cd8611cc6611cc1611cb0611cab611ca460078a90611a15565b8a90611a47565b611a5d565b611cbb8a8690611b45565b90613dc7565b611b9e565b611cd38a91849092611bbe565b611bde565b611b8f565b611c6c565b509350505050565b611cf79194508390611b6a565b925f611c57565b5050505050611d14611d0f5f611a63565b611b0a565b90565b5f90565b90611d2590611a2b565b5f5260205260405f2090565b90565b90611d3d611d17565b91611d52611d4d60048390611d1b565b611d31565b90611d5c82613de7565b92611d665f611a63565b5b80611d7a611d74876103cd565b916103cd565b1015611dbd57611d9583611d8f868490613e52565b90613e8a565b611da8575b611da390611b8f565b611d67565b94611db5611da391611b8f565b959050611d9a565b5092505050565b90611dd8939291611dd3613ec4565b611e0c565b565b5090565b9190811015611dee576020020190565b611baa565b35611dfd81610e7b565b90565b611e099061044c565b90565b93929190611e24611e1d6005611d31565b8690613fb4565b50611e2e5f611a63565b5b80611e4c611e46611e41858790611dda565b6103cd565b916103cd565b1015611f0b57611ed190611ecb611e6d611e6885878591611dde565b611df3565b611e788982906129bb565b80611e8b611e858a61039d565b9161039d565b03611ed6575b50611e9e8982899161404e565b611ec5611ebf611eba611eb360078d90611a15565b8a90611a47565b611a5d565b91611e00565b906140be565b50611b8f565b611e2f565b611ef5611ef0611f0492611eeb8d6007611a15565b611a47565b611a5d565b611efe83611e00565b90613fee565b505f611e91565b505050509050565b90611f1f939291611dc4565b565b5f90565b90611f2f90611a2b565b5f5260205260405f2090565b60401c90565b67ffffffffffffffff1690565b611f5a611f5f91611f3b565b611f41565b90565b611f6c9054611f4e565b90565b6001611f87611f8d92611f80611f21565b5082611f25565b01611f62565b90565b5f90565b60801c90565b6dffffffffffffffffffffffffffff1690565b611fb9611fbe91611f94565b611f9a565b90565b611fcb9054611fad565b90565b611fef6001611fe9611ff493611fe2611f90565b5082611f25565b01611fc1565b6140de565b90565b9061200991612004613ec4565b61200b565b565b9061202a9161202461201d6005611d31565b8290613fb4565b50614137565b565b9061203691611ff7565b565b9061204a91612045613ec4565b61204c565b565b9061206b9161206561205e6005611d31565b8290613fb4565b50614245565b565b9061207791612038565b565b61208d61208861209292611a60565b6119de565b6106c3565b90565b6040906120be6120c594969593966120b460608401985f850190611468565b6020830190611468565b0190610f3b565b565b6120db6120d66120e092611a60565b6119de565b610af3565b90565b5f1c90565b90565b6120f76120fc916120e3565b6120e8565b90565b61210990546120eb565b90565b5f1b90565b9061211d5f199161210c565b9181191691161790565b61213090610be4565b90565b61213c906120e3565b90565b9061215461214f61215b92612127565b612133565b8254612111565b9055565b5f80fd5b67ffffffffffffffff81116121815761217d602091611347565b0190565b611a7f565b90825f939282370152565b909291926121a66121a182612163565b611abc565b938185526020850190828401116121c2576121c092612186565b565b61215f565b6121d2913691612191565b90565b61220191926121e2611f90565b506121eb614251565b6121f981848790859261427d565b949015610723565b806122fc575b6122d057612219908386908492612ee0565b612221611f90565b9361223461222e5f612079565b916106c3565b141580156122ad575b612293575b5061228890612290939461228261225960036120ff565b946122796122728261226c868890614361565b906144da565b600361213f565b919234936121c7565b9061456f565b50600361213f565b90565b6122909350906122a561228892614398565b935090612242565b506122b781612649565b6122c96122c35f6120c7565b91610af3565b141561223d565b6122e18593926122f8929394614361565b5f9384936381c6f24b60e01b855260048501612095565b0390fd5b508361231061230a5f612079565b916106c3565b14612207565b906123299291612324613ec4565b61232b565b565b916123439083908361233c86611fce565b919261472f565b61234c575b5050565b61236261235d612367936004611d1b565b611d31565b613fb4565b505f80612348565b9061237a9291612316565b565b606090565b67ffffffffffffffff81116123995760208091020190565b611a7f565b906123b06123ab83612381565b611abc565b918252565b369037565b906123df6123c78361239e565b926020806123d58693612381565b92019103906123b5565b565b906123eb8261097c565b8110156123fc576020809102010190565b611baa565b9061240b9061036e565b9052565b61241761237c565b5061242a6124256005611d31565b613de7565b8161243d612437836103cd565b916103cd565b10156124ef5761244e828490611b45565b61246061245a836103cd565b916103cd565b116124db575b50612470826123ba565b9261247a5f611a63565b5b8061248e612488866103cd565b916103cd565b10156124d5576124d0906124cb6124b96124a86005611d31565b6124b3878590611b45565b90613e52565b6124c688918490926123e1565b612401565b611b8f565b61247b565b50915050565b6124e89192508290611b6a565b905f612466565b5050506125036124fe5f611a63565b6123ba565b90565b5f90565b61252690612516612506565b506125216005611d31565b6148d9565b90565b5f90565b9061253790611a09565b5f5260205260405f2090565b90565b65ffffffffffff1690565b61255d612562916120e3565b612546565b90565b61256f9054612551565b90565b60301c90565b61258461258991612572565b611f9a565b90565b6125969054612578565b90565b6125db915f6125d06125d6936125ad612529565b506125b6611f90565b506125bf611f90565b506125c8612529565b506001611f25565b0161252d565b612543565b906125fa6125f55f6125ee818601612565565b940161258c565b614913565b9391939290929193929190565b9061261991612614613ec4565b61261b565b565b9061262591614947565b565b9061263191612607565b565b9061263d90612127565b5f5260205260405f2090565b5f61266161266792612659612529565b506002612633565b01612565565b61267081614a10565b5f1461268457506126805f6120c7565b5b90565b612681565b63ffffffff1690565b61269e6126a391612572565b612689565b90565b6126b09054612692565b90565b5f6126cb6126d1926126c3611f90565b506002612633565b016126a6565b90565b90565b6126eb6126e66126f0926126d4565b6119de565b6106c3565b90565b6126fb611f90565b5061270862093a806126d7565b90565b9061271e91612718612506565b50613460565b5090565b9061272c90611a09565b5f5260205260405f2090565b612744612749916120e3565b611f9a565b90565b6127569054612738565b90565b61277a600161277461277f9361276d611f90565b505f612722565b0161274c565b6140de565b90565b906127949161278f613ec4565b612796565b565b906127a091614a9c565b565b906127ac91612782565b565b6127ba6127bf916120e3565b611f41565b90565b6127cc90546127ae565b90565b60016127e76127ed926127e0611f21565b5082611f25565b016127c2565b90565b6127f9906103cd565b5f1981146128075760010190565b611b31565b612816905161036e565b90565b929161282361237c565b5061283861283360048690611d1b565b611d31565b9361284285613de7565b9361284c836123ba565b93612855611d17565b9161285e611d17565b946128685f611a63565b5b8061287c6128768b6103cd565b916103cd565b108061297f575b1561290d576128938a8290613e52565b61289e878290613e8a565b6128b2575b506128ad906127f0565b612869565b856128c56128bf876103cd565b916103cd565b10155f146128f957906128f26128ad92986128ed8b919a6128e58c6127f0565b9b90926123e1565b612401565b5b906128a3565b50936129076128ad91611b8f565b946128f3565b50509650505050915061291f826123ba565b926129295f611a63565b5b8061293d612937866103cd565b916103cd565b1015612979576129749061296f61295d6129588684906123e1565b61280c565b61296a88918490926123e1565b612401565b611b8f565b61292a565b50915050565b508661299361298d846103cd565b916103cd565b10612883565b6129a29061044c565b90565b906129af90612999565b5f5260205260405f2090565b6129e1915f6129d66129dc936129cf611f21565b5082612722565b016129a5565b6127c2565b90565b5f90565b91612a14612a0f612a1993612a0a612a1e96612a026129e4565b506007611a15565b611a47565b611a5d565b613dc7565b611b9e565b90565b90612a41612a3c612a4693612a34612506565b506004611d1b565b611d31565b6148d9565b90565b90612a5261237c565b50612a67612a6260048490611d1b565b611d31565b91612a7183613de7565b90612a7a611d17565b91612a845f611a63565b5b80612a98612a92846103cd565b916103cd565b1015612adb57612ab383612aad888490613e52565b90613e8a565b612ac6575b612ac190611b8f565b612a85565b92612ad3612ac191611b8f565b939050612ab8565b50929091612ae8906123ba565b91612af1611d17565b91612afb5f611a63565b5b80612b0f612b09886103cd565b916103cd565b1015612b6657612b3a90612b24888290613e52565b612b2f858290613e8a565b612b3f575b50611b8f565b612afc565b612b609095612b5b889197612b53896127f0565b9890926123e1565b612401565b5f612b34565b50935050509150565b90612b829291612b7d613ec4565b612bca565b565b60209181520190565b9190612ba781612ba081612bac95612b84565b8095612186565b611347565b0190565b9091612bc79260208301925f818503910152612b8d565b90565b80612be4612bde612bd9610f93565b61039d565b9161039d565b148015612c55575b612c36579091612c1c7f1256f5b5ecb89caec12db449738f2fbcd1ba5806cf38f35413f4e5c15bf6a45092611a2b565b92612c31612c28610351565b92839283612bb0565b0390a2565b612c51905f91829163061c6a4360e21b835260048301610679565b0390fd5b5080612c70612c6a612c65610c81565b61039d565b9161039d565b14612bec565b90612c819291612b6f565b565b612c8c906119e1565b90565b612c9890612c83565b90565b612ca4906119fd565b90565b5f80fd5b60e01b90565b90505190612cbe82610e7b565b565b90602082820312612cd957612cd6915f01612cb1565b90565b61035b565b612ce6610351565b3d5f823e3d90fd5b9190612cf8614251565b92612d256020612d0f612d0a87612c8f565b612c9b565b638fb3603790612d1d610351565b938492612cab565b82528180612d3560048201610630565b03915afa908115612dce575f91612da0575b50612d61612d5b638fb3603760e01b61044c565b9161044c565b03612d815791612d7e9391612d799392909192612ee0565b614398565b50565b612d9c845f918291630641fee960e31b835260048301611475565b0390fd5b612dc1915060203d8111612dc7575b612db98183611a93565b810190612cc0565b5f612d47565b503d612daf565b612cde565b60701c90565b60ff1690565b612deb612df091612dd3565b612dd9565b90565b612dfd9054612ddf565b90565b6001612e18612e1e92612e11612506565b505f612722565b01612df3565b90565b612e40612e3b612e4592612e3361237c565b506004611d1b565b611d31565b614b65565b90565b90612e5a91612e55613ec4565b612e5c565b565b90612e6691614bfc565b565b90612e7291612e48565b565b5f90565b60209181520190565b9190612e9b81612e9481612ea095612e78565b8095612186565b611347565b0190565b612eca612ed79593949294612ec060608401965f850190611468565b6020830190611468565b6040818503910152612e81565b90565b60200190565b612f179293612f0891612ef1612e74565b509294612efc610351565b95869460208601612ea4565b60208201810382520382611a93565b612f29612f238261132f565b91612eda565b2090565b606090565b5090565b5f80fd5b5f80fd5b90939293848311612f5e578411612f59576001820201920390565b612f3a565b612f36565b90612f75612f7083612163565b611abc565b918252565b369037565b90612fa4612f8c83612f63565b92602080612f9a8693612163565b9201910390612f7a565b565b5090565b67ffffffffffffffff8111612fc25760208091020190565b611a7f565b90612fd9612fd483612faa565b611abc565b918252565b606090565b5f5b828110612ff157505050565b602090612ffc612fde565b8184015201612fe5565b9061302b61301383612fc7565b926020806130218693612faa565b9201910390612fe3565b565b613036906119fd565b90565b5f80fd5b5f80fd5b5f80fd5b903590600160200381360303821215613087570180359067ffffffffffffffff82116130825760200191600182023603831361307d57565b613041565b61303d565b613039565b908210156130a75760206130a39202810190613045565b9091565b611baa565b905090565b9091826130c1816130c8936130ac565b8093612186565b0190565b6130f16130e8926020926130df8161132f565b948580936130ac565b9384910161133c565b0190565b6131099392613103926130b1565b906130cc565b90565b906131399193929361312d61311f610351565b9586936020850193846130f5565b90810382520383611a93565b565b906131458261131c565b811015613156576020809102010190565b611baa565b613163612f2d565b503361317e613178613173614251565b61036e565b9161036e565b145f1461322d576131966131915f611a63565b612f7f565b5b6131aa6131a5838590612fa6565b613006565b926131b45f611a63565b5b806131d26131cc6131c7878690612fa6565b6103cd565b916103cd565b1015613226576132219061321a6132076131eb3061302d565b6132016131fa8988879161308c565b899161310c565b90614ce2565b878391613214838361313b565b5261313b565b5150611b8f565b6131b5565b5050505090565b61325f6132595f366132516132435f3690612f32565b61324b614ccd565b90611b6a565b908092612f3e565b906121c7565b613197565b5f90565b61328490613274613264565b5061327f6005611d31565b613e52565b90565b613290906119fd565b90565b61329c90610723565b90565b6132ae6132b491939293613293565b92612079565b90565b9190916132c2612506565b506132cb611f90565b506132d583612e00565b5f146132ec575050505f906132e95f612079565b90565b806133076133016132fc30613287565b61036e565b9161036e565b145f14613325575061331891614d11565b906133225f612079565b90565b9061333390613338936129bb565b613460565b91905f14613359578161335361334d5f612079565b916106c3565b145b9190565b90506133665f5f9061329f565b9190613355565b9061337f9161337a613ec4565b613381565b565b9061338d828290614d62565b613396575b5050565b6133ac6133a76133b1936004611d1b565b611d31565b614e58565b505f80613392565b906133c39161336d565b565b6133cd611d17565b506133e06133db6005611d31565b613de7565b90565b6133eb61237c565b506133fe6133f96005611d31565b614b65565b90565b90565b61341861341361341d92613401565b6119de565b6106c3565b90565b613428611f90565b5061343562069780613404565b90565b9061345861345361345d9361344b613264565b506004611d1b565b611d31565b613e52565b90565b90613469612506565b50613472611f90565b508161348d613487613482610c81565b61039d565b9161039d565b145f146134a55750506001906134a25f612079565b90565b6134ae91612599565b50509190806134c56134bf5f6120c7565b91610af3565b141590816134d3575b509190565b90506134ee6134e86134e3614e92565b610af3565b91610af3565b11155f6134ce565b9061350891613503613ec4565b61350a565b565b906135299161352361351c6005611d31565b8290613fb4565b50614eea565b565b90613535916134f6565b565b61356c61357394613562606094989795613558608086019a5f870190611468565b6020850190611468565b6040830190611468565b0190610f3b565b565b1b90565b9190600861359991029161359365ffffffffffff84613575565b92613575565b9181191691161790565b6135b76135b26135bc92610af3565b6119de565b610af3565b90565b90565b91906135d86135d36135e0936135a3565b6135bf565b908354613579565b9055565b6135f6916135f0612529565b916135c2565b565b61360c613607613611926106c3565b6119de565b6106c3565b90565b90919261361f611f90565b5061364361362b614251565b94613637818490614361565b92849186909192612ee0565b9361365a5f61365460028890612633565b01612565565b61366c6136665f6120c7565b91610af3565b145f146136925761368e855f91829163060a299b60e41b835260048301611259565b0390fd5b826136a561369f8361036e565b9161036e565b0361372a575b505050506136c65f806136c060028590612633565b016135e4565b6136dc5f6136d660028490612633565b016126a6565b908161371161370b7fbd9ac67a6e2f6463b80927326310338bcbb4bdb7936ce1365ea3e01067e7b9f793612127565b916135f8565b9161371a610351565b8061372481610630565b0390a390565b61373c613735610f93565b8290613460565b5061376561375d6137566137518887906129bb565b611f6f565b8490613460565b509115610723565b908161379b575b50156136ab5790613797919293613781610351565b948594630ff89d4760e21b865260048601613537565b0390fd5b6137a6915015610723565b5f61376c565b6137d86137d36137e494936137ce6137de946137c6612506565b506007611a15565b611a47565b611a5d565b91611e00565b90614f7b565b90565b6137ef61237c565b5061380c61380761380260048490611d1b565b611d31565b613de7565b8261381f613819836103cd565b916103cd565b10156138dc57613830838590611b45565b61384261383c836103cd565b916103cd565b116138c8575b50613852836123ba565b9361385c5f611a63565b5b8061387061386a876103cd565b916103cd565b10156138c1576138bc906138b76138a561389461388f60048890611d1b565b611d31565b61389f888590611b45565b90613e52565b6138b289918490926123e1565b612401565b611b8f565b61385d565b5092505050565b6138d59193508290611b6a565b915f613848565b505050506138f16138ec5f611a63565b6123ba565b90565b6139176139219261391261391c9361390a611d17565b506007611a15565b611a47565b611a5d565b613da8565b90565b61393861393361393d926106c3565b6119de565b610af3565b90565b61394c61395291610af3565b91610af3565b019065ffffffffffff821161396357565b611b31565b61397c61397761398192610af3565b6119de565b6103cd565b90565b61399861399361399d926103cd565b6119de565b610af3565b90565b90565b6139b76139b26139bc926139a0565b6119de565b6106c3565b90565b906139ca91016106c3565b90565b906139de65ffffffffffff9161210c565b9181191691161790565b906139fd6139f8613a04926135a3565b6135bf565b82546139cd565b9055565b60301b90565b90613a2369ffffffff00000000000091613a08565b9181191691161790565b90565b90613a45613a40613a4c926135f8565b613a2d565b8254613a0e565b9055565b909391613a919593613a7a613a8492613a7060808601985f870190610afe565b6020850190611468565b6040830190611468565b6060818503910152612e81565b90565b9391613a9e612e74565b50613aa7611f90565b50613ab0614251565b93613abf85878590859261427d565b905090613adc613acd614e92565b613ad684613924565b90613940565b91613aef613ae95f612079565b916106c3565b148015613c10575b613be457613b1f91613b14613b0e613b1a93613968565b91613968565b90614f9b565b613984565b90613b2e858785908492612ee0565b95613b3887614fc7565b613b61613b515f613b4b60028b90612633565b016126a6565b613b5b60016139a3565b906139bf565b95613b79845f613b7360028c90612633565b016139e8565b613b90875f613b8a60028c90612633565b01613a30565b613bdf88938895929396613bcd613bc77f82a2da5dee54ea8021c6545b4444620291e07ee83be6dd57edb175062715f3b497612127565b976135f8565b97613bd6610351565b95869586613a50565b0390a3565b8387613c0c613bf5868a9394614361565b5f9384936381c6f24b60e01b855260048501612095565b0390fd5b5080613c24613c1e5f6120c7565b91610af3565b1180613c30575b613af7565b5080613c44613c3e84610af3565b91610af3565b10613c2b565b5190565b90613c5882613c4a565b811015613c69576020809102010190565b611baa565b613c789051610be4565b90565b613c9e613ca892613c99613ca393613c916119d9565b506007611a15565b611a47565b611a5d565b61503f565b90613cba613cb583613c4a565b611b0a565b91613cc45f611a63565b5b80613ce0613cda613cd585613c4a565b6103cd565b916103cd565b1015613d2457613d1f90613d1a613d08613d03613cfe868590613c4e565b613c6e565b611b9e565b613d158791849092611bbe565b611bde565b611b8f565b613cc5565b5050565b613d47613d42613d4c92613d3a611d17565b506004611d1b565b611d31565b613de7565b90565b90613d6e613d67613d6260048590611d1b565b611d31565b82906148d9565b613d79838390615067565b613d82575b5050565b613d98613d93613d9d936004611d1b565b611d31565b614e58565b505f80613d7e565b90565b613dbf5f613dc492613db8611d17565b5001613da5565b6150b3565b90565b90613ddf5f613de493613dd8612e74565b5001613da5565b615125565b90565b613dfe5f613e0392613df7611d17565b5001613da5565b6150b3565b90565b613e1a613e15613e1f926103cd565b6119de565b6103cd565b90565b613e2e613e33916120e3565b613e06565b90565b613e4a613e45613e4f926103cd565b6119de565b610363565b90565b613e7d613e78613e8793613e735f613e8295613e6c613264565b5001613da5565b615125565b613e22565b613e36565b6119fd565b90565b90613e9d91613e97612506565b50613460565b5090565b916020613ec2929493613ebb60408201965f830190611468565b019061066c565b565b613ecc614251565b90613eea613ee283613edc61514c565b91615195565b919015610723565b613ef4575b509050565b613f06613f005f612079565b916106c3565b145f14613f415750613f1f613f1961514c565b9061538c565b50905090613f3d5f92839263f07e038f60e01b845260048401613ea1565b0390fd5b90613f63613f6891613f5230613287565b90613f5b61514c565b929091612ee0565b614398565b50805f613eef565b613f79906119e1565b90565b613f90613f8b613f9592610363565b6119de565b6103cd565b90565b613fac613fa7613fb1926103cd565b61210c565b610be4565b90565b90613fe6613fe0613fdb613fd65f613feb96613fce612506565b500194613f70565b613f7c565b613f98565b91613da5565b615779565b90565b906140065f61400b93613fff612506565b5001613da5565b6158a9565b90565b9061402167ffffffffffffffff9161210c565b9181191691161790565b90565b9061404361403e61404a92611a2b565b61402b565b825461400e565b9055565b61406e836140695f614061818690612722565b0185906129a5565b61402e565b9091906140b96140a76140a17f9ea6790c7dadfd01c9f8b9762b3682607af2c7e79e05a9f9fdf5580dde94915193611a09565b93611a2b565b936140b0610351565b91829182610f48565b0390a3565b906140d65f6140db936140cf612506565b5001613da5565b615779565b90565b6140f0906140ea611f90565b50614913565b505090565b60701b90565b9061410a60ff60701b916140f5565b9181191691161790565b90565b9061412c61412761413392613293565b614114565b82546140fb565b9055565b61414e8260016141485f8590612722565b01614117565b61418d61417b7f90d4e7bb7e5d933792b3562e1741306f8be94837e1348dacef9b6f1df56eb13892611a09565b92614184610351565b91829182610a7c565b0390a2565b906141a49161419f613ec4565b6141b5565b565b5f9103126141b057565b61035b565b6141c16141c691612c8f565b612c9b565b90637a9e5e4b90823b15614240576141fd926141f25f80946141e6610351565b96879586948593612cab565b835260048301611475565b03925af1801561423b5761420f575b50565b61422e905f3d8111614234575b6142268183611a93565b8101906141a6565b5f61420c565b503d61421c565b612cde565b612ca7565b9061424f91614192565b565b614259613264565b503390565b90565b61427561427061427a9261425e565b6119de565b6103cd565b90565b90614286612506565b5061428f611f90565b50806142ab6142a56142a030613287565b61036e565b9161036e565b145f146142c65750916142c092919091615195565b91909190565b91906142d3828590612f32565b6142e66142e06004614261565b916103cd565b105f1461430357505050506142fc5f5f9061329f565b91905b9190565b61431893614312919392614361565b916132b7565b91906142ff565b9061432d6143349183612f32565b913561044c565b9060048110614342575b5090565b61435a9063ffffffff60e01b90600403600802613575565b165f61433e565b6143959161438f916143716129e4565b50905f90614389614383600493611a63565b92614261565b92612f3e565b9061431f565b90565b6143a0611f90565b506143b75f6143b160028490612633565b01612565565b6143cd5f6143c760028590612633565b016126a6565b90806143e16143db5f6120c7565b91610af3565b145f1461440757614403835f91829163060a299b60e41b835260048301611259565b0390fd5b8061442161441b614416614e92565b610af3565b91610af3565b115f1461444757614443835f918291630c65b5bd60e11b835260048301611259565b0390fd5b61445390929192614a10565b6144bb5761446e5f8061446860028590612633565b016135e4565b816144a261449c7f76a2a46953689d4861a5d3f6ed883ad7e6af674a21f8e162707159fc9dde614d93612127565b916135f8565b916144ab610351565b806144b581610630565b0390a390565b6144d6905f918291631e2975b960e21b835260048301611259565b0390fd5b906145096145036144fe6144f961450f956144f3612e74565b50613f70565b613f7c565b613f98565b91611e00565b906159af565b90565b606090565b614520906119fd565b90565b91602061454492949361453d60408201965f83019061053b565b019061053b565b565b3d5f14614561576145563d612f63565b903d5f602084013e5b565b614569614512565b9061455f565b9092919261457b614512565b5061458530614517565b31614598614592866103cd565b916103cd565b106145c5575f6145c2939481928491602082019151925af1906145b9614546565b909190916159c4565b90565b836145cf30614517565b316145ea5f92839263cf47918160e01b845260048401614523565b0390fd5b9061460d73ffffffffffffffffffffffffffff00000000000091613a08565b9181191691161790565b6dffffffffffffffffffffffffffff1690565b61463e61463961464392614617565b6119de565b614617565b90565b90565b9061465e6146596146659261462a565b614646565b82546145ee565b9055565b6146736040611abc565b90565b9061468090610af3565b9052565b9061468e90614617565b9052565b634e487b7160e01b5f525f60045260245ffd5b6146af9051610af3565b90565b6146bc9051614617565b90565b906146e960205f6146ef946146e18282016146db8488016146a5565b906139e8565b0192016146b2565b90614649565b565b906146fb916146bf565b565b60409061472661472d949695939661471c60608401985f8501906106cc565b6020830190610afe565b0190610a6f565b565b91929061473a612506565b508261475561474f61474a610c81565b61039d565b9161039d565b146148ba5761477c5f6147768161476e60018890611f25565b01849061252d565b01612565565b61478e6147885f6120c7565b91610af3565b1493614798612529565b50845f1461485a576147bb906147b56147af614e92565b91613924565b90613940565b92614806846147e96147cc86615b37565b6147e06147d7614669565b935f8501614676565b60208301614684565b6148015f6147f960018690611f25565b01859061252d565b6146f1565b5b909192849361485461484261483c7ff98448b987f1428e0e230e1f3c6e2ce15b5693eaf31827fbd0b1ec4b424ae7cf95611a2b565b95611a09565b9561484b610351565b938493846146fd565b0390a390565b506148b5926148946148845f61487e8161487660018790611f25565b01869061252d565b0161258c565b8461488e5f612079565b91615a73565b94905f6148af816148a760018790611f25565b01869061252d565b01614649565b614807565b6148d5835f91829163061c6a4360e21b835260048301610679565b0390fd5b9061490b6149056149006148fb5f614910966148f3612506565b500194613f70565b613f7c565b613f98565b91613da5565b615b4c565b90565b6149409061491f611f90565b50614928611f90565b50614931612529565b5061493a614e92565b90615ba2565b9192909190565b8061496161495b614956610f93565b61039d565b9161039d565b1480156149ef575b6149d05761498482600161497e818590611f25565b0161402e565b906149b86149b27f1fd6dd7631312dfac2205b52913f99de03b4d7e381d5d27d3dbfe0713e6e634093611a2b565b91611a2b565b916149c1610351565b806149cb81610630565b0390a3565b6149eb905f91829163061c6a4360e21b835260048301610679565b0390fd5b5080614a0a614a046149ff610c81565b61039d565b9161039d565b14614969565b614a3390614a1c612506565b50614a2d614a286126f3565b613924565b90613940565b614a4c614a46614a41614e92565b610af3565b91610af3565b111590565b60401b90565b90614a726fffffffffffffffff000000000000000091614a51565b9181191691161790565b90614a91614a8c614a9892611a2b565b61402b565b8254614a57565b9055565b80614ab6614ab0614aab610f93565b61039d565b9161039d565b148015614b44575b614b2557614ad9826001614ad3818590611f25565b01614a7c565b90614b0d614b077f7a8059630b897b5de4c08ade69f8b90c3ead1f8596d62d10b6c4d14a0afb4ae293611a2b565b91611a2b565b91614b16610351565b80614b2081610630565b0390a3565b614b40905f91829163061c6a4360e21b835260048301610679565b0390fd5b5080614b5f614b59614b54610c81565b61039d565b9161039d565b14614abe565b614b7c5f614b8192614b7561237c565b5001613da5565b615cd7565b614b8961237c565b5090565b60801b90565b90614baf6dffffffffffffffffffffffffffff60801b91614b8d565b9181191691161790565b90614bce614bc9614bd59261462a565b614646565b8254614b93565b9055565b916020614bfa929493614bf360408201965f8301906106cc565b0190610afe565b565b919082614c18614c12614c0d610c81565b61039d565b9161039d565b14614cae57614c689192614c2a612529565b50614c53614c446001614c3e818590611f25565b01611fc1565b83614c4d613420565b91615a73565b93906001614c62818590611f25565b01614bb9565b9091614c947ffeb69018ee8b8fd50ea86348f1267d07673379f72cffdeccec63853ee8ce8b4892611a2b565b92614ca9614ca0610351565b92839283614bd9565b0390a2565b614cc9835f91829163061c6a4360e21b835260048301610679565b0390fd5b614cd5611d17565b50614cdf5f611a63565b90565b5f80614d0e93614cf0614512565b508390602081019051915af490614d05614546565b909190916159c4565b90565b90614d3a614d35614d4092614d24612506565b50614d2f60036120ff565b946144da565b610be4565b91610be4565b1490565b5f80910155565b905f03614d5d57614d5b90614d44565b565b614692565b614d6a612506565b5080614d85614d7f614d7a610c81565b61039d565b9161039d565b14614e3957614dac5f614da681614d9e60018690611f25565b01859061252d565b01612565565b614dbe614db85f6120c7565b91610af3565b14614e3357614de45f614ddf81614dd760018690611f25565b01859061252d565b614d4b565b90614e18614e127ff229baa593af28c41b1d16b748cd7688f0c83aaf92d4be41c44005defe84c16693611a2b565b91611a09565b91614e21610351565b80614e2b81610630565b0390a3600190565b50505f90565b614e54905f91829163061c6a4360e21b835260048301610679565b0390fd5b90614e8a614e84614e7f614e7a5f614e8f96614e72612506565b500194613f70565b613f7c565b613f98565b91613da5565b6158a9565b90565b614e9a612529565b50614ea442615d43565b90565b90614ec06dffffffffffffffffffffffffffff9161210c565b9181191691161790565b90614edf614eda614ee69261462a565b614646565b8254614ea7565b9055565b90614f3591614ef7612529565b50614f20614f116001614f0b5f8590612722565b0161274c565b83614f1a613420565b91615a73565b93906001614f2f5f8590612722565b01614eca565b9091614f617fa56b76017453f399ec2327ba00375dbfb1fd070ff854341ad6191e6a2e2de19c92611a09565b92614f76614f6d610351565b92839283614bd9565b0390a2565b90614f935f614f9893614f8c612506565b5001613da5565b615b4c565b90565b614fc491614fa7611d17565b5081614fbb614fb5836103cd565b916103cd565b11919091615da4565b90565b614fdd5f614fd760028490612633565b01612565565b80614ff0614fea5f6120c7565b91610af3565b14159081615020575b506150015750565b61501c905f91829163813e945960e01b835260048301611259565b0390fd5b615034915061502e90614a10565b15610723565b5f614ff9565b606090565b6150565f61505b9261504f61503a565b5001613da5565b615cd7565b61506361503a565b5090565b908061508261507c615077614251565b61036e565b9161036e565b036150935761509091614d62565b50565b5f635f159e6360e01b8152806150ab60048201610630565b0390fd5b5490565b5f6150c7916150c0611d17565b50016150af565b90565b5f5260205f2090565b6150dc816150af565b8210156150f6576150ee6001916150ca565b910201905f90565b611baa565b1c90565b61510f90600861511493026150fb565b6120e8565b90565b9061512291546150ff565b90565b615143915f61513d92615136612e74565b50016150d3565b90615117565b90565b36905f90565b615154615146565b9050505f903690565b61517161516c615176926106c3565b6119de565b6103cd565b90565b61518d615188615192926103cd565b6119de565b6106c3565b90565b919061519f612506565b506151a8611f90565b506151b4818390612f32565b6151c76151c16004614261565b916103cd565b106152c857826151e76151e16151dc30613287565b61036e565b9161036e565b1461529c57615204916151f99161538c565b919290919215610723565b80615285575b615274576152239261521b91613460565b929015610723565b6152645761524b9161524061523a6152469361515d565b9161515d565b90614f9b565b615179565b908161525f6152595f612079565b916106c3565b149190565b50505f906152715f612079565b90565b5050505f906152825f612079565b90565b5061529761529230613287565b612e00565b61520a565b906152bb92506152b5906152af30613287565b92614361565b90614d11565b906152c55f612079565b90565b5050505f906152d65f612079565b90565b6152ed6152e86152f292611a60565b6119de565b61039d565b90565b61530961530461530e926106c3565b612cab565b61044c565b90565b90565b61532861532361532d92615311565b6119de565b6103cd565b90565b91565b61533c90610363565b90565b61534881615333565b0361534f57565b5f80fd5b905035906153608261533f565b565b9060208282031261537b57615378915f01615353565b90565b61035b565b615389906119fd565b90565b90615395612506565b5061539e611f21565b506153a7611f90565b506153b3828290612f32565b6153c66153c06004614261565b916103cd565b10615670576153d6828290614361565b91826153f66153f06153eb63853551b86152f5565b61044c565b9161044c565b14801561564a575b8015615624575b80156155fe575b80156155d8575b6155bb578261543661543061542b6318ff183c6152f5565b61044c565b9161044c565b148015615595575b801561556f575b615513578261546861546261545d6325c471a06152f5565b61044c565b9161044c565b1480156154ed575b6154995750506154895f9161548430613287565b6129bb565b916154965f929392612079565b90565b6154d292506154ca916154c491906004906154be6154b8602493614261565b92615314565b92612f3e565b90615330565b81019061051d565b6154dd6001916127cf565b916154ea5f929392612079565b90565b508261550d61550761550263b7d2b1626152f5565b61044c565b9161044c565b14615470565b61555c925061554a61554461555793615552939060049061553e615538602493614261565b92615314565b92612f3e565b90615330565b810190615362565b615380565b612759565b90600190615568610f93565b9291929190565b508261558f6155896155846308d6122d6152f5565b61044c565b9161044c565b14615445565b50826155b56155af6155aa63167bd3956152f5565b61044c565b9161044c565b1461543e565b50505060016155c8610f93565b916155d55f929392612079565b90565b50826155f86155f26155ed63d22b59896152f5565b61044c565b9161044c565b14615413565b508261561e61561861561363a64d95ce6152f5565b61044c565b9161044c565b1461540c565b508261564461563e61563963529629526152f5565b61044c565b9161044c565b14615405565b508261566a61566461565f6330cae1876152f5565b61044c565b9161044c565b146153fe565b50505f5f916156896156835f93946152d9565b92612079565b90565b90565b5f5260205f2090565b5490565b6156a581615698565b8210156156bf576156b760019161568f565b910201905f90565b611baa565b919060086156df9102916156d95f1984613575565b92613575565b9181191691161790565b91906156ff6156fa61570793612127565b612133565b9083546156c4565b9055565b908154916801000000000000000083101561573b57826157339160016157399501815561569c565b906156e9565b565b611a7f565b9061574a90612127565b5f5260205260405f2090565b90565b9061576e61576961577592613e06565b615756565b8254612111565b9055565b615781612506565b50615796615790828490615b4c565b15610723565b5f146157d6576157cc6157d1926157b86157b15f850161568c565b829061570b565b60016157c55f85016150af565b9301615740565b615759565b600190565b50505f90565b90565b6157eb6157f0916120e3565b6157dc565b90565b6157fd90546157df565b90565b61581461580f615819926139a0565b6119de565b6103cd565b90565b634e487b7160e01b5f52603160045260245ffd5b6158429161583c612e74565b916156e9565b565b61584d81615698565b801561586e57600190039061586b615865838361569c565b90615830565b55565b61581c565b919061588961588461589193613e06565b615756565b9083546156c4565b9055565b6158a7916158a1611d17565b91615873565b565b6158b1612506565b506158c86158c3600183018490615740565b6157f3565b90816158dc6158d65f611a63565b916103cd565b14155f146159a85761595a92600161595592846159035f966158fd85615800565b90611b6a565b6159206159118885016150af565b61591a86615800565b90611b6a565b8161593361592d836103cd565b916103cd565b0361595f575b50505061594f61594a86830161568c565b615844565b01615740565b615895565b600190565b6159a09261599261597e61597861599b948c89016150d3565b90615117565b9361598c85918c89016150d3565b906156e9565b91858501615740565b615759565b5f8080615939565b5050505f90565b6159b7612e74565b505f5260205260405f2090565b906159d8906159d1614512565b5015610723565b5f146159e45750615dc8565b6159ed8261132f565b6159ff6159f95f611a63565b916103cd565b1480615a2d575b615a0e575090565b615a29905f918291639996b31560e01b835260048301611475565b0390fd5b50803b615a42615a3c5f611a63565b916103cd565b14615a06565b5f90565b615a58615a5e916106c3565b916106c3565b90039063ffffffff8211615a6e57565b611b31565b90615af9615ae2615add615a9e615b0295979697615a8f615a48565b50615a98612529565b506140de565b9687615ab2615aac876106c3565b916106c3565b115f14615b0657615ad7615ad1615aca8a8890615a4c565b925b61515d565b9161515d565b90614f9b565b615179565b615af3615aed614e92565b91613924565b90613940565b93908491615e8f565b9190565b615ad7615ad1615b155f612079565b92615acc565b615b2f615b2a615b34926106c3565b6119de565b614617565b90565b615b4990615b43615a48565b50615b1b565b90565b615b6a916001615b6592615b5e612506565b5001615740565b6157f3565b615b7c615b765f611a63565b916103cd565b141590565b615b99615b93615b9f929593956135f8565b94612079565b926120c7565b90565b615bc690615bae611f90565b50615bb7611f90565b50615bc0612529565b50615f46565b92909192919290615be0615bda8492610af3565b91610af3565b11155f14615c00575050615bf6905f5f91615b81565b919290925b929190565b929092919291615bfb565b60209181520190565b615c1d90610be4565b9052565b90615c2e81602093615c14565b0190565b615c3c90546120eb565b90565b60010190565b90615c62615c5c615c55846150af565b8093615c0b565b926150ca565b905f5b818110615c725750505090565b909192615c92615c8c600192615c8787615c32565b615c21565b94615c3f565b9101919091615c65565b90615ca691615c45565b90565b90615cc9615cc292615cb9610351565b93848092615c9c565b0383611a93565b565b615cd490615ca9565b90565b5f615ceb91615ce461503a565b5001615ccb565b90565b90565b60ff1690565b615d0b615d06615d1092615cee565b6119de565b615cf1565b90565b615d1c90615cf7565b9052565b916020615d41929493615d3a60408201965f830190615d13565b019061053b565b565b615d4b612529565b5080615d65615d5f65ffffffffffff613968565b916103cd565b11615d7657615d7390613984565b90565b6030615d925f9283926306dfcc6560e41b845260048401615d20565b0390fd5b90615da191026103cd565b90565b615dbe615dc49293615db4611d17565b5080941891615fb6565b90615d96565b1890565b615dd18161132f565b615de3615ddd5f611a63565b916103cd565b115f14615df257602081519101fd5b5f63d6bda27560e01b815280615e0a60048201610630565b0390fd5b615e22615e1d615e2792610af3565b6119de565b614617565b90565b90565b615e41615e3c615e4692615e2a565b6119de565b615cf1565b90565b615e6890615e62615e5c615e6d94615cf1565b91614617565b90613575565b614617565b90565b90565b615e87615e82615e8c92615e70565b6119de565b615cf1565b90565b615ede90615ed7615ec7615ec1615eb1615ee497615eab615a48565b50615e0e565b615ebb6040615e2d565b90615e49565b92615b1b565b615ed16020615e73565b90615e49565b1791615b1b565b1761462a565b90565b615efb615ef6615f0092614617565b6119de565b6106c3565b90565b615f2290615f1c615f16615f2794615cf1565b91614617565b906150fb565b614617565b90565b615f3e615f39615f4392614617565b6119de565b610af3565b90565b615f6a90615f52611f90565b50615f5b611f90565b50615f64612529565b5061462a565b90615f7482615ee7565b90615fad615fa8615f97615f9286615f8c6020615e73565b90615f03565b615ee7565b94615fa26040615e2d565b90615f03565b615f2a565b92919291929190565b615fbe611d17565b5015159056","linkReferences":{}},"methodIdentifiers":{"ADMIN_ROLE()":"75b238fc","PUBLIC_ROLE()":"3ca7c02a","canCall(address,address,bytes4)":"b7009613","cancel(address,address,bytes)":"d6bb62c6","consumeScheduledOp(address,bytes)":"94c7d7ee","execute(address,bytes)":"1cff79cd","expiration()":"4665096d","getAccess(uint64,address)":"3078f114","getActiveRoleMemberCount(uint64)":"010986c8","getActiveRoleMembers(uint64)":"80606aba","getActiveRoleMembersFrom(uint64,uint256,uint256)":"5b6d53eb","getManagedTargetAt(uint256)":"b41a91a0","getManagedTargetCount()":"bae2c3f7","getManagedTargets()":"c1116ba0","getManagedTargetsFrom(uint256,uint256)":"2d47c2a0","getNonce(bytes32)":"4136a33c","getRoleAdmin(uint64)":"530dd456","getRoleGrantDelay(uint64)":"12be8727","getRoleGuardian(uint64)":"0b0a93ba","getRoleMemberAt(uint64,uint256)":"cdf1f894","getRoleMemberCount(uint64)":"fc8610d1","getRoleMembers(uint64)":"a5808e2f","getRoleMembersFrom(uint64,uint256,uint256)":"dfdafffe","getSchedule(bytes32)":"3adc277a","getTargetAdminDelay(address)":"4c1da1e2","getTargetFunctionRole(address,bytes4)":"6d5115bd","getTargetRoleSelectorAt(address,uint64,uint256)":"72c817ef","getTargetRoleSelectorCount(address,uint64)":"ef37dc07","getTargetRoleSelectors(address,uint64)":"fb1d57a1","getTargetRoleSelectorsFrom(address,uint64,uint256,uint256)":"00992870","grantRole(uint64,address,uint32)":"25c471a0","hasRole(uint64,address)":"d1f856ee","hashOperation(address,address,bytes)":"abd9bd2a","isManagedTarget(address)":"2f161d51","isRoleMember(uint64,address)":"7f0cf947","isRoleMemberActive(uint64,address)":"48b52e73","isTargetClosed(address)":"a166aa89","isTargetRoleSelector(address,uint64,bytes4)":"d9c45265","labelRole(uint64,string)":"853551b8","minSetback()":"cc1b6c81","multicall(bytes[])":"ac9650d8","renounceRole(uint64,address)":"fe0776f5","revokeRole(uint64,address)":"b7d2b162","schedule(address,bytes,uint48)":"f801a698","setGrantDelay(uint64,uint32)":"a64d95ce","setRoleAdmin(uint64,uint64)":"30cae187","setRoleGuardian(uint64,uint64)":"52962952","setTargetAdminDelay(address,uint32)":"d22b5989","setTargetClosed(address,bool)":"167bd395","setTargetFunctionRole(address,bytes4[],uint64)":"08d6122d","updateAuthority(address,address)":"18ff183c"},"id":64}