{"abi":[{"type":"function","name":"add","inputs":[{"name":"setId","type":"bytes32","internalType":"DatastoreSetIdAddress"},{"name":"account","type":"address","internalType":"address"}],"outputs":[],"stateMutability":"nonpayable"},{"type":"function","name":"addBatch","inputs":[{"name":"setId","type":"bytes32","internalType":"DatastoreSetIdAddress"},{"name":"accounts","type":"address[]","internalType":"address[]"}],"outputs":[],"stateMutability":"nonpayable"},{"type":"function","name":"at","inputs":[{"name":"datastoreSetOwner","type":"address","internalType":"address"},{"name":"setId","type":"bytes32","internalType":"DatastoreSetIdAddress"},{"name":"index","type":"uint256","internalType":"uint256"}],"outputs":[{"name":"account","type":"address","internalType":"address"}],"stateMutability":"view"},{"type":"function","name":"contains","inputs":[{"name":"datastoreSetOwner","type":"address","internalType":"address"},{"name":"setId","type":"bytes32","internalType":"DatastoreSetIdAddress"},{"name":"account","type":"address","internalType":"address"}],"outputs":[{"name":"","type":"bool","internalType":"bool"}],"stateMutability":"view"},{"type":"function","name":"getAll","inputs":[{"name":"datastoreSetOwner","type":"address","internalType":"address"},{"name":"setId","type":"bytes32","internalType":"DatastoreSetIdAddress"}],"outputs":[{"name":"accounts","type":"address[]","internalType":"address[]"}],"stateMutability":"view"},{"type":"function","name":"getFrom","inputs":[{"name":"datastoreSetOwner","type":"address","internalType":"address"},{"name":"setId","type":"bytes32","internalType":"DatastoreSetIdAddress"},{"name":"index","type":"uint256","internalType":"uint256"},{"name":"count","type":"uint256","internalType":"uint256"}],"outputs":[{"name":"items","type":"address[]","internalType":"address[]"}],"stateMutability":"view"},{"type":"function","name":"getLast","inputs":[{"name":"datastoreSetOwner","type":"address","internalType":"address"},{"name":"setId","type":"bytes32","internalType":"DatastoreSetIdAddress"},{"name":"count","type":"uint256","internalType":"uint256"}],"outputs":[{"name":"items","type":"address[]","internalType":"address[]"}],"stateMutability":"view"},{"type":"function","name":"length","inputs":[{"name":"datastoreSetOwner","type":"address","internalType":"address"},{"name":"setId","type":"bytes32","internalType":"DatastoreSetIdAddress"}],"outputs":[{"name":"","type":"uint256","internalType":"uint256"}],"stateMutability":"view"},{"type":"function","name":"remove","inputs":[{"name":"setId","type":"bytes32","internalType":"DatastoreSetIdAddress"},{"name":"account","type":"address","internalType":"address"}],"outputs":[],"stateMutability":"nonpayable"},{"type":"function","name":"removeBatch","inputs":[{"name":"setId","type":"bytes32","internalType":"DatastoreSetIdAddress"},{"name":"accounts","type":"address[]","internalType":"address[]"}],"outputs":[],"stateMutability":"nonpayable"},{"type":"event","name":"AddAddress","inputs":[{"name":"setId","type":"bytes32","indexed":false,"internalType":"DatastoreSetIdAddress"},{"name":"account","type":"address","indexed":false,"internalType":"address"}],"anonymous":false},{"type":"event","name":"RemoveAddress","inputs":[{"name":"setId","type":"bytes32","indexed":false,"internalType":"DatastoreSetIdAddress"},{"name":"account","type":"address","indexed":false,"internalType":"address"}],"anonymous":false}],"bytecode":{"object":"0x608060405234601c57600e6020565b6114e861002b82396114e890f35b6026565b60405190565b5f80fdfe60806040526004361015610013575b610625565b61001d5f356100bc565b80630b26e28a146100b75780632874528e146100b257806361641bdc146100ad57806368e2845b146100a85780636e920d92146100a3578063793d8c961461009e578063951ba07914610099578063990c143f14610094578063b19e88461461008f5763ef91cf0e0361000e576105ef565b610599565b610560565b6104e6565b61041f565b610388565b610325565b6102cf565b61029b565b610233565b60e01c90565b60405190565b5f80fd5b5f80fd5b5f80fd5b60018060a01b031690565b6100e8906100d4565b90565b6100f4816100df565b036100fb57565b5f80fd5b9050359061010c826100eb565b565b90565b61011a8161010e565b0361012157565b5f80fd5b9050359061013282610111565b565b90565b61014081610134565b0361014757565b5f80fd5b9050359061015882610137565b565b909160608284031261018f5761018c610175845f85016100ff565b936101838160208601610125565b9360400161014b565b90565b6100cc565b5190565b60209181520190565b60200190565b6101b0906100df565b9052565b906101c1816020936101a7565b0190565b60200190565b906101e86101e26101db84610194565b8093610198565b926101a1565b905f5b8181106101f85750505090565b90919261021161020b60019286516101b4565b946101c5565b91019190916101eb565b6102309160208201915f8184039101526101cb565b90565b346102645761026061024f61024936600461015a565b916106d9565b6102576100c2565b9182918261021b565b0390f35b6100c8565b9190604083820312610291578061028561028e925f8601610125565b936020016100ff565b90565b6100cc565b5f0190565b346102ca576102b46102ae366004610269565b9061077b565b6102bc6100c2565b806102c681610296565b0390f35b6100c8565b346102fe576102e86102e2366004610269565b90610814565b6102f06100c2565b806102fa81610296565b0390f35b6100c8565b61030c906100df565b9052565b9190610323905f60208501940190610303565b565b346103565761035261034161033b36600461015a565b916108ba565b6103496100c2565b91829182610310565b0390f35b6100c8565b91906040838203126103835780610377610380925f86016100ff565b93602001610125565b90565b6100cc565b346103b9576103b56103a461039e36600461035b565b906108ea565b6103ac6100c2565b9182918261021b565b0390f35b6100c8565b90916060828403126103f3576103f06103d9845f85016100ff565b936103e78160208601610125565b936040016100ff565b90565b6100cc565b151590565b610406906103f8565b9052565b919061041d905f602085019401906103fd565b565b346104505761044c61043b6104353660046103be565b9161091d565b6104436100c2565b9182918261040a565b0390f35b6100c8565b5f80fd5b5f80fd5b5f80fd5b909182601f8301121561049b5781359167ffffffffffffffff831161049657602001926020830284011161049157565b61045d565b610459565b610455565b9190916040818403126104e1576104b9835f8301610125565b92602082013567ffffffffffffffff81116104dc576104d89201610461565b9091565b6100d0565b6100cc565b34610515576104ff6104f93660046104a0565b9161099a565b6105076100c2565b8061051181610296565b0390f35b6100c8565b60808183031261055b57610530825f83016100ff565b926105586105418460208501610125565b9361054f816040860161014b565b9360600161014b565b90565b6100cc565b346105945761059061057f61057636600461051a565b92919091610bc0565b6105876100c2565b9182918261021b565b0390f35b6100c8565b346105c8576105b26105ac3660046104a0565b91610ce5565b6105ba6100c2565b806105c481610296565b0390f35b6100c8565b6105d690610134565b9052565b91906105ed905f602085019401906105cd565b565b346106205761061c61060b61060536600461035b565b90610dd4565b6106136100c2565b918291826105da565b0390f35b6100c8565b5f80fd5b606090565b90565b61064561064061064a926100d4565b61062e565b6100d4565b90565b61065690610631565b90565b6106629061064d565b90565b9061066f90610659565b5f5260205260405f2090565b6106849061010e565b90565b906106919061067b565b5f5260205260405f2090565b90565b634e487b7160e01b5f52601160045260245ffd5b6106c36106c991939293610134565b92610134565b82039182116106d457565b6106a0565b9161073a926106e6610629565b5061070c6107076107026106fb5f8590610665565b8690610687565b61069d565b610e06565b908161072061071a85610134565b91610134565b1061073d575b61073390939183906106b4565b9192610bc0565b90565b915061073381929050610726565b6107549061067b565b9052565b91602061077992949361077260408201965f83019061074b565b0190610303565b565b6107a261079b61079661078f5f3390610665565b8490610687565b61069d565b8390610e6e565b6107ab575b5050565b6107d26107cb6107c66107bf5f3390610665565b8490610687565b61069d565b8390610ea8565b50907ff5e4303253eeb171e82c29899b478619012188fb35603062a896a44f03b307519161080a6108016100c2565b92839283610758565b0390a15f806107a7565b61084461083e61083761083261082b5f3390610665565b8590610687565b61069d565b8490610e6e565b156103f8565b61084d575b5050565b61087461086d6108686108615f3390610665565b8490610687565b61069d565b8390610ee2565b50907feee414c6e3f7e93a25467a4b182d4d25fc0cc83f33c7270173590db573995a1a916108ac6108a36100c2565b92839283610758565b0390a15f80610849565b5f90565b6108dd6108e793926108d86108e2936108d16108b6565b505f610665565b610687565b61069d565b610f6d565b90565b61090c6109169261090761091193610900610629565b505f610665565b610687565b61069d565b610fa5565b90565b5f90565b61094061094a939261093b61094593610934610919565b505f610665565b610687565b61069d565b610e6e565b90565b5f90565b600161095d9101610134565b90565b5090565b634e487b7160e01b5f52603260045260245ffd5b9190811015610988576020020190565b610964565b35610997816100eb565b90565b909291926109a661094d565b5b806109c46109be6109b9858990610960565b610134565b91610134565b1015610a8b57610a1d906109e26109dd84888491610978565b61098d565b610a12610a0c610a05610a006109f95f3390610665565b8990610687565b61069d565b8390610e6e565b156103f8565b610a22575b50610951565b6109a7565b610a49610a42610a3d610a365f3390610665565b8890610687565b61069d565b8290610ee2565b5084907feee414c6e3f7e93a25467a4b182d4d25fc0cc83f33c7270173590db573995a1a91610a82610a796100c2565b92839283610758565b0390a15f610a17565b5050509050565b90565b610aa9610aa4610aae92610a92565b61062e565b610134565b90565b601f801991011690565b634e487b7160e01b5f52604160045260245ffd5b90610ad990610ab1565b810190811067ffffffffffffffff821117610af357604052565b610abb565b90610b0b610b046100c2565b9283610acf565b565b67ffffffffffffffff8111610b255760208091020190565b610abb565b90610b3c610b3783610b0d565b610af8565b918252565b369037565b90610b6b610b5383610b2a565b92602080610b618693610b0d565b9201910390610b41565b565b610b7c610b8291939293610134565b92610134565b8201809211610b8d57565b6106a0565b90610b9c82610194565b811015610bad576020809102010190565b610964565b90610bbc906100df565b9052565b939293610bcb610629565b50610bf1610bec610be7610be05f8590610665565b8590610687565b61069d565b610e06565b83610c04610bfe83610134565b91610134565b1015610ccb57610c15848790610b6d565b610c27610c2183610134565b91610134565b11610cb7575b50610c3785610b46565b93610c4061094d565b5b80610c54610c4e89610134565b91610134565b1015610cae57610ca990610ca4610c92610c81610c7c610c755f8990610665565b8990610687565b61069d565b610c8c898590610b6d565b90610f6d565b610c9f8991849092610b92565b610bb2565b610951565b610c41565b50945050505090565b610cc491955083906106b4565b935f610c2d565b505050509050610ce2610cdd5f610a95565b610b46565b90565b90929192610cf161094d565b5b80610d0f610d09610d04858990610960565b610134565b91610134565b1015610dcd57610d5f90610d2d610d2884888491610978565b61098d565b610d54610d4d610d48610d415f3390610665565b8890610687565b61069d565b8290610e6e565b610d64575b50610951565b610cf2565b610d8b610d84610d7f610d785f3390610665565b8890610687565b61069d565b8290610ea8565b5084907ff5e4303253eeb171e82c29899b478619012188fb35603062a896a44f03b3075191610dc4610dbb6100c2565b92839283610758565b0390a15f610d59565b5050509050565b610df6610e0092610df1610dfb93610dea61094d565b505f610665565b610687565b61069d565b610e06565b90565b90565b610e1d5f610e2292610e1661094d565b5001610e03565b610fd1565b90565b610e2e90610631565b90565b610e45610e40610e4a926100d4565b61062e565b610134565b90565b5f1b90565b610e66610e61610e6b92610134565b610e4d565b61010e565b90565b90610ea0610e9a610e95610e905f610ea596610e88610919565b500194610e25565b610e31565b610e52565b91610e03565b611022565b90565b90610eda610ed4610ecf610eca5f610edf96610ec2610919565b500194610e25565b610e31565b610e52565b91610e03565b61122d565b90565b90610f14610f0e610f09610f045f610f1996610efc610919565b500194610e25565b610e31565b610e52565b91610e03565b611368565b90565b5f1c90565b610f35610f30610f3a92610134565b61062e565b610134565b90565b610f49610f4e91610f1c565b610f21565b90565b610f65610f60610f6a92610134565b61062e565b6100d4565b90565b610f98610f93610fa293610f8e5f610f9d95610f876108b6565b5001610e03565b6113cb565b610f3d565b610f51565b61064d565b90565b610fbc5f610fc192610fb5610629565b5001610e03565b6114d1565b610fc9610629565b5090565b5490565b5f610fe591610fde61094d565b5001610fcd565b90565b90610ff29061067b565b5f5260205260405f2090565b90565b61100d61101291610f1c565b610ffe565b90565b61101f9054611001565b90565b61104091600161103b92611034610919565b5001610fe8565b611015565b61105261104c5f610a95565b91610134565b141590565b90565b61106e61106961107392611057565b61062e565b610134565b90565b5f5260205f2090565b61108881610fcd565b8210156110a25761109a600191611076565b910201905f90565b610964565b1c90565b90565b6110be9060086110c393026110a7565b6110ab565b90565b906110d191546110ae565b90565b1b90565b919060086110f39102916110ed5f19846110d4565b926110d4565b9181191691161790565b61110690610f1c565b90565b919061111f61111a6111279361067b565b6110fd565b9083546110d8565b9055565b906111375f1991610e4d565b9181191691161790565b90565b9061115961115461116092610f21565b611141565b825461112b565b9055565b90565b634e487b7160e01b5f52603160045260245ffd5b5490565b5f5260205f2090565b6111918161117b565b8210156111ab576111a360019161117f565b910201905f90565b610964565b5f90565b6111c6916111c06111b0565b91611109565b565b6111d18161117b565b80156111f25760019003906111ef6111e98383611188565b906111b4565b55565b611167565b919061120d61120861121593610f21565b611141565b9083546110d8565b9055565b61122b9161122561094d565b916111f7565b565b611235610919565b5061124c611247600183018490610fe8565b611015565b908161126061125a5f610a95565b91610134565b14155f1461132c576112de9260016112d992846112875f966112818561105a565b906106b4565b6112a4611295888501610fcd565b61129e8661105a565b906106b4565b816112b76112b183610134565b91610134565b036112e3575b5050506112d36112ce868301611164565b6111c8565b01610fe8565b611219565b600190565b611324926113166113026112fc61131f948c890161107f565b906110c6565b9361131085918c890161107f565b90611109565b91858501610fe8565b611144565b5f80806112bd565b5050505f90565b9081549168010000000000000000831015611363578261135b91600161136195018155611188565b90611109565b565b610abb565b611370610919565b5061138561137f828490611022565b156103f8565b5f146113c5576113bb6113c0926113a76113a05f8501611164565b8290611333565b60016113b45f8501610fcd565b9301610fe8565b611144565b600190565b50505f90565b6113e9915f6113e3926113dc6111b0565b500161107f565b906110c6565b90565b606090565b60209181520190565b6114039061010e565b9052565b90611414816020936113fa565b0190565b61142461142991610f1c565b6110ab565b90565b6114369054611418565b90565b60010190565b9061145c61145661144f84610fcd565b80936113f1565b92611076565b905f5b81811061146c5750505090565b90919261148c6114866001926114818761142c565b611407565b94611439565b910191909161145f565b906114a09161143f565b90565b906114c36114bc926114b36100c2565b93848092611496565b0383610acf565b565b6114ce906114a3565b90565b5f6114e5916114de6113ec565b50016114c5565b9056","linkReferences":{}},"methodIdentifiers":{"add(bytes32,address)":"61641bdc","addBatch(bytes32,address[])":"951ba079","at(address,bytes32,uint256)":"68e2845b","contains(address,bytes32,address)":"793d8c96","getAll(address,bytes32)":"6e920d92","getFrom(address,bytes32,uint256,uint256)":"990c143f","getLast(address,bytes32,uint256)":"0b26e28a","length(address,bytes32)":"ef91cf0e","remove(bytes32,address)":"2874528e","removeBatch(bytes32,address[])":"b19e8846"},"id":70}