{"abi":[{"type":"function","name":"deploy","inputs":[{"name":"salt","type":"bytes32","internalType":"bytes32"},{"name":"initCode","type":"bytes","internalType":"bytes"}],"outputs":[{"name":"deployed","type":"address","internalType":"address"}],"stateMutability":"nonpayable"},{"type":"function","name":"predict","inputs":[{"name":"salt","type":"bytes32","internalType":"bytes32"}],"outputs":[{"name":"predicted","type":"address","internalType":"address"}],"stateMutability":"view"}],"bytecode":{"object":"0x608060405234601c57600e6020565b6103e861002b82396103e890f35b6026565b60405190565b5f80fdfe60806040526004361015610013575b61026c565b61001d5f3561003c565b80630e787cce146100375763cdcb760a0361000e57610236565b6100d1565b60e01c90565b60405190565b5f80fd5b5f80fd5b5f80fd5b90565b61006081610054565b0361006757565b5f80fd5b9050359061007882610057565b565b9060208282031261009357610090915f0161006b565b90565b61004c565b60018060a01b031690565b6100ac90610098565b90565b6100b8906100a3565b9052565b91906100cf905f602085019401906100af565b565b34610101576100fd6100ec6100e736600461007a565b6102ab565b6100f4610042565b918291826100bc565b0390f35b610048565b5f80fd5b5f80fd5b601f801991011690565b634e487b7160e01b5f52604160045260245ffd5b906101369061010e565b810190811067ffffffffffffffff82111761015057604052565b610118565b90610168610161610042565b928361012c565b565b67ffffffffffffffff81116101885761018460209161010e565b0190565b610118565b90825f939282370152565b909291926101ad6101a88261016a565b610155565b938185526020850190828401116101c9576101c79261018d565b565b61010a565b9080601f830112156101ec578160206101e993359101610198565b90565b610106565b9190916040818403126102315761020a835f830161006b565b92602082013567ffffffffffffffff811161022c5761022992016101ce565b90565b610050565b61004c565b346102675761026361025261024c3660046101f1565b906102ca565b61025a610042565b918291826100bc565b0390f35b610048565b5f80fd5b5f90565b90565b61028b61028661029092610098565b610274565b610098565b90565b61029c90610277565b90565b6102a890610293565b90565b6102c7906102b7610270565b506102c13061029f565b906102df565b90565b6102dc916102d6610270565b50610359565b90565b6102e7610270565b50604051915f5260ff600b536020527f21c35dbe1b344a2488cf3321d6ce542f8e9f305544ff09e4993a62319a497c1f6040526055600b2060145260405261d6945f5260016034536017601e2090565b90565b90565b61035161034c61035692610337565b610274565b61033a565b90565b61037791610365610270565b506103725f92919261033d565b61037a565b90565b9291610384610270565b506f67363d3d37363d34f03d5260086018f35f526010805ff580156103db575f9181839260145261d694835260016034536017601e2095602083519301915af1823b02156103ce57565b63301164255f526004601cfd5b63301164255f526004601cfd","linkReferences":{}},"methodIdentifiers":{"deploy(bytes32,bytes)":"cdcb760a","predict(bytes32)":"0e787cce"},"id":69}