{"abi":[{"type":"constructor","inputs":[{"name":"_mintBurn","type":"address","internalType":"address"},{"name":"_token","type":"address","internalType":"address"}],"stateMutability":"nonpayable"},{"type":"function","name":"attemptReentrantBurn","inputs":[],"outputs":[],"stateMutability":"nonpayable"},{"type":"function","name":"attemptReentrantMint","inputs":[],"outputs":[],"stateMutability":"nonpayable"},{"type":"function","name":"callCount","inputs":[],"outputs":[{"name":"","type":"uint256","internalType":"uint256"}],"stateMutability":"view"},{"type":"function","name":"mintBurn","inputs":[],"outputs":[{"name":"","type":"address","internalType":"contract MintBurn"}],"stateMutability":"view"},{"type":"function","name":"recursiveBurn","inputs":[],"outputs":[],"stateMutability":"nonpayable"},{"type":"function","name":"recursiveMint","inputs":[],"outputs":[],"stateMutability":"nonpayable"},{"type":"function","name":"resetCallCount","inputs":[],"outputs":[],"stateMutability":"nonpayable"},{"type":"function","name":"token","inputs":[],"outputs":[{"name":"","type":"address","internalType":"contract TokenCl8yBridged"}],"stateMutability":"view"}],"bytecode":{"object":"0x6080604052346100305761001a610014610104565b9061024e565b610022610035565b610aaa6102818239610aaa90f35b61003b565b60405190565b5f80fd5b601f801991011690565b634e487b7160e01b5f52604160045260245ffd5b906100679061003f565b810190811060018060401b0382111761007f57604052565b610049565b90610097610090610035565b928361005d565b565b5f80fd5b60018060a01b031690565b6100b19061009d565b90565b6100bd816100a8565b036100c457565b5f80fd5b905051906100d5826100b4565b565b91906040838203126100ff57806100f36100fc925f86016100c8565b936020016100c8565b90565b610099565b610122610d2b8038038061011781610084565b9283398101906100d7565b9091565b5f1b90565b906101375f1991610126565b9181191691161790565b90565b90565b90565b61015e61015961016392610141565b610147565b610144565b90565b90565b9061017e6101796101859261014a565b610166565b825461012b565b9055565b61019d6101986101a29261009d565b610147565b61009d565b90565b6101ae90610189565b90565b6101ba906101a5565b90565b906101ce60018060a01b0391610126565b9181191691161790565b6101e1906101a5565b90565b90565b906101fc6101f7610203926101d8565b6101e4565b82546101bd565b9055565b61021090610189565b90565b61021c90610207565b90565b61022890610207565b90565b90565b9061024361023e61024a9261021f565b61022b565b82546101bd565b9055565b61027e9161027261026c610277936102675f6002610169565b6101b1565b5f6101e7565b610213565b600161022e565b56fe60806040526004361015610013575b6103d4565b61001d5f3561009c565b80631221c03814610097578063255d3a0a146100925780634b28f9a21461008d5780634bfd54401461008857806364ca9ac4146100835780639485b8f01461007e578063eccefda3146100795763fc0c546a0361000e5761039f565b6102fe565b6102cb565b610298565b610265565b610230565b6101a0565b610166565b60e01c90565b60405190565b5f80fd5b5f80fd5b5f9103126100ba57565b6100ac565b1c90565b60018060a01b031690565b6100de9060086100e393026100bf565b6100c3565b90565b906100f191546100ce565b90565b6100ff5f5f906100e6565b90565b60018060a01b031690565b90565b61012461011f61012992610102565b61010d565b610102565b90565b61013590610110565b90565b6101419061012c565b90565b61014d90610138565b9052565b9190610164905f60208501940190610144565b565b34610196576101763660046100b0565b6101926101816100f4565b6101896100a2565b91829182610151565b0390f35b6100a8565b5f0190565b346101ce576101b03660046100b0565b6101b86105c5565b6101c06100a2565b806101ca8161019b565b0390f35b6100a8565b90565b6101e69060086101eb93026100bf565b6101d3565b90565b906101f991546101d6565b90565b61020860025f906101ee565b90565b90565b6102179061020b565b9052565b919061022e905f6020850194019061020e565b565b34610260576102403660046100b0565b61025c61024b6101fc565b6102536100a2565b9182918261021b565b0390f35b6100a8565b34610293576102753660046100b0565b61027d610717565b6102856100a2565b8061028f8161019b565b0390f35b6100a8565b346102c6576102a83660046100b0565b6102b0610888565b6102b86100a2565b806102c28161019b565b0390f35b6100a8565b346102f9576102db3660046100b0565b6102e361099e565b6102eb6100a2565b806102f58161019b565b0390f35b6100a8565b3461032c5761030e3660046100b0565b6103166109b3565b61031e6100a2565b806103288161019b565b0390f35b6100a8565b60018060a01b031690565b61034c90600861035193026100bf565b610331565b90565b9061035f915461033c565b90565b61036e60015f90610354565b90565b61037a9061012c565b90565b61038690610371565b9052565b919061039d905f6020850194019061037d565b565b346103cf576103af3660046100b0565b6103cb6103ba610362565b6103c26100a2565b9182918261038a565b0390f35b6100a8565b5f80fd5b5f1c90565b6103e96103ee916103d8565b6101d3565b90565b6103fb90546103dd565b90565b634e487b7160e01b5f52601160045260245ffd5b61041b9061020b565b5f1981146104295760010190565b6103fe565b5f1b90565b9061043f5f199161042e565b9181191691161790565b61045d6104586104629261020b565b61010d565b61020b565b90565b90565b9061047d61047861048492610449565b610465565b8254610433565b9055565b610494610499916103d8565b6100c3565b90565b6104a69054610488565b90565b6104b29061012c565b90565b6104c16104c6916103d8565b610331565b90565b6104d390546104b5565b90565b90565b6104ed6104e86104f2926104d6565b61010d565b61020b565b90565b610507683635c9adc5dea000006104d9565b90565b5f80fd5b601f801991011690565b634e487b7160e01b5f52604160045260245ffd5b906105369061050e565b810190811067ffffffffffffffff82111761055057604052565b610518565b60e01b90565b5f91031261056557565b6100ac565b61057390610102565b90565b61057f9061056a565b9052565b6040906105ac6105b394969593966105a260608401985f850190610576565b6020830190610576565b019061020e565b565b6105bd6100a2565b3d5f823e3d90fd5b6105e16105da6105d560026103f1565b610412565b6002610468565b6105f26105ed5f61049c565b610138565b63c6c3bbe6610600306104a9565b61061261060d60016104c9565b610371565b9261061b6104f5565b92813b15610712575f6106419161064c82966106356100a2565b98899788968795610555565b855260048501610583565b03925af1801561070d576106e1575b50610665306104a9565b6364ca9ac490803b156106dc57610688915f916106806100a2565b938492610555565b82528183816106996004820161019b565b03925af180156106d7576106ab575b50565b6106ca905f3d81116106d0575b6106c2818361052c565b81019061055b565b5f6106a8565b503d6106b8565b6105b5565b61050a565b610700905f3d8111610706575b6106f8818361052c565b81019061055b565b5f61065b565b503d6106ee565b6105b5565b61050a565b61073361072c61072760026103f1565b610412565b6002610468565b61074461073f5f61049c565b610138565b63f6b911bc610752306104a9565b61076461075f60016104c9565b610371565b9261076d6104f5565b92813b15610864575f6107939161079e82966107876100a2565b98899788968795610555565b855260048501610583565b03925af1801561085f57610833575b506107b7306104a9565b63eccefda390803b1561082e576107da915f916107d26100a2565b938492610555565b82528183816107eb6004820161019b565b03925af18015610829576107fd575b50565b61081c905f3d8111610822575b610814818361052c565b81019061055b565b5f6107fa565b503d61080a565b6105b5565b61050a565b610852905f3d8111610858575b61084a818361052c565b81019061055b565b5f6107ad565b503d610840565b6105b5565b61050a565b90565b61088061087b61088592610869565b61010d565b61020b565b90565b61089260026103f1565b6108a561089f600261086c565b9161020b565b106108ad575b565b6108c96108c26108bd60026103f1565b610412565b6002610468565b6108da6108d55f61049c565b610138565b63c6c3bbe66108e8306104a9565b6108fa6108f560016104c9565b610371565b926109036104f5565b92813b1561097a575f61092991610934829661091d6100a2565b98899788968795610555565b855260048501610583565b03925af1801561097557610949575b506108ab565b610968905f3d811161096e575b610960818361052c565b81019061055b565b5f610943565b503d610956565b6105b5565b61050a565b90565b61099661099161099b9261097f565b61010d565b61020b565b90565b6109b16109aa5f610982565b6002610468565b565b6109bd60026103f1565b6109d06109ca600261086c565b9161020b565b106109d8575b565b6109f46109ed6109e860026103f1565b610412565b6002610468565b610a05610a005f61049c565b610138565b63f6b911bc610a13306104a9565b610a25610a2060016104c9565b610371565b92610a2e6104f5565b92813b15610aa5575f610a5491610a5f8296610a486100a2565b98899788968795610555565b855260048501610583565b03925af18015610aa057610a74575b506109d6565b610a93905f3d8111610a99575b610a8b818361052c565b81019061055b565b5f610a6e565b503d610a81565b6105b5565b61050a56","linkReferences":{}},"methodIdentifiers":{"attemptReentrantBurn()":"4bfd5440","attemptReentrantMint()":"255d3a0a","callCount()":"4b28f9a2","mintBurn()":"1221c038","recursiveBurn()":"eccefda3","recursiveMint()":"64ca9ac4","resetCallCount()":"9485b8f0","token()":"fc0c546a"},"id":96}