{"abi":[{"type":"constructor","inputs":[{"name":"initialAuthority","type":"address","internalType":"address"}],"stateMutability":"nonpayable"},{"type":"function","name":"authority","inputs":[],"outputs":[{"name":"","type":"address","internalType":"address"}],"stateMutability":"view"},{"type":"function","name":"isConsumingScheduledOp","inputs":[],"outputs":[{"name":"","type":"bytes4","internalType":"bytes4"}],"stateMutability":"view"},{"type":"function","name":"lock","inputs":[{"name":"from","type":"address","internalType":"address"},{"name":"token","type":"address","internalType":"address"},{"name":"amount","type":"uint256","internalType":"uint256"}],"outputs":[],"stateMutability":"nonpayable"},{"type":"function","name":"lockCallCount","inputs":[],"outputs":[{"name":"","type":"uint256","internalType":"uint256"}],"stateMutability":"view"},{"type":"function","name":"lockCalls","inputs":[{"name":"","type":"address","internalType":"address"},{"name":"","type":"address","internalType":"address"}],"outputs":[{"name":"","type":"uint256","internalType":"uint256"}],"stateMutability":"view"},{"type":"function","name":"resetCallCounts","inputs":[],"outputs":[],"stateMutability":"nonpayable"},{"type":"function","name":"setAuthority","inputs":[{"name":"newAuthority","type":"address","internalType":"address"}],"outputs":[],"stateMutability":"nonpayable"},{"type":"function","name":"setShouldRevertOnLock","inputs":[{"name":"shouldRevert","type":"bool","internalType":"bool"}],"outputs":[],"stateMutability":"nonpayable"},{"type":"function","name":"setShouldRevertOnUnlock","inputs":[{"name":"shouldRevert","type":"bool","internalType":"bool"}],"outputs":[],"stateMutability":"nonpayable"},{"type":"function","name":"shouldRevertOnLock","inputs":[],"outputs":[{"name":"","type":"bool","internalType":"bool"}],"stateMutability":"view"},{"type":"function","name":"shouldRevertOnUnlock","inputs":[],"outputs":[{"name":"","type":"bool","internalType":"bool"}],"stateMutability":"view"},{"type":"function","name":"unlock","inputs":[{"name":"to","type":"address","internalType":"address"},{"name":"token","type":"address","internalType":"address"},{"name":"amount","type":"uint256","internalType":"uint256"}],"outputs":[],"stateMutability":"nonpayable"},{"type":"function","name":"unlockCallCount","inputs":[],"outputs":[{"name":"","type":"uint256","internalType":"uint256"}],"stateMutability":"view"},{"type":"function","name":"unlockCalls","inputs":[{"name":"","type":"address","internalType":"address"},{"name":"","type":"address","internalType":"address"}],"outputs":[{"name":"","type":"uint256","internalType":"uint256"}],"stateMutability":"view"},{"type":"event","name":"AuthorityUpdated","inputs":[{"name":"authority","type":"address","indexed":false,"internalType":"address"}],"anonymous":false},{"type":"event","name":"LockCalled","inputs":[{"name":"from","type":"address","indexed":false,"internalType":"address"},{"name":"token","type":"address","indexed":false,"internalType":"address"},{"name":"amount","type":"uint256","indexed":false,"internalType":"uint256"}],"anonymous":false},{"type":"event","name":"UnlockCalled","inputs":[{"name":"to","type":"address","indexed":false,"internalType":"address"},{"name":"token","type":"address","indexed":false,"internalType":"address"},{"name":"amount","type":"uint256","indexed":false,"internalType":"uint256"}],"anonymous":false},{"type":"error","name":"AccessManagedInvalidAuthority","inputs":[{"name":"authority","type":"address","internalType":"address"}]},{"type":"error","name":"AccessManagedRequiredDelay","inputs":[{"name":"caller","type":"address","internalType":"address"},{"name":"delay","type":"uint32","internalType":"uint32"}]},{"type":"error","name":"AccessManagedUnauthorized","inputs":[{"name":"caller","type":"address","internalType":"address"}]},{"type":"error","name":"ReentrancyGuardReentrantCall","inputs":[]}],"bytecode":{"object":"0x60806040523461002f576100196100146100f4565b6101ff565b610021610034565b6112e46103a082396112e490f35b61003a565b60405190565b5f80fd5b601f801991011690565b634e487b7160e01b5f52604160045260245ffd5b906100669061003e565b810190811060018060401b0382111761007e57604052565b610048565b9061009661008f610034565b928361005c565b565b5f80fd5b60018060a01b031690565b6100b09061009c565b90565b6100bc816100a7565b036100c357565b5f80fd5b905051906100d4826100b3565b565b906020828203126100ef576100ec915f016100c7565b90565b610098565b6101126116848038038061010781610083565b9283398101906100d6565b90565b5f1b90565b9061012660ff91610115565b9181191691161790565b151590565b61013e90610130565b90565b90565b9061015961015461016092610135565b610141565b825461011a565b9055565b60081b90565b9061017761ff0091610164565b9181191691161790565b9061019661019161019d92610135565b610141565b825461016a565b9055565b906101ad5f1991610115565b9181191691161790565b90565b90565b90565b6101d46101cf6101d9926101b7565b6101bd565b6101ba565b90565b90565b906101f46101ef6101fb926101c0565b6101dc565b82546101a1565b9055565b6102089061029e565b6102135f6004610144565b61021e5f6004610181565b6102295f60056101df565b6102345f60066101df565b565b90565b61024d61024861025292610236565b6101bd565b6101ba565b90565b61025f6001610239565b90565b61027661027161027b926101ba565b6101bd565b6101ba565b90565b9061029361028e61029a92610262565b6101dc565b82546101a1565b9055565b6102a7906102bb565b6102b96102b2610255565b600161027e565b565b6102c49061035a565b565b906102d760018060a01b0391610115565b9181191691161790565b6102f56102f06102fa9261009c565b6101bd565b61009c565b90565b610306906102e1565b90565b610312906102fd565b90565b90565b9061032d61032861033492610309565b610315565b82546102c6565b9055565b610341906100a7565b9052565b9190610358905f60208501940190610338565b565b610364815f610318565b61039a7f2f658b440c35314f52658ea8a740e05b284cdc84dc9ae01e891f21b8933e7cad91610391610034565b91829182610345565b0390a156fe60806040526004361015610013575b6106fc565b61001d5f356100fc565b8063115ec484146100f75780632433256a146100f257806333d76974146100ed57806359508f8f146100e85780637750c9f0146100e35780637a9e5e4b146100de5780638e6b22fa146100d95780638fb36037146100d4578063a51cdb40146100cf578063adeb7a6d146100ca578063bac5a6c0146100c5578063bf7e214f146100c0578063dff492a0146100bb5763fa0e17730361000e576106c7565b610684565b61064f565b6105f8565b6105b4565b61056f565b610519565b6104b6565b610426565b6103d4565b6103a0565b610310565b610297565b61024d565b60e01c90565b60405190565b5f80fd5b5f80fd5b60018060a01b031690565b61012490610110565b90565b6101308161011b565b0361013757565b5f80fd5b9050359061014882610127565b565b9190604083820312610172578061016661016f925f860161013b565b9360200161013b565b90565b61010c565b90565b61018e61018961019392610110565b610177565b610110565b90565b61019f9061017a565b90565b6101ab90610196565b90565b906101b8906101a2565b5f5260205260405f2090565b906101ce906101a2565b5f5260205260405f2090565b1c90565b90565b6101f19060086101f693026101da565b6101de565b90565b9061020491546101e1565b90565b6102206102259261021b6003935f946101ae565b6101c4565b6101f9565b90565b90565b61023490610228565b9052565b919061024b905f6020850194019061022b565b565b3461027e5761027a61026961026336600461014a565b90610207565b610271610102565b91829182610238565b0390f35b610108565b5f91031261028d57565b61010c565b5f0190565b346102c5576102a7366004610283565b6102af610779565b6102b7610102565b806102c181610292565b0390f35b610108565b151590565b6102d8816102ca565b036102df57565b5f80fd5b905035906102f0826102cf565b565b9060208282031261030b57610308915f016102e3565b90565b61010c565b3461033e576103286103233660046102f2565b6107ed565b610330610102565b8061033a81610292565b0390f35b610108565b61034c81610228565b0361035357565b5f80fd5b9050359061036482610343565b565b909160608284031261039b57610398610381845f850161013b565b9361038f816020860161013b565b93604001610357565b90565b61010c565b346103cf576103b96103b3366004610366565b91610a32565b6103c1610102565b806103cb81610292565b0390f35b610108565b34610403576103ed6103e7366004610366565b91610bbb565b6103f5610102565b806103ff81610292565b0390f35b610108565b906020828203126104215761041e915f0161013b565b90565b61010c565b346104545761043e610439366004610408565b610bc8565b610446610102565b8061045081610292565b0390f35b610108565b60ff1690565b61046f90600861047493026101da565b610459565b90565b90610482915461045f565b90565b61049160045f90610477565b90565b61049d906102ca565b9052565b91906104b4905f60208501940190610494565b565b346104e6576104c6366004610283565b6104e26104d1610485565b6104d9610102565b918291826104a1565b0390f35b610108565b63ffffffff60e01b1690565b610500906104eb565b9052565b9190610517905f602085019401906104f7565b565b3461054957610529366004610283565b610545610534610ccf565b61053c610102565b91829182610504565b0390f35b610108565b61056761056c926105626002935f946101ae565b6101c4565b6101f9565b90565b346105a05761059c61058b61058536600461014a565b9061054e565b610593610102565b91829182610238565b0390f35b610108565b6105b160055f906101f9565b90565b346105e4576105c4366004610283565b6105e06105cf6105a5565b6105d7610102565b91829182610238565b0390f35b610108565b6105f560065f906101f9565b90565b3461062857610608366004610283565b6106246106136105e9565b61061b610102565b91829182610238565b0390f35b610108565b6106369061011b565b9052565b919061064d905f6020850194019061062d565b565b3461067f5761065f366004610283565b61067b61066a610d36565b610672610102565b9182918261063a565b0390f35b610108565b346106b25761069c6106973660046102f2565b610d81565b6106a4610102565b806106ae81610292565b0390f35b610108565b6106c46004600190610477565b90565b346106f7576106d7366004610283565b6106f36106e26106b7565b6106ea610102565b918291826104a1565b0390f35b610108565b5f80fd5b90565b61071761071261071c92610700565b610177565b610228565b90565b5f1b90565b906107305f199161071f565b9181191691161790565b61074e61074961075392610228565b610177565b610228565b90565b90565b9061076e6107696107759261073a565b610756565b8254610724565b9055565b61078c6107855f610703565b6005610759565b61079f6107985f610703565b6006610759565b565b60081b90565b906107b461ff00916107a1565b9181191691161790565b6107c7906102ca565b90565b90565b906107e26107dd6107e9926107be565b6107ca565b82546107a7565b9055565b6107f89060046107cd565b565b9061081e929161081961080b610d8e565b610813610da1565b91610f90565b610820565b565b90610833929161082e611105565b610973565b61083b61114d565b565b60081c90565b61084f6108549161083d565b610459565b90565b6108619054610843565b90565b60209181520190565b5f7f4d6f636b20756e6c6f636b206661696c65640000000000000000000000000000910152565b6108a16012602092610864565b6108aa8161086d565b0190565b6108c39060208101905f818303910152610894565b90565b5f1c90565b6108d76108dc916108c6565b6101de565b90565b6108e990546108cb565b90565b634e487b7160e01b5f52601160045260245ffd5b61090f61091591939293610228565b92610228565b820180921161092057565b6108ec565b61092e90610228565b5f19811461093c5760010190565b6108ec565b60409061096a610971949695939661096060608401985f85019061062d565b602083019061062d565b019061022b565b565b9190916109806004610857565b610a10576109b6826109b06109a161099a600386906101ae565b87906101c4565b916109ab836108df565b610900565b90610759565b6109d26109cb6109c660066108df565b610925565b6006610759565b919091610a0b7fe2a422eadc275d1281d73ab3d439058de6a7a2f9e60129809ab94ddebc75d07993610a02610102565b93849384610941565b0390a1565b610a18610102565b62461bcd60e51b815280610a2e600482016108ae565b0390fd5b90610a3d92916107fa565b565b90610a639291610a5e610a50610d8e565b610a58610da1565b91610f90565b610a65565b565b90610a789291610a73611105565b610afc565b610a8061114d565b565b610a8e610a93916108c6565b610459565b90565b610aa09054610a82565b90565b5f7f4d6f636b206c6f636b206661696c656400000000000000000000000000000000910152565b610ad76010602092610864565b610ae081610aa3565b0190565b610af99060208101905f818303910152610aca565b90565b919091610b096004610a96565b610b9957610b3f82610b39610b2a610b23600286906101ae565b87906101c4565b91610b34836108df565b610900565b90610759565b610b5b610b54610b4f60056108df565b610925565b6005610759565b919091610b947f895f41a076f0bfd968770ebfe6b8819fb89700e74bba4a75e7c5973c6e197c9393610b8b610102565b93849384610941565b0390a1565b610ba1610102565b62461bcd60e51b815280610bb760048201610ae4565b0390fd5b90610bc69291610a3f565b565b610bd0610d8e565b80610bea610be4610bdf610d36565b61011b565b9161011b565b03610c335750803b610c04610bfe5f610703565b91610228565b14610c1457610c129061119f565b565b610c2f905f9182916361798f2f60e11b83526004830161063a565b0390fd5b610c4d905f91829162d1953b60e31b83526004830161063a565b0390fd5b5f90565b60a01c90565b610c67610c6c91610c55565b610459565b90565b610c799054610c5b565b90565b60e01b90565b610c96610c91610c9b92610700565b610c7c565b6104eb565b90565b610ca790610196565b90565b63ffffffff1690565b610cc7610cc2610ccc92610caa565b610c7c565b6104eb565b90565b610cd7610c51565b50610ce15f610c6f565b5f14610cf857610cf4638fb36037610cb3565b5b90565b610d015f610c82565b610cf5565b5f90565b60018060a01b031690565b610d21610d26916108c6565b610d0a565b90565b610d339054610d15565b90565b610d3e610d06565b50610d485f610d29565b90565b90610d5760ff9161071f565b9181191691161790565b90610d76610d71610d7d926107be565b6107ca565b8254610d4b565b9055565b610d8c906004610d61565b565b610d96610d06565b503390565b36905f90565b610da9610d9b565b9050505f903690565b90565b610dc9610dc4610dce92610db2565b610177565b610228565b90565b5f80fd5b5f80fd5b90939293848311610df9578411610df4576001820201920390565b610dd5565b610dd1565b5090565b1b90565b90610e14610e1b9183610dfe565b91356104eb565b9060048110610e29575b5090565b610e419063ffffffff60e01b90600403600802610e02565b165f610e25565b610e5c610e57610e6192610700565b610177565b610caa565b90565b60a01b90565b90610e7960ff60a01b91610e64565b9181191691161790565b90610e98610e93610e9f926107be565b6107ca565b8254610e6a565b9055565b610eac9061017a565b90565b610eb890610ea3565b90565b610ec490610196565b90565b5f80fd5b601f801991011690565b634e487b7160e01b5f52604160045260245ffd5b90610ef390610ecb565b810190811067ffffffffffffffff821117610f0d57604052565b610ed5565b5f910312610f1c57565b61010c565b60209181520190565b90825f939282370152565b9190610f4f81610f4881610f5495610f21565b8095610f2a565b610ecb565b0190565b91610f7d939192610f7060408201945f83019061062d565b6020818503910152610f35565b90565b610f88610102565b3d5f823e3d90fd5b90610fe2610fda610f9f610d36565b84610fa930610c9e565b90610fd4610fce878a5f90610fc8610fc2600493610703565b92610db5565b92610dd9565b90610e06565b9261121e565b9190156102ca565b610fed575b50505050565b610fff610ff95f610e48565b91610caa565b115f146110bb5761101160015f610e83565b61102961102461101f610d36565b610eaf565b610ebb565b6394c7d7ee92919392813b156110b6575f61105791611062829661104b610102565b98899788968795610c7c565b855260048501610f58565b03925af180156110b157611085575b5061107c5f5f610e83565b5f808080610fe7565b6110a4905f3d81116110aa575b61109c8183610ee9565b810190610f12565b5f611071565b503d611092565b610f80565b610ec7565b6110d5825f91829162d1953b60e31b83526004830161063a565b0390fd5b90565b6110f06110eb6110f5926110d9565b610177565b610228565b90565b61110260026110dc565b90565b61110d61129e565b61111f6111186110f8565b6001610759565b565b90565b61113861113361113d92611121565b610177565b610228565b90565b61114a6001611124565b90565b61115f611158611140565b6001610759565b565b9061117260018060a01b039161071f565b9181191691161790565b90565b9061119461118f61119b926101a2565b61117c565b8254611161565b9055565b6111a9815f61117f565b6111df7f2f658b440c35314f52658ea8a740e05b284cdc84dc9ae01e891f21b8933e7cad916111d6610102565b9182918261063a565b0390a1565b5f90565b5f90565b60409061121561121c949695939661120b60608401985f85019061062d565b602083019061062d565b01906104f7565b565b5f90604092949593956112716112326111e4565b9761126261123e6111e8565b989193611249610102565b94859360046020860163b700961360e01b8152016111ec565b60208201810382520382610ee9565b9082805282602052602082519201905afa611289575b565b9150505f51906020518060201c150290611287565b6112a860016108df565b6112c16112bb6112b66110f8565b610228565b91610228565b146112c857565b5f633ee5aeb560e01b8152806112e060048201610292565b0390fd","linkReferences":{}},"methodIdentifiers":{"authority()":"bf7e214f","isConsumingScheduledOp()":"8fb36037","lock(address,address,uint256)":"7750c9f0","lockCallCount()":"adeb7a6d","lockCalls(address,address)":"a51cdb40","resetCallCounts()":"2433256a","setAuthority(address)":"7a9e5e4b","setShouldRevertOnLock(bool)":"dff492a0","setShouldRevertOnUnlock(bool)":"33d76974","shouldRevertOnLock()":"8e6b22fa","shouldRevertOnUnlock()":"fa0e1773","unlock(address,address,uint256)":"59508f8f","unlockCallCount()":"bac5a6c0","unlockCalls(address,address)":"115ec484"},"id":103}