{"abi":[{"type":"constructor","inputs":[{"name":"initialAuthority","type":"address","internalType":"address"}],"stateMutability":"nonpayable"},{"type":"function","name":"authority","inputs":[],"outputs":[{"name":"","type":"address","internalType":"address"}],"stateMutability":"view"},{"type":"function","name":"burn","inputs":[{"name":"from","type":"address","internalType":"address"},{"name":"token","type":"address","internalType":"address"},{"name":"amount","type":"uint256","internalType":"uint256"}],"outputs":[],"stateMutability":"nonpayable"},{"type":"function","name":"isConsumingScheduledOp","inputs":[],"outputs":[{"name":"","type":"bytes4","internalType":"bytes4"}],"stateMutability":"view"},{"type":"function","name":"mint","inputs":[{"name":"to","type":"address","internalType":"address"},{"name":"token","type":"address","internalType":"address"},{"name":"amount","type":"uint256","internalType":"uint256"}],"outputs":[],"stateMutability":"nonpayable"},{"type":"function","name":"setAuthority","inputs":[{"name":"newAuthority","type":"address","internalType":"address"}],"outputs":[],"stateMutability":"nonpayable"},{"type":"event","name":"AuthorityUpdated","inputs":[{"name":"authority","type":"address","indexed":false,"internalType":"address"}],"anonymous":false},{"type":"error","name":"AccessManagedInvalidAuthority","inputs":[{"name":"authority","type":"address","internalType":"address"}]},{"type":"error","name":"AccessManagedRequiredDelay","inputs":[{"name":"caller","type":"address","internalType":"address"},{"name":"delay","type":"uint32","internalType":"uint32"}]},{"type":"error","name":"AccessManagedUnauthorized","inputs":[{"name":"caller","type":"address","internalType":"address"}]},{"type":"error","name":"InvalidBurn","inputs":[]},{"type":"error","name":"InvalidMint","inputs":[]},{"type":"error","name":"ReentrancyGuardReentrantCall","inputs":[]}],"bytecode":{"object":"0x60806040523461002f576100196100146100f4565b610115565b610021610034565b610fbe6102ae8239610fbe90f35b61003a565b60405190565b5f80fd5b601f801991011690565b634e487b7160e01b5f52604160045260245ffd5b906100669061003e565b810190811060018060401b0382111761007e57604052565b610048565b9061009661008f610034565b928361005c565b565b5f80fd5b60018060a01b031690565b6100b09061009c565b90565b6100bc816100a7565b036100c357565b5f80fd5b905051906100d4826100b3565b565b906020828203126100ef576100ec915f016100c7565b90565b610098565b61011261126c8038038061010781610083565b9283398101906100d6565b90565b61011e906101ac565b565b90565b90565b90565b61013d61013861014292610120565b610126565b610123565b90565b61014f6001610129565b90565b5f1b90565b906101635f1991610152565b9181191691161790565b61018161017c61018692610123565b610126565b610123565b90565b90565b906101a161019c6101a89261016d565b610189565b8254610157565b9055565b6101b5906101c9565b6101c76101c0610145565b600161018c565b565b6101d290610268565b565b906101e560018060a01b0391610152565b9181191691161790565b6102036101fe6102089261009c565b610126565b61009c565b90565b610214906101ef565b90565b6102209061020b565b90565b90565b9061023b61023661024292610217565b610223565b82546101d4565b9055565b61024f906100a7565b9052565b9190610266905f60208501940190610246565b565b610272815f610226565b6102a87f2f658b440c35314f52658ea8a740e05b284cdc84dc9ae01e891f21b8933e7cad9161029f610034565b91829182610253565b0390a156fe60806040526004361015610013575b6102a1565b61001d5f3561006c565b80637a9e5e4b146100675780638fb3603714610062578063bf7e214f1461005d578063c6c3bbe6146100585763f6b911bc0361000e5761026d565b610239565b6101a4565b61014d565b6100dd565b60e01c90565b60405190565b5f80fd5b5f80fd5b60018060a01b031690565b61009490610080565b90565b6100a08161008b565b036100a757565b5f80fd5b905035906100b882610097565b565b906020828203126100d3576100d0915f016100ab565b90565b61007c565b5f0190565b3461010b576100f56100f03660046100ba565b6102c7565b6100fd610072565b80610107816100d8565b0390f35b610078565b5f91031261011a57565b61007c565b63ffffffff60e01b1690565b6101349061011f565b9052565b919061014b905f6020850194019061012b565b565b3461017d5761015d366004610110565b6101796101686103fc565b610170610072565b91829182610138565b0390f35b610078565b61018b9061008b565b9052565b91906101a2905f60208501940190610182565b565b346101d4576101b4366004610110565b6101d06101bf610468565b6101c7610072565b9182918261018f565b0390f35b610078565b90565b6101e5816101d9565b036101ec57565b5f80fd5b905035906101fd826101dc565b565b90916060828403126102345761023161021a845f85016100ab565b9361022881602086016100ab565b936040016101f0565b90565b61007c565b346102685761025261024c3660046101ff565b916107cb565b61025a610072565b80610264816100d8565b0390f35b610078565b3461029c576102866102803660046101ff565b91610a27565b61028e610072565b80610298816100d8565b0390f35b610078565b5f80fd5b90565b90565b6102bf6102ba6102c4926102a5565b6102a8565b6101d9565b90565b6102cf610a34565b806102e96102e36102de610468565b61008b565b9161008b565b036103325750803b6103036102fd5f6102ab565b916101d9565b146103135761031190610a90565b565b61032e905f9182916361798f2f60e11b83526004830161018f565b0390fd5b61034c905f91829162d1953b60e31b83526004830161018f565b0390fd5b5f90565b60a01c90565b60ff1690565b61036c61037191610354565b61035a565b90565b61037e9054610360565b90565b60e01b90565b61039b6103966103a0926102a5565b610381565b61011f565b90565b6103b76103b26103bc92610080565b6102a8565b610080565b90565b6103c8906103a3565b90565b6103d4906103bf565b90565b63ffffffff1690565b6103f46103ef6103f9926103d7565b610381565b61011f565b90565b610404610350565b5061040e5f610374565b5f1461042557610421638fb360376103e0565b5b90565b61042e5f610387565b610422565b5f90565b5f1c90565b60018060a01b031690565b61045361045891610437565b61043c565b90565b6104659054610447565b90565b610470610433565b5061047a5f61045b565b90565b906104a1929161049c61048e610a34565b610496610adb565b91610c74565b6104a3565b565b906104b692916104b1610e3e565b610607565b6104be610e86565b565b6104c9906103a3565b90565b6104d5906104c0565b90565b6104e1906103bf565b90565b5f80fd5b601f801991011690565b634e487b7160e01b5f52604160045260245ffd5b90610510906104e8565b810190811067ffffffffffffffff82111761052a57604052565b6104f2565b9050519061053c826101dc565b565b9060208282031261055757610554915f0161052f565b90565b61007c565b610564610072565b3d5f823e3d90fd5b5f91031261057657565b61007c565b610584906101d9565b9052565b9160206105a99294936105a260408201965f830190610182565b019061057b565b565b634e487b7160e01b5f52601160045260245ffd5b6105ce6105d4919392936101d9565b926101d9565b82018092116105df57565b6105ab565b156105eb57565b5f63201dc6f560e01b815280610603600482016100d8565b0390fd5b91610648602061061e610619856104cc565b6104d8565b6370a082319061063d8792610631610072565b95869485938493610381565b83526004830161018f565b03915afa9081156107c6575f91610798575b509161066d610668826104cc565b6104d8565b936340c10f19818496803b156107935761069a5f80946106a561068e610072565b9b8c9687958694610381565b845260048401610588565b03925af194851561078e576106c96020936106ce926106f598610762575b506104cc565b6104d8565b6106ea6370a082316106de610072565b97889485938493610381565b83526004830161018f565b03915afa801561075d5761071c610727926107219261072d965f9161072f575b50946105bf565b6101d9565b916101d9565b146105e4565b565b610750915060203d8111610756575b6107488183610506565b81019061053e565b5f610715565b503d61073e565b61055c565b610781905f3d8111610787575b6107798183610506565b81019061056c565b5f6106c3565b503d61076f565b61055c565b6104e4565b6107b9915060203d81116107bf575b6107b18183610506565b81019061053e565b5f61065a565b503d6107a7565b61055c565b906107d6929161047d565b565b906107fc92916107f76107e9610a34565b6107f1610adb565b91610c74565b6107fe565b565b90610811929161080c610e3e565b610863565b610819610e86565b565b61082a610830919392936101d9565b926101d9565b820391821161083b57565b6105ab565b1561084757565b5f63eeddf6ab60e01b81528061085f600482016100d8565b0390fd5b916108a4602061087a610875856104cc565b6104d8565b6370a0823190610899879261088d610072565b95869485938493610381565b83526004830161018f565b03915afa908115610a22575f916109f4575b50916108c96108c4826104cc565b6104d8565b936379cc6790818496803b156109ef576108f65f80946109016108ea610072565b9b8c9687958694610381565b845260048401610588565b03925af19485156109ea5761092560209361092a92610951986109be575b506104cc565b6104d8565b6109466370a0823161093a610072565b97889485938493610381565b83526004830161018f565b03915afa80156109b9576109786109839261097d92610989965f9161098b575b509461081b565b6101d9565b916101d9565b14610840565b565b6109ac915060203d81116109b2575b6109a48183610506565b81019061053e565b5f610971565b503d61099a565b61055c565b6109dd905f3d81116109e3575b6109d58183610506565b81019061056c565b5f61091f565b503d6109cb565b61055c565b6104e4565b610a15915060203d8111610a1b575b610a0d8183610506565b81019061053e565b5f6108b6565b503d610a03565b61055c565b90610a3292916107d8565b565b610a3c610433565b503390565b5f1b90565b90610a5760018060a01b0391610a41565b9181191691161790565b610a6a906103bf565b90565b90565b90610a85610a80610a8c92610a61565b610a6d565b8254610a46565b9055565b610a9a815f610a70565b610ad07f2f658b440c35314f52658ea8a740e05b284cdc84dc9ae01e891f21b8933e7cad91610ac7610072565b9182918261018f565b0390a1565b36905f90565b610ae3610ad5565b9050505f903690565b90565b610b03610afe610b0892610aec565b6102a8565b6101d9565b90565b5f80fd5b5f80fd5b90939293848311610b33578411610b2e576001820201920390565b610b0f565b610b0b565b5090565b1b90565b90610b4e610b559183610b38565b913561011f565b9060048110610b63575b5090565b610b7b9063ffffffff60e01b90600403600802610b3c565b165f610b5f565b151590565b610b9b610b96610ba0926102a5565b6102a8565b6103d7565b90565b60a01b90565b90610bb860ff60a01b91610ba3565b9181191691161790565b610bcb90610b82565b90565b90565b90610be6610be1610bed92610bc2565b610bce565b8254610ba9565b9055565b610bfa906103a3565b90565b610c0690610bf1565b90565b610c12906103bf565b90565b60209181520190565b90825f939282370152565b9190610c4381610c3c81610c4895610c15565b8095610c1e565b6104e8565b0190565b91610c71939192610c6460408201945f830190610182565b6020818503910152610c29565b90565b90610cc6610cbe610c83610468565b84610c8d306103cb565b90610cb8610cb2878a5f90610cac610ca66004936102ab565b92610aef565b92610b13565b90610b40565b92610ed4565b919015610b82565b610cd1575b50505050565b610ce3610cdd5f610b87565b916103d7565b115f14610d9f57610cf560015f610bd1565b610d0d610d08610d03610468565b610bfd565b610c09565b6394c7d7ee92919392813b15610d9a575f610d3b91610d468296610d2f610072565b98899788968795610381565b855260048501610c4c565b03925af18015610d9557610d69575b50610d605f5f610bd1565b5f808080610ccb565b610d88905f3d8111610d8e575b610d808183610506565b81019061056c565b5f610d55565b503d610d76565b61055c565b6104e4565b610db9825f91829162d1953b60e31b83526004830161018f565b0390fd5b90565b610dd4610dcf610dd992610dbd565b6102a8565b6101d9565b90565b610de66002610dc0565b90565b90610df55f1991610a41565b9181191691161790565b610e13610e0e610e18926101d9565b6102a8565b6101d9565b90565b90565b90610e33610e2e610e3a92610dff565b610e1b565b8254610de9565b9055565b610e46610f78565b610e58610e51610ddc565b6001610e1e565b565b90565b610e71610e6c610e7692610e5a565b6102a8565b6101d9565b90565b610e836001610e5d565b90565b610e98610e91610e79565b6001610e1e565b565b5f90565b5f90565b604090610ecb610ed29496959396610ec160608401985f850190610182565b6020830190610182565b019061012b565b565b5f9060409294959395610f27610ee8610e9a565b97610f18610ef4610e9e565b989193610eff610072565b94859360046020860163b700961360e01b815201610ea2565b60208201810382520382610506565b9082805282602052602082519201905afa610f3f575b565b9150505f51906020518060201c150290610f3d565b90565b610f63610f6891610437565b610f54565b90565b610f759054610f57565b90565b610f826001610f6b565b610f9b610f95610f90610ddc565b6101d9565b916101d9565b14610fa257565b5f633ee5aeb560e01b815280610fba600482016100d8565b0390fd","linkReferences":{}},"methodIdentifiers":{"authority()":"bf7e214f","burn(address,address,uint256)":"f6b911bc","isConsumingScheduledOp()":"8fb36037","mint(address,address,uint256)":"c6c3bbe6","setAuthority(address)":"7a9e5e4b"},"id":74}